{
	"contracts/StakeTokenNFT.sol": {
		"StakeToken": {
			"abi": [
				{
					"inputs": [
						{
							"internalType": "address",
							"name": "initialOwner",
							"type": "address"
						}
					],
					"stateMutability": "nonpayable",
					"type": "constructor"
				},
				{
					"inputs": [],
					"name": "ERC721EnumerableForbiddenBatchMint",
					"type": "error"
				},
				{
					"inputs": [
						{
							"internalType": "address",
							"name": "sender",
							"type": "address"
						},
						{
							"internalType": "uint256",
							"name": "tokenId",
							"type": "uint256"
						},
						{
							"internalType": "address",
							"name": "owner",
							"type": "address"
						}
					],
					"name": "ERC721IncorrectOwner",
					"type": "error"
				},
				{
					"inputs": [
						{
							"internalType": "address",
							"name": "operator",
							"type": "address"
						},
						{
							"internalType": "uint256",
							"name": "tokenId",
							"type": "uint256"
						}
					],
					"name": "ERC721InsufficientApproval",
					"type": "error"
				},
				{
					"inputs": [
						{
							"internalType": "address",
							"name": "approver",
							"type": "address"
						}
					],
					"name": "ERC721InvalidApprover",
					"type": "error"
				},
				{
					"inputs": [
						{
							"internalType": "address",
							"name": "operator",
							"type": "address"
						}
					],
					"name": "ERC721InvalidOperator",
					"type": "error"
				},
				{
					"inputs": [
						{
							"internalType": "address",
							"name": "owner",
							"type": "address"
						}
					],
					"name": "ERC721InvalidOwner",
					"type": "error"
				},
				{
					"inputs": [
						{
							"internalType": "address",
							"name": "receiver",
							"type": "address"
						}
					],
					"name": "ERC721InvalidReceiver",
					"type": "error"
				},
				{
					"inputs": [
						{
							"internalType": "address",
							"name": "sender",
							"type": "address"
						}
					],
					"name": "ERC721InvalidSender",
					"type": "error"
				},
				{
					"inputs": [
						{
							"internalType": "uint256",
							"name": "tokenId",
							"type": "uint256"
						}
					],
					"name": "ERC721NonexistentToken",
					"type": "error"
				},
				{
					"inputs": [
						{
							"internalType": "address",
							"name": "owner",
							"type": "address"
						},
						{
							"internalType": "uint256",
							"name": "index",
							"type": "uint256"
						}
					],
					"name": "ERC721OutOfBoundsIndex",
					"type": "error"
				},
				{
					"inputs": [],
					"name": "EnforcedPause",
					"type": "error"
				},
				{
					"inputs": [],
					"name": "ExpectedPause",
					"type": "error"
				},
				{
					"inputs": [
						{
							"internalType": "address",
							"name": "owner",
							"type": "address"
						}
					],
					"name": "OwnableInvalidOwner",
					"type": "error"
				},
				{
					"inputs": [
						{
							"internalType": "address",
							"name": "account",
							"type": "address"
						}
					],
					"name": "OwnableUnauthorizedAccount",
					"type": "error"
				},
				{
					"anonymous": false,
					"inputs": [
						{
							"indexed": true,
							"internalType": "address",
							"name": "owner",
							"type": "address"
						},
						{
							"indexed": true,
							"internalType": "address",
							"name": "approved",
							"type": "address"
						},
						{
							"indexed": true,
							"internalType": "uint256",
							"name": "tokenId",
							"type": "uint256"
						}
					],
					"name": "Approval",
					"type": "event"
				},
				{
					"anonymous": false,
					"inputs": [
						{
							"indexed": true,
							"internalType": "address",
							"name": "owner",
							"type": "address"
						},
						{
							"indexed": true,
							"internalType": "address",
							"name": "operator",
							"type": "address"
						},
						{
							"indexed": false,
							"internalType": "bool",
							"name": "approved",
							"type": "bool"
						}
					],
					"name": "ApprovalForAll",
					"type": "event"
				},
				{
					"anonymous": false,
					"inputs": [
						{
							"indexed": true,
							"internalType": "address",
							"name": "previousOwner",
							"type": "address"
						},
						{
							"indexed": true,
							"internalType": "address",
							"name": "newOwner",
							"type": "address"
						}
					],
					"name": "OwnershipTransferred",
					"type": "event"
				},
				{
					"anonymous": false,
					"inputs": [
						{
							"indexed": false,
							"internalType": "address",
							"name": "account",
							"type": "address"
						}
					],
					"name": "Paused",
					"type": "event"
				},
				{
					"anonymous": false,
					"inputs": [
						{
							"indexed": true,
							"internalType": "address",
							"name": "from",
							"type": "address"
						},
						{
							"indexed": true,
							"internalType": "address",
							"name": "to",
							"type": "address"
						},
						{
							"indexed": true,
							"internalType": "uint256",
							"name": "tokenId",
							"type": "uint256"
						}
					],
					"name": "Transfer",
					"type": "event"
				},
				{
					"anonymous": false,
					"inputs": [
						{
							"indexed": false,
							"internalType": "address",
							"name": "account",
							"type": "address"
						}
					],
					"name": "Unpaused",
					"type": "event"
				},
				{
					"inputs": [
						{
							"internalType": "address",
							"name": "",
							"type": "address"
						}
					],
					"name": "allowList",
					"outputs": [
						{
							"internalType": "bool",
							"name": "",
							"type": "bool"
						}
					],
					"stateMutability": "view",
					"type": "function"
				},
				{
					"inputs": [],
					"name": "allowListMint",
					"outputs": [],
					"stateMutability": "payable",
					"type": "function"
				},
				{
					"inputs": [],
					"name": "allowListMintOpen",
					"outputs": [
						{
							"internalType": "bool",
							"name": "",
							"type": "bool"
						}
					],
					"stateMutability": "view",
					"type": "function"
				},
				{
					"inputs": [
						{
							"internalType": "address",
							"name": "to",
							"type": "address"
						},
						{
							"internalType": "uint256",
							"name": "tokenId",
							"type": "uint256"
						}
					],
					"name": "approve",
					"outputs": [],
					"stateMutability": "nonpayable",
					"type": "function"
				},
				{
					"inputs": [
						{
							"internalType": "address",
							"name": "owner",
							"type": "address"
						}
					],
					"name": "balanceOf",
					"outputs": [
						{
							"internalType": "uint256",
							"name": "",
							"type": "uint256"
						}
					],
					"stateMutability": "view",
					"type": "function"
				},
				{
					"inputs": [
						{
							"internalType": "bool",
							"name": "_publicMintOpen",
							"type": "bool"
						},
						{
							"internalType": "bool",
							"name": "_allowListMintOpen",
							"type": "bool"
						}
					],
					"name": "editMintWindows",
					"outputs": [],
					"stateMutability": "nonpayable",
					"type": "function"
				},
				{
					"inputs": [
						{
							"internalType": "uint256",
							"name": "tokenId",
							"type": "uint256"
						}
					],
					"name": "getApproved",
					"outputs": [
						{
							"internalType": "address",
							"name": "",
							"type": "address"
						}
					],
					"stateMutability": "view",
					"type": "function"
				},
				{
					"inputs": [
						{
							"internalType": "address",
							"name": "owner",
							"type": "address"
						},
						{
							"internalType": "address",
							"name": "operator",
							"type": "address"
						}
					],
					"name": "isApprovedForAll",
					"outputs": [
						{
							"internalType": "bool",
							"name": "",
							"type": "bool"
						}
					],
					"stateMutability": "view",
					"type": "function"
				},
				{
					"inputs": [],
					"name": "name",
					"outputs": [
						{
							"internalType": "string",
							"name": "",
							"type": "string"
						}
					],
					"stateMutability": "view",
					"type": "function"
				},
				{
					"inputs": [],
					"name": "owner",
					"outputs": [
						{
							"internalType": "address",
							"name": "",
							"type": "address"
						}
					],
					"stateMutability": "view",
					"type": "function"
				},
				{
					"inputs": [
						{
							"internalType": "uint256",
							"name": "tokenId",
							"type": "uint256"
						}
					],
					"name": "ownerOf",
					"outputs": [
						{
							"internalType": "address",
							"name": "",
							"type": "address"
						}
					],
					"stateMutability": "view",
					"type": "function"
				},
				{
					"inputs": [],
					"name": "pause",
					"outputs": [],
					"stateMutability": "nonpayable",
					"type": "function"
				},
				{
					"inputs": [],
					"name": "paused",
					"outputs": [
						{
							"internalType": "bool",
							"name": "",
							"type": "bool"
						}
					],
					"stateMutability": "view",
					"type": "function"
				},
				{
					"inputs": [],
					"name": "publicMint",
					"outputs": [],
					"stateMutability": "payable",
					"type": "function"
				},
				{
					"inputs": [],
					"name": "publicMintOpen",
					"outputs": [
						{
							"internalType": "bool",
							"name": "",
							"type": "bool"
						}
					],
					"stateMutability": "view",
					"type": "function"
				},
				{
					"inputs": [],
					"name": "renounceOwnership",
					"outputs": [],
					"stateMutability": "nonpayable",
					"type": "function"
				},
				{
					"inputs": [
						{
							"internalType": "address",
							"name": "from",
							"type": "address"
						},
						{
							"internalType": "address",
							"name": "to",
							"type": "address"
						},
						{
							"internalType": "uint256",
							"name": "tokenId",
							"type": "uint256"
						}
					],
					"name": "safeTransferFrom",
					"outputs": [],
					"stateMutability": "nonpayable",
					"type": "function"
				},
				{
					"inputs": [
						{
							"internalType": "address",
							"name": "from",
							"type": "address"
						},
						{
							"internalType": "address",
							"name": "to",
							"type": "address"
						},
						{
							"internalType": "uint256",
							"name": "tokenId",
							"type": "uint256"
						},
						{
							"internalType": "bytes",
							"name": "data",
							"type": "bytes"
						}
					],
					"name": "safeTransferFrom",
					"outputs": [],
					"stateMutability": "nonpayable",
					"type": "function"
				},
				{
					"inputs": [
						{
							"internalType": "address[]",
							"name": "addresses",
							"type": "address[]"
						}
					],
					"name": "setAllowList",
					"outputs": [],
					"stateMutability": "nonpayable",
					"type": "function"
				},
				{
					"inputs": [
						{
							"internalType": "address",
							"name": "operator",
							"type": "address"
						},
						{
							"internalType": "bool",
							"name": "approved",
							"type": "bool"
						}
					],
					"name": "setApprovalForAll",
					"outputs": [],
					"stateMutability": "nonpayable",
					"type": "function"
				},
				{
					"inputs": [
						{
							"internalType": "bytes4",
							"name": "interfaceId",
							"type": "bytes4"
						}
					],
					"name": "supportsInterface",
					"outputs": [
						{
							"internalType": "bool",
							"name": "",
							"type": "bool"
						}
					],
					"stateMutability": "view",
					"type": "function"
				},
				{
					"inputs": [],
					"name": "symbol",
					"outputs": [
						{
							"internalType": "string",
							"name": "",
							"type": "string"
						}
					],
					"stateMutability": "view",
					"type": "function"
				},
				{
					"inputs": [
						{
							"internalType": "uint256",
							"name": "index",
							"type": "uint256"
						}
					],
					"name": "tokenByIndex",
					"outputs": [
						{
							"internalType": "uint256",
							"name": "",
							"type": "uint256"
						}
					],
					"stateMutability": "view",
					"type": "function"
				},
				{
					"inputs": [
						{
							"internalType": "address",
							"name": "owner",
							"type": "address"
						},
						{
							"internalType": "uint256",
							"name": "index",
							"type": "uint256"
						}
					],
					"name": "tokenOfOwnerByIndex",
					"outputs": [
						{
							"internalType": "uint256",
							"name": "",
							"type": "uint256"
						}
					],
					"stateMutability": "view",
					"type": "function"
				},
				{
					"inputs": [
						{
							"internalType": "uint256",
							"name": "tokenId",
							"type": "uint256"
						}
					],
					"name": "tokenURI",
					"outputs": [
						{
							"internalType": "string",
							"name": "",
							"type": "string"
						}
					],
					"stateMutability": "view",
					"type": "function"
				},
				{
					"inputs": [],
					"name": "totalSupply",
					"outputs": [
						{
							"internalType": "uint256",
							"name": "",
							"type": "uint256"
						}
					],
					"stateMutability": "view",
					"type": "function"
				},
				{
					"inputs": [
						{
							"internalType": "address",
							"name": "from",
							"type": "address"
						},
						{
							"internalType": "address",
							"name": "to",
							"type": "address"
						},
						{
							"internalType": "uint256",
							"name": "tokenId",
							"type": "uint256"
						}
					],
					"name": "transferFrom",
					"outputs": [],
					"stateMutability": "nonpayable",
					"type": "function"
				},
				{
					"inputs": [
						{
							"internalType": "address",
							"name": "newOwner",
							"type": "address"
						}
					],
					"name": "transferOwnership",
					"outputs": [],
					"stateMutability": "nonpayable",
					"type": "function"
				},
				{
					"inputs": [],
					"name": "unpause",
					"outputs": [],
					"stateMutability": "nonpayable",
					"type": "function"
				},
				{
					"inputs": [
						{
							"internalType": "address",
							"name": "_addr",
							"type": "address"
						}
					],
					"name": "withdraw",
					"outputs": [],
					"stateMutability": "nonpayable",
					"type": "function"
				}
			],
			"devdoc": {
				"errors": {
					"ERC721EnumerableForbiddenBatchMint()": [
						{
							"details": "Batch mint is not allowed."
						}
					],
					"ERC721IncorrectOwner(address,uint256,address)": [
						{
							"details": "Indicates an error related to the ownership over a particular token. Used in transfers.",
							"params": {
								"owner": "Address of the current owner of a token.",
								"sender": "Address whose tokens are being transferred.",
								"tokenId": "Identifier number of a token."
							}
						}
					],
					"ERC721InsufficientApproval(address,uint256)": [
						{
							"details": "Indicates a failure with the `operator`’s approval. Used in transfers.",
							"params": {
								"operator": "Address that may be allowed to operate on tokens without being their owner.",
								"tokenId": "Identifier number of a token."
							}
						}
					],
					"ERC721InvalidApprover(address)": [
						{
							"details": "Indicates a failure with the `approver` of a token to be approved. Used in approvals.",
							"params": {
								"approver": "Address initiating an approval operation."
							}
						}
					],
					"ERC721InvalidOperator(address)": [
						{
							"details": "Indicates a failure with the `operator` to be approved. Used in approvals.",
							"params": {
								"operator": "Address that may be allowed to operate on tokens without being their owner."
							}
						}
					],
					"ERC721InvalidOwner(address)": [
						{
							"details": "Indicates that an address can't be an owner. For example, `address(0)` is a forbidden owner in EIP-20. Used in balance queries.",
							"params": {
								"owner": "Address of the current owner of a token."
							}
						}
					],
					"ERC721InvalidReceiver(address)": [
						{
							"details": "Indicates a failure with the token `receiver`. Used in transfers.",
							"params": {
								"receiver": "Address to which tokens are being transferred."
							}
						}
					],
					"ERC721InvalidSender(address)": [
						{
							"details": "Indicates a failure with the token `sender`. Used in transfers.",
							"params": {
								"sender": "Address whose tokens are being transferred."
							}
						}
					],
					"ERC721NonexistentToken(uint256)": [
						{
							"details": "Indicates a `tokenId` whose `owner` is the zero address.",
							"params": {
								"tokenId": "Identifier number of a token."
							}
						}
					],
					"ERC721OutOfBoundsIndex(address,uint256)": [
						{
							"details": "An `owner`'s token query was out of bounds for `index`. NOTE: The owner being `address(0)` indicates a global out of bounds index."
						}
					],
					"EnforcedPause()": [
						{
							"details": "The operation failed because the contract is paused."
						}
					],
					"ExpectedPause()": [
						{
							"details": "The operation failed because the contract is not paused."
						}
					],
					"OwnableInvalidOwner(address)": [
						{
							"details": "The owner is not a valid owner account. (eg. `address(0)`)"
						}
					],
					"OwnableUnauthorizedAccount(address)": [
						{
							"details": "The caller account is not authorized to perform an operation."
						}
					]
				},
				"events": {
					"Approval(address,address,uint256)": {
						"details": "Emitted when `owner` enables `approved` to manage the `tokenId` token."
					},
					"ApprovalForAll(address,address,bool)": {
						"details": "Emitted when `owner` enables or disables (`approved`) `operator` to manage all of its assets."
					},
					"Paused(address)": {
						"details": "Emitted when the pause is triggered by `account`."
					},
					"Transfer(address,address,uint256)": {
						"details": "Emitted when `tokenId` token is transferred from `from` to `to`."
					},
					"Unpaused(address)": {
						"details": "Emitted when the pause is lifted by `account`."
					}
				},
				"kind": "dev",
				"methods": {
					"approve(address,uint256)": {
						"details": "See {IERC721-approve}."
					},
					"balanceOf(address)": {
						"details": "See {IERC721-balanceOf}."
					},
					"getApproved(uint256)": {
						"details": "See {IERC721-getApproved}."
					},
					"isApprovedForAll(address,address)": {
						"details": "See {IERC721-isApprovedForAll}."
					},
					"name()": {
						"details": "See {IERC721Metadata-name}."
					},
					"owner()": {
						"details": "Returns the address of the current owner."
					},
					"ownerOf(uint256)": {
						"details": "See {IERC721-ownerOf}."
					},
					"paused()": {
						"details": "Returns true if the contract is paused, and false otherwise."
					},
					"renounceOwnership()": {
						"details": "Leaves the contract without owner. It will not be possible to call `onlyOwner` functions. Can only be called by the current owner. NOTE: Renouncing ownership will leave the contract without an owner, thereby disabling any functionality that is only available to the owner."
					},
					"safeTransferFrom(address,address,uint256)": {
						"details": "See {IERC721-safeTransferFrom}."
					},
					"safeTransferFrom(address,address,uint256,bytes)": {
						"details": "See {IERC721-safeTransferFrom}."
					},
					"setApprovalForAll(address,bool)": {
						"details": "See {IERC721-setApprovalForAll}."
					},
					"symbol()": {
						"details": "See {IERC721Metadata-symbol}."
					},
					"tokenByIndex(uint256)": {
						"details": "See {IERC721Enumerable-tokenByIndex}."
					},
					"tokenOfOwnerByIndex(address,uint256)": {
						"details": "See {IERC721Enumerable-tokenOfOwnerByIndex}."
					},
					"tokenURI(uint256)": {
						"details": "See {IERC721Metadata-tokenURI}."
					},
					"totalSupply()": {
						"details": "See {IERC721Enumerable-totalSupply}."
					},
					"transferFrom(address,address,uint256)": {
						"details": "See {IERC721-transferFrom}."
					},
					"transferOwnership(address)": {
						"details": "Transfers ownership of the contract to a new account (`newOwner`). Can only be called by the current owner."
					}
				},
				"version": 1
			},
			"evm": {
				"assembly": "    /* \"contracts/StakeTokenNFT.sol\":358:3276  contract StakeToken is ERC721, ERC721Enumerable, ERC721Pausable, Ownable {... */\n  mstore(0x40, 0x80)\n    /* \"contracts/StakeTokenNFT.sol\":493:497  2000 */\n  0x07d0\n    /* \"contracts/StakeTokenNFT.sol\":473:497  uint256 maxSupply = 2000 */\n  0x0c\n  sstore\n    /* \"contracts/StakeTokenNFT.sol\":533:538  false */\n  0x00\n    /* \"contracts/StakeTokenNFT.sol\":504:538  bool public publicMintOpen = false */\n  0x0d\n  exp(0x0100, 0x00)\n  dup2\n  sload\n  dup2\n  0xff\n  mul\n  not\n  and\n  swap1\n  dup4\n  iszero\n  iszero\n  mul\n  or\n  swap1\n  sstore\n  pop\n    /* \"contracts/StakeTokenNFT.sol\":577:582  false */\n  0x00\n    /* \"contracts/StakeTokenNFT.sol\":545:582  bool public allowListMintOpen = false */\n  0x0d\n  exp(0x0100, 0x01)\n  dup2\n  sload\n  dup2\n  0xff\n  mul\n  not\n  and\n  swap1\n  dup4\n  iszero\n  iszero\n  mul\n  or\n  swap1\n  sstore\n  pop\n    /* \"contracts/StakeTokenNFT.sol\":642:751  constructor(address initialOwner)... */\n  callvalue\n  dup1\n  iszero\n  tag_1\n  jumpi\n  0x00\n  dup1\n  revert\ntag_1:\n  pop\n  mload(0x40)\n  sub(codesize, bytecodeSize)\n  dup1\n  bytecodeSize\n  dup4\n  codecopy\n  dup2\n  dup2\n  add\n  0x40\n  mstore\n  dup2\n  add\n  swap1\n  tag_2\n  swap2\n  swap1\n  tag_3\n  jump\t// in\ntag_2:\n    /* \"contracts/StakeTokenNFT.sol\":730:742  initialOwner */\n  dup1\n    /* \"@openzeppelin/contracts@5.0.1/token/ERC721/ERC721.sol\":1381:1494  constructor(string memory name_, string memory symbol_) {... */\n  mload(0x40)\n  dup1\n  0x40\n  add\n  0x40\n  mstore\n  dup1\n  0x0a\n  dup2\n  mstore\n  0x20\n  add\n  0x5374616b65546f6b656e00000000000000000000000000000000000000000000\n  dup2\n  mstore\n  pop\n  mload(0x40)\n  dup1\n  0x40\n  add\n  0x40\n  mstore\n  dup1\n  0x03\n  dup2\n  mstore\n  0x20\n  add\n  0x5354430000000000000000000000000000000000000000000000000000000000\n  dup2\n  mstore\n  pop\n    /* \"@openzeppelin/contracts@5.0.1/token/ERC721/ERC721.sol\":1455:1460  name_ */\n  dup2\n    /* \"@openzeppelin/contracts@5.0.1/token/ERC721/ERC721.sol\":1447:1452  _name */\n  0x00\n    /* \"@openzeppelin/contracts@5.0.1/token/ERC721/ERC721.sol\":1447:1460  _name = name_ */\n  swap1\n  dup2\n  tag_9\n  swap2\n  swap1\n  tag_10\n  jump\t// in\ntag_9:\n  pop\n    /* \"@openzeppelin/contracts@5.0.1/token/ERC721/ERC721.sol\":1480:1487  symbol_ */\n  dup1\n    /* \"@openzeppelin/contracts@5.0.1/token/ERC721/ERC721.sol\":1470:1477  _symbol */\n  0x01\n    /* \"@openzeppelin/contracts@5.0.1/token/ERC721/ERC721.sol\":1470:1487  _symbol = symbol_ */\n  swap1\n  dup2\n  tag_11\n  swap2\n  swap1\n  tag_10\n  jump\t// in\ntag_11:\n  pop\n    /* \"@openzeppelin/contracts@5.0.1/token/ERC721/ERC721.sol\":1381:1494  constructor(string memory name_, string memory symbol_) {... */\n  pop\n  pop\n    /* \"@openzeppelin/contracts@5.0.1/utils/Pausable.sol\":1241:1246  false */\n  0x00\n    /* \"@openzeppelin/contracts@5.0.1/utils/Pausable.sol\":1231:1238  _paused */\n  0x0a\n  0x00\n    /* \"@openzeppelin/contracts@5.0.1/utils/Pausable.sol\":1231:1246  _paused = false */\n  0x0100\n  exp\n  dup2\n  sload\n  dup2\n  0xff\n  mul\n  not\n  and\n  swap1\n  dup4\n  iszero\n  iszero\n  mul\n  or\n  swap1\n  sstore\n  pop\n    /* \"@openzeppelin/contracts@5.0.1/access/Ownable.sol\":1297:1298  0 */\n  0x00\n    /* \"@openzeppelin/contracts@5.0.1/access/Ownable.sol\":1273:1299  initialOwner == address(0) */\n  0xffffffffffffffffffffffffffffffffffffffff\n  and\n    /* \"@openzeppelin/contracts@5.0.1/access/Ownable.sol\":1273:1285  initialOwner */\n  dup2\n    /* \"@openzeppelin/contracts@5.0.1/access/Ownable.sol\":1273:1299  initialOwner == address(0) */\n  0xffffffffffffffffffffffffffffffffffffffff\n  and\n  sub\n    /* \"@openzeppelin/contracts@5.0.1/access/Ownable.sol\":1269:1364  if (initialOwner == address(0)) {... */\n  tag_14\n  jumpi\n    /* \"@openzeppelin/contracts@5.0.1/access/Ownable.sol\":1350:1351  0 */\n  0x00\n    /* \"@openzeppelin/contracts@5.0.1/access/Ownable.sol\":1322:1353  OwnableInvalidOwner(address(0)) */\n  mload(0x40)\n  0x1e4fbdf700000000000000000000000000000000000000000000000000000000\n  dup2\n  mstore\n  0x04\n  add\n  tag_15\n  swap2\n  swap1\n  tag_16\n  jump\t// in\ntag_15:\n  mload(0x40)\n  dup1\n  swap2\n  sub\n  swap1\n  revert\n    /* \"@openzeppelin/contracts@5.0.1/access/Ownable.sol\":1269:1364  if (initialOwner == address(0)) {... */\ntag_14:\n    /* \"@openzeppelin/contracts@5.0.1/access/Ownable.sol\":1373:1405  _transferOwnership(initialOwner) */\n  tag_17\n    /* \"@openzeppelin/contracts@5.0.1/access/Ownable.sol\":1392:1404  initialOwner */\n  dup2\n    /* \"@openzeppelin/contracts@5.0.1/access/Ownable.sol\":1373:1391  _transferOwnership */\n  shl(0x20, tag_18)\n    /* \"@openzeppelin/contracts@5.0.1/access/Ownable.sol\":1373:1405  _transferOwnership(initialOwner) */\n  0x20\n  shr\n  jump\t// in\ntag_17:\n    /* \"@openzeppelin/contracts@5.0.1/access/Ownable.sol\":1225:1412  constructor(address initialOwner) {... */\n  pop\n    /* \"contracts/StakeTokenNFT.sol\":642:751  constructor(address initialOwner)... */\n  pop\n    /* \"contracts/StakeTokenNFT.sol\":358:3276  contract StakeToken is ERC721, ERC721Enumerable, ERC721Pausable, Ownable {... */\n  jump(tag_20)\n    /* \"@openzeppelin/contracts@5.0.1/access/Ownable.sol\":2912:3099  function _transferOwnership(address newOwner) internal virtual {... */\ntag_18:\n    /* \"@openzeppelin/contracts@5.0.1/access/Ownable.sol\":2985:3001  address oldOwner */\n  0x00\n    /* \"@openzeppelin/contracts@5.0.1/access/Ownable.sol\":3004:3010  _owner */\n  0x0a\n  0x01\n  swap1\n  sload\n  swap1\n  0x0100\n  exp\n  swap1\n  div\n  0xffffffffffffffffffffffffffffffffffffffff\n  and\n    /* \"@openzeppelin/contracts@5.0.1/access/Ownable.sol\":2985:3010  address oldOwner = _owner */\n  swap1\n  pop\n    /* \"@openzeppelin/contracts@5.0.1/access/Ownable.sol\":3029:3037  newOwner */\n  dup2\n    /* \"@openzeppelin/contracts@5.0.1/access/Ownable.sol\":3020:3026  _owner */\n  0x0a\n  0x01\n    /* \"@openzeppelin/contracts@5.0.1/access/Ownable.sol\":3020:3037  _owner = newOwner */\n  0x0100\n  exp\n  dup2\n  sload\n  dup2\n  0xffffffffffffffffffffffffffffffffffffffff\n  mul\n  not\n  and\n  swap1\n  dup4\n  0xffffffffffffffffffffffffffffffffffffffff\n  and\n  mul\n  or\n  swap1\n  sstore\n  pop\n    /* \"@openzeppelin/contracts@5.0.1/access/Ownable.sol\":3083:3091  newOwner */\n  dup2\n    /* \"@openzeppelin/contracts@5.0.1/access/Ownable.sol\":3052:3092  OwnershipTransferred(oldOwner, newOwner) */\n  0xffffffffffffffffffffffffffffffffffffffff\n  and\n    /* \"@openzeppelin/contracts@5.0.1/access/Ownable.sol\":3073:3081  oldOwner */\n  dup2\n    /* \"@openzeppelin/contracts@5.0.1/access/Ownable.sol\":3052:3092  OwnershipTransferred(oldOwner, newOwner) */\n  0xffffffffffffffffffffffffffffffffffffffff\n  and\n  0x8be0079c531659141344cd1fd0a4f28419497f9722a3daafe3b4186f6b6457e0\n  mload(0x40)\n  mload(0x40)\n  dup1\n  swap2\n  sub\n  swap1\n  log3\n    /* \"@openzeppelin/contracts@5.0.1/access/Ownable.sol\":2975:3099  {... */\n  pop\n    /* \"@openzeppelin/contracts@5.0.1/access/Ownable.sol\":2912:3099  function _transferOwnership(address newOwner) internal virtual {... */\n  pop\n  jump\t// out\n    /* \"#utility.yul\":88:205   */\ntag_23:\n    /* \"#utility.yul\":197:198   */\n  0x00\n    /* \"#utility.yul\":194:195   */\n  dup1\n    /* \"#utility.yul\":187:199   */\n  revert\n    /* \"#utility.yul\":334:460   */\ntag_25:\n    /* \"#utility.yul\":371:378   */\n  0x00\n    /* \"#utility.yul\":411:453   */\n  0xffffffffffffffffffffffffffffffffffffffff\n    /* \"#utility.yul\":404:409   */\n  dup3\n    /* \"#utility.yul\":400:454   */\n  and\n    /* \"#utility.yul\":389:454   */\n  swap1\n  pop\n    /* \"#utility.yul\":334:460   */\n  swap2\n  swap1\n  pop\n  jump\t// out\n    /* \"#utility.yul\":466:562   */\ntag_26:\n    /* \"#utility.yul\":503:510   */\n  0x00\n    /* \"#utility.yul\":532:556   */\n  tag_56\n    /* \"#utility.yul\":550:555   */\n  dup3\n    /* \"#utility.yul\":532:556   */\n  tag_25\n  jump\t// in\ntag_56:\n    /* \"#utility.yul\":521:556   */\n  swap1\n  pop\n    /* \"#utility.yul\":466:562   */\n  swap2\n  swap1\n  pop\n  jump\t// out\n    /* \"#utility.yul\":568:690   */\ntag_27:\n    /* \"#utility.yul\":641:665   */\n  tag_58\n    /* \"#utility.yul\":659:664   */\n  dup2\n    /* \"#utility.yul\":641:665   */\n  tag_26\n  jump\t// in\ntag_58:\n    /* \"#utility.yul\":634:639   */\n  dup2\n    /* \"#utility.yul\":631:666   */\n  eq\n    /* \"#utility.yul\":621:684   */\n  tag_59\n  jumpi\n    /* \"#utility.yul\":680:681   */\n  0x00\n    /* \"#utility.yul\":677:678   */\n  dup1\n    /* \"#utility.yul\":670:682   */\n  revert\n    /* \"#utility.yul\":621:684   */\ntag_59:\n    /* \"#utility.yul\":568:690   */\n  pop\n  jump\t// out\n    /* \"#utility.yul\":696:839   */\ntag_28:\n    /* \"#utility.yul\":753:758   */\n  0x00\n    /* \"#utility.yul\":784:790   */\n  dup2\n    /* \"#utility.yul\":778:791   */\n  mload\n    /* \"#utility.yul\":769:791   */\n  swap1\n  pop\n    /* \"#utility.yul\":800:833   */\n  tag_61\n    /* \"#utility.yul\":827:832   */\n  dup2\n    /* \"#utility.yul\":800:833   */\n  tag_27\n  jump\t// in\ntag_61:\n    /* \"#utility.yul\":696:839   */\n  swap3\n  swap2\n  pop\n  pop\n  jump\t// out\n    /* \"#utility.yul\":845:1196   */\ntag_3:\n    /* \"#utility.yul\":915:921   */\n  0x00\n    /* \"#utility.yul\":964:966   */\n  0x20\n    /* \"#utility.yul\":952:961   */\n  dup3\n    /* \"#utility.yul\":943:950   */\n  dup5\n    /* \"#utility.yul\":939:962   */\n  sub\n    /* \"#utility.yul\":935:967   */\n  slt\n    /* \"#utility.yul\":932:1051   */\n  iszero\n  tag_63\n  jumpi\n    /* \"#utility.yul\":970:1049   */\n  tag_64\n  tag_23\n  jump\t// in\ntag_64:\n    /* \"#utility.yul\":932:1051   */\ntag_63:\n    /* \"#utility.yul\":1090:1091   */\n  0x00\n    /* \"#utility.yul\":1115:1179   */\n  tag_65\n    /* \"#utility.yul\":1171:1178   */\n  dup5\n    /* \"#utility.yul\":1162:1168   */\n  dup3\n    /* \"#utility.yul\":1151:1160   */\n  dup6\n    /* \"#utility.yul\":1147:1169   */\n  add\n    /* \"#utility.yul\":1115:1179   */\n  tag_28\n  jump\t// in\ntag_65:\n    /* \"#utility.yul\":1105:1179   */\n  swap2\n  pop\n    /* \"#utility.yul\":1061:1189   */\n  pop\n    /* \"#utility.yul\":845:1196   */\n  swap3\n  swap2\n  pop\n  pop\n  jump\t// out\n    /* \"#utility.yul\":1202:1301   */\ntag_29:\n    /* \"#utility.yul\":1254:1260   */\n  0x00\n    /* \"#utility.yul\":1288:1293   */\n  dup2\n    /* \"#utility.yul\":1282:1294   */\n  mload\n    /* \"#utility.yul\":1272:1294   */\n  swap1\n  pop\n    /* \"#utility.yul\":1202:1301   */\n  swap2\n  swap1\n  pop\n  jump\t// out\n    /* \"#utility.yul\":1307:1487   */\ntag_30:\n    /* \"#utility.yul\":1355:1432   */\n  0x4e487b7100000000000000000000000000000000000000000000000000000000\n    /* \"#utility.yul\":1352:1353   */\n  0x00\n    /* \"#utility.yul\":1345:1433   */\n  mstore\n    /* \"#utility.yul\":1452:1456   */\n  0x41\n    /* \"#utility.yul\":1449:1450   */\n  0x04\n    /* \"#utility.yul\":1442:1457   */\n  mstore\n    /* \"#utility.yul\":1476:1480   */\n  0x24\n    /* \"#utility.yul\":1473:1474   */\n  0x00\n    /* \"#utility.yul\":1466:1481   */\n  revert\n    /* \"#utility.yul\":1493:1673   */\ntag_31:\n    /* \"#utility.yul\":1541:1618   */\n  0x4e487b7100000000000000000000000000000000000000000000000000000000\n    /* \"#utility.yul\":1538:1539   */\n  0x00\n    /* \"#utility.yul\":1531:1619   */\n  mstore\n    /* \"#utility.yul\":1638:1642   */\n  0x22\n    /* \"#utility.yul\":1635:1636   */\n  0x04\n    /* \"#utility.yul\":1628:1643   */\n  mstore\n    /* \"#utility.yul\":1662:1666   */\n  0x24\n    /* \"#utility.yul\":1659:1660   */\n  0x00\n    /* \"#utility.yul\":1652:1667   */\n  revert\n    /* \"#utility.yul\":1679:1999   */\ntag_32:\n    /* \"#utility.yul\":1723:1729   */\n  0x00\n    /* \"#utility.yul\":1760:1761   */\n  0x02\n    /* \"#utility.yul\":1754:1758   */\n  dup3\n    /* \"#utility.yul\":1750:1762   */\n  div\n    /* \"#utility.yul\":1740:1762   */\n  swap1\n  pop\n    /* \"#utility.yul\":1807:1808   */\n  0x01\n    /* \"#utility.yul\":1801:1805   */\n  dup3\n    /* \"#utility.yul\":1797:1809   */\n  and\n    /* \"#utility.yul\":1828:1846   */\n  dup1\n    /* \"#utility.yul\":1818:1899   */\n  tag_70\n  jumpi\n    /* \"#utility.yul\":1884:1888   */\n  0x7f\n    /* \"#utility.yul\":1876:1882   */\n  dup3\n    /* \"#utility.yul\":1872:1889   */\n  and\n    /* \"#utility.yul\":1862:1889   */\n  swap2\n  pop\n    /* \"#utility.yul\":1818:1899   */\ntag_70:\n    /* \"#utility.yul\":1946:1948   */\n  0x20\n    /* \"#utility.yul\":1938:1944   */\n  dup3\n    /* \"#utility.yul\":1935:1949   */\n  lt\n    /* \"#utility.yul\":1915:1933   */\n  dup2\n    /* \"#utility.yul\":1912:1950   */\n  sub\n    /* \"#utility.yul\":1909:1993   */\n  tag_71\n  jumpi\n    /* \"#utility.yul\":1965:1983   */\n  tag_72\n  tag_31\n  jump\t// in\ntag_72:\n    /* \"#utility.yul\":1909:1993   */\ntag_71:\n    /* \"#utility.yul\":1730:1999   */\n  pop\n    /* \"#utility.yul\":1679:1999   */\n  swap2\n  swap1\n  pop\n  jump\t// out\n    /* \"#utility.yul\":2005:2146   */\ntag_33:\n    /* \"#utility.yul\":2054:2058   */\n  0x00\n    /* \"#utility.yul\":2077:2080   */\n  dup2\n    /* \"#utility.yul\":2069:2080   */\n  swap1\n  pop\n    /* \"#utility.yul\":2100:2103   */\n  dup2\n    /* \"#utility.yul\":2097:2098   */\n  0x00\n    /* \"#utility.yul\":2090:2104   */\n  mstore\n    /* \"#utility.yul\":2134:2138   */\n  0x20\n    /* \"#utility.yul\":2131:2132   */\n  0x00\n    /* \"#utility.yul\":2121:2139   */\n  keccak256\n    /* \"#utility.yul\":2113:2139   */\n  swap1\n  pop\n    /* \"#utility.yul\":2005:2146   */\n  swap2\n  swap1\n  pop\n  jump\t// out\n    /* \"#utility.yul\":2152:2245   */\ntag_34:\n    /* \"#utility.yul\":2189:2195   */\n  0x00\n    /* \"#utility.yul\":2236:2238   */\n  0x20\n    /* \"#utility.yul\":2231:2233   */\n  0x1f\n    /* \"#utility.yul\":2224:2229   */\n  dup4\n    /* \"#utility.yul\":2220:2234   */\n  add\n    /* \"#utility.yul\":2216:2239   */\n  div\n    /* \"#utility.yul\":2206:2239   */\n  swap1\n  pop\n    /* \"#utility.yul\":2152:2245   */\n  swap2\n  swap1\n  pop\n  jump\t// out\n    /* \"#utility.yul\":2251:2358   */\ntag_35:\n    /* \"#utility.yul\":2295:2303   */\n  0x00\n    /* \"#utility.yul\":2345:2350   */\n  dup3\n    /* \"#utility.yul\":2339:2343   */\n  dup3\n    /* \"#utility.yul\":2335:2351   */\n  shl\n    /* \"#utility.yul\":2314:2351   */\n  swap1\n  pop\n    /* \"#utility.yul\":2251:2358   */\n  swap3\n  swap2\n  pop\n  pop\n  jump\t// out\n    /* \"#utility.yul\":2364:2757   */\ntag_36:\n    /* \"#utility.yul\":2433:2439   */\n  0x00\n    /* \"#utility.yul\":2483:2484   */\n  0x08\n    /* \"#utility.yul\":2471:2481   */\n  dup4\n    /* \"#utility.yul\":2467:2485   */\n  mul\n    /* \"#utility.yul\":2506:2603   */\n  tag_77\n    /* \"#utility.yul\":2536:2602   */\n  0xffffffffffffffffffffffffffffffffffffffffffffffffffffffffffffffff\n    /* \"#utility.yul\":2525:2534   */\n  dup3\n    /* \"#utility.yul\":2506:2603   */\n  tag_35\n  jump\t// in\ntag_77:\n    /* \"#utility.yul\":2624:2663   */\n  tag_78\n    /* \"#utility.yul\":2654:2662   */\n  dup7\n    /* \"#utility.yul\":2643:2652   */\n  dup4\n    /* \"#utility.yul\":2624:2663   */\n  tag_35\n  jump\t// in\ntag_78:\n    /* \"#utility.yul\":2612:2663   */\n  swap6\n  pop\n    /* \"#utility.yul\":2696:2700   */\n  dup1\n    /* \"#utility.yul\":2692:2701   */\n  not\n    /* \"#utility.yul\":2685:2690   */\n  dup5\n    /* \"#utility.yul\":2681:2702   */\n  and\n    /* \"#utility.yul\":2672:2702   */\n  swap4\n  pop\n    /* \"#utility.yul\":2745:2749   */\n  dup1\n    /* \"#utility.yul\":2735:2743   */\n  dup7\n    /* \"#utility.yul\":2731:2750   */\n  and\n    /* \"#utility.yul\":2724:2729   */\n  dup5\n    /* \"#utility.yul\":2721:2751   */\n  or\n    /* \"#utility.yul\":2711:2751   */\n  swap3\n  pop\n    /* \"#utility.yul\":2440:2757   */\n  pop\n  pop\n    /* \"#utility.yul\":2364:2757   */\n  swap4\n  swap3\n  pop\n  pop\n  pop\n  jump\t// out\n    /* \"#utility.yul\":2763:2840   */\ntag_37:\n    /* \"#utility.yul\":2800:2807   */\n  0x00\n    /* \"#utility.yul\":2829:2834   */\n  dup2\n    /* \"#utility.yul\":2818:2834   */\n  swap1\n  pop\n    /* \"#utility.yul\":2763:2840   */\n  swap2\n  swap1\n  pop\n  jump\t// out\n    /* \"#utility.yul\":2846:2906   */\ntag_38:\n    /* \"#utility.yul\":2874:2877   */\n  0x00\n    /* \"#utility.yul\":2895:2900   */\n  dup2\n    /* \"#utility.yul\":2888:2900   */\n  swap1\n  pop\n    /* \"#utility.yul\":2846:2906   */\n  swap2\n  swap1\n  pop\n  jump\t// out\n    /* \"#utility.yul\":2912:3054   */\ntag_39:\n    /* \"#utility.yul\":2962:2971   */\n  0x00\n    /* \"#utility.yul\":2995:3048   */\n  tag_82\n    /* \"#utility.yul\":3013:3047   */\n  tag_83\n    /* \"#utility.yul\":3022:3046   */\n  tag_84\n    /* \"#utility.yul\":3040:3045   */\n  dup5\n    /* \"#utility.yul\":3022:3046   */\n  tag_37\n  jump\t// in\ntag_84:\n    /* \"#utility.yul\":3013:3047   */\n  tag_38\n  jump\t// in\ntag_83:\n    /* \"#utility.yul\":2995:3048   */\n  tag_37\n  jump\t// in\ntag_82:\n    /* \"#utility.yul\":2982:3048   */\n  swap1\n  pop\n    /* \"#utility.yul\":2912:3054   */\n  swap2\n  swap1\n  pop\n  jump\t// out\n    /* \"#utility.yul\":3060:3135   */\ntag_40:\n    /* \"#utility.yul\":3103:3106   */\n  0x00\n    /* \"#utility.yul\":3124:3129   */\n  dup2\n    /* \"#utility.yul\":3117:3129   */\n  swap1\n  pop\n    /* \"#utility.yul\":3060:3135   */\n  swap2\n  swap1\n  pop\n  jump\t// out\n    /* \"#utility.yul\":3141:3410   */\ntag_41:\n    /* \"#utility.yul\":3251:3290   */\n  tag_87\n    /* \"#utility.yul\":3282:3289   */\n  dup4\n    /* \"#utility.yul\":3251:3290   */\n  tag_39\n  jump\t// in\ntag_87:\n    /* \"#utility.yul\":3312:3403   */\n  tag_88\n    /* \"#utility.yul\":3361:3402   */\n  tag_89\n    /* \"#utility.yul\":3385:3401   */\n  dup3\n    /* \"#utility.yul\":3361:3402   */\n  tag_40\n  jump\t// in\ntag_89:\n    /* \"#utility.yul\":3353:3359   */\n  dup5\n    /* \"#utility.yul\":3346:3350   */\n  dup5\n    /* \"#utility.yul\":3340:3351   */\n  sload\n    /* \"#utility.yul\":3312:3403   */\n  tag_36\n  jump\t// in\ntag_88:\n    /* \"#utility.yul\":3306:3310   */\n  dup3\n    /* \"#utility.yul\":3299:3404   */\n  sstore\n    /* \"#utility.yul\":3217:3410   */\n  pop\n    /* \"#utility.yul\":3141:3410   */\n  pop\n  pop\n  pop\n  jump\t// out\n    /* \"#utility.yul\":3416:3489   */\ntag_42:\n    /* \"#utility.yul\":3461:3464   */\n  0x00\n    /* \"#utility.yul\":3416:3489   */\n  swap1\n  jump\t// out\n    /* \"#utility.yul\":3495:3684   */\ntag_43:\n    /* \"#utility.yul\":3572:3604   */\n  tag_92\n  tag_42\n  jump\t// in\ntag_92:\n    /* \"#utility.yul\":3613:3678   */\n  tag_93\n    /* \"#utility.yul\":3671:3677   */\n  dup2\n    /* \"#utility.yul\":3663:3669   */\n  dup5\n    /* \"#utility.yul\":3657:3661   */\n  dup5\n    /* \"#utility.yul\":3613:3678   */\n  tag_41\n  jump\t// in\ntag_93:\n    /* \"#utility.yul\":3548:3684   */\n  pop\n    /* \"#utility.yul\":3495:3684   */\n  pop\n  pop\n  jump\t// out\n    /* \"#utility.yul\":3690:3876   */\ntag_44:\n    /* \"#utility.yul\":3750:3870   */\ntag_95:\n    /* \"#utility.yul\":3767:3770   */\n  dup2\n    /* \"#utility.yul\":3760:3765   */\n  dup2\n    /* \"#utility.yul\":3757:3771   */\n  lt\n    /* \"#utility.yul\":3750:3870   */\n  iszero\n  tag_97\n  jumpi\n    /* \"#utility.yul\":3821:3860   */\n  tag_98\n    /* \"#utility.yul\":3858:3859   */\n  0x00\n    /* \"#utility.yul\":3851:3856   */\n  dup3\n    /* \"#utility.yul\":3821:3860   */\n  tag_43\n  jump\t// in\ntag_98:\n    /* \"#utility.yul\":3794:3795   */\n  0x01\n    /* \"#utility.yul\":3787:3792   */\n  dup2\n    /* \"#utility.yul\":3783:3796   */\n  add\n    /* \"#utility.yul\":3774:3796   */\n  swap1\n  pop\n    /* \"#utility.yul\":3750:3870   */\n  jump(tag_95)\ntag_97:\n    /* \"#utility.yul\":3690:3876   */\n  pop\n  pop\n  jump\t// out\n    /* \"#utility.yul\":3882:4425   */\ntag_45:\n    /* \"#utility.yul\":3983:3985   */\n  0x1f\n    /* \"#utility.yul\":3978:3981   */\n  dup3\n    /* \"#utility.yul\":3975:3986   */\n  gt\n    /* \"#utility.yul\":3972:4418   */\n  iszero\n  tag_100\n  jumpi\n    /* \"#utility.yul\":4017:4055   */\n  tag_101\n    /* \"#utility.yul\":4049:4054   */\n  dup2\n    /* \"#utility.yul\":4017:4055   */\n  tag_33\n  jump\t// in\ntag_101:\n    /* \"#utility.yul\":4101:4130   */\n  tag_102\n    /* \"#utility.yul\":4119:4129   */\n  dup5\n    /* \"#utility.yul\":4101:4130   */\n  tag_34\n  jump\t// in\ntag_102:\n    /* \"#utility.yul\":4091:4099   */\n  dup2\n    /* \"#utility.yul\":4087:4131   */\n  add\n    /* \"#utility.yul\":4284:4286   */\n  0x20\n    /* \"#utility.yul\":4272:4282   */\n  dup6\n    /* \"#utility.yul\":4269:4287   */\n  lt\n    /* \"#utility.yul\":4266:4315   */\n  iszero\n  tag_103\n  jumpi\n    /* \"#utility.yul\":4305:4313   */\n  dup2\n    /* \"#utility.yul\":4290:4313   */\n  swap1\n  pop\n    /* \"#utility.yul\":4266:4315   */\ntag_103:\n    /* \"#utility.yul\":4328:4408   */\n  tag_104\n    /* \"#utility.yul\":4384:4406   */\n  tag_105\n    /* \"#utility.yul\":4402:4405   */\n  dup6\n    /* \"#utility.yul\":4384:4406   */\n  tag_34\n  jump\t// in\ntag_105:\n    /* \"#utility.yul\":4374:4382   */\n  dup4\n    /* \"#utility.yul\":4370:4407   */\n  add\n    /* \"#utility.yul\":4357:4368   */\n  dup3\n    /* \"#utility.yul\":4328:4408   */\n  tag_44\n  jump\t// in\ntag_104:\n    /* \"#utility.yul\":3987:4418   */\n  pop\n  pop\n    /* \"#utility.yul\":3972:4418   */\ntag_100:\n    /* \"#utility.yul\":3882:4425   */\n  pop\n  pop\n  pop\n  jump\t// out\n    /* \"#utility.yul\":4431:4548   */\ntag_46:\n    /* \"#utility.yul\":4485:4493   */\n  0x00\n    /* \"#utility.yul\":4535:4540   */\n  dup3\n    /* \"#utility.yul\":4529:4533   */\n  dup3\n    /* \"#utility.yul\":4525:4541   */\n  shr\n    /* \"#utility.yul\":4504:4541   */\n  swap1\n  pop\n    /* \"#utility.yul\":4431:4548   */\n  swap3\n  swap2\n  pop\n  pop\n  jump\t// out\n    /* \"#utility.yul\":4554:4723   */\ntag_47:\n    /* \"#utility.yul\":4598:4604   */\n  0x00\n    /* \"#utility.yul\":4631:4682   */\n  tag_108\n    /* \"#utility.yul\":4679:4680   */\n  0x00\n    /* \"#utility.yul\":4675:4681   */\n  not\n    /* \"#utility.yul\":4667:4672   */\n  dup5\n    /* \"#utility.yul\":4664:4665   */\n  0x08\n    /* \"#utility.yul\":4660:4673   */\n  mul\n    /* \"#utility.yul\":4631:4682   */\n  tag_46\n  jump\t// in\ntag_108:\n    /* \"#utility.yul\":4627:4683   */\n  not\n    /* \"#utility.yul\":4712:4716   */\n  dup1\n    /* \"#utility.yul\":4706:4710   */\n  dup4\n    /* \"#utility.yul\":4702:4717   */\n  and\n    /* \"#utility.yul\":4692:4717   */\n  swap2\n  pop\n    /* \"#utility.yul\":4605:4723   */\n  pop\n    /* \"#utility.yul\":4554:4723   */\n  swap3\n  swap2\n  pop\n  pop\n  jump\t// out\n    /* \"#utility.yul\":4728:5023   */\ntag_48:\n    /* \"#utility.yul\":4804:4808   */\n  0x00\n    /* \"#utility.yul\":4950:4979   */\n  tag_110\n    /* \"#utility.yul\":4975:4978   */\n  dup4\n    /* \"#utility.yul\":4969:4973   */\n  dup4\n    /* \"#utility.yul\":4950:4979   */\n  tag_47\n  jump\t// in\ntag_110:\n    /* \"#utility.yul\":4942:4979   */\n  swap2\n  pop\n    /* \"#utility.yul\":5012:5015   */\n  dup3\n    /* \"#utility.yul\":5009:5010   */\n  0x02\n    /* \"#utility.yul\":5005:5016   */\n  mul\n    /* \"#utility.yul\":4999:5003   */\n  dup3\n    /* \"#utility.yul\":4996:5017   */\n  or\n    /* \"#utility.yul\":4988:5017   */\n  swap1\n  pop\n    /* \"#utility.yul\":4728:5023   */\n  swap3\n  swap2\n  pop\n  pop\n  jump\t// out\n    /* \"#utility.yul\":5028:6423   */\ntag_10:\n    /* \"#utility.yul\":5145:5182   */\n  tag_112\n    /* \"#utility.yul\":5178:5181   */\n  dup3\n    /* \"#utility.yul\":5145:5182   */\n  tag_29\n  jump\t// in\ntag_112:\n    /* \"#utility.yul\":5247:5265   */\n  0xffffffffffffffff\n    /* \"#utility.yul\":5239:5245   */\n  dup2\n    /* \"#utility.yul\":5236:5266   */\n  gt\n    /* \"#utility.yul\":5233:5289   */\n  iszero\n  tag_113\n  jumpi\n    /* \"#utility.yul\":5269:5287   */\n  tag_114\n  tag_30\n  jump\t// in\ntag_114:\n    /* \"#utility.yul\":5233:5289   */\ntag_113:\n    /* \"#utility.yul\":5313:5351   */\n  tag_115\n    /* \"#utility.yul\":5345:5349   */\n  dup3\n    /* \"#utility.yul\":5339:5350   */\n  sload\n    /* \"#utility.yul\":5313:5351   */\n  tag_32\n  jump\t// in\ntag_115:\n    /* \"#utility.yul\":5398:5465   */\n  tag_116\n    /* \"#utility.yul\":5458:5464   */\n  dup3\n    /* \"#utility.yul\":5450:5456   */\n  dup3\n    /* \"#utility.yul\":5444:5448   */\n  dup6\n    /* \"#utility.yul\":5398:5465   */\n  tag_45\n  jump\t// in\ntag_116:\n    /* \"#utility.yul\":5492:5493   */\n  0x00\n    /* \"#utility.yul\":5516:5520   */\n  0x20\n    /* \"#utility.yul\":5503:5520   */\n  swap1\n  pop\n    /* \"#utility.yul\":5548:5550   */\n  0x1f\n    /* \"#utility.yul\":5540:5546   */\n  dup4\n    /* \"#utility.yul\":5537:5551   */\n  gt\n    /* \"#utility.yul\":5565:5566   */\n  0x01\n    /* \"#utility.yul\":5560:6178   */\n  dup2\n  eq\n  tag_118\n  jumpi\n    /* \"#utility.yul\":6222:6223   */\n  0x00\n    /* \"#utility.yul\":6239:6245   */\n  dup5\n    /* \"#utility.yul\":6236:6313   */\n  iszero\n  tag_119\n  jumpi\n    /* \"#utility.yul\":6288:6297   */\n  dup3\n    /* \"#utility.yul\":6283:6286   */\n  dup8\n    /* \"#utility.yul\":6279:6298   */\n  add\n    /* \"#utility.yul\":6273:6299   */\n  mload\n    /* \"#utility.yul\":6264:6299   */\n  swap1\n  pop\n    /* \"#utility.yul\":6236:6313   */\ntag_119:\n    /* \"#utility.yul\":6339:6406   */\n  tag_120\n    /* \"#utility.yul\":6399:6405   */\n  dup6\n    /* \"#utility.yul\":6392:6397   */\n  dup3\n    /* \"#utility.yul\":6339:6406   */\n  tag_48\n  jump\t// in\ntag_120:\n    /* \"#utility.yul\":6333:6337   */\n  dup7\n    /* \"#utility.yul\":6326:6407   */\n  sstore\n    /* \"#utility.yul\":6195:6417   */\n  pop\n    /* \"#utility.yul\":5530:6417   */\n  jump(tag_117)\n    /* \"#utility.yul\":5560:6178   */\ntag_118:\n    /* \"#utility.yul\":5612:5616   */\n  0x1f\n    /* \"#utility.yul\":5608:5617   */\n  not\n    /* \"#utility.yul\":5600:5606   */\n  dup5\n    /* \"#utility.yul\":5596:5618   */\n  and\n    /* \"#utility.yul\":5646:5683   */\n  tag_121\n    /* \"#utility.yul\":5678:5682   */\n  dup7\n    /* \"#utility.yul\":5646:5683   */\n  tag_33\n  jump\t// in\ntag_121:\n    /* \"#utility.yul\":5705:5706   */\n  0x00\n    /* \"#utility.yul\":5719:5927   */\ntag_122:\n    /* \"#utility.yul\":5733:5740   */\n  dup3\n    /* \"#utility.yul\":5730:5731   */\n  dup2\n    /* \"#utility.yul\":5727:5741   */\n  lt\n    /* \"#utility.yul\":5719:5927   */\n  iszero\n  tag_124\n  jumpi\n    /* \"#utility.yul\":5812:5821   */\n  dup5\n    /* \"#utility.yul\":5807:5810   */\n  dup10\n    /* \"#utility.yul\":5803:5822   */\n  add\n    /* \"#utility.yul\":5797:5823   */\n  mload\n    /* \"#utility.yul\":5789:5795   */\n  dup3\n    /* \"#utility.yul\":5782:5824   */\n  sstore\n    /* \"#utility.yul\":5863:5864   */\n  0x01\n    /* \"#utility.yul\":5855:5861   */\n  dup3\n    /* \"#utility.yul\":5851:5865   */\n  add\n    /* \"#utility.yul\":5841:5865   */\n  swap2\n  pop\n    /* \"#utility.yul\":5910:5912   */\n  0x20\n    /* \"#utility.yul\":5899:5908   */\n  dup6\n    /* \"#utility.yul\":5895:5913   */\n  add\n    /* \"#utility.yul\":5882:5913   */\n  swap5\n  pop\n    /* \"#utility.yul\":5756:5760   */\n  0x20\n    /* \"#utility.yul\":5753:5754   */\n  dup2\n    /* \"#utility.yul\":5749:5761   */\n  add\n    /* \"#utility.yul\":5744:5761   */\n  swap1\n  pop\n    /* \"#utility.yul\":5719:5927   */\n  jump(tag_122)\ntag_124:\n    /* \"#utility.yul\":5955:5961   */\n  dup7\n    /* \"#utility.yul\":5946:5953   */\n  dup4\n    /* \"#utility.yul\":5943:5962   */\n  lt\n    /* \"#utility.yul\":5940:6119   */\n  iszero\n  tag_125\n  jumpi\n    /* \"#utility.yul\":6013:6022   */\n  dup5\n    /* \"#utility.yul\":6008:6011   */\n  dup10\n    /* \"#utility.yul\":6004:6023   */\n  add\n    /* \"#utility.yul\":5998:6024   */\n  mload\n    /* \"#utility.yul\":6056:6104   */\n  tag_126\n    /* \"#utility.yul\":6098:6102   */\n  0x1f\n    /* \"#utility.yul\":6090:6096   */\n  dup10\n    /* \"#utility.yul\":6086:6103   */\n  and\n    /* \"#utility.yul\":6075:6084   */\n  dup3\n    /* \"#utility.yul\":6056:6104   */\n  tag_47\n  jump\t// in\ntag_126:\n    /* \"#utility.yul\":6048:6054   */\n  dup4\n    /* \"#utility.yul\":6041:6105   */\n  sstore\n    /* \"#utility.yul\":5963:6119   */\n  pop\n    /* \"#utility.yul\":5940:6119   */\ntag_125:\n    /* \"#utility.yul\":6165:6166   */\n  0x01\n    /* \"#utility.yul\":6161:6162   */\n  0x02\n    /* \"#utility.yul\":6153:6159   */\n  dup9\n    /* \"#utility.yul\":6149:6163   */\n  mul\n    /* \"#utility.yul\":6145:6167   */\n  add\n    /* \"#utility.yul\":6139:6143   */\n  dup9\n    /* \"#utility.yul\":6132:6168   */\n  sstore\n    /* \"#utility.yul\":5567:6178   */\n  pop\n  pop\n  pop\n    /* \"#utility.yul\":5530:6417   */\ntag_117:\n  pop\n    /* \"#utility.yul\":5120:6423   */\n  pop\n  pop\n  pop\n    /* \"#utility.yul\":5028:6423   */\n  pop\n  pop\n  jump\t// out\n    /* \"#utility.yul\":6429:6547   */\ntag_49:\n    /* \"#utility.yul\":6516:6540   */\n  tag_128\n    /* \"#utility.yul\":6534:6539   */\n  dup2\n    /* \"#utility.yul\":6516:6540   */\n  tag_26\n  jump\t// in\ntag_128:\n    /* \"#utility.yul\":6511:6514   */\n  dup3\n    /* \"#utility.yul\":6504:6541   */\n  mstore\n    /* \"#utility.yul\":6429:6547   */\n  pop\n  pop\n  jump\t// out\n    /* \"#utility.yul\":6553:6775   */\ntag_16:\n    /* \"#utility.yul\":6646:6650   */\n  0x00\n    /* \"#utility.yul\":6684:6686   */\n  0x20\n    /* \"#utility.yul\":6673:6682   */\n  dup3\n    /* \"#utility.yul\":6669:6687   */\n  add\n    /* \"#utility.yul\":6661:6687   */\n  swap1\n  pop\n    /* \"#utility.yul\":6697:6768   */\n  tag_130\n    /* \"#utility.yul\":6765:6766   */\n  0x00\n    /* \"#utility.yul\":6754:6763   */\n  dup4\n    /* \"#utility.yul\":6750:6767   */\n  add\n    /* \"#utility.yul\":6741:6747   */\n  dup5\n    /* \"#utility.yul\":6697:6768   */\n  tag_49\n  jump\t// in\ntag_130:\n    /* \"#utility.yul\":6553:6775   */\n  swap3\n  swap2\n  pop\n  pop\n  jump\t// out\n    /* \"contracts/StakeTokenNFT.sol\":358:3276  contract StakeToken is ERC721, ERC721Enumerable, ERC721Pausable, Ownable {... */\ntag_20:\n  dataSize(sub_0)\n  dup1\n  dataOffset(sub_0)\n  0x00\n  codecopy\n  0x00\n  return\nstop\n\nsub_0: assembly {\n        /* \"contracts/StakeTokenNFT.sol\":358:3276  contract StakeToken is ERC721, ERC721Enumerable, ERC721Pausable, Ownable {... */\n      mstore(0x40, 0x80)\n      jumpi(tag_1, lt(calldatasize, 0x04))\n      shr(0xe0, calldataload(0x00))\n      dup1\n      0x51cff8d9\n      gt\n      tag_32\n      jumpi\n      dup1\n      0x8da5cb5b\n      gt\n      tag_33\n      jumpi\n      dup1\n      0xbcc9ca5b\n      gt\n      tag_34\n      jumpi\n      dup1\n      0xbcc9ca5b\n      eq\n      tag_28\n      jumpi\n      dup1\n      0xc87b56dd\n      eq\n      tag_29\n      jumpi\n      dup1\n      0xe985e9c5\n      eq\n      tag_30\n      jumpi\n      dup1\n      0xf2fde38b\n      eq\n      tag_31\n      jumpi\n      jump(tag_1)\n    tag_34:\n      dup1\n      0x8da5cb5b\n      eq\n      tag_24\n      jumpi\n      dup1\n      0x95d89b41\n      eq\n      tag_25\n      jumpi\n      dup1\n      0xa22cb465\n      eq\n      tag_26\n      jumpi\n      dup1\n      0xb88d4fde\n      eq\n      tag_27\n      jumpi\n      jump(tag_1)\n    tag_33:\n      dup1\n      0x6447c35d\n      gt\n      tag_35\n      jumpi\n      dup1\n      0x6447c35d\n      eq\n      tag_20\n      jumpi\n      dup1\n      0x70a08231\n      eq\n      tag_21\n      jumpi\n      dup1\n      0x715018a6\n      eq\n      tag_22\n      jumpi\n      dup1\n      0x8456cb59\n      eq\n      tag_23\n      jumpi\n      jump(tag_1)\n    tag_35:\n      dup1\n      0x51cff8d9\n      eq\n      tag_17\n      jumpi\n      dup1\n      0x5c975abb\n      eq\n      tag_18\n      jumpi\n      dup1\n      0x6352211e\n      eq\n      tag_19\n      jumpi\n      jump(tag_1)\n    tag_32:\n      dup1\n      0x23b872dd\n      gt\n      tag_36\n      jumpi\n      dup1\n      0x2f745c59\n      gt\n      tag_37\n      jumpi\n      dup1\n      0x2f745c59\n      eq\n      tag_13\n      jumpi\n      dup1\n      0x3f4ba83a\n      eq\n      tag_14\n      jumpi\n      dup1\n      0x42842e0e\n      eq\n      tag_15\n      jumpi\n      dup1\n      0x4f6ccce7\n      eq\n      tag_16\n      jumpi\n      jump(tag_1)\n    tag_37:\n      dup1\n      0x23b872dd\n      eq\n      tag_9\n      jumpi\n      dup1\n      0x26092b83\n      eq\n      tag_10\n      jumpi\n      dup1\n      0x2848aeaf\n      eq\n      tag_11\n      jumpi\n      dup1\n      0x2f48de79\n      eq\n      tag_12\n      jumpi\n      jump(tag_1)\n    tag_36:\n      dup1\n      0x085c9bac\n      gt\n      tag_38\n      jumpi\n      dup1\n      0x085c9bac\n      eq\n      tag_5\n      jumpi\n      dup1\n      0x095ea7b3\n      eq\n      tag_6\n      jumpi\n      dup1\n      0x102a6a73\n      eq\n      tag_7\n      jumpi\n      dup1\n      0x18160ddd\n      eq\n      tag_8\n      jumpi\n      jump(tag_1)\n    tag_38:\n      dup1\n      0x01ffc9a7\n      eq\n      tag_2\n      jumpi\n      dup1\n      0x06fdde03\n      eq\n      tag_3\n      jumpi\n      dup1\n      0x081812fc\n      eq\n      tag_4\n      jumpi\n    tag_1:\n      0x00\n      dup1\n      revert\n        /* \"contracts/StakeTokenNFT.sol\":3061:3273  function supportsInterface(bytes4 interfaceId)... */\n    tag_2:\n      callvalue\n      dup1\n      iszero\n      tag_39\n      jumpi\n      0x00\n      dup1\n      revert\n    tag_39:\n      pop\n      tag_40\n      0x04\n      dup1\n      calldatasize\n      sub\n      dup2\n      add\n      swap1\n      tag_41\n      swap2\n      swap1\n      tag_42\n      jump\t// in\n    tag_41:\n      tag_43\n      jump\t// in\n    tag_40:\n      mload(0x40)\n      tag_44\n      swap2\n      swap1\n      tag_45\n      jump\t// in\n    tag_44:\n      mload(0x40)\n      dup1\n      swap2\n      sub\n      swap1\n      return\n        /* \"@openzeppelin/contracts@5.0.1/token/ERC721/ERC721.sol\":2365:2454  function name() public view virtual returns (string memory) {... */\n    tag_3:\n      callvalue\n      dup1\n      iszero\n      tag_46\n      jumpi\n      0x00\n      dup1\n      revert\n    tag_46:\n      pop\n      tag_47\n      tag_48\n      jump\t// in\n    tag_47:\n      mload(0x40)\n      tag_49\n      swap2\n      swap1\n      tag_50\n      jump\t// in\n    tag_49:\n      mload(0x40)\n      dup1\n      swap2\n      sub\n      swap1\n      return\n        /* \"@openzeppelin/contracts@5.0.1/token/ERC721/ERC721.sol\":3497:3651  function getApproved(uint256 tokenId) public view virtual returns (address) {... */\n    tag_4:\n      callvalue\n      dup1\n      iszero\n      tag_51\n      jumpi\n      0x00\n      dup1\n      revert\n    tag_51:\n      pop\n      tag_52\n      0x04\n      dup1\n      calldatasize\n      sub\n      dup2\n      add\n      swap1\n      tag_53\n      swap2\n      swap1\n      tag_54\n      jump\t// in\n    tag_53:\n      tag_55\n      jump\t// in\n    tag_52:\n      mload(0x40)\n      tag_56\n      swap2\n      swap1\n      tag_57\n      jump\t// in\n    tag_56:\n      mload(0x40)\n      dup1\n      swap2\n      sub\n      swap1\n      return\n        /* \"contracts/StakeTokenNFT.sol\":545:582  bool public allowListMintOpen = false */\n    tag_5:\n      callvalue\n      dup1\n      iszero\n      tag_58\n      jumpi\n      0x00\n      dup1\n      revert\n    tag_58:\n      pop\n      tag_59\n      tag_60\n      jump\t// in\n    tag_59:\n      mload(0x40)\n      tag_61\n      swap2\n      swap1\n      tag_45\n      jump\t// in\n    tag_61:\n      mload(0x40)\n      dup1\n      swap2\n      sub\n      swap1\n      return\n        /* \"@openzeppelin/contracts@5.0.1/token/ERC721/ERC721.sol\":3323:3436  function approve(address to, uint256 tokenId) public virtual {... */\n    tag_6:\n      callvalue\n      dup1\n      iszero\n      tag_62\n      jumpi\n      0x00\n      dup1\n      revert\n    tag_62:\n      pop\n      tag_63\n      0x04\n      dup1\n      calldatasize\n      sub\n      dup2\n      add\n      swap1\n      tag_64\n      swap2\n      swap1\n      tag_65\n      jump\t// in\n    tag_64:\n      tag_66\n      jump\t// in\n    tag_63:\n      stop\n        /* \"contracts/StakeTokenNFT.sol\":1367:1644  function allowListMint() public payable {... */\n    tag_7:\n      tag_67\n      tag_68\n      jump\t// in\n    tag_67:\n      stop\n        /* \"@openzeppelin/contracts@5.0.1/token/ERC721/extensions/ERC721Enumerable.sol\":2062:2164  function totalSupply() public view virtual returns (uint256) {... */\n    tag_8:\n      callvalue\n      dup1\n      iszero\n      tag_69\n      jumpi\n      0x00\n      dup1\n      revert\n    tag_69:\n      pop\n      tag_70\n      tag_71\n      jump\t// in\n    tag_70:\n      mload(0x40)\n      tag_72\n      swap2\n      swap1\n      tag_73\n      jump\t// in\n    tag_72:\n      mload(0x40)\n      dup1\n      swap2\n      sub\n      swap1\n      return\n        /* \"@openzeppelin/contracts@5.0.1/token/ERC721/ERC721.sol\":4143:4721  function transferFrom(address from, address to, uint256 tokenId) public virtual {... */\n    tag_9:\n      callvalue\n      dup1\n      iszero\n      tag_74\n      jumpi\n      0x00\n      dup1\n      revert\n    tag_74:\n      pop\n      tag_75\n      0x04\n      dup1\n      calldatasize\n      sub\n      dup2\n      add\n      swap1\n      tag_76\n      swap2\n      swap1\n      tag_77\n      jump\t// in\n    tag_76:\n      tag_78\n      jump\t// in\n    tag_75:\n      stop\n        /* \"contracts/StakeTokenNFT.sol\":1750:1942  function publicMint() public payable {... */\n    tag_10:\n      tag_79\n      tag_80\n      jump\t// in\n    tag_79:\n      stop\n        /* \"contracts/StakeTokenNFT.sol\":591:633  mapping (address => bool) public allowList */\n    tag_11:\n      callvalue\n      dup1\n      iszero\n      tag_81\n      jumpi\n      0x00\n      dup1\n      revert\n    tag_81:\n      pop\n      tag_82\n      0x04\n      dup1\n      calldatasize\n      sub\n      dup2\n      add\n      swap1\n      tag_83\n      swap2\n      swap1\n      tag_84\n      jump\t// in\n    tag_83:\n      tag_85\n      jump\t// in\n    tag_82:\n      mload(0x40)\n      tag_86\n      swap2\n      swap1\n      tag_45\n      jump\t// in\n    tag_86:\n      mload(0x40)\n      dup1\n      swap2\n      sub\n      swap1\n      return\n        /* \"contracts/StakeTokenNFT.sol\":1086:1303  function editMintWindows(... */\n    tag_12:\n      callvalue\n      dup1\n      iszero\n      tag_87\n      jumpi\n      0x00\n      dup1\n      revert\n    tag_87:\n      pop\n      tag_88\n      0x04\n      dup1\n      calldatasize\n      sub\n      dup2\n      add\n      swap1\n      tag_89\n      swap2\n      swap1\n      tag_90\n      jump\t// in\n    tag_89:\n      tag_91\n      jump\t// in\n    tag_88:\n      stop\n        /* \"@openzeppelin/contracts@5.0.1/token/ERC721/extensions/ERC721Enumerable.sol\":1736:1991  function tokenOfOwnerByIndex(address owner, uint256 index) public view virtual returns (uint256) {... */\n    tag_13:\n      callvalue\n      dup1\n      iszero\n      tag_92\n      jumpi\n      0x00\n      dup1\n      revert\n    tag_92:\n      pop\n      tag_93\n      0x04\n      dup1\n      calldatasize\n      sub\n      dup2\n      add\n      swap1\n      tag_94\n      swap2\n      swap1\n      tag_65\n      jump\t// in\n    tag_94:\n      tag_95\n      jump\t// in\n    tag_93:\n      mload(0x40)\n      tag_96\n      swap2\n      swap1\n      tag_73\n      jump\t// in\n    tag_96:\n      mload(0x40)\n      dup1\n      swap2\n      sub\n      swap1\n      return\n        /* \"contracts/StakeTokenNFT.sol\":985:1050  function unpause() public onlyOwner {... */\n    tag_14:\n      callvalue\n      dup1\n      iszero\n      tag_97\n      jumpi\n      0x00\n      dup1\n      revert\n    tag_97:\n      pop\n      tag_98\n      tag_99\n      jump\t// in\n    tag_98:\n      stop\n        /* \"@openzeppelin/contracts@5.0.1/token/ERC721/ERC721.sol\":4787:4919  function safeTransferFrom(address from, address to, uint256 tokenId) public {... */\n    tag_15:\n      callvalue\n      dup1\n      iszero\n      tag_100\n      jumpi\n      0x00\n      dup1\n      revert\n    tag_100:\n      pop\n      tag_101\n      0x04\n      dup1\n      calldatasize\n      sub\n      dup2\n      add\n      swap1\n      tag_102\n      swap2\n      swap1\n      tag_77\n      jump\t// in\n    tag_102:\n      tag_103\n      jump\t// in\n    tag_101:\n      stop\n        /* \"@openzeppelin/contracts@5.0.1/token/ERC721/extensions/ERC721Enumerable.sol\":2236:2462  function tokenByIndex(uint256 index) public view virtual returns (uint256) {... */\n    tag_16:\n      callvalue\n      dup1\n      iszero\n      tag_104\n      jumpi\n      0x00\n      dup1\n      revert\n    tag_104:\n      pop\n      tag_105\n      0x04\n      dup1\n      calldatasize\n      sub\n      dup2\n      add\n      swap1\n      tag_106\n      swap2\n      swap1\n      tag_54\n      jump\t// in\n    tag_106:\n      tag_107\n      jump\t// in\n    tag_105:\n      mload(0x40)\n      tag_108\n      swap2\n      swap1\n      tag_73\n      jump\t// in\n    tag_108:\n      mload(0x40)\n      dup1\n      swap2\n      sub\n      swap1\n      return\n        /* \"contracts/StakeTokenNFT.sol\":2144:2329  function withdraw(address _addr) external onlyOwner {... */\n    tag_17:\n      callvalue\n      dup1\n      iszero\n      tag_109\n      jumpi\n      0x00\n      dup1\n      revert\n    tag_109:\n      pop\n      tag_110\n      0x04\n      dup1\n      calldatasize\n      sub\n      dup2\n      add\n      swap1\n      tag_111\n      swap2\n      swap1\n      tag_84\n      jump\t// in\n    tag_111:\n      tag_112\n      jump\t// in\n    tag_110:\n      stop\n        /* \"@openzeppelin/contracts@5.0.1/utils/Pausable.sol\":1850:1934  function paused() public view virtual returns (bool) {... */\n    tag_18:\n      callvalue\n      dup1\n      iszero\n      tag_113\n      jumpi\n      0x00\n      dup1\n      revert\n    tag_113:\n      pop\n      tag_114\n      tag_115\n      jump\t// in\n    tag_114:\n      mload(0x40)\n      tag_116\n      swap2\n      swap1\n      tag_45\n      jump\t// in\n    tag_116:\n      mload(0x40)\n      dup1\n      swap2\n      sub\n      swap1\n      return\n        /* \"@openzeppelin/contracts@5.0.1/token/ERC721/ERC721.sol\":2185:2303  function ownerOf(uint256 tokenId) public view virtual returns (address) {... */\n    tag_19:\n      callvalue\n      dup1\n      iszero\n      tag_117\n      jumpi\n      0x00\n      dup1\n      revert\n    tag_117:\n      pop\n      tag_118\n      0x04\n      dup1\n      calldatasize\n      sub\n      dup2\n      add\n      swap1\n      tag_119\n      swap2\n      swap1\n      tag_54\n      jump\t// in\n    tag_119:\n      tag_120\n      jump\t// in\n    tag_118:\n      mload(0x40)\n      tag_121\n      swap2\n      swap1\n      tag_57\n      jump\t// in\n    tag_121:\n      mload(0x40)\n      dup1\n      swap2\n      sub\n      swap1\n      return\n        /* \"contracts/StakeTokenNFT.sol\":2369:2557  function setAllowList(address[] calldata addresses) external onlyOwner {... */\n    tag_20:\n      callvalue\n      dup1\n      iszero\n      tag_122\n      jumpi\n      0x00\n      dup1\n      revert\n    tag_122:\n      pop\n      tag_123\n      0x04\n      dup1\n      calldatasize\n      sub\n      dup2\n      add\n      swap1\n      tag_124\n      swap2\n      swap1\n      tag_125\n      jump\t// in\n    tag_124:\n      tag_126\n      jump\t// in\n    tag_123:\n      stop\n        /* \"@openzeppelin/contracts@5.0.1/token/ERC721/ERC721.sol\":1920:2128  function balanceOf(address owner) public view virtual returns (uint256) {... */\n    tag_21:\n      callvalue\n      dup1\n      iszero\n      tag_127\n      jumpi\n      0x00\n      dup1\n      revert\n    tag_127:\n      pop\n      tag_128\n      0x04\n      dup1\n      calldatasize\n      sub\n      dup2\n      add\n      swap1\n      tag_129\n      swap2\n      swap1\n      tag_84\n      jump\t// in\n    tag_129:\n      tag_130\n      jump\t// in\n    tag_128:\n      mload(0x40)\n      tag_131\n      swap2\n      swap1\n      tag_73\n      jump\t// in\n    tag_131:\n      mload(0x40)\n      dup1\n      swap2\n      sub\n      swap1\n      return\n        /* \"@openzeppelin/contracts@5.0.1/access/Ownable.sol\":2293:2394  function renounceOwnership() public virtual onlyOwner {... */\n    tag_22:\n      callvalue\n      dup1\n      iszero\n      tag_132\n      jumpi\n      0x00\n      dup1\n      revert\n    tag_132:\n      pop\n      tag_133\n      tag_134\n      jump\t// in\n    tag_133:\n      stop\n        /* \"contracts/StakeTokenNFT.sol\":916:977  function pause() public onlyOwner {... */\n    tag_23:\n      callvalue\n      dup1\n      iszero\n      tag_135\n      jumpi\n      0x00\n      dup1\n      revert\n    tag_135:\n      pop\n      tag_136\n      tag_137\n      jump\t// in\n    tag_136:\n      stop\n        /* \"@openzeppelin/contracts@5.0.1/access/Ownable.sol\":1638:1723  function owner() public view virtual returns (address) {... */\n    tag_24:\n      callvalue\n      dup1\n      iszero\n      tag_138\n      jumpi\n      0x00\n      dup1\n      revert\n    tag_138:\n      pop\n      tag_139\n      tag_140\n      jump\t// in\n    tag_139:\n      mload(0x40)\n      tag_141\n      swap2\n      swap1\n      tag_57\n      jump\t// in\n    tag_141:\n      mload(0x40)\n      dup1\n      swap2\n      sub\n      swap1\n      return\n        /* \"@openzeppelin/contracts@5.0.1/token/ERC721/ERC721.sol\":2518:2611  function symbol() public view virtual returns (string memory) {... */\n    tag_25:\n      callvalue\n      dup1\n      iszero\n      tag_142\n      jumpi\n      0x00\n      dup1\n      revert\n    tag_142:\n      pop\n      tag_143\n      tag_144\n      jump\t// in\n    tag_143:\n      mload(0x40)\n      tag_145\n      swap2\n      swap1\n      tag_50\n      jump\t// in\n    tag_145:\n      mload(0x40)\n      dup1\n      swap2\n      sub\n      swap1\n      return\n        /* \"@openzeppelin/contracts@5.0.1/token/ERC721/ERC721.sol\":3718:3862  function setApprovalForAll(address operator, bool approved) public virtual {... */\n    tag_26:\n      callvalue\n      dup1\n      iszero\n      tag_146\n      jumpi\n      0x00\n      dup1\n      revert\n    tag_146:\n      pop\n      tag_147\n      0x04\n      dup1\n      calldatasize\n      sub\n      dup2\n      add\n      swap1\n      tag_148\n      swap2\n      swap1\n      tag_149\n      jump\t// in\n    tag_148:\n      tag_150\n      jump\t// in\n    tag_147:\n      stop\n        /* \"@openzeppelin/contracts@5.0.1/token/ERC721/ERC721.sol\":4985:5193  function safeTransferFrom(address from, address to, uint256 tokenId, bytes memory data) public virtual {... */\n    tag_27:\n      callvalue\n      dup1\n      iszero\n      tag_151\n      jumpi\n      0x00\n      dup1\n      revert\n    tag_151:\n      pop\n      tag_152\n      0x04\n      dup1\n      calldatasize\n      sub\n      dup2\n      add\n      swap1\n      tag_153\n      swap2\n      swap1\n      tag_154\n      jump\t// in\n    tag_153:\n      tag_155\n      jump\t// in\n    tag_152:\n      stop\n        /* \"contracts/StakeTokenNFT.sol\":504:538  bool public publicMintOpen = false */\n    tag_28:\n      callvalue\n      dup1\n      iszero\n      tag_156\n      jumpi\n      0x00\n      dup1\n      revert\n    tag_156:\n      pop\n      tag_157\n      tag_158\n      jump\t// in\n    tag_157:\n      mload(0x40)\n      tag_159\n      swap2\n      swap1\n      tag_45\n      jump\t// in\n    tag_159:\n      mload(0x40)\n      dup1\n      swap2\n      sub\n      swap1\n      return\n        /* \"@openzeppelin/contracts@5.0.1/token/ERC721/ERC721.sol\":2677:2932  function tokenURI(uint256 tokenId) public view virtual returns (string memory) {... */\n    tag_29:\n      callvalue\n      dup1\n      iszero\n      tag_160\n      jumpi\n      0x00\n      dup1\n      revert\n    tag_160:\n      pop\n      tag_161\n      0x04\n      dup1\n      calldatasize\n      sub\n      dup2\n      add\n      swap1\n      tag_162\n      swap2\n      swap1\n      tag_54\n      jump\t// in\n    tag_162:\n      tag_163\n      jump\t// in\n    tag_161:\n      mload(0x40)\n      tag_164\n      swap2\n      swap1\n      tag_50\n      jump\t// in\n    tag_164:\n      mload(0x40)\n      dup1\n      swap2\n      sub\n      swap1\n      return\n        /* \"@openzeppelin/contracts@5.0.1/token/ERC721/ERC721.sol\":3928:4081  function isApprovedForAll(address owner, address operator) public view virtual returns (bool) {... */\n    tag_30:\n      callvalue\n      dup1\n      iszero\n      tag_165\n      jumpi\n      0x00\n      dup1\n      revert\n    tag_165:\n      pop\n      tag_166\n      0x04\n      dup1\n      calldatasize\n      sub\n      dup2\n      add\n      swap1\n      tag_167\n      swap2\n      swap1\n      tag_168\n      jump\t// in\n    tag_167:\n      tag_169\n      jump\t// in\n    tag_166:\n      mload(0x40)\n      tag_170\n      swap2\n      swap1\n      tag_45\n      jump\t// in\n    tag_170:\n      mload(0x40)\n      dup1\n      swap2\n      sub\n      swap1\n      return\n        /* \"@openzeppelin/contracts@5.0.1/access/Ownable.sol\":2543:2758  function transferOwnership(address newOwner) public virtual onlyOwner {... */\n    tag_31:\n      callvalue\n      dup1\n      iszero\n      tag_171\n      jumpi\n      0x00\n      dup1\n      revert\n    tag_171:\n      pop\n      tag_172\n      0x04\n      dup1\n      calldatasize\n      sub\n      dup2\n      add\n      swap1\n      tag_173\n      swap2\n      swap1\n      tag_84\n      jump\t// in\n    tag_173:\n      tag_174\n      jump\t// in\n    tag_172:\n      stop\n        /* \"contracts/StakeTokenNFT.sol\":3061:3273  function supportsInterface(bytes4 interfaceId)... */\n    tag_43:\n        /* \"contracts/StakeTokenNFT.sol\":3200:3204  bool */\n      0x00\n        /* \"contracts/StakeTokenNFT.sol\":3229:3265  super.supportsInterface(interfaceId) */\n      tag_176\n        /* \"contracts/StakeTokenNFT.sol\":3253:3264  interfaceId */\n      dup3\n        /* \"contracts/StakeTokenNFT.sol\":3229:3252  super.supportsInterface */\n      tag_177\n        /* \"contracts/StakeTokenNFT.sol\":3229:3265  super.supportsInterface(interfaceId) */\n      jump\t// in\n    tag_176:\n        /* \"contracts/StakeTokenNFT.sol\":3222:3265  return super.supportsInterface(interfaceId) */\n      swap1\n      pop\n        /* \"contracts/StakeTokenNFT.sol\":3061:3273  function supportsInterface(bytes4 interfaceId)... */\n      swap2\n      swap1\n      pop\n      jump\t// out\n        /* \"@openzeppelin/contracts@5.0.1/token/ERC721/ERC721.sol\":2365:2454  function name() public view virtual returns (string memory) {... */\n    tag_48:\n        /* \"@openzeppelin/contracts@5.0.1/token/ERC721/ERC721.sol\":2410:2423  string memory */\n      0x60\n        /* \"@openzeppelin/contracts@5.0.1/token/ERC721/ERC721.sol\":2442:2447  _name */\n      0x00\n        /* \"@openzeppelin/contracts@5.0.1/token/ERC721/ERC721.sol\":2435:2447  return _name */\n      dup1\n      sload\n      tag_179\n      swap1\n      tag_180\n      jump\t// in\n    tag_179:\n      dup1\n      0x1f\n      add\n      0x20\n      dup1\n      swap2\n      div\n      mul\n      0x20\n      add\n      mload(0x40)\n      swap1\n      dup2\n      add\n      0x40\n      mstore\n      dup1\n      swap3\n      swap2\n      swap1\n      dup2\n      dup2\n      mstore\n      0x20\n      add\n      dup3\n      dup1\n      sload\n      tag_181\n      swap1\n      tag_180\n      jump\t// in\n    tag_181:\n      dup1\n      iszero\n      tag_182\n      jumpi\n      dup1\n      0x1f\n      lt\n      tag_183\n      jumpi\n      0x0100\n      dup1\n      dup4\n      sload\n      div\n      mul\n      dup4\n      mstore\n      swap2\n      0x20\n      add\n      swap2\n      jump(tag_182)\n    tag_183:\n      dup3\n      add\n      swap2\n      swap1\n      0x00\n      mstore\n      keccak256(0x00, 0x20)\n      swap1\n    tag_184:\n      dup2\n      sload\n      dup2\n      mstore\n      swap1\n      0x01\n      add\n      swap1\n      0x20\n      add\n      dup1\n      dup4\n      gt\n      tag_184\n      jumpi\n      dup3\n      swap1\n      sub\n      0x1f\n      and\n      dup3\n      add\n      swap2\n    tag_182:\n      pop\n      pop\n      pop\n      pop\n      pop\n      swap1\n      pop\n        /* \"@openzeppelin/contracts@5.0.1/token/ERC721/ERC721.sol\":2365:2454  function name() public view virtual returns (string memory) {... */\n      swap1\n      jump\t// out\n        /* \"@openzeppelin/contracts@5.0.1/token/ERC721/ERC721.sol\":3497:3651  function getApproved(uint256 tokenId) public view virtual returns (address) {... */\n    tag_55:\n        /* \"@openzeppelin/contracts@5.0.1/token/ERC721/ERC721.sol\":3564:3571  address */\n      0x00\n        /* \"@openzeppelin/contracts@5.0.1/token/ERC721/ERC721.sol\":3583:3605  _requireOwned(tokenId) */\n      tag_186\n        /* \"@openzeppelin/contracts@5.0.1/token/ERC721/ERC721.sol\":3597:3604  tokenId */\n      dup3\n        /* \"@openzeppelin/contracts@5.0.1/token/ERC721/ERC721.sol\":3583:3596  _requireOwned */\n      tag_187\n        /* \"@openzeppelin/contracts@5.0.1/token/ERC721/ERC721.sol\":3583:3605  _requireOwned(tokenId) */\n      jump\t// in\n    tag_186:\n      pop\n        /* \"@openzeppelin/contracts@5.0.1/token/ERC721/ERC721.sol\":3623:3644  _getApproved(tokenId) */\n      tag_188\n        /* \"@openzeppelin/contracts@5.0.1/token/ERC721/ERC721.sol\":3636:3643  tokenId */\n      dup3\n        /* \"@openzeppelin/contracts@5.0.1/token/ERC721/ERC721.sol\":3623:3635  _getApproved */\n      tag_189\n        /* \"@openzeppelin/contracts@5.0.1/token/ERC721/ERC721.sol\":3623:3644  _getApproved(tokenId) */\n      jump\t// in\n    tag_188:\n        /* \"@openzeppelin/contracts@5.0.1/token/ERC721/ERC721.sol\":3616:3644  return _getApproved(tokenId) */\n      swap1\n      pop\n        /* \"@openzeppelin/contracts@5.0.1/token/ERC721/ERC721.sol\":3497:3651  function getApproved(uint256 tokenId) public view virtual returns (address) {... */\n      swap2\n      swap1\n      pop\n      jump\t// out\n        /* \"contracts/StakeTokenNFT.sol\":545:582  bool public allowListMintOpen = false */\n    tag_60:\n      0x0d\n      0x01\n      swap1\n      sload\n      swap1\n      0x0100\n      exp\n      swap1\n      div\n      0xff\n      and\n      dup2\n      jump\t// out\n        /* \"@openzeppelin/contracts@5.0.1/token/ERC721/ERC721.sol\":3323:3436  function approve(address to, uint256 tokenId) public virtual {... */\n    tag_66:\n        /* \"@openzeppelin/contracts@5.0.1/token/ERC721/ERC721.sol\":3394:3429  _approve(to, tokenId, _msgSender()) */\n      tag_191\n        /* \"@openzeppelin/contracts@5.0.1/token/ERC721/ERC721.sol\":3403:3405  to */\n      dup3\n        /* \"@openzeppelin/contracts@5.0.1/token/ERC721/ERC721.sol\":3407:3414  tokenId */\n      dup3\n        /* \"@openzeppelin/contracts@5.0.1/token/ERC721/ERC721.sol\":3416:3428  _msgSender() */\n      tag_192\n        /* \"@openzeppelin/contracts@5.0.1/token/ERC721/ERC721.sol\":3416:3426  _msgSender */\n      tag_193\n        /* \"@openzeppelin/contracts@5.0.1/token/ERC721/ERC721.sol\":3416:3428  _msgSender() */\n      jump\t// in\n    tag_192:\n        /* \"@openzeppelin/contracts@5.0.1/token/ERC721/ERC721.sol\":3394:3402  _approve */\n      tag_194\n        /* \"@openzeppelin/contracts@5.0.1/token/ERC721/ERC721.sol\":3394:3429  _approve(to, tokenId, _msgSender()) */\n      jump\t// in\n    tag_191:\n        /* \"@openzeppelin/contracts@5.0.1/token/ERC721/ERC721.sol\":3323:3436  function approve(address to, uint256 tokenId) public virtual {... */\n      pop\n      pop\n      jump\t// out\n        /* \"contracts/StakeTokenNFT.sol\":1367:1644  function allowListMint() public payable {... */\n    tag_68:\n        /* \"contracts/StakeTokenNFT.sol\":1426:1443  allowListMintOpen */\n      0x0d\n      0x01\n      swap1\n      sload\n      swap1\n      0x0100\n      exp\n      swap1\n      div\n      0xff\n      and\n        /* \"contracts/StakeTokenNFT.sol\":1418:1470  require(allowListMintOpen, \"Allow list mint closed\") */\n      tag_196\n      jumpi\n      mload(0x40)\n      0x08c379a000000000000000000000000000000000000000000000000000000000\n      dup2\n      mstore\n      0x04\n      add\n      tag_197\n      swap1\n      tag_198\n      jump\t// in\n    tag_197:\n      mload(0x40)\n      dup1\n      swap2\n      sub\n      swap1\n      revert\n    tag_196:\n        /* \"contracts/StakeTokenNFT.sol\":1489:1498  allowList */\n      0x0e\n        /* \"contracts/StakeTokenNFT.sol\":1489:1510  allowList[msg.sender] */\n      0x00\n        /* \"contracts/StakeTokenNFT.sol\":1499:1509  msg.sender */\n      caller\n        /* \"contracts/StakeTokenNFT.sol\":1489:1510  allowList[msg.sender] */\n      0xffffffffffffffffffffffffffffffffffffffff\n      and\n      0xffffffffffffffffffffffffffffffffffffffff\n      and\n      dup2\n      mstore\n      0x20\n      add\n      swap1\n      dup2\n      mstore\n      0x20\n      add\n      0x00\n      keccak256\n      0x00\n      swap1\n      sload\n      swap1\n      0x0100\n      exp\n      swap1\n      div\n      0xff\n      and\n        /* \"contracts/StakeTokenNFT.sol\":1481:1544  require(allowList[msg.sender], \"You are not on the allow list\") */\n      tag_199\n      jumpi\n      mload(0x40)\n      0x08c379a000000000000000000000000000000000000000000000000000000000\n      dup2\n      mstore\n      0x04\n      add\n      tag_200\n      swap1\n      tag_201\n      jump\t// in\n    tag_200:\n      mload(0x40)\n      dup1\n      swap2\n      sub\n      swap1\n      revert\n    tag_199:\n        /* \"contracts/StakeTokenNFT.sol\":1576:1587  0.001 ether */\n      0x038d7ea4c68000\n        /* \"contracts/StakeTokenNFT.sol\":1563:1572  msg.value */\n      callvalue\n        /* \"contracts/StakeTokenNFT.sol\":1563:1587  msg.value == 0.001 ether */\n      eq\n        /* \"contracts/StakeTokenNFT.sol\":1555:1611  require(msg.value == 0.001 ether, \"Increase your funds\") */\n      tag_202\n      jumpi\n      mload(0x40)\n      0x08c379a000000000000000000000000000000000000000000000000000000000\n      dup2\n      mstore\n      0x04\n      add\n      tag_203\n      swap1\n      tag_204\n      jump\t// in\n    tag_203:\n      mload(0x40)\n      dup1\n      swap2\n      sub\n      swap1\n      revert\n    tag_202:\n        /* \"contracts/StakeTokenNFT.sol\":1622:1636  internalMint() */\n      tag_205\n        /* \"contracts/StakeTokenNFT.sol\":1622:1634  internalMint */\n      tag_206\n        /* \"contracts/StakeTokenNFT.sol\":1622:1636  internalMint() */\n      jump\t// in\n    tag_205:\n        /* \"contracts/StakeTokenNFT.sol\":1367:1644  function allowListMint() public payable {... */\n      jump\t// out\n        /* \"@openzeppelin/contracts@5.0.1/token/ERC721/extensions/ERC721Enumerable.sol\":2062:2164  function totalSupply() public view virtual returns (uint256) {... */\n    tag_71:\n        /* \"@openzeppelin/contracts@5.0.1/token/ERC721/extensions/ERC721Enumerable.sol\":2114:2121  uint256 */\n      0x00\n        /* \"@openzeppelin/contracts@5.0.1/token/ERC721/extensions/ERC721Enumerable.sol\":2140:2150  _allTokens */\n      0x08\n        /* \"@openzeppelin/contracts@5.0.1/token/ERC721/extensions/ERC721Enumerable.sol\":2140:2157  _allTokens.length */\n      dup1\n      sload\n      swap1\n      pop\n        /* \"@openzeppelin/contracts@5.0.1/token/ERC721/extensions/ERC721Enumerable.sol\":2133:2157  return _allTokens.length */\n      swap1\n      pop\n        /* \"@openzeppelin/contracts@5.0.1/token/ERC721/extensions/ERC721Enumerable.sol\":2062:2164  function totalSupply() public view virtual returns (uint256) {... */\n      swap1\n      jump\t// out\n        /* \"@openzeppelin/contracts@5.0.1/token/ERC721/ERC721.sol\":4143:4721  function transferFrom(address from, address to, uint256 tokenId) public virtual {... */\n    tag_78:\n        /* \"@openzeppelin/contracts@5.0.1/token/ERC721/ERC721.sol\":4251:4252  0 */\n      0x00\n        /* \"@openzeppelin/contracts@5.0.1/token/ERC721/ERC721.sol\":4237:4253  to == address(0) */\n      0xffffffffffffffffffffffffffffffffffffffff\n      and\n        /* \"@openzeppelin/contracts@5.0.1/token/ERC721/ERC721.sol\":4237:4239  to */\n      dup3\n        /* \"@openzeppelin/contracts@5.0.1/token/ERC721/ERC721.sol\":4237:4253  to == address(0) */\n      0xffffffffffffffffffffffffffffffffffffffff\n      and\n      sub\n        /* \"@openzeppelin/contracts@5.0.1/token/ERC721/ERC721.sol\":4233:4320  if (to == address(0)) {... */\n      tag_209\n      jumpi\n        /* \"@openzeppelin/contracts@5.0.1/token/ERC721/ERC721.sol\":4306:4307  0 */\n      0x00\n        /* \"@openzeppelin/contracts@5.0.1/token/ERC721/ERC721.sol\":4276:4309  ERC721InvalidReceiver(address(0)) */\n      mload(0x40)\n      0x64a0ae9200000000000000000000000000000000000000000000000000000000\n      dup2\n      mstore\n      0x04\n      add\n      tag_210\n      swap2\n      swap1\n      tag_57\n      jump\t// in\n    tag_210:\n      mload(0x40)\n      dup1\n      swap2\n      sub\n      swap1\n      revert\n        /* \"@openzeppelin/contracts@5.0.1/token/ERC721/ERC721.sol\":4233:4320  if (to == address(0)) {... */\n    tag_209:\n        /* \"@openzeppelin/contracts@5.0.1/token/ERC721/ERC721.sol\":4538:4559  address previousOwner */\n      0x00\n        /* \"@openzeppelin/contracts@5.0.1/token/ERC721/ERC721.sol\":4562:4596  _update(to, tokenId, _msgSender()) */\n      tag_211\n        /* \"@openzeppelin/contracts@5.0.1/token/ERC721/ERC721.sol\":4570:4572  to */\n      dup4\n        /* \"@openzeppelin/contracts@5.0.1/token/ERC721/ERC721.sol\":4574:4581  tokenId */\n      dup4\n        /* \"@openzeppelin/contracts@5.0.1/token/ERC721/ERC721.sol\":4583:4595  _msgSender() */\n      tag_212\n        /* \"@openzeppelin/contracts@5.0.1/token/ERC721/ERC721.sol\":4583:4593  _msgSender */\n      tag_193\n        /* \"@openzeppelin/contracts@5.0.1/token/ERC721/ERC721.sol\":4583:4595  _msgSender() */\n      jump\t// in\n    tag_212:\n        /* \"@openzeppelin/contracts@5.0.1/token/ERC721/ERC721.sol\":4562:4569  _update */\n      tag_213\n        /* \"@openzeppelin/contracts@5.0.1/token/ERC721/ERC721.sol\":4562:4596  _update(to, tokenId, _msgSender()) */\n      jump\t// in\n    tag_211:\n        /* \"@openzeppelin/contracts@5.0.1/token/ERC721/ERC721.sol\":4538:4596  address previousOwner = _update(to, tokenId, _msgSender()) */\n      swap1\n      pop\n        /* \"@openzeppelin/contracts@5.0.1/token/ERC721/ERC721.sol\":4627:4631  from */\n      dup4\n        /* \"@openzeppelin/contracts@5.0.1/token/ERC721/ERC721.sol\":4610:4631  previousOwner != from */\n      0xffffffffffffffffffffffffffffffffffffffff\n      and\n        /* \"@openzeppelin/contracts@5.0.1/token/ERC721/ERC721.sol\":4610:4623  previousOwner */\n      dup2\n        /* \"@openzeppelin/contracts@5.0.1/token/ERC721/ERC721.sol\":4610:4631  previousOwner != from */\n      0xffffffffffffffffffffffffffffffffffffffff\n      and\n      eq\n        /* \"@openzeppelin/contracts@5.0.1/token/ERC721/ERC721.sol\":4606:4715  if (previousOwner != from) {... */\n      tag_214\n      jumpi\n        /* \"@openzeppelin/contracts@5.0.1/token/ERC721/ERC721.sol\":4675:4679  from */\n      dup4\n        /* \"@openzeppelin/contracts@5.0.1/token/ERC721/ERC721.sol\":4681:4688  tokenId */\n      dup3\n        /* \"@openzeppelin/contracts@5.0.1/token/ERC721/ERC721.sol\":4690:4703  previousOwner */\n      dup3\n        /* \"@openzeppelin/contracts@5.0.1/token/ERC721/ERC721.sol\":4654:4704  ERC721IncorrectOwner(from, tokenId, previousOwner) */\n      mload(0x40)\n      0x64283d7b00000000000000000000000000000000000000000000000000000000\n      dup2\n      mstore\n      0x04\n      add\n      tag_215\n      swap4\n      swap3\n      swap2\n      swap1\n      tag_216\n      jump\t// in\n    tag_215:\n      mload(0x40)\n      dup1\n      swap2\n      sub\n      swap1\n      revert\n        /* \"@openzeppelin/contracts@5.0.1/token/ERC721/ERC721.sol\":4606:4715  if (previousOwner != from) {... */\n    tag_214:\n        /* \"@openzeppelin/contracts@5.0.1/token/ERC721/ERC721.sol\":4223:4721  {... */\n      pop\n        /* \"@openzeppelin/contracts@5.0.1/token/ERC721/ERC721.sol\":4143:4721  function transferFrom(address from, address to, uint256 tokenId) public virtual {... */\n      pop\n      pop\n      pop\n      jump\t// out\n        /* \"contracts/StakeTokenNFT.sol\":1750:1942  function publicMint() public payable {... */\n    tag_80:\n        /* \"contracts/StakeTokenNFT.sol\":1806:1820  publicMintOpen */\n      0x0d\n      0x00\n      swap1\n      sload\n      swap1\n      0x0100\n      exp\n      swap1\n      div\n      0xff\n      and\n        /* \"contracts/StakeTokenNFT.sol\":1798:1843  require(publicMintOpen, \"Public mint closed\") */\n      tag_218\n      jumpi\n      mload(0x40)\n      0x08c379a000000000000000000000000000000000000000000000000000000000\n      dup2\n      mstore\n      0x04\n      add\n      tag_219\n      swap1\n      tag_220\n      jump\t// in\n    tag_219:\n      mload(0x40)\n      dup1\n      swap2\n      sub\n      swap1\n      revert\n    tag_218:\n        /* \"contracts/StakeTokenNFT.sol\":1875:1885  0.01 ether */\n      0x2386f26fc10000\n        /* \"contracts/StakeTokenNFT.sol\":1862:1871  msg.value */\n      callvalue\n        /* \"contracts/StakeTokenNFT.sol\":1862:1885  msg.value == 0.01 ether */\n      eq\n        /* \"contracts/StakeTokenNFT.sol\":1854:1909  require(msg.value == 0.01 ether, \"Increase your funds\") */\n      tag_221\n      jumpi\n      mload(0x40)\n      0x08c379a000000000000000000000000000000000000000000000000000000000\n      dup2\n      mstore\n      0x04\n      add\n      tag_222\n      swap1\n      tag_204\n      jump\t// in\n    tag_222:\n      mload(0x40)\n      dup1\n      swap2\n      sub\n      swap1\n      revert\n    tag_221:\n        /* \"contracts/StakeTokenNFT.sol\":1920:1934  internalMint() */\n      tag_223\n        /* \"contracts/StakeTokenNFT.sol\":1920:1932  internalMint */\n      tag_206\n        /* \"contracts/StakeTokenNFT.sol\":1920:1934  internalMint() */\n      jump\t// in\n    tag_223:\n        /* \"contracts/StakeTokenNFT.sol\":1750:1942  function publicMint() public payable {... */\n      jump\t// out\n        /* \"contracts/StakeTokenNFT.sol\":591:633  mapping (address => bool) public allowList */\n    tag_85:\n      mstore(0x20, 0x0e)\n      dup1\n      0x00\n      mstore\n      keccak256(0x00, 0x40)\n      0x00\n      swap2\n      pop\n      sload\n      swap1\n      0x0100\n      exp\n      swap1\n      div\n      0xff\n      and\n      dup2\n      jump\t// out\n        /* \"contracts/StakeTokenNFT.sol\":1086:1303  function editMintWindows(... */\n    tag_91:\n        /* \"@openzeppelin/contracts@5.0.1/access/Ownable.sol\":1531:1544  _checkOwner() */\n      tag_225\n        /* \"@openzeppelin/contracts@5.0.1/access/Ownable.sol\":1531:1542  _checkOwner */\n      tag_226\n        /* \"@openzeppelin/contracts@5.0.1/access/Ownable.sol\":1531:1544  _checkOwner() */\n      jump\t// in\n    tag_225:\n        /* \"contracts/StakeTokenNFT.sol\":1231:1246  _publicMintOpen */\n      dup2\n        /* \"contracts/StakeTokenNFT.sol\":1214:1228  publicMintOpen */\n      0x0d\n      0x00\n        /* \"contracts/StakeTokenNFT.sol\":1214:1246  publicMintOpen = _publicMintOpen */\n      0x0100\n      exp\n      dup2\n      sload\n      dup2\n      0xff\n      mul\n      not\n      and\n      swap1\n      dup4\n      iszero\n      iszero\n      mul\n      or\n      swap1\n      sstore\n      pop\n        /* \"contracts/StakeTokenNFT.sol\":1277:1295  _allowListMintOpen */\n      dup1\n        /* \"contracts/StakeTokenNFT.sol\":1257:1274  allowListMintOpen */\n      0x0d\n      0x01\n        /* \"contracts/StakeTokenNFT.sol\":1257:1295  allowListMintOpen = _allowListMintOpen */\n      0x0100\n      exp\n      dup2\n      sload\n      dup2\n      0xff\n      mul\n      not\n      and\n      swap1\n      dup4\n      iszero\n      iszero\n      mul\n      or\n      swap1\n      sstore\n      pop\n        /* \"contracts/StakeTokenNFT.sol\":1086:1303  function editMintWindows(... */\n      pop\n      pop\n      jump\t// out\n        /* \"@openzeppelin/contracts@5.0.1/token/ERC721/extensions/ERC721Enumerable.sol\":1736:1991  function tokenOfOwnerByIndex(address owner, uint256 index) public view virtual returns (uint256) {... */\n    tag_95:\n        /* \"@openzeppelin/contracts@5.0.1/token/ERC721/extensions/ERC721Enumerable.sol\":1824:1831  uint256 */\n      0x00\n        /* \"@openzeppelin/contracts@5.0.1/token/ERC721/extensions/ERC721Enumerable.sol\":1856:1872  balanceOf(owner) */\n      tag_229\n        /* \"@openzeppelin/contracts@5.0.1/token/ERC721/extensions/ERC721Enumerable.sol\":1866:1871  owner */\n      dup4\n        /* \"@openzeppelin/contracts@5.0.1/token/ERC721/extensions/ERC721Enumerable.sol\":1856:1865  balanceOf */\n      tag_130\n        /* \"@openzeppelin/contracts@5.0.1/token/ERC721/extensions/ERC721Enumerable.sol\":1856:1872  balanceOf(owner) */\n      jump\t// in\n    tag_229:\n        /* \"@openzeppelin/contracts@5.0.1/token/ERC721/extensions/ERC721Enumerable.sol\":1847:1852  index */\n      dup3\n        /* \"@openzeppelin/contracts@5.0.1/token/ERC721/extensions/ERC721Enumerable.sol\":1847:1872  index >= balanceOf(owner) */\n      lt\n        /* \"@openzeppelin/contracts@5.0.1/token/ERC721/extensions/ERC721Enumerable.sol\":1843:1942  if (index >= balanceOf(owner)) {... */\n      tag_230\n      jumpi\n        /* \"@openzeppelin/contracts@5.0.1/token/ERC721/extensions/ERC721Enumerable.sol\":1918:1923  owner */\n      dup3\n        /* \"@openzeppelin/contracts@5.0.1/token/ERC721/extensions/ERC721Enumerable.sol\":1925:1930  index */\n      dup3\n        /* \"@openzeppelin/contracts@5.0.1/token/ERC721/extensions/ERC721Enumerable.sol\":1895:1931  ERC721OutOfBoundsIndex(owner, index) */\n      mload(0x40)\n      0xa57d13dc00000000000000000000000000000000000000000000000000000000\n      dup2\n      mstore\n      0x04\n      add\n      tag_231\n      swap3\n      swap2\n      swap1\n      tag_232\n      jump\t// in\n    tag_231:\n      mload(0x40)\n      dup1\n      swap2\n      sub\n      swap1\n      revert\n        /* \"@openzeppelin/contracts@5.0.1/token/ERC721/extensions/ERC721Enumerable.sol\":1843:1942  if (index >= balanceOf(owner)) {... */\n    tag_230:\n        /* \"@openzeppelin/contracts@5.0.1/token/ERC721/extensions/ERC721Enumerable.sol\":1958:1970  _ownedTokens */\n      0x06\n        /* \"@openzeppelin/contracts@5.0.1/token/ERC721/extensions/ERC721Enumerable.sol\":1958:1977  _ownedTokens[owner] */\n      0x00\n        /* \"@openzeppelin/contracts@5.0.1/token/ERC721/extensions/ERC721Enumerable.sol\":1971:1976  owner */\n      dup5\n        /* \"@openzeppelin/contracts@5.0.1/token/ERC721/extensions/ERC721Enumerable.sol\":1958:1977  _ownedTokens[owner] */\n      0xffffffffffffffffffffffffffffffffffffffff\n      and\n      0xffffffffffffffffffffffffffffffffffffffff\n      and\n      dup2\n      mstore\n      0x20\n      add\n      swap1\n      dup2\n      mstore\n      0x20\n      add\n      0x00\n      keccak256\n        /* \"@openzeppelin/contracts@5.0.1/token/ERC721/extensions/ERC721Enumerable.sol\":1958:1984  _ownedTokens[owner][index] */\n      0x00\n        /* \"@openzeppelin/contracts@5.0.1/token/ERC721/extensions/ERC721Enumerable.sol\":1978:1983  index */\n      dup4\n        /* \"@openzeppelin/contracts@5.0.1/token/ERC721/extensions/ERC721Enumerable.sol\":1958:1984  _ownedTokens[owner][index] */\n      dup2\n      mstore\n      0x20\n      add\n      swap1\n      dup2\n      mstore\n      0x20\n      add\n      0x00\n      keccak256\n      sload\n        /* \"@openzeppelin/contracts@5.0.1/token/ERC721/extensions/ERC721Enumerable.sol\":1951:1984  return _ownedTokens[owner][index] */\n      swap1\n      pop\n        /* \"@openzeppelin/contracts@5.0.1/token/ERC721/extensions/ERC721Enumerable.sol\":1736:1991  function tokenOfOwnerByIndex(address owner, uint256 index) public view virtual returns (uint256) {... */\n      swap3\n      swap2\n      pop\n      pop\n      jump\t// out\n        /* \"contracts/StakeTokenNFT.sol\":985:1050  function unpause() public onlyOwner {... */\n    tag_99:\n        /* \"@openzeppelin/contracts@5.0.1/access/Ownable.sol\":1531:1544  _checkOwner() */\n      tag_234\n        /* \"@openzeppelin/contracts@5.0.1/access/Ownable.sol\":1531:1542  _checkOwner */\n      tag_226\n        /* \"@openzeppelin/contracts@5.0.1/access/Ownable.sol\":1531:1544  _checkOwner() */\n      jump\t// in\n    tag_234:\n        /* \"contracts/StakeTokenNFT.sol\":1032:1042  _unpause() */\n      tag_236\n        /* \"contracts/StakeTokenNFT.sol\":1032:1040  _unpause */\n      tag_237\n        /* \"contracts/StakeTokenNFT.sol\":1032:1042  _unpause() */\n      jump\t// in\n    tag_236:\n        /* \"contracts/StakeTokenNFT.sol\":985:1050  function unpause() public onlyOwner {... */\n      jump\t// out\n        /* \"@openzeppelin/contracts@5.0.1/token/ERC721/ERC721.sol\":4787:4919  function safeTransferFrom(address from, address to, uint256 tokenId) public {... */\n    tag_103:\n        /* \"@openzeppelin/contracts@5.0.1/token/ERC721/ERC721.sol\":4873:4912  safeTransferFrom(from, to, tokenId, \"\") */\n      tag_239\n        /* \"@openzeppelin/contracts@5.0.1/token/ERC721/ERC721.sol\":4890:4894  from */\n      dup4\n        /* \"@openzeppelin/contracts@5.0.1/token/ERC721/ERC721.sol\":4896:4898  to */\n      dup4\n        /* \"@openzeppelin/contracts@5.0.1/token/ERC721/ERC721.sol\":4900:4907  tokenId */\n      dup4\n        /* \"@openzeppelin/contracts@5.0.1/token/ERC721/ERC721.sol\":4873:4912  safeTransferFrom(from, to, tokenId, \"\") */\n      mload(0x40)\n      dup1\n      0x20\n      add\n      0x40\n      mstore\n      dup1\n      0x00\n      dup2\n      mstore\n      pop\n        /* \"@openzeppelin/contracts@5.0.1/token/ERC721/ERC721.sol\":4873:4889  safeTransferFrom */\n      tag_155\n        /* \"@openzeppelin/contracts@5.0.1/token/ERC721/ERC721.sol\":4873:4912  safeTransferFrom(from, to, tokenId, \"\") */\n      jump\t// in\n    tag_239:\n        /* \"@openzeppelin/contracts@5.0.1/token/ERC721/ERC721.sol\":4787:4919  function safeTransferFrom(address from, address to, uint256 tokenId) public {... */\n      pop\n      pop\n      pop\n      jump\t// out\n        /* \"@openzeppelin/contracts@5.0.1/token/ERC721/extensions/ERC721Enumerable.sol\":2236:2462  function tokenByIndex(uint256 index) public view virtual returns (uint256) {... */\n    tag_107:\n        /* \"@openzeppelin/contracts@5.0.1/token/ERC721/extensions/ERC721Enumerable.sol\":2302:2309  uint256 */\n      0x00\n        /* \"@openzeppelin/contracts@5.0.1/token/ERC721/extensions/ERC721Enumerable.sol\":2334:2347  totalSupply() */\n      tag_241\n        /* \"@openzeppelin/contracts@5.0.1/token/ERC721/extensions/ERC721Enumerable.sol\":2334:2345  totalSupply */\n      tag_71\n        /* \"@openzeppelin/contracts@5.0.1/token/ERC721/extensions/ERC721Enumerable.sol\":2334:2347  totalSupply() */\n      jump\t// in\n    tag_241:\n        /* \"@openzeppelin/contracts@5.0.1/token/ERC721/extensions/ERC721Enumerable.sol\":2325:2330  index */\n      dup3\n        /* \"@openzeppelin/contracts@5.0.1/token/ERC721/extensions/ERC721Enumerable.sol\":2325:2347  index >= totalSupply() */\n      lt\n        /* \"@openzeppelin/contracts@5.0.1/token/ERC721/extensions/ERC721Enumerable.sol\":2321:2422  if (index >= totalSupply()) {... */\n      tag_242\n      jumpi\n        /* \"@openzeppelin/contracts@5.0.1/token/ERC721/extensions/ERC721Enumerable.sol\":2401:2402  0 */\n      0x00\n        /* \"@openzeppelin/contracts@5.0.1/token/ERC721/extensions/ERC721Enumerable.sol\":2405:2410  index */\n      dup3\n        /* \"@openzeppelin/contracts@5.0.1/token/ERC721/extensions/ERC721Enumerable.sol\":2370:2411  ERC721OutOfBoundsIndex(address(0), index) */\n      mload(0x40)\n      0xa57d13dc00000000000000000000000000000000000000000000000000000000\n      dup2\n      mstore\n      0x04\n      add\n      tag_243\n      swap3\n      swap2\n      swap1\n      tag_232\n      jump\t// in\n    tag_243:\n      mload(0x40)\n      dup1\n      swap2\n      sub\n      swap1\n      revert\n        /* \"@openzeppelin/contracts@5.0.1/token/ERC721/extensions/ERC721Enumerable.sol\":2321:2422  if (index >= totalSupply()) {... */\n    tag_242:\n        /* \"@openzeppelin/contracts@5.0.1/token/ERC721/extensions/ERC721Enumerable.sol\":2438:2448  _allTokens */\n      0x08\n        /* \"@openzeppelin/contracts@5.0.1/token/ERC721/extensions/ERC721Enumerable.sol\":2449:2454  index */\n      dup3\n        /* \"@openzeppelin/contracts@5.0.1/token/ERC721/extensions/ERC721Enumerable.sol\":2438:2455  _allTokens[index] */\n      dup2\n      sload\n      dup2\n      lt\n      tag_244\n      jumpi\n      tag_245\n      tag_246\n      jump\t// in\n    tag_245:\n    tag_244:\n      swap1\n      0x00\n      mstore\n      keccak256(0x00, 0x20)\n      add\n      sload\n        /* \"@openzeppelin/contracts@5.0.1/token/ERC721/extensions/ERC721Enumerable.sol\":2431:2455  return _allTokens[index] */\n      swap1\n      pop\n        /* \"@openzeppelin/contracts@5.0.1/token/ERC721/extensions/ERC721Enumerable.sol\":2236:2462  function tokenByIndex(uint256 index) public view virtual returns (uint256) {... */\n      swap2\n      swap1\n      pop\n      jump\t// out\n        /* \"contracts/StakeTokenNFT.sol\":2144:2329  function withdraw(address _addr) external onlyOwner {... */\n    tag_112:\n        /* \"@openzeppelin/contracts@5.0.1/access/Ownable.sol\":1531:1544  _checkOwner() */\n      tag_249\n        /* \"@openzeppelin/contracts@5.0.1/access/Ownable.sol\":1531:1542  _checkOwner */\n      tag_226\n        /* \"@openzeppelin/contracts@5.0.1/access/Ownable.sol\":1531:1544  _checkOwner() */\n      jump\t// in\n    tag_249:\n        /* \"contracts/StakeTokenNFT.sol\":2239:2254  uint256 balance */\n      0x00\n        /* \"contracts/StakeTokenNFT.sol\":2257:2278  address(this).balance */\n      selfbalance\n        /* \"contracts/StakeTokenNFT.sol\":2239:2278  uint256 balance = address(this).balance */\n      swap1\n      pop\n        /* \"contracts/StakeTokenNFT.sol\":2297:2302  _addr */\n      dup2\n        /* \"contracts/StakeTokenNFT.sol\":2289:2312  payable(_addr).transfer */\n      0xffffffffffffffffffffffffffffffffffffffff\n      and\n        /* \"contracts/StakeTokenNFT.sol\":2289:2321  payable(_addr).transfer(balance) */\n      0x08fc\n        /* \"contracts/StakeTokenNFT.sol\":2313:2320  balance */\n      dup3\n        /* \"contracts/StakeTokenNFT.sol\":2289:2321  payable(_addr).transfer(balance) */\n      swap1\n      dup2\n      iszero\n      mul\n      swap1\n      mload(0x40)\n      0x00\n      mload(0x40)\n      dup1\n      dup4\n      sub\n      dup2\n      dup6\n      dup9\n      dup9\n      call\n      swap4\n      pop\n      pop\n      pop\n      pop\n      iszero\n      dup1\n      iszero\n      tag_252\n      jumpi\n      returndatasize\n      0x00\n      dup1\n      returndatacopy\n      revert(0x00, returndatasize)\n    tag_252:\n      pop\n        /* \"contracts/StakeTokenNFT.sol\":2196:2329  {... */\n      pop\n        /* \"contracts/StakeTokenNFT.sol\":2144:2329  function withdraw(address _addr) external onlyOwner {... */\n      pop\n      jump\t// out\n        /* \"@openzeppelin/contracts@5.0.1/utils/Pausable.sol\":1850:1934  function paused() public view virtual returns (bool) {... */\n    tag_115:\n        /* \"@openzeppelin/contracts@5.0.1/utils/Pausable.sol\":1897:1901  bool */\n      0x00\n        /* \"@openzeppelin/contracts@5.0.1/utils/Pausable.sol\":1920:1927  _paused */\n      0x0a\n      0x00\n      swap1\n      sload\n      swap1\n      0x0100\n      exp\n      swap1\n      div\n      0xff\n      and\n        /* \"@openzeppelin/contracts@5.0.1/utils/Pausable.sol\":1913:1927  return _paused */\n      swap1\n      pop\n        /* \"@openzeppelin/contracts@5.0.1/utils/Pausable.sol\":1850:1934  function paused() public view virtual returns (bool) {... */\n      swap1\n      jump\t// out\n        /* \"@openzeppelin/contracts@5.0.1/token/ERC721/ERC721.sol\":2185:2303  function ownerOf(uint256 tokenId) public view virtual returns (address) {... */\n    tag_120:\n        /* \"@openzeppelin/contracts@5.0.1/token/ERC721/ERC721.sol\":2248:2255  address */\n      0x00\n        /* \"@openzeppelin/contracts@5.0.1/token/ERC721/ERC721.sol\":2274:2296  _requireOwned(tokenId) */\n      tag_255\n        /* \"@openzeppelin/contracts@5.0.1/token/ERC721/ERC721.sol\":2288:2295  tokenId */\n      dup3\n        /* \"@openzeppelin/contracts@5.0.1/token/ERC721/ERC721.sol\":2274:2287  _requireOwned */\n      tag_187\n        /* \"@openzeppelin/contracts@5.0.1/token/ERC721/ERC721.sol\":2274:2296  _requireOwned(tokenId) */\n      jump\t// in\n    tag_255:\n        /* \"@openzeppelin/contracts@5.0.1/token/ERC721/ERC721.sol\":2267:2296  return _requireOwned(tokenId) */\n      swap1\n      pop\n        /* \"@openzeppelin/contracts@5.0.1/token/ERC721/ERC721.sol\":2185:2303  function ownerOf(uint256 tokenId) public view virtual returns (address) {... */\n      swap2\n      swap1\n      pop\n      jump\t// out\n        /* \"contracts/StakeTokenNFT.sol\":2369:2557  function setAllowList(address[] calldata addresses) external onlyOwner {... */\n    tag_126:\n        /* \"@openzeppelin/contracts@5.0.1/access/Ownable.sol\":1531:1544  _checkOwner() */\n      tag_257\n        /* \"@openzeppelin/contracts@5.0.1/access/Ownable.sol\":1531:1542  _checkOwner */\n      tag_226\n        /* \"@openzeppelin/contracts@5.0.1/access/Ownable.sol\":1531:1544  _checkOwner() */\n      jump\t// in\n    tag_257:\n        /* \"contracts/StakeTokenNFT.sol\":2455:2464  uint256 i */\n      0x00\n        /* \"contracts/StakeTokenNFT.sol\":2451:2550  for(uint256 i=0; i<addresses.length; i++) {... */\n    tag_259:\n        /* \"contracts/StakeTokenNFT.sol\":2470:2479  addresses */\n      dup3\n      dup3\n        /* \"contracts/StakeTokenNFT.sol\":2470:2486  addresses.length */\n      swap1\n      pop\n        /* \"contracts/StakeTokenNFT.sol\":2468:2469  i */\n      dup2\n        /* \"contracts/StakeTokenNFT.sol\":2468:2486  i<addresses.length */\n      lt\n        /* \"contracts/StakeTokenNFT.sol\":2451:2550  for(uint256 i=0; i<addresses.length; i++) {... */\n      iszero\n      tag_260\n      jumpi\n        /* \"contracts/StakeTokenNFT.sol\":2534:2538  true */\n      0x01\n        /* \"contracts/StakeTokenNFT.sol\":2508:2517  allowList */\n      0x0e\n        /* \"contracts/StakeTokenNFT.sol\":2508:2531  allowList[addresses[i]] */\n      0x00\n        /* \"contracts/StakeTokenNFT.sol\":2518:2527  addresses */\n      dup6\n      dup6\n        /* \"contracts/StakeTokenNFT.sol\":2528:2529  i */\n      dup6\n        /* \"contracts/StakeTokenNFT.sol\":2518:2530  addresses[i] */\n      dup2\n      dup2\n      lt\n      tag_262\n      jumpi\n      tag_263\n      tag_246\n      jump\t// in\n    tag_263:\n    tag_262:\n      swap1\n      pop\n      0x20\n      mul\n      add\n      0x20\n      dup2\n      add\n      swap1\n      tag_264\n      swap2\n      swap1\n      tag_84\n      jump\t// in\n    tag_264:\n        /* \"contracts/StakeTokenNFT.sol\":2508:2531  allowList[addresses[i]] */\n      0xffffffffffffffffffffffffffffffffffffffff\n      and\n      0xffffffffffffffffffffffffffffffffffffffff\n      and\n      dup2\n      mstore\n      0x20\n      add\n      swap1\n      dup2\n      mstore\n      0x20\n      add\n      0x00\n      keccak256\n      0x00\n        /* \"contracts/StakeTokenNFT.sol\":2508:2538  allowList[addresses[i]] = true */\n      0x0100\n      exp\n      dup2\n      sload\n      dup2\n      0xff\n      mul\n      not\n      and\n      swap1\n      dup4\n      iszero\n      iszero\n      mul\n      or\n      swap1\n      sstore\n      pop\n        /* \"contracts/StakeTokenNFT.sol\":2488:2491  i++ */\n      dup1\n      dup1\n      tag_265\n      swap1\n      tag_266\n      jump\t// in\n    tag_265:\n      swap2\n      pop\n      pop\n        /* \"contracts/StakeTokenNFT.sol\":2451:2550  for(uint256 i=0; i<addresses.length; i++) {... */\n      jump(tag_259)\n    tag_260:\n      pop\n        /* \"contracts/StakeTokenNFT.sol\":2369:2557  function setAllowList(address[] calldata addresses) external onlyOwner {... */\n      pop\n      pop\n      jump\t// out\n        /* \"@openzeppelin/contracts@5.0.1/token/ERC721/ERC721.sol\":1920:2128  function balanceOf(address owner) public view virtual returns (uint256) {... */\n    tag_130:\n        /* \"@openzeppelin/contracts@5.0.1/token/ERC721/ERC721.sol\":1983:1990  uint256 */\n      0x00\n        /* \"@openzeppelin/contracts@5.0.1/token/ERC721/ERC721.sol\":2023:2024  0 */\n      dup1\n        /* \"@openzeppelin/contracts@5.0.1/token/ERC721/ERC721.sol\":2006:2025  owner == address(0) */\n      0xffffffffffffffffffffffffffffffffffffffff\n      and\n        /* \"@openzeppelin/contracts@5.0.1/token/ERC721/ERC721.sol\":2006:2011  owner */\n      dup3\n        /* \"@openzeppelin/contracts@5.0.1/token/ERC721/ERC721.sol\":2006:2025  owner == address(0) */\n      0xffffffffffffffffffffffffffffffffffffffff\n      and\n      sub\n        /* \"@openzeppelin/contracts@5.0.1/token/ERC721/ERC721.sol\":2002:2089  if (owner == address(0)) {... */\n      tag_268\n      jumpi\n        /* \"@openzeppelin/contracts@5.0.1/token/ERC721/ERC721.sol\":2075:2076  0 */\n      0x00\n        /* \"@openzeppelin/contracts@5.0.1/token/ERC721/ERC721.sol\":2048:2078  ERC721InvalidOwner(address(0)) */\n      mload(0x40)\n      0x89c62b6400000000000000000000000000000000000000000000000000000000\n      dup2\n      mstore\n      0x04\n      add\n      tag_269\n      swap2\n      swap1\n      tag_57\n      jump\t// in\n    tag_269:\n      mload(0x40)\n      dup1\n      swap2\n      sub\n      swap1\n      revert\n        /* \"@openzeppelin/contracts@5.0.1/token/ERC721/ERC721.sol\":2002:2089  if (owner == address(0)) {... */\n    tag_268:\n        /* \"@openzeppelin/contracts@5.0.1/token/ERC721/ERC721.sol\":2105:2114  _balances */\n      0x03\n        /* \"@openzeppelin/contracts@5.0.1/token/ERC721/ERC721.sol\":2105:2121  _balances[owner] */\n      0x00\n        /* \"@openzeppelin/contracts@5.0.1/token/ERC721/ERC721.sol\":2115:2120  owner */\n      dup4\n        /* \"@openzeppelin/contracts@5.0.1/token/ERC721/ERC721.sol\":2105:2121  _balances[owner] */\n      0xffffffffffffffffffffffffffffffffffffffff\n      and\n      0xffffffffffffffffffffffffffffffffffffffff\n      and\n      dup2\n      mstore\n      0x20\n      add\n      swap1\n      dup2\n      mstore\n      0x20\n      add\n      0x00\n      keccak256\n      sload\n        /* \"@openzeppelin/contracts@5.0.1/token/ERC721/ERC721.sol\":2098:2121  return _balances[owner] */\n      swap1\n      pop\n        /* \"@openzeppelin/contracts@5.0.1/token/ERC721/ERC721.sol\":1920:2128  function balanceOf(address owner) public view virtual returns (uint256) {... */\n      swap2\n      swap1\n      pop\n      jump\t// out\n        /* \"@openzeppelin/contracts@5.0.1/access/Ownable.sol\":2293:2394  function renounceOwnership() public virtual onlyOwner {... */\n    tag_134:\n        /* \"@openzeppelin/contracts@5.0.1/access/Ownable.sol\":1531:1544  _checkOwner() */\n      tag_271\n        /* \"@openzeppelin/contracts@5.0.1/access/Ownable.sol\":1531:1542  _checkOwner */\n      tag_226\n        /* \"@openzeppelin/contracts@5.0.1/access/Ownable.sol\":1531:1544  _checkOwner() */\n      jump\t// in\n    tag_271:\n        /* \"@openzeppelin/contracts@5.0.1/access/Ownable.sol\":2357:2387  _transferOwnership(address(0)) */\n      tag_273\n        /* \"@openzeppelin/contracts@5.0.1/access/Ownable.sol\":2384:2385  0 */\n      0x00\n        /* \"@openzeppelin/contracts@5.0.1/access/Ownable.sol\":2357:2375  _transferOwnership */\n      tag_274\n        /* \"@openzeppelin/contracts@5.0.1/access/Ownable.sol\":2357:2387  _transferOwnership(address(0)) */\n      jump\t// in\n    tag_273:\n        /* \"@openzeppelin/contracts@5.0.1/access/Ownable.sol\":2293:2394  function renounceOwnership() public virtual onlyOwner {... */\n      jump\t// out\n        /* \"contracts/StakeTokenNFT.sol\":916:977  function pause() public onlyOwner {... */\n    tag_137:\n        /* \"@openzeppelin/contracts@5.0.1/access/Ownable.sol\":1531:1544  _checkOwner() */\n      tag_276\n        /* \"@openzeppelin/contracts@5.0.1/access/Ownable.sol\":1531:1542  _checkOwner */\n      tag_226\n        /* \"@openzeppelin/contracts@5.0.1/access/Ownable.sol\":1531:1544  _checkOwner() */\n      jump\t// in\n    tag_276:\n        /* \"contracts/StakeTokenNFT.sol\":961:969  _pause() */\n      tag_278\n        /* \"contracts/StakeTokenNFT.sol\":961:967  _pause */\n      tag_279\n        /* \"contracts/StakeTokenNFT.sol\":961:969  _pause() */\n      jump\t// in\n    tag_278:\n        /* \"contracts/StakeTokenNFT.sol\":916:977  function pause() public onlyOwner {... */\n      jump\t// out\n        /* \"@openzeppelin/contracts@5.0.1/access/Ownable.sol\":1638:1723  function owner() public view virtual returns (address) {... */\n    tag_140:\n        /* \"@openzeppelin/contracts@5.0.1/access/Ownable.sol\":1684:1691  address */\n      0x00\n        /* \"@openzeppelin/contracts@5.0.1/access/Ownable.sol\":1710:1716  _owner */\n      0x0a\n      0x01\n      swap1\n      sload\n      swap1\n      0x0100\n      exp\n      swap1\n      div\n      0xffffffffffffffffffffffffffffffffffffffff\n      and\n        /* \"@openzeppelin/contracts@5.0.1/access/Ownable.sol\":1703:1716  return _owner */\n      swap1\n      pop\n        /* \"@openzeppelin/contracts@5.0.1/access/Ownable.sol\":1638:1723  function owner() public view virtual returns (address) {... */\n      swap1\n      jump\t// out\n        /* \"@openzeppelin/contracts@5.0.1/token/ERC721/ERC721.sol\":2518:2611  function symbol() public view virtual returns (string memory) {... */\n    tag_144:\n        /* \"@openzeppelin/contracts@5.0.1/token/ERC721/ERC721.sol\":2565:2578  string memory */\n      0x60\n        /* \"@openzeppelin/contracts@5.0.1/token/ERC721/ERC721.sol\":2597:2604  _symbol */\n      0x01\n        /* \"@openzeppelin/contracts@5.0.1/token/ERC721/ERC721.sol\":2590:2604  return _symbol */\n      dup1\n      sload\n      tag_282\n      swap1\n      tag_180\n      jump\t// in\n    tag_282:\n      dup1\n      0x1f\n      add\n      0x20\n      dup1\n      swap2\n      div\n      mul\n      0x20\n      add\n      mload(0x40)\n      swap1\n      dup2\n      add\n      0x40\n      mstore\n      dup1\n      swap3\n      swap2\n      swap1\n      dup2\n      dup2\n      mstore\n      0x20\n      add\n      dup3\n      dup1\n      sload\n      tag_283\n      swap1\n      tag_180\n      jump\t// in\n    tag_283:\n      dup1\n      iszero\n      tag_284\n      jumpi\n      dup1\n      0x1f\n      lt\n      tag_285\n      jumpi\n      0x0100\n      dup1\n      dup4\n      sload\n      div\n      mul\n      dup4\n      mstore\n      swap2\n      0x20\n      add\n      swap2\n      jump(tag_284)\n    tag_285:\n      dup3\n      add\n      swap2\n      swap1\n      0x00\n      mstore\n      keccak256(0x00, 0x20)\n      swap1\n    tag_286:\n      dup2\n      sload\n      dup2\n      mstore\n      swap1\n      0x01\n      add\n      swap1\n      0x20\n      add\n      dup1\n      dup4\n      gt\n      tag_286\n      jumpi\n      dup3\n      swap1\n      sub\n      0x1f\n      and\n      dup3\n      add\n      swap2\n    tag_284:\n      pop\n      pop\n      pop\n      pop\n      pop\n      swap1\n      pop\n        /* \"@openzeppelin/contracts@5.0.1/token/ERC721/ERC721.sol\":2518:2611  function symbol() public view virtual returns (string memory) {... */\n      swap1\n      jump\t// out\n        /* \"@openzeppelin/contracts@5.0.1/token/ERC721/ERC721.sol\":3718:3862  function setApprovalForAll(address operator, bool approved) public virtual {... */\n    tag_150:\n        /* \"@openzeppelin/contracts@5.0.1/token/ERC721/ERC721.sol\":3803:3855  _setApprovalForAll(_msgSender(), operator, approved) */\n      tag_288\n        /* \"@openzeppelin/contracts@5.0.1/token/ERC721/ERC721.sol\":3822:3834  _msgSender() */\n      tag_289\n        /* \"@openzeppelin/contracts@5.0.1/token/ERC721/ERC721.sol\":3822:3832  _msgSender */\n      tag_193\n        /* \"@openzeppelin/contracts@5.0.1/token/ERC721/ERC721.sol\":3822:3834  _msgSender() */\n      jump\t// in\n    tag_289:\n        /* \"@openzeppelin/contracts@5.0.1/token/ERC721/ERC721.sol\":3836:3844  operator */\n      dup4\n        /* \"@openzeppelin/contracts@5.0.1/token/ERC721/ERC721.sol\":3846:3854  approved */\n      dup4\n        /* \"@openzeppelin/contracts@5.0.1/token/ERC721/ERC721.sol\":3803:3821  _setApprovalForAll */\n      tag_290\n        /* \"@openzeppelin/contracts@5.0.1/token/ERC721/ERC721.sol\":3803:3855  _setApprovalForAll(_msgSender(), operator, approved) */\n      jump\t// in\n    tag_288:\n        /* \"@openzeppelin/contracts@5.0.1/token/ERC721/ERC721.sol\":3718:3862  function setApprovalForAll(address operator, bool approved) public virtual {... */\n      pop\n      pop\n      jump\t// out\n        /* \"@openzeppelin/contracts@5.0.1/token/ERC721/ERC721.sol\":4985:5193  function safeTransferFrom(address from, address to, uint256 tokenId, bytes memory data) public virtual {... */\n    tag_155:\n        /* \"@openzeppelin/contracts@5.0.1/token/ERC721/ERC721.sol\":5098:5129  transferFrom(from, to, tokenId) */\n      tag_292\n        /* \"@openzeppelin/contracts@5.0.1/token/ERC721/ERC721.sol\":5111:5115  from */\n      dup5\n        /* \"@openzeppelin/contracts@5.0.1/token/ERC721/ERC721.sol\":5117:5119  to */\n      dup5\n        /* \"@openzeppelin/contracts@5.0.1/token/ERC721/ERC721.sol\":5121:5128  tokenId */\n      dup5\n        /* \"@openzeppelin/contracts@5.0.1/token/ERC721/ERC721.sol\":5098:5110  transferFrom */\n      tag_78\n        /* \"@openzeppelin/contracts@5.0.1/token/ERC721/ERC721.sol\":5098:5129  transferFrom(from, to, tokenId) */\n      jump\t// in\n    tag_292:\n        /* \"@openzeppelin/contracts@5.0.1/token/ERC721/ERC721.sol\":5139:5186  _checkOnERC721Received(from, to, tokenId, data) */\n      tag_293\n        /* \"@openzeppelin/contracts@5.0.1/token/ERC721/ERC721.sol\":5162:5166  from */\n      dup5\n        /* \"@openzeppelin/contracts@5.0.1/token/ERC721/ERC721.sol\":5168:5170  to */\n      dup5\n        /* \"@openzeppelin/contracts@5.0.1/token/ERC721/ERC721.sol\":5172:5179  tokenId */\n      dup5\n        /* \"@openzeppelin/contracts@5.0.1/token/ERC721/ERC721.sol\":5181:5185  data */\n      dup5\n        /* \"@openzeppelin/contracts@5.0.1/token/ERC721/ERC721.sol\":5139:5161  _checkOnERC721Received */\n      tag_294\n        /* \"@openzeppelin/contracts@5.0.1/token/ERC721/ERC721.sol\":5139:5186  _checkOnERC721Received(from, to, tokenId, data) */\n      jump\t// in\n    tag_293:\n        /* \"@openzeppelin/contracts@5.0.1/token/ERC721/ERC721.sol\":4985:5193  function safeTransferFrom(address from, address to, uint256 tokenId, bytes memory data) public virtual {... */\n      pop\n      pop\n      pop\n      pop\n      jump\t// out\n        /* \"contracts/StakeTokenNFT.sol\":504:538  bool public publicMintOpen = false */\n    tag_158:\n      0x0d\n      0x00\n      swap1\n      sload\n      swap1\n      0x0100\n      exp\n      swap1\n      div\n      0xff\n      and\n      dup2\n      jump\t// out\n        /* \"@openzeppelin/contracts@5.0.1/token/ERC721/ERC721.sol\":2677:2932  function tokenURI(uint256 tokenId) public view virtual returns (string memory) {... */\n    tag_163:\n        /* \"@openzeppelin/contracts@5.0.1/token/ERC721/ERC721.sol\":2741:2754  string memory */\n      0x60\n        /* \"@openzeppelin/contracts@5.0.1/token/ERC721/ERC721.sol\":2766:2788  _requireOwned(tokenId) */\n      tag_296\n        /* \"@openzeppelin/contracts@5.0.1/token/ERC721/ERC721.sol\":2780:2787  tokenId */\n      dup3\n        /* \"@openzeppelin/contracts@5.0.1/token/ERC721/ERC721.sol\":2766:2779  _requireOwned */\n      tag_187\n        /* \"@openzeppelin/contracts@5.0.1/token/ERC721/ERC721.sol\":2766:2788  _requireOwned(tokenId) */\n      jump\t// in\n    tag_296:\n      pop\n        /* \"@openzeppelin/contracts@5.0.1/token/ERC721/ERC721.sol\":2799:2820  string memory baseURI */\n      0x00\n        /* \"@openzeppelin/contracts@5.0.1/token/ERC721/ERC721.sol\":2823:2833  _baseURI() */\n      tag_297\n        /* \"@openzeppelin/contracts@5.0.1/token/ERC721/ERC721.sol\":2823:2831  _baseURI */\n      tag_298\n        /* \"@openzeppelin/contracts@5.0.1/token/ERC721/ERC721.sol\":2823:2833  _baseURI() */\n      jump\t// in\n    tag_297:\n        /* \"@openzeppelin/contracts@5.0.1/token/ERC721/ERC721.sol\":2799:2833  string memory baseURI = _baseURI() */\n      swap1\n      pop\n        /* \"@openzeppelin/contracts@5.0.1/token/ERC721/ERC721.sol\":2874:2875  0 */\n      0x00\n        /* \"@openzeppelin/contracts@5.0.1/token/ERC721/ERC721.sol\":2856:2863  baseURI */\n      dup2\n        /* \"@openzeppelin/contracts@5.0.1/token/ERC721/ERC721.sol\":2850:2871  bytes(baseURI).length */\n      mload\n        /* \"@openzeppelin/contracts@5.0.1/token/ERC721/ERC721.sol\":2850:2875  bytes(baseURI).length > 0 */\n      gt\n        /* \"@openzeppelin/contracts@5.0.1/token/ERC721/ERC721.sol\":2850:2925  bytes(baseURI).length > 0 ? string.concat(baseURI, tokenId.toString()) : \"\" */\n      tag_299\n      jumpi\n      mload(0x40)\n      dup1\n      0x20\n      add\n      0x40\n      mstore\n      dup1\n      0x00\n      dup2\n      mstore\n      pop\n      jump(tag_300)\n    tag_299:\n        /* \"@openzeppelin/contracts@5.0.1/token/ERC721/ERC721.sol\":2892:2899  baseURI */\n      dup1\n        /* \"@openzeppelin/contracts@5.0.1/token/ERC721/ERC721.sol\":2901:2919  tokenId.toString() */\n      tag_301\n        /* \"@openzeppelin/contracts@5.0.1/token/ERC721/ERC721.sol\":2901:2908  tokenId */\n      dup5\n        /* \"@openzeppelin/contracts@5.0.1/token/ERC721/ERC721.sol\":2901:2917  tokenId.toString */\n      tag_302\n        /* \"@openzeppelin/contracts@5.0.1/token/ERC721/ERC721.sol\":2901:2919  tokenId.toString() */\n      jump\t// in\n    tag_301:\n        /* \"@openzeppelin/contracts@5.0.1/token/ERC721/ERC721.sol\":2878:2920  string.concat(baseURI, tokenId.toString()) */\n      add(0x20, mload(0x40))\n      tag_303\n      swap3\n      swap2\n      swap1\n      tag_304\n      jump\t// in\n    tag_303:\n      mload(0x40)\n      0x20\n      dup2\n      dup4\n      sub\n      sub\n      dup2\n      mstore\n      swap1\n      0x40\n      mstore\n        /* \"@openzeppelin/contracts@5.0.1/token/ERC721/ERC721.sol\":2850:2925  bytes(baseURI).length > 0 ? string.concat(baseURI, tokenId.toString()) : \"\" */\n    tag_300:\n        /* \"@openzeppelin/contracts@5.0.1/token/ERC721/ERC721.sol\":2843:2925  return bytes(baseURI).length > 0 ? string.concat(baseURI, tokenId.toString()) : \"\" */\n      swap2\n      pop\n      pop\n        /* \"@openzeppelin/contracts@5.0.1/token/ERC721/ERC721.sol\":2677:2932  function tokenURI(uint256 tokenId) public view virtual returns (string memory) {... */\n      swap2\n      swap1\n      pop\n      jump\t// out\n        /* \"@openzeppelin/contracts@5.0.1/token/ERC721/ERC721.sol\":3928:4081  function isApprovedForAll(address owner, address operator) public view virtual returns (bool) {... */\n    tag_169:\n        /* \"@openzeppelin/contracts@5.0.1/token/ERC721/ERC721.sol\":4016:4020  bool */\n      0x00\n        /* \"@openzeppelin/contracts@5.0.1/token/ERC721/ERC721.sol\":4039:4057  _operatorApprovals */\n      0x05\n        /* \"@openzeppelin/contracts@5.0.1/token/ERC721/ERC721.sol\":4039:4064  _operatorApprovals[owner] */\n      0x00\n        /* \"@openzeppelin/contracts@5.0.1/token/ERC721/ERC721.sol\":4058:4063  owner */\n      dup5\n        /* \"@openzeppelin/contracts@5.0.1/token/ERC721/ERC721.sol\":4039:4064  _operatorApprovals[owner] */\n      0xffffffffffffffffffffffffffffffffffffffff\n      and\n      0xffffffffffffffffffffffffffffffffffffffff\n      and\n      dup2\n      mstore\n      0x20\n      add\n      swap1\n      dup2\n      mstore\n      0x20\n      add\n      0x00\n      keccak256\n        /* \"@openzeppelin/contracts@5.0.1/token/ERC721/ERC721.sol\":4039:4074  _operatorApprovals[owner][operator] */\n      0x00\n        /* \"@openzeppelin/contracts@5.0.1/token/ERC721/ERC721.sol\":4065:4073  operator */\n      dup4\n        /* \"@openzeppelin/contracts@5.0.1/token/ERC721/ERC721.sol\":4039:4074  _operatorApprovals[owner][operator] */\n      0xffffffffffffffffffffffffffffffffffffffff\n      and\n      0xffffffffffffffffffffffffffffffffffffffff\n      and\n      dup2\n      mstore\n      0x20\n      add\n      swap1\n      dup2\n      mstore\n      0x20\n      add\n      0x00\n      keccak256\n      0x00\n      swap1\n      sload\n      swap1\n      0x0100\n      exp\n      swap1\n      div\n      0xff\n      and\n        /* \"@openzeppelin/contracts@5.0.1/token/ERC721/ERC721.sol\":4032:4074  return _operatorApprovals[owner][operator] */\n      swap1\n      pop\n        /* \"@openzeppelin/contracts@5.0.1/token/ERC721/ERC721.sol\":3928:4081  function isApprovedForAll(address owner, address operator) public view virtual returns (bool) {... */\n      swap3\n      swap2\n      pop\n      pop\n      jump\t// out\n        /* \"@openzeppelin/contracts@5.0.1/access/Ownable.sol\":2543:2758  function transferOwnership(address newOwner) public virtual onlyOwner {... */\n    tag_174:\n        /* \"@openzeppelin/contracts@5.0.1/access/Ownable.sol\":1531:1544  _checkOwner() */\n      tag_307\n        /* \"@openzeppelin/contracts@5.0.1/access/Ownable.sol\":1531:1542  _checkOwner */\n      tag_226\n        /* \"@openzeppelin/contracts@5.0.1/access/Ownable.sol\":1531:1544  _checkOwner() */\n      jump\t// in\n    tag_307:\n        /* \"@openzeppelin/contracts@5.0.1/access/Ownable.sol\":2647:2648  0 */\n      0x00\n        /* \"@openzeppelin/contracts@5.0.1/access/Ownable.sol\":2627:2649  newOwner == address(0) */\n      0xffffffffffffffffffffffffffffffffffffffff\n      and\n        /* \"@openzeppelin/contracts@5.0.1/access/Ownable.sol\":2627:2635  newOwner */\n      dup2\n        /* \"@openzeppelin/contracts@5.0.1/access/Ownable.sol\":2627:2649  newOwner == address(0) */\n      0xffffffffffffffffffffffffffffffffffffffff\n      and\n      sub\n        /* \"@openzeppelin/contracts@5.0.1/access/Ownable.sol\":2623:2714  if (newOwner == address(0)) {... */\n      tag_309\n      jumpi\n        /* \"@openzeppelin/contracts@5.0.1/access/Ownable.sol\":2700:2701  0 */\n      0x00\n        /* \"@openzeppelin/contracts@5.0.1/access/Ownable.sol\":2672:2703  OwnableInvalidOwner(address(0)) */\n      mload(0x40)\n      0x1e4fbdf700000000000000000000000000000000000000000000000000000000\n      dup2\n      mstore\n      0x04\n      add\n      tag_310\n      swap2\n      swap1\n      tag_57\n      jump\t// in\n    tag_310:\n      mload(0x40)\n      dup1\n      swap2\n      sub\n      swap1\n      revert\n        /* \"@openzeppelin/contracts@5.0.1/access/Ownable.sol\":2623:2714  if (newOwner == address(0)) {... */\n    tag_309:\n        /* \"@openzeppelin/contracts@5.0.1/access/Ownable.sol\":2723:2751  _transferOwnership(newOwner) */\n      tag_311\n        /* \"@openzeppelin/contracts@5.0.1/access/Ownable.sol\":2742:2750  newOwner */\n      dup2\n        /* \"@openzeppelin/contracts@5.0.1/access/Ownable.sol\":2723:2741  _transferOwnership */\n      tag_274\n        /* \"@openzeppelin/contracts@5.0.1/access/Ownable.sol\":2723:2751  _transferOwnership(newOwner) */\n      jump\t// in\n    tag_311:\n        /* \"@openzeppelin/contracts@5.0.1/access/Ownable.sol\":2543:2758  function transferOwnership(address newOwner) public virtual onlyOwner {... */\n      pop\n      jump\t// out\n        /* \"@openzeppelin/contracts@5.0.1/token/ERC721/extensions/ERC721Enumerable.sol\":1435:1657  function supportsInterface(bytes4 interfaceId) public view virtual override(IERC165, ERC721) returns (bool) {... */\n    tag_177:\n        /* \"@openzeppelin/contracts@5.0.1/token/ERC721/extensions/ERC721Enumerable.sol\":1537:1541  bool */\n      0x00\n        /* \"@openzeppelin/contracts@5.0.1/token/ERC721/extensions/ERC721Enumerable.sol\":1575:1610  type(IERC721Enumerable).interfaceId */\n      0x780e9d6300000000000000000000000000000000000000000000000000000000\n        /* \"@openzeppelin/contracts@5.0.1/token/ERC721/extensions/ERC721Enumerable.sol\":1560:1610  interfaceId == type(IERC721Enumerable).interfaceId */\n      not(0xffffffffffffffffffffffffffffffffffffffffffffffffffffffff)\n      and\n        /* \"@openzeppelin/contracts@5.0.1/token/ERC721/extensions/ERC721Enumerable.sol\":1560:1571  interfaceId */\n      dup3\n        /* \"@openzeppelin/contracts@5.0.1/token/ERC721/extensions/ERC721Enumerable.sol\":1560:1610  interfaceId == type(IERC721Enumerable).interfaceId */\n      not(0xffffffffffffffffffffffffffffffffffffffffffffffffffffffff)\n      and\n      eq\n        /* \"@openzeppelin/contracts@5.0.1/token/ERC721/extensions/ERC721Enumerable.sol\":1560:1650  interfaceId == type(IERC721Enumerable).interfaceId || super.supportsInterface(interfaceId) */\n      dup1\n      tag_313\n      jumpi\n      pop\n        /* \"@openzeppelin/contracts@5.0.1/token/ERC721/extensions/ERC721Enumerable.sol\":1614:1650  super.supportsInterface(interfaceId) */\n      tag_314\n        /* \"@openzeppelin/contracts@5.0.1/token/ERC721/extensions/ERC721Enumerable.sol\":1638:1649  interfaceId */\n      dup3\n        /* \"@openzeppelin/contracts@5.0.1/token/ERC721/extensions/ERC721Enumerable.sol\":1614:1637  super.supportsInterface */\n      tag_315\n        /* \"@openzeppelin/contracts@5.0.1/token/ERC721/extensions/ERC721Enumerable.sol\":1614:1650  super.supportsInterface(interfaceId) */\n      jump\t// in\n    tag_314:\n        /* \"@openzeppelin/contracts@5.0.1/token/ERC721/extensions/ERC721Enumerable.sol\":1560:1650  interfaceId == type(IERC721Enumerable).interfaceId || super.supportsInterface(interfaceId) */\n    tag_313:\n        /* \"@openzeppelin/contracts@5.0.1/token/ERC721/extensions/ERC721Enumerable.sol\":1553:1650  return interfaceId == type(IERC721Enumerable).interfaceId || super.supportsInterface(interfaceId) */\n      swap1\n      pop\n        /* \"@openzeppelin/contracts@5.0.1/token/ERC721/extensions/ERC721Enumerable.sol\":1435:1657  function supportsInterface(bytes4 interfaceId) public view virtual override(IERC165, ERC721) returns (bool) {... */\n      swap2\n      swap1\n      pop\n      jump\t// out\n        /* \"@openzeppelin/contracts@5.0.1/token/ERC721/ERC721.sol\":16138:16379  function _requireOwned(uint256 tokenId) internal view returns (address) {... */\n    tag_187:\n        /* \"@openzeppelin/contracts@5.0.1/token/ERC721/ERC721.sol\":16201:16208  address */\n      0x00\n        /* \"@openzeppelin/contracts@5.0.1/token/ERC721/ERC721.sol\":16220:16233  address owner */\n      dup1\n        /* \"@openzeppelin/contracts@5.0.1/token/ERC721/ERC721.sol\":16236:16253  _ownerOf(tokenId) */\n      tag_317\n        /* \"@openzeppelin/contracts@5.0.1/token/ERC721/ERC721.sol\":16245:16252  tokenId */\n      dup4\n        /* \"@openzeppelin/contracts@5.0.1/token/ERC721/ERC721.sol\":16236:16244  _ownerOf */\n      tag_318\n        /* \"@openzeppelin/contracts@5.0.1/token/ERC721/ERC721.sol\":16236:16253  _ownerOf(tokenId) */\n      jump\t// in\n    tag_317:\n        /* \"@openzeppelin/contracts@5.0.1/token/ERC721/ERC721.sol\":16220:16253  address owner = _ownerOf(tokenId) */\n      swap1\n      pop\n        /* \"@openzeppelin/contracts@5.0.1/token/ERC721/ERC721.sol\":16284:16285  0 */\n      0x00\n        /* \"@openzeppelin/contracts@5.0.1/token/ERC721/ERC721.sol\":16267:16286  owner == address(0) */\n      0xffffffffffffffffffffffffffffffffffffffff\n      and\n        /* \"@openzeppelin/contracts@5.0.1/token/ERC721/ERC721.sol\":16267:16272  owner */\n      dup2\n        /* \"@openzeppelin/contracts@5.0.1/token/ERC721/ERC721.sol\":16267:16286  owner == address(0) */\n      0xffffffffffffffffffffffffffffffffffffffff\n      and\n      sub\n        /* \"@openzeppelin/contracts@5.0.1/token/ERC721/ERC721.sol\":16263:16351  if (owner == address(0)) {... */\n      tag_319\n      jumpi\n        /* \"@openzeppelin/contracts@5.0.1/token/ERC721/ERC721.sol\":16332:16339  tokenId */\n      dup3\n        /* \"@openzeppelin/contracts@5.0.1/token/ERC721/ERC721.sol\":16309:16340  ERC721NonexistentToken(tokenId) */\n      mload(0x40)\n      0x7e27328900000000000000000000000000000000000000000000000000000000\n      dup2\n      mstore\n      0x04\n      add\n      tag_320\n      swap2\n      swap1\n      tag_73\n      jump\t// in\n    tag_320:\n      mload(0x40)\n      dup1\n      swap2\n      sub\n      swap1\n      revert\n        /* \"@openzeppelin/contracts@5.0.1/token/ERC721/ERC721.sol\":16263:16351  if (owner == address(0)) {... */\n    tag_319:\n        /* \"@openzeppelin/contracts@5.0.1/token/ERC721/ERC721.sol\":16367:16372  owner */\n      dup1\n        /* \"@openzeppelin/contracts@5.0.1/token/ERC721/ERC721.sol\":16360:16372  return owner */\n      swap2\n      pop\n      pop\n        /* \"@openzeppelin/contracts@5.0.1/token/ERC721/ERC721.sol\":16138:16379  function _requireOwned(uint256 tokenId) internal view returns (address) {... */\n      swap2\n      swap1\n      pop\n      jump\t// out\n        /* \"@openzeppelin/contracts@5.0.1/token/ERC721/ERC721.sol\":5938:6065  function _getApproved(uint256 tokenId) internal view virtual returns (address) {... */\n    tag_189:\n        /* \"@openzeppelin/contracts@5.0.1/token/ERC721/ERC721.sol\":6008:6015  address */\n      0x00\n        /* \"@openzeppelin/contracts@5.0.1/token/ERC721/ERC721.sol\":6034:6049  _tokenApprovals */\n      0x04\n        /* \"@openzeppelin/contracts@5.0.1/token/ERC721/ERC721.sol\":6034:6058  _tokenApprovals[tokenId] */\n      0x00\n        /* \"@openzeppelin/contracts@5.0.1/token/ERC721/ERC721.sol\":6050:6057  tokenId */\n      dup4\n        /* \"@openzeppelin/contracts@5.0.1/token/ERC721/ERC721.sol\":6034:6058  _tokenApprovals[tokenId] */\n      dup2\n      mstore\n      0x20\n      add\n      swap1\n      dup2\n      mstore\n      0x20\n      add\n      0x00\n      keccak256\n      0x00\n      swap1\n      sload\n      swap1\n      0x0100\n      exp\n      swap1\n      div\n      0xffffffffffffffffffffffffffffffffffffffff\n      and\n        /* \"@openzeppelin/contracts@5.0.1/token/ERC721/ERC721.sol\":6027:6058  return _tokenApprovals[tokenId] */\n      swap1\n      pop\n        /* \"@openzeppelin/contracts@5.0.1/token/ERC721/ERC721.sol\":5938:6065  function _getApproved(uint256 tokenId) internal view virtual returns (address) {... */\n      swap2\n      swap1\n      pop\n      jump\t// out\n        /* \"@openzeppelin/contracts@5.0.1/utils/Context.sol\":656:752  function _msgSender() internal view virtual returns (address) {... */\n    tag_193:\n        /* \"@openzeppelin/contracts@5.0.1/utils/Context.sol\":709:716  address */\n      0x00\n        /* \"@openzeppelin/contracts@5.0.1/utils/Context.sol\":735:745  msg.sender */\n      caller\n        /* \"@openzeppelin/contracts@5.0.1/utils/Context.sol\":728:745  return msg.sender */\n      swap1\n      pop\n        /* \"@openzeppelin/contracts@5.0.1/utils/Context.sol\":656:752  function _msgSender() internal view virtual returns (address) {... */\n      swap1\n      jump\t// out\n        /* \"@openzeppelin/contracts@5.0.1/token/ERC721/ERC721.sol\":14418:14538  function _approve(address to, uint256 tokenId, address auth) internal {... */\n    tag_194:\n        /* \"@openzeppelin/contracts@5.0.1/token/ERC721/ERC721.sol\":14498:14531  _approve(to, tokenId, auth, true) */\n      tag_324\n        /* \"@openzeppelin/contracts@5.0.1/token/ERC721/ERC721.sol\":14507:14509  to */\n      dup4\n        /* \"@openzeppelin/contracts@5.0.1/token/ERC721/ERC721.sol\":14511:14518  tokenId */\n      dup4\n        /* \"@openzeppelin/contracts@5.0.1/token/ERC721/ERC721.sol\":14520:14524  auth */\n      dup4\n        /* \"@openzeppelin/contracts@5.0.1/token/ERC721/ERC721.sol\":14526:14530  true */\n      0x01\n        /* \"@openzeppelin/contracts@5.0.1/token/ERC721/ERC721.sol\":14498:14506  _approve */\n      tag_325\n        /* \"@openzeppelin/contracts@5.0.1/token/ERC721/ERC721.sol\":14498:14531  _approve(to, tokenId, auth, true) */\n      jump\t// in\n    tag_324:\n        /* \"@openzeppelin/contracts@5.0.1/token/ERC721/ERC721.sol\":14418:14538  function _approve(address to, uint256 tokenId, address auth) internal {... */\n      pop\n      pop\n      pop\n      jump\t// out\n        /* \"contracts/StakeTokenNFT.sol\":1950:2136  function internalMint() internal {... */\n    tag_206:\n        /* \"contracts/StakeTokenNFT.sol\":2018:2027  maxSupply */\n      sload(0x0c)\n        /* \"contracts/StakeTokenNFT.sol\":2002:2015  totalSupply() */\n      tag_327\n        /* \"contracts/StakeTokenNFT.sol\":2002:2013  totalSupply */\n      tag_71\n        /* \"contracts/StakeTokenNFT.sol\":2002:2015  totalSupply() */\n      jump\t// in\n    tag_327:\n        /* \"contracts/StakeTokenNFT.sol\":2002:2027  totalSupply() < maxSupply */\n      lt\n        /* \"contracts/StakeTokenNFT.sol\":1994:2044  require(totalSupply() < maxSupply, \"We sold out!\") */\n      tag_328\n      jumpi\n      mload(0x40)\n      0x08c379a000000000000000000000000000000000000000000000000000000000\n      dup2\n      mstore\n      0x04\n      add\n      tag_329\n      swap1\n      tag_330\n      jump\t// in\n    tag_329:\n      mload(0x40)\n      dup1\n      swap2\n      sub\n      swap1\n      revert\n    tag_328:\n        /* \"contracts/StakeTokenNFT.sol\":2055:2070  uint256 tokenId */\n      0x00\n        /* \"contracts/StakeTokenNFT.sol\":2073:2085  _nextTokenId */\n      0x0b\n      0x00\n        /* \"contracts/StakeTokenNFT.sol\":2073:2087  _nextTokenId++ */\n      dup2\n      sload\n      dup1\n      swap3\n      swap2\n      swap1\n      tag_331\n      swap1\n      tag_266\n      jump\t// in\n    tag_331:\n      swap2\n      swap1\n      pop\n      sstore\n        /* \"contracts/StakeTokenNFT.sol\":2055:2087  uint256 tokenId = _nextTokenId++ */\n      swap1\n      pop\n        /* \"contracts/StakeTokenNFT.sol\":2098:2128  _safeMint(msg.sender, tokenId) */\n      tag_332\n        /* \"contracts/StakeTokenNFT.sol\":2108:2118  msg.sender */\n      caller\n        /* \"contracts/StakeTokenNFT.sol\":2120:2127  tokenId */\n      dup3\n        /* \"contracts/StakeTokenNFT.sol\":2098:2107  _safeMint */\n      tag_333\n        /* \"contracts/StakeTokenNFT.sol\":2098:2128  _safeMint(msg.sender, tokenId) */\n      jump\t// in\n    tag_332:\n        /* \"contracts/StakeTokenNFT.sol\":1983:2136  {... */\n      pop\n        /* \"contracts/StakeTokenNFT.sol\":1950:2136  function internalMint() internal {... */\n      jump\t// out\n        /* \"contracts/StakeTokenNFT.sol\":2635:2863  function _update(address to, uint256 tokenId, address auth)... */\n    tag_213:\n        /* \"contracts/StakeTokenNFT.sol\":2791:2798  address */\n      0x00\n        /* \"contracts/StakeTokenNFT.sol\":2823:2855  super._update(to, tokenId, auth) */\n      tag_335\n        /* \"contracts/StakeTokenNFT.sol\":2837:2839  to */\n      dup5\n        /* \"contracts/StakeTokenNFT.sol\":2841:2848  tokenId */\n      dup5\n        /* \"contracts/StakeTokenNFT.sol\":2850:2854  auth */\n      dup5\n        /* \"contracts/StakeTokenNFT.sol\":2823:2836  super._update */\n      tag_336\n        /* \"contracts/StakeTokenNFT.sol\":2823:2855  super._update(to, tokenId, auth) */\n      jump\t// in\n    tag_335:\n        /* \"contracts/StakeTokenNFT.sol\":2816:2855  return super._update(to, tokenId, auth) */\n      swap1\n      pop\n        /* \"contracts/StakeTokenNFT.sol\":2635:2863  function _update(address to, uint256 tokenId, address auth)... */\n      swap4\n      swap3\n      pop\n      pop\n      pop\n      jump\t// out\n        /* \"@openzeppelin/contracts@5.0.1/access/Ownable.sol\":1796:1958  function _checkOwner() internal view virtual {... */\n    tag_226:\n        /* \"@openzeppelin/contracts@5.0.1/access/Ownable.sol\":1866:1878  _msgSender() */\n      tag_338\n        /* \"@openzeppelin/contracts@5.0.1/access/Ownable.sol\":1866:1876  _msgSender */\n      tag_193\n        /* \"@openzeppelin/contracts@5.0.1/access/Ownable.sol\":1866:1878  _msgSender() */\n      jump\t// in\n    tag_338:\n        /* \"@openzeppelin/contracts@5.0.1/access/Ownable.sol\":1855:1878  owner() != _msgSender() */\n      0xffffffffffffffffffffffffffffffffffffffff\n      and\n        /* \"@openzeppelin/contracts@5.0.1/access/Ownable.sol\":1855:1862  owner() */\n      tag_339\n        /* \"@openzeppelin/contracts@5.0.1/access/Ownable.sol\":1855:1860  owner */\n      tag_140\n        /* \"@openzeppelin/contracts@5.0.1/access/Ownable.sol\":1855:1862  owner() */\n      jump\t// in\n    tag_339:\n        /* \"@openzeppelin/contracts@5.0.1/access/Ownable.sol\":1855:1878  owner() != _msgSender() */\n      0xffffffffffffffffffffffffffffffffffffffff\n      and\n      eq\n        /* \"@openzeppelin/contracts@5.0.1/access/Ownable.sol\":1851:1952  if (owner() != _msgSender()) {... */\n      tag_340\n      jumpi\n        /* \"@openzeppelin/contracts@5.0.1/access/Ownable.sol\":1928:1940  _msgSender() */\n      tag_341\n        /* \"@openzeppelin/contracts@5.0.1/access/Ownable.sol\":1928:1938  _msgSender */\n      tag_193\n        /* \"@openzeppelin/contracts@5.0.1/access/Ownable.sol\":1928:1940  _msgSender() */\n      jump\t// in\n    tag_341:\n        /* \"@openzeppelin/contracts@5.0.1/access/Ownable.sol\":1901:1941  OwnableUnauthorizedAccount(_msgSender()) */\n      mload(0x40)\n      0x118cdaa700000000000000000000000000000000000000000000000000000000\n      dup2\n      mstore\n      0x04\n      add\n      tag_342\n      swap2\n      swap1\n      tag_57\n      jump\t// in\n    tag_342:\n      mload(0x40)\n      dup1\n      swap2\n      sub\n      swap1\n      revert\n        /* \"@openzeppelin/contracts@5.0.1/access/Ownable.sol\":1851:1952  if (owner() != _msgSender()) {... */\n    tag_340:\n        /* \"@openzeppelin/contracts@5.0.1/access/Ownable.sol\":1796:1958  function _checkOwner() internal view virtual {... */\n      jump\t// out\n        /* \"@openzeppelin/contracts@5.0.1/utils/Pausable.sol\":2710:2827  function _unpause() internal virtual whenPaused {... */\n    tag_237:\n        /* \"@openzeppelin/contracts@5.0.1/utils/Pausable.sol\":1721:1737  _requirePaused() */\n      tag_344\n        /* \"@openzeppelin/contracts@5.0.1/utils/Pausable.sol\":1721:1735  _requirePaused */\n      tag_345\n        /* \"@openzeppelin/contracts@5.0.1/utils/Pausable.sol\":1721:1737  _requirePaused() */\n      jump\t// in\n    tag_344:\n        /* \"@openzeppelin/contracts@5.0.1/utils/Pausable.sol\":2778:2783  false */\n      0x00\n        /* \"@openzeppelin/contracts@5.0.1/utils/Pausable.sol\":2768:2775  _paused */\n      0x0a\n      0x00\n        /* \"@openzeppelin/contracts@5.0.1/utils/Pausable.sol\":2768:2783  _paused = false */\n      0x0100\n      exp\n      dup2\n      sload\n      dup2\n      0xff\n      mul\n      not\n      and\n      swap1\n      dup4\n      iszero\n      iszero\n      mul\n      or\n      swap1\n      sstore\n      pop\n        /* \"@openzeppelin/contracts@5.0.1/utils/Pausable.sol\":2798:2820  Unpaused(_msgSender()) */\n      0x5db9ee0a495bf2e6ff9c91a7834c1ba4fdd244a5e8aa4e537bd38aeae4b073aa\n        /* \"@openzeppelin/contracts@5.0.1/utils/Pausable.sol\":2807:2819  _msgSender() */\n      tag_347\n        /* \"@openzeppelin/contracts@5.0.1/utils/Pausable.sol\":2807:2817  _msgSender */\n      tag_193\n        /* \"@openzeppelin/contracts@5.0.1/utils/Pausable.sol\":2807:2819  _msgSender() */\n      jump\t// in\n    tag_347:\n        /* \"@openzeppelin/contracts@5.0.1/utils/Pausable.sol\":2798:2820  Unpaused(_msgSender()) */\n      mload(0x40)\n      tag_348\n      swap2\n      swap1\n      tag_57\n      jump\t// in\n    tag_348:\n      mload(0x40)\n      dup1\n      swap2\n      sub\n      swap1\n      log1\n        /* \"@openzeppelin/contracts@5.0.1/utils/Pausable.sol\":2710:2827  function _unpause() internal virtual whenPaused {... */\n      jump\t// out\n        /* \"@openzeppelin/contracts@5.0.1/access/Ownable.sol\":2912:3099  function _transferOwnership(address newOwner) internal virtual {... */\n    tag_274:\n        /* \"@openzeppelin/contracts@5.0.1/access/Ownable.sol\":2985:3001  address oldOwner */\n      0x00\n        /* \"@openzeppelin/contracts@5.0.1/access/Ownable.sol\":3004:3010  _owner */\n      0x0a\n      0x01\n      swap1\n      sload\n      swap1\n      0x0100\n      exp\n      swap1\n      div\n      0xffffffffffffffffffffffffffffffffffffffff\n      and\n        /* \"@openzeppelin/contracts@5.0.1/access/Ownable.sol\":2985:3010  address oldOwner = _owner */\n      swap1\n      pop\n        /* \"@openzeppelin/contracts@5.0.1/access/Ownable.sol\":3029:3037  newOwner */\n      dup2\n        /* \"@openzeppelin/contracts@5.0.1/access/Ownable.sol\":3020:3026  _owner */\n      0x0a\n      0x01\n        /* \"@openzeppelin/contracts@5.0.1/access/Ownable.sol\":3020:3037  _owner = newOwner */\n      0x0100\n      exp\n      dup2\n      sload\n      dup2\n      0xffffffffffffffffffffffffffffffffffffffff\n      mul\n      not\n      and\n      swap1\n      dup4\n      0xffffffffffffffffffffffffffffffffffffffff\n      and\n      mul\n      or\n      swap1\n      sstore\n      pop\n        /* \"@openzeppelin/contracts@5.0.1/access/Ownable.sol\":3083:3091  newOwner */\n      dup2\n        /* \"@openzeppelin/contracts@5.0.1/access/Ownable.sol\":3052:3092  OwnershipTransferred(oldOwner, newOwner) */\n      0xffffffffffffffffffffffffffffffffffffffff\n      and\n        /* \"@openzeppelin/contracts@5.0.1/access/Ownable.sol\":3073:3081  oldOwner */\n      dup2\n        /* \"@openzeppelin/contracts@5.0.1/access/Ownable.sol\":3052:3092  OwnershipTransferred(oldOwner, newOwner) */\n      0xffffffffffffffffffffffffffffffffffffffff\n      and\n      0x8be0079c531659141344cd1fd0a4f28419497f9722a3daafe3b4186f6b6457e0\n      mload(0x40)\n      mload(0x40)\n      dup1\n      swap2\n      sub\n      swap1\n      log3\n        /* \"@openzeppelin/contracts@5.0.1/access/Ownable.sol\":2975:3099  {... */\n      pop\n        /* \"@openzeppelin/contracts@5.0.1/access/Ownable.sol\":2912:3099  function _transferOwnership(address newOwner) internal virtual {... */\n      pop\n      jump\t// out\n        /* \"@openzeppelin/contracts@5.0.1/utils/Pausable.sol\":2463:2578  function _pause() internal virtual whenNotPaused {... */\n    tag_279:\n        /* \"@openzeppelin/contracts@5.0.1/utils/Pausable.sol\":1474:1493  _requireNotPaused() */\n      tag_351\n        /* \"@openzeppelin/contracts@5.0.1/utils/Pausable.sol\":1474:1491  _requireNotPaused */\n      tag_352\n        /* \"@openzeppelin/contracts@5.0.1/utils/Pausable.sol\":1474:1493  _requireNotPaused() */\n      jump\t// in\n    tag_351:\n        /* \"@openzeppelin/contracts@5.0.1/utils/Pausable.sol\":2532:2536  true */\n      0x01\n        /* \"@openzeppelin/contracts@5.0.1/utils/Pausable.sol\":2522:2529  _paused */\n      0x0a\n      0x00\n        /* \"@openzeppelin/contracts@5.0.1/utils/Pausable.sol\":2522:2536  _paused = true */\n      0x0100\n      exp\n      dup2\n      sload\n      dup2\n      0xff\n      mul\n      not\n      and\n      swap1\n      dup4\n      iszero\n      iszero\n      mul\n      or\n      swap1\n      sstore\n      pop\n        /* \"@openzeppelin/contracts@5.0.1/utils/Pausable.sol\":2551:2571  Paused(_msgSender()) */\n      0x62e78cea01bee320cd4e420270b5ea74000d11b0c9f74754ebdbfc544b05a258\n        /* \"@openzeppelin/contracts@5.0.1/utils/Pausable.sol\":2558:2570  _msgSender() */\n      tag_354\n        /* \"@openzeppelin/contracts@5.0.1/utils/Pausable.sol\":2558:2568  _msgSender */\n      tag_193\n        /* \"@openzeppelin/contracts@5.0.1/utils/Pausable.sol\":2558:2570  _msgSender() */\n      jump\t// in\n    tag_354:\n        /* \"@openzeppelin/contracts@5.0.1/utils/Pausable.sol\":2551:2571  Paused(_msgSender()) */\n      mload(0x40)\n      tag_355\n      swap2\n      swap1\n      tag_57\n      jump\t// in\n    tag_355:\n      mload(0x40)\n      dup1\n      swap2\n      sub\n      swap1\n      log1\n        /* \"@openzeppelin/contracts@5.0.1/utils/Pausable.sol\":2463:2578  function _pause() internal virtual whenNotPaused {... */\n      jump\t// out\n        /* \"@openzeppelin/contracts@5.0.1/token/ERC721/ERC721.sol\":15591:15903  function _setApprovalForAll(address owner, address operator, bool approved) internal virtual {... */\n    tag_290:\n        /* \"@openzeppelin/contracts@5.0.1/token/ERC721/ERC721.sol\":15718:15719  0 */\n      0x00\n        /* \"@openzeppelin/contracts@5.0.1/token/ERC721/ERC721.sol\":15698:15720  operator == address(0) */\n      0xffffffffffffffffffffffffffffffffffffffff\n      and\n        /* \"@openzeppelin/contracts@5.0.1/token/ERC721/ERC721.sol\":15698:15706  operator */\n      dup3\n        /* \"@openzeppelin/contracts@5.0.1/token/ERC721/ERC721.sol\":15698:15720  operator == address(0) */\n      0xffffffffffffffffffffffffffffffffffffffff\n      and\n      sub\n        /* \"@openzeppelin/contracts@5.0.1/token/ERC721/ERC721.sol\":15694:15785  if (operator == address(0)) {... */\n      tag_357\n      jumpi\n        /* \"@openzeppelin/contracts@5.0.1/token/ERC721/ERC721.sol\":15765:15773  operator */\n      dup2\n        /* \"@openzeppelin/contracts@5.0.1/token/ERC721/ERC721.sol\":15743:15774  ERC721InvalidOperator(operator) */\n      mload(0x40)\n      0x5b08ba1800000000000000000000000000000000000000000000000000000000\n      dup2\n      mstore\n      0x04\n      add\n      tag_358\n      swap2\n      swap1\n      tag_57\n      jump\t// in\n    tag_358:\n      mload(0x40)\n      dup1\n      swap2\n      sub\n      swap1\n      revert\n        /* \"@openzeppelin/contracts@5.0.1/token/ERC721/ERC721.sol\":15694:15785  if (operator == address(0)) {... */\n    tag_357:\n        /* \"@openzeppelin/contracts@5.0.1/token/ERC721/ERC721.sol\":15832:15840  approved */\n      dup1\n        /* \"@openzeppelin/contracts@5.0.1/token/ERC721/ERC721.sol\":15794:15812  _operatorApprovals */\n      0x05\n        /* \"@openzeppelin/contracts@5.0.1/token/ERC721/ERC721.sol\":15794:15819  _operatorApprovals[owner] */\n      0x00\n        /* \"@openzeppelin/contracts@5.0.1/token/ERC721/ERC721.sol\":15813:15818  owner */\n      dup6\n        /* \"@openzeppelin/contracts@5.0.1/token/ERC721/ERC721.sol\":15794:15819  _operatorApprovals[owner] */\n      0xffffffffffffffffffffffffffffffffffffffff\n      and\n      0xffffffffffffffffffffffffffffffffffffffff\n      and\n      dup2\n      mstore\n      0x20\n      add\n      swap1\n      dup2\n      mstore\n      0x20\n      add\n      0x00\n      keccak256\n        /* \"@openzeppelin/contracts@5.0.1/token/ERC721/ERC721.sol\":15794:15829  _operatorApprovals[owner][operator] */\n      0x00\n        /* \"@openzeppelin/contracts@5.0.1/token/ERC721/ERC721.sol\":15820:15828  operator */\n      dup5\n        /* \"@openzeppelin/contracts@5.0.1/token/ERC721/ERC721.sol\":15794:15829  _operatorApprovals[owner][operator] */\n      0xffffffffffffffffffffffffffffffffffffffff\n      and\n      0xffffffffffffffffffffffffffffffffffffffff\n      and\n      dup2\n      mstore\n      0x20\n      add\n      swap1\n      dup2\n      mstore\n      0x20\n      add\n      0x00\n      keccak256\n      0x00\n        /* \"@openzeppelin/contracts@5.0.1/token/ERC721/ERC721.sol\":15794:15840  _operatorApprovals[owner][operator] = approved */\n      0x0100\n      exp\n      dup2\n      sload\n      dup2\n      0xff\n      mul\n      not\n      and\n      swap1\n      dup4\n      iszero\n      iszero\n      mul\n      or\n      swap1\n      sstore\n      pop\n        /* \"@openzeppelin/contracts@5.0.1/token/ERC721/ERC721.sol\":15877:15885  operator */\n      dup2\n        /* \"@openzeppelin/contracts@5.0.1/token/ERC721/ERC721.sol\":15855:15896  ApprovalForAll(owner, operator, approved) */\n      0xffffffffffffffffffffffffffffffffffffffff\n      and\n        /* \"@openzeppelin/contracts@5.0.1/token/ERC721/ERC721.sol\":15870:15875  owner */\n      dup4\n        /* \"@openzeppelin/contracts@5.0.1/token/ERC721/ERC721.sol\":15855:15896  ApprovalForAll(owner, operator, approved) */\n      0xffffffffffffffffffffffffffffffffffffffff\n      and\n      0x17307eab39ab6107e8899845ad3d59bd9653f200f220920489ca2b5937696c31\n        /* \"@openzeppelin/contracts@5.0.1/token/ERC721/ERC721.sol\":15887:15895  approved */\n      dup4\n        /* \"@openzeppelin/contracts@5.0.1/token/ERC721/ERC721.sol\":15855:15896  ApprovalForAll(owner, operator, approved) */\n      mload(0x40)\n      tag_359\n      swap2\n      swap1\n      tag_45\n      jump\t// in\n    tag_359:\n      mload(0x40)\n      dup1\n      swap2\n      sub\n      swap1\n      log3\n        /* \"@openzeppelin/contracts@5.0.1/token/ERC721/ERC721.sol\":15591:15903  function _setApprovalForAll(address owner, address operator, bool approved) internal virtual {... */\n      pop\n      pop\n      pop\n      jump\t// out\n        /* \"@openzeppelin/contracts@5.0.1/token/ERC721/ERC721.sol\":16918:17700  function _checkOnERC721Received(address from, address to, uint256 tokenId, bytes memory data) private {... */\n    tag_294:\n        /* \"@openzeppelin/contracts@5.0.1/token/ERC721/ERC721.sol\":17051:17052  0 */\n      0x00\n        /* \"@openzeppelin/contracts@5.0.1/token/ERC721/ERC721.sol\":17034:17036  to */\n      dup4\n        /* \"@openzeppelin/contracts@5.0.1/token/ERC721/ERC721.sol\":17034:17048  to.code.length */\n      0xffffffffffffffffffffffffffffffffffffffff\n      and\n      extcodesize\n        /* \"@openzeppelin/contracts@5.0.1/token/ERC721/ERC721.sol\":17034:17052  to.code.length > 0 */\n      gt\n        /* \"@openzeppelin/contracts@5.0.1/token/ERC721/ERC721.sol\":17030:17694  if (to.code.length > 0) {... */\n      iszero\n      tag_361\n      jumpi\n        /* \"@openzeppelin/contracts@5.0.1/token/ERC721/ERC721.sol\":17088:17090  to */\n      dup3\n        /* \"@openzeppelin/contracts@5.0.1/token/ERC721/ERC721.sol\":17072:17108  IERC721Receiver(to).onERC721Received */\n      0xffffffffffffffffffffffffffffffffffffffff\n      and\n      0x150b7a02\n        /* \"@openzeppelin/contracts@5.0.1/token/ERC721/ERC721.sol\":17109:17121  _msgSender() */\n      tag_362\n        /* \"@openzeppelin/contracts@5.0.1/token/ERC721/ERC721.sol\":17109:17119  _msgSender */\n      tag_193\n        /* \"@openzeppelin/contracts@5.0.1/token/ERC721/ERC721.sol\":17109:17121  _msgSender() */\n      jump\t// in\n    tag_362:\n        /* \"@openzeppelin/contracts@5.0.1/token/ERC721/ERC721.sol\":17123:17127  from */\n      dup7\n        /* \"@openzeppelin/contracts@5.0.1/token/ERC721/ERC721.sol\":17129:17136  tokenId */\n      dup6\n        /* \"@openzeppelin/contracts@5.0.1/token/ERC721/ERC721.sol\":17138:17142  data */\n      dup6\n        /* \"@openzeppelin/contracts@5.0.1/token/ERC721/ERC721.sol\":17072:17143  IERC721Receiver(to).onERC721Received(_msgSender(), from, tokenId, data) */\n      mload(0x40)\n      dup6\n      0xffffffff\n      and\n      0xe0\n      shl\n      dup2\n      mstore\n      0x04\n      add\n      tag_363\n      swap5\n      swap4\n      swap3\n      swap2\n      swap1\n      tag_364\n      jump\t// in\n    tag_363:\n      0x20\n      mload(0x40)\n      dup1\n      dup4\n      sub\n      dup2\n      0x00\n      dup8\n      gas\n      call\n      swap3\n      pop\n      pop\n      pop\n      dup1\n      iszero\n      tag_365\n      jumpi\n      pop\n      mload(0x40)\n      returndatasize\n      not(0x1f)\n      0x1f\n      dup3\n      add\n      and\n      dup3\n      add\n      dup1\n      0x40\n      mstore\n      pop\n      dup2\n      add\n      swap1\n      tag_366\n      swap2\n      swap1\n      tag_367\n      jump\t// in\n    tag_366:\n      0x01\n    tag_365:\n        /* \"@openzeppelin/contracts@5.0.1/token/ERC721/ERC721.sol\":17068:17684  try IERC721Receiver(to).onERC721Received(_msgSender(), from, tokenId, data) returns (bytes4 retval) {... */\n      tag_368\n      jumpi\n      returndatasize\n      dup1\n      0x00\n      dup2\n      eq\n      tag_373\n      jumpi\n      mload(0x40)\n      swap2\n      pop\n      and(add(returndatasize, 0x3f), not(0x1f))\n      dup3\n      add\n      0x40\n      mstore\n      returndatasize\n      dup3\n      mstore\n      returndatasize\n      0x00\n      0x20\n      dup5\n      add\n      returndatacopy\n      jump(tag_372)\n    tag_373:\n      0x60\n      swap2\n      pop\n    tag_372:\n      pop\n        /* \"@openzeppelin/contracts@5.0.1/token/ERC721/ERC721.sol\":17398:17399  0 */\n      0x00\n        /* \"@openzeppelin/contracts@5.0.1/token/ERC721/ERC721.sol\":17381:17387  reason */\n      dup2\n        /* \"@openzeppelin/contracts@5.0.1/token/ERC721/ERC721.sol\":17381:17394  reason.length */\n      mload\n        /* \"@openzeppelin/contracts@5.0.1/token/ERC721/ERC721.sol\":17381:17399  reason.length == 0 */\n      sub\n        /* \"@openzeppelin/contracts@5.0.1/token/ERC721/ERC721.sol\":17377:17670  if (reason.length == 0) {... */\n      tag_374\n      jumpi\n        /* \"@openzeppelin/contracts@5.0.1/token/ERC721/ERC721.sol\":17452:17454  to */\n      dup4\n        /* \"@openzeppelin/contracts@5.0.1/token/ERC721/ERC721.sol\":17430:17455  ERC721InvalidReceiver(to) */\n      mload(0x40)\n      0x64a0ae9200000000000000000000000000000000000000000000000000000000\n      dup2\n      mstore\n      0x04\n      add\n      tag_375\n      swap2\n      swap1\n      tag_57\n      jump\t// in\n    tag_375:\n      mload(0x40)\n      dup1\n      swap2\n      sub\n      swap1\n      revert\n        /* \"@openzeppelin/contracts@5.0.1/token/ERC721/ERC721.sol\":17377:17670  if (reason.length == 0) {... */\n    tag_374:\n        /* \"@openzeppelin/contracts@5.0.1/token/ERC721/ERC721.sol\":17622:17628  reason */\n      dup1\n        /* \"@openzeppelin/contracts@5.0.1/token/ERC721/ERC721.sol\":17616:17629  mload(reason) */\n      mload\n        /* \"@openzeppelin/contracts@5.0.1/token/ERC721/ERC721.sol\":17607:17613  reason */\n      dup2\n        /* \"@openzeppelin/contracts@5.0.1/token/ERC721/ERC721.sol\":17603:17605  32 */\n      0x20\n        /* \"@openzeppelin/contracts@5.0.1/token/ERC721/ERC721.sol\":17599:17614  add(32, reason) */\n      add\n        /* \"@openzeppelin/contracts@5.0.1/token/ERC721/ERC721.sol\":17592:17630  revert(add(32, reason), mload(reason)) */\n      revert\n        /* \"@openzeppelin/contracts@5.0.1/token/ERC721/ERC721.sol\":17068:17684  try IERC721Receiver(to).onERC721Received(_msgSender(), from, tokenId, data) returns (bytes4 retval) {... */\n    tag_368:\n        /* \"@openzeppelin/contracts@5.0.1/token/ERC721/ERC721.sol\":17200:17241  IERC721Receiver.onERC721Received.selector */\n      shl(0xe0, 0x150b7a02)\n        /* \"@openzeppelin/contracts@5.0.1/token/ERC721/ERC721.sol\":17190:17241  retval != IERC721Receiver.onERC721Received.selector */\n      not(0xffffffffffffffffffffffffffffffffffffffffffffffffffffffff)\n      and\n        /* \"@openzeppelin/contracts@5.0.1/token/ERC721/ERC721.sol\":17190:17196  retval */\n      dup2\n        /* \"@openzeppelin/contracts@5.0.1/token/ERC721/ERC721.sol\":17190:17241  retval != IERC721Receiver.onERC721Received.selector */\n      not(0xffffffffffffffffffffffffffffffffffffffffffffffffffffffff)\n      and\n      eq\n        /* \"@openzeppelin/contracts@5.0.1/token/ERC721/ERC721.sol\":17186:17316  if (retval != IERC721Receiver.onERC721Received.selector) {... */\n      tag_378\n      jumpi\n        /* \"@openzeppelin/contracts@5.0.1/token/ERC721/ERC721.sol\":17294:17296  to */\n      dup4\n        /* \"@openzeppelin/contracts@5.0.1/token/ERC721/ERC721.sol\":17272:17297  ERC721InvalidReceiver(to) */\n      mload(0x40)\n      0x64a0ae9200000000000000000000000000000000000000000000000000000000\n      dup2\n      mstore\n      0x04\n      add\n      tag_379\n      swap2\n      swap1\n      tag_57\n      jump\t// in\n    tag_379:\n      mload(0x40)\n      dup1\n      swap2\n      sub\n      swap1\n      revert\n        /* \"@openzeppelin/contracts@5.0.1/token/ERC721/ERC721.sol\":17186:17316  if (retval != IERC721Receiver.onERC721Received.selector) {... */\n    tag_378:\n        /* \"@openzeppelin/contracts@5.0.1/token/ERC721/ERC721.sol\":17144:17330  returns (bytes4 retval) {... */\n      pop\n        /* \"@openzeppelin/contracts@5.0.1/token/ERC721/ERC721.sol\":17030:17694  if (to.code.length > 0) {... */\n    tag_361:\n        /* \"@openzeppelin/contracts@5.0.1/token/ERC721/ERC721.sol\":16918:17700  function _checkOnERC721Received(address from, address to, uint256 tokenId, bytes memory data) private {... */\n      pop\n      pop\n      pop\n      pop\n      jump\t// out\n        /* \"contracts/StakeTokenNFT.sol\":759:908  function _baseURI() internal pure override returns (string memory) {... */\n    tag_298:\n        /* \"contracts/StakeTokenNFT.sol\":811:824  string memory */\n      0x60\n        /* \"contracts/StakeTokenNFT.sol\":837:900  return \"ipfs://QmY5rPqGTN1rZxMQg2ApiSZc7JiBNs1ryDzXPZpQhC1ibm/\" */\n      mload(0x40)\n      dup1\n      0x60\n      add\n      0x40\n      mstore\n      dup1\n      0x36\n      dup2\n      mstore\n      0x20\n      add\n      data_1a00b0a5d56b1bcaae8768117b1b6503abc6dce73ebfd51a5f4852b6398f272b\n      0x36\n      swap2\n      codecopy\n      swap1\n      pop\n        /* \"contracts/StakeTokenNFT.sol\":759:908  function _baseURI() internal pure override returns (string memory) {... */\n      swap1\n      jump\t// out\n        /* \"@openzeppelin/contracts@5.0.1/utils/Strings.sol\":637:1335  function toString(uint256 value) internal pure returns (string memory) {... */\n    tag_302:\n        /* \"@openzeppelin/contracts@5.0.1/utils/Strings.sol\":693:706  string memory */\n      0x60\n        /* \"@openzeppelin/contracts@5.0.1/utils/Strings.sol\":742:756  uint256 length */\n      0x00\n        /* \"@openzeppelin/contracts@5.0.1/utils/Strings.sol\":779:780  1 */\n      0x01\n        /* \"@openzeppelin/contracts@5.0.1/utils/Strings.sol\":759:776  Math.log10(value) */\n      tag_382\n        /* \"@openzeppelin/contracts@5.0.1/utils/Strings.sol\":770:775  value */\n      dup5\n        /* \"@openzeppelin/contracts@5.0.1/utils/Strings.sol\":759:769  Math.log10 */\n      tag_383\n        /* \"@openzeppelin/contracts@5.0.1/utils/Strings.sol\":759:776  Math.log10(value) */\n      jump\t// in\n    tag_382:\n        /* \"@openzeppelin/contracts@5.0.1/utils/Strings.sol\":759:780  Math.log10(value) + 1 */\n      add\n        /* \"@openzeppelin/contracts@5.0.1/utils/Strings.sol\":742:780  uint256 length = Math.log10(value) + 1 */\n      swap1\n      pop\n        /* \"@openzeppelin/contracts@5.0.1/utils/Strings.sol\":794:814  string memory buffer */\n      0x00\n        /* \"@openzeppelin/contracts@5.0.1/utils/Strings.sol\":828:834  length */\n      dup2\n        /* \"@openzeppelin/contracts@5.0.1/utils/Strings.sol\":817:835  new string(length) */\n      0xffffffffffffffff\n      dup2\n      gt\n      iszero\n      tag_384\n      jumpi\n      tag_385\n      tag_386\n      jump\t// in\n    tag_385:\n    tag_384:\n      mload(0x40)\n      swap1\n      dup1\n      dup3\n      mstore\n      dup1\n      0x1f\n      add\n      not(0x1f)\n      and\n      0x20\n      add\n      dup3\n      add\n      0x40\n      mstore\n      dup1\n      iszero\n      tag_387\n      jumpi\n      dup2\n      0x20\n      add\n      0x01\n      dup3\n      mul\n      dup1\n      calldatasize\n      dup4\n      calldatacopy\n      dup1\n      dup3\n      add\n      swap2\n      pop\n      pop\n      swap1\n      pop\n    tag_387:\n      pop\n        /* \"@openzeppelin/contracts@5.0.1/utils/Strings.sol\":794:835  string memory buffer = new string(length) */\n      swap1\n      pop\n        /* \"@openzeppelin/contracts@5.0.1/utils/Strings.sol\":849:860  uint256 ptr */\n      0x00\n        /* \"@openzeppelin/contracts@5.0.1/utils/Strings.sol\":975:981  length */\n      dup3\n        /* \"@openzeppelin/contracts@5.0.1/utils/Strings.sol\":971:973  32 */\n      0x20\n        /* \"@openzeppelin/contracts@5.0.1/utils/Strings.sol\":967:982  add(32, length) */\n      add\n        /* \"@openzeppelin/contracts@5.0.1/utils/Strings.sol\":959:965  buffer */\n      dup3\n        /* \"@openzeppelin/contracts@5.0.1/utils/Strings.sol\":955:983  add(buffer, add(32, length)) */\n      add\n        /* \"@openzeppelin/contracts@5.0.1/utils/Strings.sol\":948:983  ptr := add(buffer, add(32, length)) */\n      swap1\n      pop\n        /* \"@openzeppelin/contracts@5.0.1/utils/Strings.sol\":1010:1292  while (true) {... */\n    tag_388:\n        /* \"@openzeppelin/contracts@5.0.1/utils/Strings.sol\":1017:1021  true */\n      0x01\n        /* \"@openzeppelin/contracts@5.0.1/utils/Strings.sol\":1010:1292  while (true) {... */\n      iszero\n      tag_389\n      jumpi\n        /* \"@openzeppelin/contracts@5.0.1/utils/Strings.sol\":1041:1046  ptr-- */\n      dup1\n      dup1\n      0x01\n      swap1\n      sub\n      swap2\n      pop\n      pop\n        /* \"@openzeppelin/contracts@5.0.1/utils/Strings.sol\":1180:1190  HEX_DIGITS */\n      0x3031323334353637383961626364656600000000000000000000000000000000\n        /* \"@openzeppelin/contracts@5.0.1/utils/Strings.sol\":1175:1177  10 */\n      0x0a\n        /* \"@openzeppelin/contracts@5.0.1/utils/Strings.sol\":1168:1173  value */\n      dup7\n        /* \"@openzeppelin/contracts@5.0.1/utils/Strings.sol\":1164:1178  mod(value, 10) */\n      mod\n        /* \"@openzeppelin/contracts@5.0.1/utils/Strings.sol\":1159:1191  byte(mod(value, 10), HEX_DIGITS) */\n      byte\n        /* \"@openzeppelin/contracts@5.0.1/utils/Strings.sol\":1154:1157  ptr */\n      dup2\n        /* \"@openzeppelin/contracts@5.0.1/utils/Strings.sol\":1146:1192  mstore8(ptr, byte(mod(value, 10), HEX_DIGITS)) */\n      mstore8\n        /* \"@openzeppelin/contracts@5.0.1/utils/Strings.sol\":1236:1238  10 */\n      0x0a\n        /* \"@openzeppelin/contracts@5.0.1/utils/Strings.sol\":1227:1238  value /= 10 */\n      dup6\n      dup2\n      tag_390\n      jumpi\n      tag_391\n      tag_392\n      jump\t// in\n    tag_391:\n    tag_390:\n      div\n      swap5\n      pop\n        /* \"@openzeppelin/contracts@5.0.1/utils/Strings.sol\":1269:1270  0 */\n      0x00\n        /* \"@openzeppelin/contracts@5.0.1/utils/Strings.sol\":1260:1265  value */\n      dup6\n        /* \"@openzeppelin/contracts@5.0.1/utils/Strings.sol\":1260:1270  value == 0 */\n      sub\n        /* \"@openzeppelin/contracts@5.0.1/utils/Strings.sol\":1010:1292  while (true) {... */\n      tag_388\n        /* \"@openzeppelin/contracts@5.0.1/utils/Strings.sol\":1256:1277  if (value == 0) break */\n      jumpi\n        /* \"@openzeppelin/contracts@5.0.1/utils/Strings.sol\":1010:1292  while (true) {... */\n    tag_389:\n        /* \"@openzeppelin/contracts@5.0.1/utils/Strings.sol\":1312:1318  buffer */\n      dup2\n        /* \"@openzeppelin/contracts@5.0.1/utils/Strings.sol\":1305:1318  return buffer */\n      swap4\n      pop\n      pop\n      pop\n      pop\n        /* \"@openzeppelin/contracts@5.0.1/utils/Strings.sol\":637:1335  function toString(uint256 value) internal pure returns (string memory) {... */\n      swap2\n      swap1\n      pop\n      jump\t// out\n        /* \"@openzeppelin/contracts@5.0.1/token/ERC721/ERC721.sol\":1561:1861  function supportsInterface(bytes4 interfaceId) public view virtual override(ERC165, IERC165) returns (bool) {... */\n    tag_315:\n        /* \"@openzeppelin/contracts@5.0.1/token/ERC721/ERC721.sol\":1663:1667  bool */\n      0x00\n        /* \"@openzeppelin/contracts@5.0.1/token/ERC721/ERC721.sol\":1713:1738  type(IERC721).interfaceId */\n      0x80ac58cd00000000000000000000000000000000000000000000000000000000\n        /* \"@openzeppelin/contracts@5.0.1/token/ERC721/ERC721.sol\":1698:1738  interfaceId == type(IERC721).interfaceId */\n      not(0xffffffffffffffffffffffffffffffffffffffffffffffffffffffff)\n      and\n        /* \"@openzeppelin/contracts@5.0.1/token/ERC721/ERC721.sol\":1698:1709  interfaceId */\n      dup3\n        /* \"@openzeppelin/contracts@5.0.1/token/ERC721/ERC721.sol\":1698:1738  interfaceId == type(IERC721).interfaceId */\n      not(0xffffffffffffffffffffffffffffffffffffffffffffffffffffffff)\n      and\n      eq\n        /* \"@openzeppelin/contracts@5.0.1/token/ERC721/ERC721.sol\":1698:1802  interfaceId == type(IERC721).interfaceId ||... */\n      dup1\n      tag_395\n      jumpi\n      pop\n        /* \"@openzeppelin/contracts@5.0.1/token/ERC721/ERC721.sol\":1769:1802  type(IERC721Metadata).interfaceId */\n      0x5b5e139f00000000000000000000000000000000000000000000000000000000\n        /* \"@openzeppelin/contracts@5.0.1/token/ERC721/ERC721.sol\":1754:1802  interfaceId == type(IERC721Metadata).interfaceId */\n      not(0xffffffffffffffffffffffffffffffffffffffffffffffffffffffff)\n      and\n        /* \"@openzeppelin/contracts@5.0.1/token/ERC721/ERC721.sol\":1754:1765  interfaceId */\n      dup3\n        /* \"@openzeppelin/contracts@5.0.1/token/ERC721/ERC721.sol\":1754:1802  interfaceId == type(IERC721Metadata).interfaceId */\n      not(0xffffffffffffffffffffffffffffffffffffffffffffffffffffffff)\n      and\n      eq\n        /* \"@openzeppelin/contracts@5.0.1/token/ERC721/ERC721.sol\":1698:1802  interfaceId == type(IERC721).interfaceId ||... */\n    tag_395:\n        /* \"@openzeppelin/contracts@5.0.1/token/ERC721/ERC721.sol\":1698:1854  interfaceId == type(IERC721).interfaceId ||... */\n      dup1\n      tag_396\n      jumpi\n      pop\n        /* \"@openzeppelin/contracts@5.0.1/token/ERC721/ERC721.sol\":1818:1854  super.supportsInterface(interfaceId) */\n      tag_397\n        /* \"@openzeppelin/contracts@5.0.1/token/ERC721/ERC721.sol\":1842:1853  interfaceId */\n      dup3\n        /* \"@openzeppelin/contracts@5.0.1/token/ERC721/ERC721.sol\":1818:1841  super.supportsInterface */\n      tag_398\n        /* \"@openzeppelin/contracts@5.0.1/token/ERC721/ERC721.sol\":1818:1854  super.supportsInterface(interfaceId) */\n      jump\t// in\n    tag_397:\n        /* \"@openzeppelin/contracts@5.0.1/token/ERC721/ERC721.sol\":1698:1854  interfaceId == type(IERC721).interfaceId ||... */\n    tag_396:\n        /* \"@openzeppelin/contracts@5.0.1/token/ERC721/ERC721.sol\":1679:1854  return... */\n      swap1\n      pop\n        /* \"@openzeppelin/contracts@5.0.1/token/ERC721/ERC721.sol\":1561:1861  function supportsInterface(bytes4 interfaceId) public view virtual override(ERC165, IERC165) returns (bool) {... */\n      swap2\n      swap1\n      pop\n      jump\t// out\n        /* \"@openzeppelin/contracts@5.0.1/token/ERC721/ERC721.sol\":5707:5822  function _ownerOf(uint256 tokenId) internal view virtual returns (address) {... */\n    tag_318:\n        /* \"@openzeppelin/contracts@5.0.1/token/ERC721/ERC721.sol\":5773:5780  address */\n      0x00\n        /* \"@openzeppelin/contracts@5.0.1/token/ERC721/ERC721.sol\":5799:5806  _owners */\n      0x02\n        /* \"@openzeppelin/contracts@5.0.1/token/ERC721/ERC721.sol\":5799:5815  _owners[tokenId] */\n      0x00\n        /* \"@openzeppelin/contracts@5.0.1/token/ERC721/ERC721.sol\":5807:5814  tokenId */\n      dup4\n        /* \"@openzeppelin/contracts@5.0.1/token/ERC721/ERC721.sol\":5799:5815  _owners[tokenId] */\n      dup2\n      mstore\n      0x20\n      add\n      swap1\n      dup2\n      mstore\n      0x20\n      add\n      0x00\n      keccak256\n      0x00\n      swap1\n      sload\n      swap1\n      0x0100\n      exp\n      swap1\n      div\n      0xffffffffffffffffffffffffffffffffffffffff\n      and\n        /* \"@openzeppelin/contracts@5.0.1/token/ERC721/ERC721.sol\":5792:5815  return _owners[tokenId] */\n      swap1\n      pop\n        /* \"@openzeppelin/contracts@5.0.1/token/ERC721/ERC721.sol\":5707:5822  function _ownerOf(uint256 tokenId) internal view virtual returns (address) {... */\n      swap2\n      swap1\n      pop\n      jump\t// out\n        /* \"@openzeppelin/contracts@5.0.1/token/ERC721/ERC721.sol\":14720:15382  function _approve(address to, uint256 tokenId, address auth, bool emitEvent) internal virtual {... */\n    tag_325:\n        /* \"@openzeppelin/contracts@5.0.1/token/ERC721/ERC721.sol\":14880:14889  emitEvent */\n      dup1\n        /* \"@openzeppelin/contracts@5.0.1/token/ERC721/ERC721.sol\":14880:14911  emitEvent || auth != address(0) */\n      dup1\n      tag_401\n      jumpi\n      pop\n        /* \"@openzeppelin/contracts@5.0.1/token/ERC721/ERC721.sol\":14909:14910  0 */\n      0x00\n        /* \"@openzeppelin/contracts@5.0.1/token/ERC721/ERC721.sol\":14893:14911  auth != address(0) */\n      0xffffffffffffffffffffffffffffffffffffffff\n      and\n        /* \"@openzeppelin/contracts@5.0.1/token/ERC721/ERC721.sol\":14893:14897  auth */\n      dup3\n        /* \"@openzeppelin/contracts@5.0.1/token/ERC721/ERC721.sol\":14893:14911  auth != address(0) */\n      0xffffffffffffffffffffffffffffffffffffffff\n      and\n      eq\n      iszero\n        /* \"@openzeppelin/contracts@5.0.1/token/ERC721/ERC721.sol\":14880:14911  emitEvent || auth != address(0) */\n    tag_401:\n        /* \"@openzeppelin/contracts@5.0.1/token/ERC721/ERC721.sol\":14876:15336  if (emitEvent || auth != address(0)) {... */\n      iszero\n      tag_402\n      jumpi\n        /* \"@openzeppelin/contracts@5.0.1/token/ERC721/ERC721.sol\":14927:14940  address owner */\n      0x00\n        /* \"@openzeppelin/contracts@5.0.1/token/ERC721/ERC721.sol\":14943:14965  _requireOwned(tokenId) */\n      tag_403\n        /* \"@openzeppelin/contracts@5.0.1/token/ERC721/ERC721.sol\":14957:14964  tokenId */\n      dup5\n        /* \"@openzeppelin/contracts@5.0.1/token/ERC721/ERC721.sol\":14943:14956  _requireOwned */\n      tag_187\n        /* \"@openzeppelin/contracts@5.0.1/token/ERC721/ERC721.sol\":14943:14965  _requireOwned(tokenId) */\n      jump\t// in\n    tag_403:\n        /* \"@openzeppelin/contracts@5.0.1/token/ERC721/ERC721.sol\":14927:14965  address owner = _requireOwned(tokenId) */\n      swap1\n      pop\n        /* \"@openzeppelin/contracts@5.0.1/token/ERC721/ERC721.sol\":15109:15110  0 */\n      0x00\n        /* \"@openzeppelin/contracts@5.0.1/token/ERC721/ERC721.sol\":15093:15111  auth != address(0) */\n      0xffffffffffffffffffffffffffffffffffffffff\n      and\n        /* \"@openzeppelin/contracts@5.0.1/token/ERC721/ERC721.sol\":15093:15097  auth */\n      dup4\n        /* \"@openzeppelin/contracts@5.0.1/token/ERC721/ERC721.sol\":15093:15111  auth != address(0) */\n      0xffffffffffffffffffffffffffffffffffffffff\n      and\n      eq\n      iszero\n        /* \"@openzeppelin/contracts@5.0.1/token/ERC721/ERC721.sol\":15093:15128  auth != address(0) && owner != auth */\n      dup1\n      iszero\n      tag_404\n      jumpi\n      pop\n        /* \"@openzeppelin/contracts@5.0.1/token/ERC721/ERC721.sol\":15124:15128  auth */\n      dup3\n        /* \"@openzeppelin/contracts@5.0.1/token/ERC721/ERC721.sol\":15115:15128  owner != auth */\n      0xffffffffffffffffffffffffffffffffffffffff\n      and\n        /* \"@openzeppelin/contracts@5.0.1/token/ERC721/ERC721.sol\":15115:15120  owner */\n      dup2\n        /* \"@openzeppelin/contracts@5.0.1/token/ERC721/ERC721.sol\":15115:15128  owner != auth */\n      0xffffffffffffffffffffffffffffffffffffffff\n      and\n      eq\n      iszero\n        /* \"@openzeppelin/contracts@5.0.1/token/ERC721/ERC721.sol\":15093:15128  auth != address(0) && owner != auth */\n    tag_404:\n        /* \"@openzeppelin/contracts@5.0.1/token/ERC721/ERC721.sol\":15093:15162  auth != address(0) && owner != auth && !isApprovedForAll(owner, auth) */\n      dup1\n      iszero\n      tag_405\n      jumpi\n      pop\n        /* \"@openzeppelin/contracts@5.0.1/token/ERC721/ERC721.sol\":15133:15162  isApprovedForAll(owner, auth) */\n      tag_406\n        /* \"@openzeppelin/contracts@5.0.1/token/ERC721/ERC721.sol\":15150:15155  owner */\n      dup2\n        /* \"@openzeppelin/contracts@5.0.1/token/ERC721/ERC721.sol\":15157:15161  auth */\n      dup5\n        /* \"@openzeppelin/contracts@5.0.1/token/ERC721/ERC721.sol\":15133:15149  isApprovedForAll */\n      tag_169\n        /* \"@openzeppelin/contracts@5.0.1/token/ERC721/ERC721.sol\":15133:15162  isApprovedForAll(owner, auth) */\n      jump\t// in\n    tag_406:\n        /* \"@openzeppelin/contracts@5.0.1/token/ERC721/ERC721.sol\":15132:15162  !isApprovedForAll(owner, auth) */\n      iszero\n        /* \"@openzeppelin/contracts@5.0.1/token/ERC721/ERC721.sol\":15093:15162  auth != address(0) && owner != auth && !isApprovedForAll(owner, auth) */\n    tag_405:\n        /* \"@openzeppelin/contracts@5.0.1/token/ERC721/ERC721.sol\":15089:15231  if (auth != address(0) && owner != auth && !isApprovedForAll(owner, auth)) {... */\n      iszero\n      tag_407\n      jumpi\n        /* \"@openzeppelin/contracts@5.0.1/token/ERC721/ERC721.sol\":15211:15215  auth */\n      dup3\n        /* \"@openzeppelin/contracts@5.0.1/token/ERC721/ERC721.sol\":15189:15216  ERC721InvalidApprover(auth) */\n      mload(0x40)\n      0xa9fbf51f00000000000000000000000000000000000000000000000000000000\n      dup2\n      mstore\n      0x04\n      add\n      tag_408\n      swap2\n      swap1\n      tag_57\n      jump\t// in\n    tag_408:\n      mload(0x40)\n      dup1\n      swap2\n      sub\n      swap1\n      revert\n        /* \"@openzeppelin/contracts@5.0.1/token/ERC721/ERC721.sol\":15089:15231  if (auth != address(0) && owner != auth && !isApprovedForAll(owner, auth)) {... */\n    tag_407:\n        /* \"@openzeppelin/contracts@5.0.1/token/ERC721/ERC721.sol\":15249:15258  emitEvent */\n      dup2\n        /* \"@openzeppelin/contracts@5.0.1/token/ERC721/ERC721.sol\":15245:15326  if (emitEvent) {... */\n      iszero\n      tag_409\n      jumpi\n        /* \"@openzeppelin/contracts@5.0.1/token/ERC721/ERC721.sol\":15303:15310  tokenId */\n      dup4\n        /* \"@openzeppelin/contracts@5.0.1/token/ERC721/ERC721.sol\":15299:15301  to */\n      dup6\n        /* \"@openzeppelin/contracts@5.0.1/token/ERC721/ERC721.sol\":15283:15311  Approval(owner, to, tokenId) */\n      0xffffffffffffffffffffffffffffffffffffffff\n      and\n        /* \"@openzeppelin/contracts@5.0.1/token/ERC721/ERC721.sol\":15292:15297  owner */\n      dup3\n        /* \"@openzeppelin/contracts@5.0.1/token/ERC721/ERC721.sol\":15283:15311  Approval(owner, to, tokenId) */\n      0xffffffffffffffffffffffffffffffffffffffff\n      and\n      0x8c5be1e5ebec7d5bd14f71427d1e84f3dd0314c0f7b2291e5b200ac8c7c3b925\n      mload(0x40)\n      mload(0x40)\n      dup1\n      swap2\n      sub\n      swap1\n      log4\n        /* \"@openzeppelin/contracts@5.0.1/token/ERC721/ERC721.sol\":15245:15326  if (emitEvent) {... */\n    tag_409:\n        /* \"@openzeppelin/contracts@5.0.1/token/ERC721/ERC721.sol\":14913:15336  {... */\n      pop\n        /* \"@openzeppelin/contracts@5.0.1/token/ERC721/ERC721.sol\":14876:15336  if (emitEvent || auth != address(0)) {... */\n    tag_402:\n        /* \"@openzeppelin/contracts@5.0.1/token/ERC721/ERC721.sol\":15373:15375  to */\n      dup4\n        /* \"@openzeppelin/contracts@5.0.1/token/ERC721/ERC721.sol\":15346:15361  _tokenApprovals */\n      0x04\n        /* \"@openzeppelin/contracts@5.0.1/token/ERC721/ERC721.sol\":15346:15370  _tokenApprovals[tokenId] */\n      0x00\n        /* \"@openzeppelin/contracts@5.0.1/token/ERC721/ERC721.sol\":15362:15369  tokenId */\n      dup6\n        /* \"@openzeppelin/contracts@5.0.1/token/ERC721/ERC721.sol\":15346:15370  _tokenApprovals[tokenId] */\n      dup2\n      mstore\n      0x20\n      add\n      swap1\n      dup2\n      mstore\n      0x20\n      add\n      0x00\n      keccak256\n      0x00\n        /* \"@openzeppelin/contracts@5.0.1/token/ERC721/ERC721.sol\":15346:15375  _tokenApprovals[tokenId] = to */\n      0x0100\n      exp\n      dup2\n      sload\n      dup2\n      0xffffffffffffffffffffffffffffffffffffffff\n      mul\n      not\n      and\n      swap1\n      dup4\n      0xffffffffffffffffffffffffffffffffffffffff\n      and\n      mul\n      or\n      swap1\n      sstore\n      pop\n        /* \"@openzeppelin/contracts@5.0.1/token/ERC721/ERC721.sol\":14720:15382  function _approve(address to, uint256 tokenId, address auth, bool emitEvent) internal virtual {... */\n      pop\n      pop\n      pop\n      pop\n      jump\t// out\n        /* \"@openzeppelin/contracts@5.0.1/token/ERC721/ERC721.sol\":10633:10733  function _safeMint(address to, uint256 tokenId) internal {... */\n    tag_333:\n        /* \"@openzeppelin/contracts@5.0.1/token/ERC721/ERC721.sol\":10700:10726  _safeMint(to, tokenId, \"\") */\n      tag_411\n        /* \"@openzeppelin/contracts@5.0.1/token/ERC721/ERC721.sol\":10710:10712  to */\n      dup3\n        /* \"@openzeppelin/contracts@5.0.1/token/ERC721/ERC721.sol\":10714:10721  tokenId */\n      dup3\n        /* \"@openzeppelin/contracts@5.0.1/token/ERC721/ERC721.sol\":10700:10726  _safeMint(to, tokenId, \"\") */\n      mload(0x40)\n      dup1\n      0x20\n      add\n      0x40\n      mstore\n      dup1\n      0x00\n      dup2\n      mstore\n      pop\n        /* \"@openzeppelin/contracts@5.0.1/token/ERC721/ERC721.sol\":10700:10709  _safeMint */\n      tag_412\n        /* \"@openzeppelin/contracts@5.0.1/token/ERC721/ERC721.sol\":10700:10726  _safeMint(to, tokenId, \"\") */\n      jump\t// in\n    tag_411:\n        /* \"@openzeppelin/contracts@5.0.1/token/ERC721/ERC721.sol\":10633:10733  function _safeMint(address to, uint256 tokenId) internal {... */\n      pop\n      pop\n      jump\t// out\n        /* \"@openzeppelin/contracts@5.0.1/token/ERC721/extensions/ERC721Pausable.sol\":1120:1324  function _update(... */\n    tag_336:\n        /* \"@openzeppelin/contracts@5.0.1/token/ERC721/extensions/ERC721Pausable.sol\":1259:1266  address */\n      0x00\n        /* \"@openzeppelin/contracts@5.0.1/utils/Pausable.sol\":1474:1493  _requireNotPaused() */\n      tag_414\n        /* \"@openzeppelin/contracts@5.0.1/utils/Pausable.sol\":1474:1491  _requireNotPaused */\n      tag_352\n        /* \"@openzeppelin/contracts@5.0.1/utils/Pausable.sol\":1474:1493  _requireNotPaused() */\n      jump\t// in\n    tag_414:\n        /* \"@openzeppelin/contracts@5.0.1/token/ERC721/extensions/ERC721Pausable.sol\":1285:1317  super._update(to, tokenId, auth) */\n      tag_416\n        /* \"@openzeppelin/contracts@5.0.1/token/ERC721/extensions/ERC721Pausable.sol\":1299:1301  to */\n      dup5\n        /* \"@openzeppelin/contracts@5.0.1/token/ERC721/extensions/ERC721Pausable.sol\":1303:1310  tokenId */\n      dup5\n        /* \"@openzeppelin/contracts@5.0.1/token/ERC721/extensions/ERC721Pausable.sol\":1312:1316  auth */\n      dup5\n        /* \"@openzeppelin/contracts@5.0.1/token/ERC721/extensions/ERC721Pausable.sol\":1285:1298  super._update */\n      tag_417\n        /* \"@openzeppelin/contracts@5.0.1/token/ERC721/extensions/ERC721Pausable.sol\":1285:1317  super._update(to, tokenId, auth) */\n      jump\t// in\n    tag_416:\n        /* \"@openzeppelin/contracts@5.0.1/token/ERC721/extensions/ERC721Pausable.sol\":1278:1317  return super._update(to, tokenId, auth) */\n      swap1\n      pop\n        /* \"@openzeppelin/contracts@5.0.1/token/ERC721/extensions/ERC721Pausable.sol\":1120:1324  function _update(... */\n      swap4\n      swap3\n      pop\n      pop\n      pop\n      jump\t// out\n        /* \"@openzeppelin/contracts@5.0.1/utils/Pausable.sol\":2202:2328  function _requirePaused() internal view virtual {... */\n    tag_345:\n        /* \"@openzeppelin/contracts@5.0.1/utils/Pausable.sol\":2265:2273  paused() */\n      tag_419\n        /* \"@openzeppelin/contracts@5.0.1/utils/Pausable.sol\":2265:2271  paused */\n      tag_115\n        /* \"@openzeppelin/contracts@5.0.1/utils/Pausable.sol\":2265:2273  paused() */\n      jump\t// in\n    tag_419:\n        /* \"@openzeppelin/contracts@5.0.1/utils/Pausable.sol\":2260:2322  if (!paused()) {... */\n      tag_420\n      jumpi\n        /* \"@openzeppelin/contracts@5.0.1/utils/Pausable.sol\":2296:2311  ExpectedPause() */\n      mload(0x40)\n      0x8dfc202b00000000000000000000000000000000000000000000000000000000\n      dup2\n      mstore\n      0x04\n      add\n      mload(0x40)\n      dup1\n      swap2\n      sub\n      swap1\n      revert\n        /* \"@openzeppelin/contracts@5.0.1/utils/Pausable.sol\":2260:2322  if (!paused()) {... */\n    tag_420:\n        /* \"@openzeppelin/contracts@5.0.1/utils/Pausable.sol\":2202:2328  function _requirePaused() internal view virtual {... */\n      jump\t// out\n        /* \"@openzeppelin/contracts@5.0.1/utils/Pausable.sol\":2002:2130  function _requireNotPaused() internal view virtual {... */\n    tag_352:\n        /* \"@openzeppelin/contracts@5.0.1/utils/Pausable.sol\":2067:2075  paused() */\n      tag_422\n        /* \"@openzeppelin/contracts@5.0.1/utils/Pausable.sol\":2067:2073  paused */\n      tag_115\n        /* \"@openzeppelin/contracts@5.0.1/utils/Pausable.sol\":2067:2075  paused() */\n      jump\t// in\n    tag_422:\n        /* \"@openzeppelin/contracts@5.0.1/utils/Pausable.sol\":2063:2124  if (paused()) {... */\n      iszero\n      tag_423\n      jumpi\n        /* \"@openzeppelin/contracts@5.0.1/utils/Pausable.sol\":2098:2113  EnforcedPause() */\n      mload(0x40)\n      0xd93c066500000000000000000000000000000000000000000000000000000000\n      dup2\n      mstore\n      0x04\n      add\n      mload(0x40)\n      dup1\n      swap2\n      sub\n      swap1\n      revert\n        /* \"@openzeppelin/contracts@5.0.1/utils/Pausable.sol\":2063:2124  if (paused()) {... */\n    tag_423:\n        /* \"@openzeppelin/contracts@5.0.1/utils/Pausable.sol\":2002:2130  function _requireNotPaused() internal view virtual {... */\n      jump\t// out\n        /* \"@openzeppelin/contracts@5.0.1/utils/math/Math.sol\":12214:13130  function log10(uint256 value) internal pure returns (uint256) {... */\n    tag_383:\n        /* \"@openzeppelin/contracts@5.0.1/utils/math/Math.sol\":12267:12274  uint256 */\n      0x00\n        /* \"@openzeppelin/contracts@5.0.1/utils/math/Math.sol\":12286:12300  uint256 result */\n      dup1\n        /* \"@openzeppelin/contracts@5.0.1/utils/math/Math.sol\":12303:12304  0 */\n      0x00\n        /* \"@openzeppelin/contracts@5.0.1/utils/math/Math.sol\":12286:12304  uint256 result = 0 */\n      swap1\n      pop\n        /* \"@openzeppelin/contracts@5.0.1/utils/math/Math.sol\":12351:12359  10 ** 64 */\n      0x184f03e93ff9f4daa797ed6e38ed64bf6a1f010000000000000000\n        /* \"@openzeppelin/contracts@5.0.1/utils/math/Math.sol\":12342:12347  value */\n      dup4\n        /* \"@openzeppelin/contracts@5.0.1/utils/math/Math.sol\":12342:12359  value >= 10 ** 64 */\n      lt\n        /* \"@openzeppelin/contracts@5.0.1/utils/math/Math.sol\":12338:12441  if (value >= 10 ** 64) {... */\n      tag_425\n      jumpi\n        /* \"@openzeppelin/contracts@5.0.1/utils/math/Math.sol\":12388:12396  10 ** 64 */\n      0x184f03e93ff9f4daa797ed6e38ed64bf6a1f010000000000000000\n        /* \"@openzeppelin/contracts@5.0.1/utils/math/Math.sol\":12379:12396  value /= 10 ** 64 */\n      dup4\n      dup2\n      tag_426\n      jumpi\n      tag_427\n      tag_392\n      jump\t// in\n    tag_427:\n    tag_426:\n      div\n      swap3\n      pop\n        /* \"@openzeppelin/contracts@5.0.1/utils/math/Math.sol\":12424:12426  64 */\n      0x40\n        /* \"@openzeppelin/contracts@5.0.1/utils/math/Math.sol\":12414:12426  result += 64 */\n      dup2\n      add\n      swap1\n      pop\n        /* \"@openzeppelin/contracts@5.0.1/utils/math/Math.sol\":12338:12441  if (value >= 10 ** 64) {... */\n    tag_425:\n        /* \"@openzeppelin/contracts@5.0.1/utils/math/Math.sol\":12467:12475  10 ** 32 */\n      0x04ee2d6d415b85acef8100000000\n        /* \"@openzeppelin/contracts@5.0.1/utils/math/Math.sol\":12458:12463  value */\n      dup4\n        /* \"@openzeppelin/contracts@5.0.1/utils/math/Math.sol\":12458:12475  value >= 10 ** 32 */\n      lt\n        /* \"@openzeppelin/contracts@5.0.1/utils/math/Math.sol\":12454:12557  if (value >= 10 ** 32) {... */\n      tag_428\n      jumpi\n        /* \"@openzeppelin/contracts@5.0.1/utils/math/Math.sol\":12504:12512  10 ** 32 */\n      0x04ee2d6d415b85acef8100000000\n        /* \"@openzeppelin/contracts@5.0.1/utils/math/Math.sol\":12495:12512  value /= 10 ** 32 */\n      dup4\n      dup2\n      tag_429\n      jumpi\n      tag_430\n      tag_392\n      jump\t// in\n    tag_430:\n    tag_429:\n      div\n      swap3\n      pop\n        /* \"@openzeppelin/contracts@5.0.1/utils/math/Math.sol\":12540:12542  32 */\n      0x20\n        /* \"@openzeppelin/contracts@5.0.1/utils/math/Math.sol\":12530:12542  result += 32 */\n      dup2\n      add\n      swap1\n      pop\n        /* \"@openzeppelin/contracts@5.0.1/utils/math/Math.sol\":12454:12557  if (value >= 10 ** 32) {... */\n    tag_428:\n        /* \"@openzeppelin/contracts@5.0.1/utils/math/Math.sol\":12583:12591  10 ** 16 */\n      0x2386f26fc10000\n        /* \"@openzeppelin/contracts@5.0.1/utils/math/Math.sol\":12574:12579  value */\n      dup4\n        /* \"@openzeppelin/contracts@5.0.1/utils/math/Math.sol\":12574:12591  value >= 10 ** 16 */\n      lt\n        /* \"@openzeppelin/contracts@5.0.1/utils/math/Math.sol\":12570:12673  if (value >= 10 ** 16) {... */\n      tag_431\n      jumpi\n        /* \"@openzeppelin/contracts@5.0.1/utils/math/Math.sol\":12620:12628  10 ** 16 */\n      0x2386f26fc10000\n        /* \"@openzeppelin/contracts@5.0.1/utils/math/Math.sol\":12611:12628  value /= 10 ** 16 */\n      dup4\n      dup2\n      tag_432\n      jumpi\n      tag_433\n      tag_392\n      jump\t// in\n    tag_433:\n    tag_432:\n      div\n      swap3\n      pop\n        /* \"@openzeppelin/contracts@5.0.1/utils/math/Math.sol\":12656:12658  16 */\n      0x10\n        /* \"@openzeppelin/contracts@5.0.1/utils/math/Math.sol\":12646:12658  result += 16 */\n      dup2\n      add\n      swap1\n      pop\n        /* \"@openzeppelin/contracts@5.0.1/utils/math/Math.sol\":12570:12673  if (value >= 10 ** 16) {... */\n    tag_431:\n        /* \"@openzeppelin/contracts@5.0.1/utils/math/Math.sol\":12699:12706  10 ** 8 */\n      0x05f5e100\n        /* \"@openzeppelin/contracts@5.0.1/utils/math/Math.sol\":12690:12695  value */\n      dup4\n        /* \"@openzeppelin/contracts@5.0.1/utils/math/Math.sol\":12690:12706  value >= 10 ** 8 */\n      lt\n        /* \"@openzeppelin/contracts@5.0.1/utils/math/Math.sol\":12686:12786  if (value >= 10 ** 8) {... */\n      tag_434\n      jumpi\n        /* \"@openzeppelin/contracts@5.0.1/utils/math/Math.sol\":12735:12742  10 ** 8 */\n      0x05f5e100\n        /* \"@openzeppelin/contracts@5.0.1/utils/math/Math.sol\":12726:12742  value /= 10 ** 8 */\n      dup4\n      dup2\n      tag_435\n      jumpi\n      tag_436\n      tag_392\n      jump\t// in\n    tag_436:\n    tag_435:\n      div\n      swap3\n      pop\n        /* \"@openzeppelin/contracts@5.0.1/utils/math/Math.sol\":12770:12771  8 */\n      0x08\n        /* \"@openzeppelin/contracts@5.0.1/utils/math/Math.sol\":12760:12771  result += 8 */\n      dup2\n      add\n      swap1\n      pop\n        /* \"@openzeppelin/contracts@5.0.1/utils/math/Math.sol\":12686:12786  if (value >= 10 ** 8) {... */\n    tag_434:\n        /* \"@openzeppelin/contracts@5.0.1/utils/math/Math.sol\":12812:12819  10 ** 4 */\n      0x2710\n        /* \"@openzeppelin/contracts@5.0.1/utils/math/Math.sol\":12803:12808  value */\n      dup4\n        /* \"@openzeppelin/contracts@5.0.1/utils/math/Math.sol\":12803:12819  value >= 10 ** 4 */\n      lt\n        /* \"@openzeppelin/contracts@5.0.1/utils/math/Math.sol\":12799:12899  if (value >= 10 ** 4) {... */\n      tag_437\n      jumpi\n        /* \"@openzeppelin/contracts@5.0.1/utils/math/Math.sol\":12848:12855  10 ** 4 */\n      0x2710\n        /* \"@openzeppelin/contracts@5.0.1/utils/math/Math.sol\":12839:12855  value /= 10 ** 4 */\n      dup4\n      dup2\n      tag_438\n      jumpi\n      tag_439\n      tag_392\n      jump\t// in\n    tag_439:\n    tag_438:\n      div\n      swap3\n      pop\n        /* \"@openzeppelin/contracts@5.0.1/utils/math/Math.sol\":12883:12884  4 */\n      0x04\n        /* \"@openzeppelin/contracts@5.0.1/utils/math/Math.sol\":12873:12884  result += 4 */\n      dup2\n      add\n      swap1\n      pop\n        /* \"@openzeppelin/contracts@5.0.1/utils/math/Math.sol\":12799:12899  if (value >= 10 ** 4) {... */\n    tag_437:\n        /* \"@openzeppelin/contracts@5.0.1/utils/math/Math.sol\":12925:12932  10 ** 2 */\n      0x64\n        /* \"@openzeppelin/contracts@5.0.1/utils/math/Math.sol\":12916:12921  value */\n      dup4\n        /* \"@openzeppelin/contracts@5.0.1/utils/math/Math.sol\":12916:12932  value >= 10 ** 2 */\n      lt\n        /* \"@openzeppelin/contracts@5.0.1/utils/math/Math.sol\":12912:13012  if (value >= 10 ** 2) {... */\n      tag_440\n      jumpi\n        /* \"@openzeppelin/contracts@5.0.1/utils/math/Math.sol\":12961:12968  10 ** 2 */\n      0x64\n        /* \"@openzeppelin/contracts@5.0.1/utils/math/Math.sol\":12952:12968  value /= 10 ** 2 */\n      dup4\n      dup2\n      tag_441\n      jumpi\n      tag_442\n      tag_392\n      jump\t// in\n    tag_442:\n    tag_441:\n      div\n      swap3\n      pop\n        /* \"@openzeppelin/contracts@5.0.1/utils/math/Math.sol\":12996:12997  2 */\n      0x02\n        /* \"@openzeppelin/contracts@5.0.1/utils/math/Math.sol\":12986:12997  result += 2 */\n      dup2\n      add\n      swap1\n      pop\n        /* \"@openzeppelin/contracts@5.0.1/utils/math/Math.sol\":12912:13012  if (value >= 10 ** 2) {... */\n    tag_440:\n        /* \"@openzeppelin/contracts@5.0.1/utils/math/Math.sol\":13038:13045  10 ** 1 */\n      0x0a\n        /* \"@openzeppelin/contracts@5.0.1/utils/math/Math.sol\":13029:13034  value */\n      dup4\n        /* \"@openzeppelin/contracts@5.0.1/utils/math/Math.sol\":13029:13045  value >= 10 ** 1 */\n      lt\n        /* \"@openzeppelin/contracts@5.0.1/utils/math/Math.sol\":13025:13091  if (value >= 10 ** 1) {... */\n      tag_443\n      jumpi\n        /* \"@openzeppelin/contracts@5.0.1/utils/math/Math.sol\":13075:13076  1 */\n      0x01\n        /* \"@openzeppelin/contracts@5.0.1/utils/math/Math.sol\":13065:13076  result += 1 */\n      dup2\n      add\n      swap1\n      pop\n        /* \"@openzeppelin/contracts@5.0.1/utils/math/Math.sol\":13025:13091  if (value >= 10 ** 1) {... */\n    tag_443:\n        /* \"@openzeppelin/contracts@5.0.1/utils/math/Math.sol\":13117:13123  result */\n      dup1\n        /* \"@openzeppelin/contracts@5.0.1/utils/math/Math.sol\":13110:13123  return result */\n      swap2\n      pop\n      pop\n        /* \"@openzeppelin/contracts@5.0.1/utils/math/Math.sol\":12214:13130  function log10(uint256 value) internal pure returns (uint256) {... */\n      swap2\n      swap1\n      pop\n      jump\t// out\n        /* \"@openzeppelin/contracts@5.0.1/utils/introspection/ERC165.sol\":762:908  function supportsInterface(bytes4 interfaceId) public view virtual returns (bool) {... */\n    tag_398:\n        /* \"@openzeppelin/contracts@5.0.1/utils/introspection/ERC165.sol\":838:842  bool */\n      0x00\n        /* \"@openzeppelin/contracts@5.0.1/utils/introspection/ERC165.sol\":876:901  type(IERC165).interfaceId */\n      0x01ffc9a700000000000000000000000000000000000000000000000000000000\n        /* \"@openzeppelin/contracts@5.0.1/utils/introspection/ERC165.sol\":861:901  interfaceId == type(IERC165).interfaceId */\n      not(0xffffffffffffffffffffffffffffffffffffffffffffffffffffffff)\n      and\n        /* \"@openzeppelin/contracts@5.0.1/utils/introspection/ERC165.sol\":861:872  interfaceId */\n      dup3\n        /* \"@openzeppelin/contracts@5.0.1/utils/introspection/ERC165.sol\":861:901  interfaceId == type(IERC165).interfaceId */\n      not(0xffffffffffffffffffffffffffffffffffffffffffffffffffffffff)\n      and\n      eq\n        /* \"@openzeppelin/contracts@5.0.1/utils/introspection/ERC165.sol\":854:901  return interfaceId == type(IERC165).interfaceId */\n      swap1\n      pop\n        /* \"@openzeppelin/contracts@5.0.1/utils/introspection/ERC165.sol\":762:908  function supportsInterface(bytes4 interfaceId) public view virtual returns (bool) {... */\n      swap2\n      swap1\n      pop\n      jump\t// out\n        /* \"@openzeppelin/contracts@5.0.1/token/ERC721/ERC721.sol\":10954:11136  function _safeMint(address to, uint256 tokenId, bytes memory data) internal virtual {... */\n    tag_412:\n        /* \"@openzeppelin/contracts@5.0.1/token/ERC721/ERC721.sol\":11048:11066  _mint(to, tokenId) */\n      tag_446\n        /* \"@openzeppelin/contracts@5.0.1/token/ERC721/ERC721.sol\":11054:11056  to */\n      dup4\n        /* \"@openzeppelin/contracts@5.0.1/token/ERC721/ERC721.sol\":11058:11065  tokenId */\n      dup4\n        /* \"@openzeppelin/contracts@5.0.1/token/ERC721/ERC721.sol\":11048:11053  _mint */\n      tag_447\n        /* \"@openzeppelin/contracts@5.0.1/token/ERC721/ERC721.sol\":11048:11066  _mint(to, tokenId) */\n      jump\t// in\n    tag_446:\n        /* \"@openzeppelin/contracts@5.0.1/token/ERC721/ERC721.sol\":11076:11129  _checkOnERC721Received(address(0), to, tokenId, data) */\n      tag_448\n        /* \"@openzeppelin/contracts@5.0.1/token/ERC721/ERC721.sol\":11107:11108  0 */\n      0x00\n        /* \"@openzeppelin/contracts@5.0.1/token/ERC721/ERC721.sol\":11111:11113  to */\n      dup5\n        /* \"@openzeppelin/contracts@5.0.1/token/ERC721/ERC721.sol\":11115:11122  tokenId */\n      dup5\n        /* \"@openzeppelin/contracts@5.0.1/token/ERC721/ERC721.sol\":11124:11128  data */\n      dup5\n        /* \"@openzeppelin/contracts@5.0.1/token/ERC721/ERC721.sol\":11076:11098  _checkOnERC721Received */\n      tag_294\n        /* \"@openzeppelin/contracts@5.0.1/token/ERC721/ERC721.sol\":11076:11129  _checkOnERC721Received(address(0), to, tokenId, data) */\n      jump\t// in\n    tag_448:\n        /* \"@openzeppelin/contracts@5.0.1/token/ERC721/ERC721.sol\":10954:11136  function _safeMint(address to, uint256 tokenId, bytes memory data) internal virtual {... */\n      pop\n      pop\n      pop\n      jump\t// out\n        /* \"@openzeppelin/contracts@5.0.1/token/ERC721/extensions/ERC721Enumerable.sol\":2518:3143  function _update(address to, uint256 tokenId, address auth) internal virtual override returns (address) {... */\n    tag_417:\n        /* \"@openzeppelin/contracts@5.0.1/token/ERC721/extensions/ERC721Enumerable.sol\":2613:2620  address */\n      0x00\n        /* \"@openzeppelin/contracts@5.0.1/token/ERC721/extensions/ERC721Enumerable.sol\":2632:2653  address previousOwner */\n      dup1\n        /* \"@openzeppelin/contracts@5.0.1/token/ERC721/extensions/ERC721Enumerable.sol\":2656:2688  super._update(to, tokenId, auth) */\n      tag_450\n        /* \"@openzeppelin/contracts@5.0.1/token/ERC721/extensions/ERC721Enumerable.sol\":2670:2672  to */\n      dup6\n        /* \"@openzeppelin/contracts@5.0.1/token/ERC721/extensions/ERC721Enumerable.sol\":2674:2681  tokenId */\n      dup6\n        /* \"@openzeppelin/contracts@5.0.1/token/ERC721/extensions/ERC721Enumerable.sol\":2683:2687  auth */\n      dup6\n        /* \"@openzeppelin/contracts@5.0.1/token/ERC721/extensions/ERC721Enumerable.sol\":2656:2669  super._update */\n      tag_451\n        /* \"@openzeppelin/contracts@5.0.1/token/ERC721/extensions/ERC721Enumerable.sol\":2656:2688  super._update(to, tokenId, auth) */\n      jump\t// in\n    tag_450:\n        /* \"@openzeppelin/contracts@5.0.1/token/ERC721/extensions/ERC721Enumerable.sol\":2632:2688  address previousOwner = super._update(to, tokenId, auth) */\n      swap1\n      pop\n        /* \"@openzeppelin/contracts@5.0.1/token/ERC721/extensions/ERC721Enumerable.sol\":2728:2729  0 */\n      0x00\n        /* \"@openzeppelin/contracts@5.0.1/token/ERC721/extensions/ERC721Enumerable.sol\":2703:2730  previousOwner == address(0) */\n      0xffffffffffffffffffffffffffffffffffffffff\n      and\n        /* \"@openzeppelin/contracts@5.0.1/token/ERC721/extensions/ERC721Enumerable.sol\":2703:2716  previousOwner */\n      dup2\n        /* \"@openzeppelin/contracts@5.0.1/token/ERC721/extensions/ERC721Enumerable.sol\":2703:2730  previousOwner == address(0) */\n      0xffffffffffffffffffffffffffffffffffffffff\n      and\n      sub\n        /* \"@openzeppelin/contracts@5.0.1/token/ERC721/extensions/ERC721Enumerable.sol\":2699:2909  if (previousOwner == address(0)) {... */\n      tag_452\n      jumpi\n        /* \"@openzeppelin/contracts@5.0.1/token/ERC721/extensions/ERC721Enumerable.sol\":2746:2786  _addTokenToAllTokensEnumeration(tokenId) */\n      tag_453\n        /* \"@openzeppelin/contracts@5.0.1/token/ERC721/extensions/ERC721Enumerable.sol\":2778:2785  tokenId */\n      dup5\n        /* \"@openzeppelin/contracts@5.0.1/token/ERC721/extensions/ERC721Enumerable.sol\":2746:2777  _addTokenToAllTokensEnumeration */\n      tag_454\n        /* \"@openzeppelin/contracts@5.0.1/token/ERC721/extensions/ERC721Enumerable.sol\":2746:2786  _addTokenToAllTokensEnumeration(tokenId) */\n      jump\t// in\n    tag_453:\n        /* \"@openzeppelin/contracts@5.0.1/token/ERC721/extensions/ERC721Enumerable.sol\":2699:2909  if (previousOwner == address(0)) {... */\n      jump(tag_455)\n    tag_452:\n        /* \"@openzeppelin/contracts@5.0.1/token/ERC721/extensions/ERC721Enumerable.sol\":2824:2826  to */\n      dup5\n        /* \"@openzeppelin/contracts@5.0.1/token/ERC721/extensions/ERC721Enumerable.sol\":2807:2826  previousOwner != to */\n      0xffffffffffffffffffffffffffffffffffffffff\n      and\n        /* \"@openzeppelin/contracts@5.0.1/token/ERC721/extensions/ERC721Enumerable.sol\":2807:2820  previousOwner */\n      dup2\n        /* \"@openzeppelin/contracts@5.0.1/token/ERC721/extensions/ERC721Enumerable.sol\":2807:2826  previousOwner != to */\n      0xffffffffffffffffffffffffffffffffffffffff\n      and\n      eq\n        /* \"@openzeppelin/contracts@5.0.1/token/ERC721/extensions/ERC721Enumerable.sol\":2803:2909  if (previousOwner != to) {... */\n      tag_456\n      jumpi\n        /* \"@openzeppelin/contracts@5.0.1/token/ERC721/extensions/ERC721Enumerable.sol\":2842:2898  _removeTokenFromOwnerEnumeration(previousOwner, tokenId) */\n      tag_457\n        /* \"@openzeppelin/contracts@5.0.1/token/ERC721/extensions/ERC721Enumerable.sol\":2875:2888  previousOwner */\n      dup2\n        /* \"@openzeppelin/contracts@5.0.1/token/ERC721/extensions/ERC721Enumerable.sol\":2890:2897  tokenId */\n      dup6\n        /* \"@openzeppelin/contracts@5.0.1/token/ERC721/extensions/ERC721Enumerable.sol\":2842:2874  _removeTokenFromOwnerEnumeration */\n      tag_458\n        /* \"@openzeppelin/contracts@5.0.1/token/ERC721/extensions/ERC721Enumerable.sol\":2842:2898  _removeTokenFromOwnerEnumeration(previousOwner, tokenId) */\n      jump\t// in\n    tag_457:\n        /* \"@openzeppelin/contracts@5.0.1/token/ERC721/extensions/ERC721Enumerable.sol\":2803:2909  if (previousOwner != to) {... */\n    tag_456:\n        /* \"@openzeppelin/contracts@5.0.1/token/ERC721/extensions/ERC721Enumerable.sol\":2699:2909  if (previousOwner == address(0)) {... */\n    tag_455:\n        /* \"@openzeppelin/contracts@5.0.1/token/ERC721/extensions/ERC721Enumerable.sol\":2936:2937  0 */\n      0x00\n        /* \"@openzeppelin/contracts@5.0.1/token/ERC721/extensions/ERC721Enumerable.sol\":2922:2938  to == address(0) */\n      0xffffffffffffffffffffffffffffffffffffffff\n      and\n        /* \"@openzeppelin/contracts@5.0.1/token/ERC721/extensions/ERC721Enumerable.sol\":2922:2924  to */\n      dup6\n        /* \"@openzeppelin/contracts@5.0.1/token/ERC721/extensions/ERC721Enumerable.sol\":2922:2938  to == address(0) */\n      0xffffffffffffffffffffffffffffffffffffffff\n      and\n      sub\n        /* \"@openzeppelin/contracts@5.0.1/token/ERC721/extensions/ERC721Enumerable.sol\":2918:3106  if (to == address(0)) {... */\n      tag_459\n      jumpi\n        /* \"@openzeppelin/contracts@5.0.1/token/ERC721/extensions/ERC721Enumerable.sol\":2954:2999  _removeTokenFromAllTokensEnumeration(tokenId) */\n      tag_460\n        /* \"@openzeppelin/contracts@5.0.1/token/ERC721/extensions/ERC721Enumerable.sol\":2991:2998  tokenId */\n      dup5\n        /* \"@openzeppelin/contracts@5.0.1/token/ERC721/extensions/ERC721Enumerable.sol\":2954:2990  _removeTokenFromAllTokensEnumeration */\n      tag_461\n        /* \"@openzeppelin/contracts@5.0.1/token/ERC721/extensions/ERC721Enumerable.sol\":2954:2999  _removeTokenFromAllTokensEnumeration(tokenId) */\n      jump\t// in\n    tag_460:\n        /* \"@openzeppelin/contracts@5.0.1/token/ERC721/extensions/ERC721Enumerable.sol\":2918:3106  if (to == address(0)) {... */\n      jump(tag_462)\n    tag_459:\n        /* \"@openzeppelin/contracts@5.0.1/token/ERC721/extensions/ERC721Enumerable.sol\":3037:3039  to */\n      dup5\n        /* \"@openzeppelin/contracts@5.0.1/token/ERC721/extensions/ERC721Enumerable.sol\":3020:3039  previousOwner != to */\n      0xffffffffffffffffffffffffffffffffffffffff\n      and\n        /* \"@openzeppelin/contracts@5.0.1/token/ERC721/extensions/ERC721Enumerable.sol\":3020:3033  previousOwner */\n      dup2\n        /* \"@openzeppelin/contracts@5.0.1/token/ERC721/extensions/ERC721Enumerable.sol\":3020:3039  previousOwner != to */\n      0xffffffffffffffffffffffffffffffffffffffff\n      and\n      eq\n        /* \"@openzeppelin/contracts@5.0.1/token/ERC721/extensions/ERC721Enumerable.sol\":3016:3106  if (previousOwner != to) {... */\n      tag_463\n      jumpi\n        /* \"@openzeppelin/contracts@5.0.1/token/ERC721/extensions/ERC721Enumerable.sol\":3055:3095  _addTokenToOwnerEnumeration(to, tokenId) */\n      tag_464\n        /* \"@openzeppelin/contracts@5.0.1/token/ERC721/extensions/ERC721Enumerable.sol\":3083:3085  to */\n      dup6\n        /* \"@openzeppelin/contracts@5.0.1/token/ERC721/extensions/ERC721Enumerable.sol\":3087:3094  tokenId */\n      dup6\n        /* \"@openzeppelin/contracts@5.0.1/token/ERC721/extensions/ERC721Enumerable.sol\":3055:3082  _addTokenToOwnerEnumeration */\n      tag_465\n        /* \"@openzeppelin/contracts@5.0.1/token/ERC721/extensions/ERC721Enumerable.sol\":3055:3095  _addTokenToOwnerEnumeration(to, tokenId) */\n      jump\t// in\n    tag_464:\n        /* \"@openzeppelin/contracts@5.0.1/token/ERC721/extensions/ERC721Enumerable.sol\":3016:3106  if (previousOwner != to) {... */\n    tag_463:\n        /* \"@openzeppelin/contracts@5.0.1/token/ERC721/extensions/ERC721Enumerable.sol\":2918:3106  if (to == address(0)) {... */\n    tag_462:\n        /* \"@openzeppelin/contracts@5.0.1/token/ERC721/extensions/ERC721Enumerable.sol\":3123:3136  previousOwner */\n      dup1\n        /* \"@openzeppelin/contracts@5.0.1/token/ERC721/extensions/ERC721Enumerable.sol\":3116:3136  return previousOwner */\n      swap2\n      pop\n      pop\n        /* \"@openzeppelin/contracts@5.0.1/token/ERC721/extensions/ERC721Enumerable.sol\":2518:3143  function _update(address to, uint256 tokenId, address auth) internal virtual override returns (address) {... */\n      swap4\n      swap3\n      pop\n      pop\n      pop\n      jump\t// out\n        /* \"@openzeppelin/contracts@5.0.1/token/ERC721/ERC721.sol\":9955:10282  function _mint(address to, uint256 tokenId) internal {... */\n    tag_447:\n        /* \"@openzeppelin/contracts@5.0.1/token/ERC721/ERC721.sol\":10036:10037  0 */\n      0x00\n        /* \"@openzeppelin/contracts@5.0.1/token/ERC721/ERC721.sol\":10022:10038  to == address(0) */\n      0xffffffffffffffffffffffffffffffffffffffff\n      and\n        /* \"@openzeppelin/contracts@5.0.1/token/ERC721/ERC721.sol\":10022:10024  to */\n      dup3\n        /* \"@openzeppelin/contracts@5.0.1/token/ERC721/ERC721.sol\":10022:10038  to == address(0) */\n      0xffffffffffffffffffffffffffffffffffffffff\n      and\n      sub\n        /* \"@openzeppelin/contracts@5.0.1/token/ERC721/ERC721.sol\":10018:10105  if (to == address(0)) {... */\n      tag_467\n      jumpi\n        /* \"@openzeppelin/contracts@5.0.1/token/ERC721/ERC721.sol\":10091:10092  0 */\n      0x00\n        /* \"@openzeppelin/contracts@5.0.1/token/ERC721/ERC721.sol\":10061:10094  ERC721InvalidReceiver(address(0)) */\n      mload(0x40)\n      0x64a0ae9200000000000000000000000000000000000000000000000000000000\n      dup2\n      mstore\n      0x04\n      add\n      tag_468\n      swap2\n      swap1\n      tag_57\n      jump\t// in\n    tag_468:\n      mload(0x40)\n      dup1\n      swap2\n      sub\n      swap1\n      revert\n        /* \"@openzeppelin/contracts@5.0.1/token/ERC721/ERC721.sol\":10018:10105  if (to == address(0)) {... */\n    tag_467:\n        /* \"@openzeppelin/contracts@5.0.1/token/ERC721/ERC721.sol\":10114:10135  address previousOwner */\n      0x00\n        /* \"@openzeppelin/contracts@5.0.1/token/ERC721/ERC721.sol\":10138:10170  _update(to, tokenId, address(0)) */\n      tag_469\n        /* \"@openzeppelin/contracts@5.0.1/token/ERC721/ERC721.sol\":10146:10148  to */\n      dup4\n        /* \"@openzeppelin/contracts@5.0.1/token/ERC721/ERC721.sol\":10150:10157  tokenId */\n      dup4\n        /* \"@openzeppelin/contracts@5.0.1/token/ERC721/ERC721.sol\":10167:10168  0 */\n      0x00\n        /* \"@openzeppelin/contracts@5.0.1/token/ERC721/ERC721.sol\":10138:10145  _update */\n      tag_213\n        /* \"@openzeppelin/contracts@5.0.1/token/ERC721/ERC721.sol\":10138:10170  _update(to, tokenId, address(0)) */\n      jump\t// in\n    tag_469:\n        /* \"@openzeppelin/contracts@5.0.1/token/ERC721/ERC721.sol\":10114:10170  address previousOwner = _update(to, tokenId, address(0)) */\n      swap1\n      pop\n        /* \"@openzeppelin/contracts@5.0.1/token/ERC721/ERC721.sol\":10209:10210  0 */\n      0x00\n        /* \"@openzeppelin/contracts@5.0.1/token/ERC721/ERC721.sol\":10184:10211  previousOwner != address(0) */\n      0xffffffffffffffffffffffffffffffffffffffff\n      and\n        /* \"@openzeppelin/contracts@5.0.1/token/ERC721/ERC721.sol\":10184:10197  previousOwner */\n      dup2\n        /* \"@openzeppelin/contracts@5.0.1/token/ERC721/ERC721.sol\":10184:10211  previousOwner != address(0) */\n      0xffffffffffffffffffffffffffffffffffffffff\n      and\n      eq\n        /* \"@openzeppelin/contracts@5.0.1/token/ERC721/ERC721.sol\":10180:10276  if (previousOwner != address(0)) {... */\n      tag_470\n      jumpi\n        /* \"@openzeppelin/contracts@5.0.1/token/ERC721/ERC721.sol\":10262:10263  0 */\n      0x00\n        /* \"@openzeppelin/contracts@5.0.1/token/ERC721/ERC721.sol\":10234:10265  ERC721InvalidSender(address(0)) */\n      mload(0x40)\n      0x73c6ac6e00000000000000000000000000000000000000000000000000000000\n      dup2\n      mstore\n      0x04\n      add\n      tag_471\n      swap2\n      swap1\n      tag_57\n      jump\t// in\n    tag_471:\n      mload(0x40)\n      dup1\n      swap2\n      sub\n      swap1\n      revert\n        /* \"@openzeppelin/contracts@5.0.1/token/ERC721/ERC721.sol\":10180:10276  if (previousOwner != address(0)) {... */\n    tag_470:\n        /* \"@openzeppelin/contracts@5.0.1/token/ERC721/ERC721.sol\":10008:10282  {... */\n      pop\n        /* \"@openzeppelin/contracts@5.0.1/token/ERC721/ERC721.sol\":9955:10282  function _mint(address to, uint256 tokenId) internal {... */\n      pop\n      pop\n      jump\t// out\n        /* \"@openzeppelin/contracts@5.0.1/token/ERC721/ERC721.sol\":8838:9633  function _update(address to, uint256 tokenId, address auth) internal virtual returns (address) {... */\n    tag_451:\n        /* \"@openzeppelin/contracts@5.0.1/token/ERC721/ERC721.sol\":8924:8931  address */\n      0x00\n        /* \"@openzeppelin/contracts@5.0.1/token/ERC721/ERC721.sol\":8943:8955  address from */\n      dup1\n        /* \"@openzeppelin/contracts@5.0.1/token/ERC721/ERC721.sol\":8958:8975  _ownerOf(tokenId) */\n      tag_473\n        /* \"@openzeppelin/contracts@5.0.1/token/ERC721/ERC721.sol\":8967:8974  tokenId */\n      dup5\n        /* \"@openzeppelin/contracts@5.0.1/token/ERC721/ERC721.sol\":8958:8966  _ownerOf */\n      tag_318\n        /* \"@openzeppelin/contracts@5.0.1/token/ERC721/ERC721.sol\":8958:8975  _ownerOf(tokenId) */\n      jump\t// in\n    tag_473:\n        /* \"@openzeppelin/contracts@5.0.1/token/ERC721/ERC721.sol\":8943:8975  address from = _ownerOf(tokenId) */\n      swap1\n      pop\n        /* \"@openzeppelin/contracts@5.0.1/token/ERC721/ERC721.sol\":9051:9052  0 */\n      0x00\n        /* \"@openzeppelin/contracts@5.0.1/token/ERC721/ERC721.sol\":9035:9053  auth != address(0) */\n      0xffffffffffffffffffffffffffffffffffffffff\n      and\n        /* \"@openzeppelin/contracts@5.0.1/token/ERC721/ERC721.sol\":9035:9039  auth */\n      dup4\n        /* \"@openzeppelin/contracts@5.0.1/token/ERC721/ERC721.sol\":9035:9053  auth != address(0) */\n      0xffffffffffffffffffffffffffffffffffffffff\n      and\n      eq\n        /* \"@openzeppelin/contracts@5.0.1/token/ERC721/ERC721.sol\":9031:9117  if (auth != address(0)) {... */\n      tag_474\n      jumpi\n        /* \"@openzeppelin/contracts@5.0.1/token/ERC721/ERC721.sol\":9069:9106  _checkAuthorized(from, auth, tokenId) */\n      tag_475\n        /* \"@openzeppelin/contracts@5.0.1/token/ERC721/ERC721.sol\":9086:9090  from */\n      dup2\n        /* \"@openzeppelin/contracts@5.0.1/token/ERC721/ERC721.sol\":9092:9096  auth */\n      dup5\n        /* \"@openzeppelin/contracts@5.0.1/token/ERC721/ERC721.sol\":9098:9105  tokenId */\n      dup7\n        /* \"@openzeppelin/contracts@5.0.1/token/ERC721/ERC721.sol\":9069:9085  _checkAuthorized */\n      tag_476\n        /* \"@openzeppelin/contracts@5.0.1/token/ERC721/ERC721.sol\":9069:9106  _checkAuthorized(from, auth, tokenId) */\n      jump\t// in\n    tag_475:\n        /* \"@openzeppelin/contracts@5.0.1/token/ERC721/ERC721.sol\":9031:9117  if (auth != address(0)) {... */\n    tag_474:\n        /* \"@openzeppelin/contracts@5.0.1/token/ERC721/ERC721.sol\":9177:9178  0 */\n      0x00\n        /* \"@openzeppelin/contracts@5.0.1/token/ERC721/ERC721.sol\":9161:9179  from != address(0) */\n      0xffffffffffffffffffffffffffffffffffffffff\n      and\n        /* \"@openzeppelin/contracts@5.0.1/token/ERC721/ERC721.sol\":9161:9165  from */\n      dup2\n        /* \"@openzeppelin/contracts@5.0.1/token/ERC721/ERC721.sol\":9161:9179  from != address(0) */\n      0xffffffffffffffffffffffffffffffffffffffff\n      and\n      eq\n        /* \"@openzeppelin/contracts@5.0.1/token/ERC721/ERC721.sol\":9157:9413  if (from != address(0)) {... */\n      tag_477\n      jumpi\n        /* \"@openzeppelin/contracts@5.0.1/token/ERC721/ERC721.sol\":9277:9325  _approve(address(0), tokenId, address(0), false) */\n      tag_478\n        /* \"@openzeppelin/contracts@5.0.1/token/ERC721/ERC721.sol\":9294:9295  0 */\n      0x00\n        /* \"@openzeppelin/contracts@5.0.1/token/ERC721/ERC721.sol\":9298:9305  tokenId */\n      dup6\n        /* \"@openzeppelin/contracts@5.0.1/token/ERC721/ERC721.sol\":9315:9316  0 */\n      0x00\n        /* \"@openzeppelin/contracts@5.0.1/token/ERC721/ERC721.sol\":9319:9324  false */\n      dup1\n        /* \"@openzeppelin/contracts@5.0.1/token/ERC721/ERC721.sol\":9277:9285  _approve */\n      tag_325\n        /* \"@openzeppelin/contracts@5.0.1/token/ERC721/ERC721.sol\":9277:9325  _approve(address(0), tokenId, address(0), false) */\n      jump\t// in\n    tag_478:\n        /* \"@openzeppelin/contracts@5.0.1/token/ERC721/ERC721.sol\":9387:9388  1 */\n      0x01\n        /* \"@openzeppelin/contracts@5.0.1/token/ERC721/ERC721.sol\":9368:9377  _balances */\n      0x03\n        /* \"@openzeppelin/contracts@5.0.1/token/ERC721/ERC721.sol\":9368:9383  _balances[from] */\n      0x00\n        /* \"@openzeppelin/contracts@5.0.1/token/ERC721/ERC721.sol\":9378:9382  from */\n      dup4\n        /* \"@openzeppelin/contracts@5.0.1/token/ERC721/ERC721.sol\":9368:9383  _balances[from] */\n      0xffffffffffffffffffffffffffffffffffffffff\n      and\n      0xffffffffffffffffffffffffffffffffffffffff\n      and\n      dup2\n      mstore\n      0x20\n      add\n      swap1\n      dup2\n      mstore\n      0x20\n      add\n      0x00\n      keccak256\n      0x00\n        /* \"@openzeppelin/contracts@5.0.1/token/ERC721/ERC721.sol\":9368:9388  _balances[from] -= 1 */\n      dup3\n      dup3\n      sload\n      sub\n      swap3\n      pop\n      pop\n      dup2\n      swap1\n      sstore\n      pop\n        /* \"@openzeppelin/contracts@5.0.1/token/ERC721/ERC721.sol\":9157:9413  if (from != address(0)) {... */\n    tag_477:\n        /* \"@openzeppelin/contracts@5.0.1/token/ERC721/ERC721.sol\":9441:9442  0 */\n      0x00\n        /* \"@openzeppelin/contracts@5.0.1/token/ERC721/ERC721.sol\":9427:9443  to != address(0) */\n      0xffffffffffffffffffffffffffffffffffffffff\n      and\n        /* \"@openzeppelin/contracts@5.0.1/token/ERC721/ERC721.sol\":9427:9429  to */\n      dup6\n        /* \"@openzeppelin/contracts@5.0.1/token/ERC721/ERC721.sol\":9427:9443  to != address(0) */\n      0xffffffffffffffffffffffffffffffffffffffff\n      and\n      eq\n        /* \"@openzeppelin/contracts@5.0.1/token/ERC721/ERC721.sol\":9423:9530  if (to != address(0)) {... */\n      tag_479\n      jumpi\n        /* \"@openzeppelin/contracts@5.0.1/token/ERC721/ERC721.sol\":9504:9505  1 */\n      0x01\n        /* \"@openzeppelin/contracts@5.0.1/token/ERC721/ERC721.sol\":9487:9496  _balances */\n      0x03\n        /* \"@openzeppelin/contracts@5.0.1/token/ERC721/ERC721.sol\":9487:9500  _balances[to] */\n      0x00\n        /* \"@openzeppelin/contracts@5.0.1/token/ERC721/ERC721.sol\":9497:9499  to */\n      dup8\n        /* \"@openzeppelin/contracts@5.0.1/token/ERC721/ERC721.sol\":9487:9500  _balances[to] */\n      0xffffffffffffffffffffffffffffffffffffffff\n      and\n      0xffffffffffffffffffffffffffffffffffffffff\n      and\n      dup2\n      mstore\n      0x20\n      add\n      swap1\n      dup2\n      mstore\n      0x20\n      add\n      0x00\n      keccak256\n      0x00\n        /* \"@openzeppelin/contracts@5.0.1/token/ERC721/ERC721.sol\":9487:9505  _balances[to] += 1 */\n      dup3\n      dup3\n      sload\n      add\n      swap3\n      pop\n      pop\n      dup2\n      swap1\n      sstore\n      pop\n        /* \"@openzeppelin/contracts@5.0.1/token/ERC721/ERC721.sol\":9423:9530  if (to != address(0)) {... */\n    tag_479:\n        /* \"@openzeppelin/contracts@5.0.1/token/ERC721/ERC721.sol\":9559:9561  to */\n      dup5\n        /* \"@openzeppelin/contracts@5.0.1/token/ERC721/ERC721.sol\":9540:9547  _owners */\n      0x02\n        /* \"@openzeppelin/contracts@5.0.1/token/ERC721/ERC721.sol\":9540:9556  _owners[tokenId] */\n      0x00\n        /* \"@openzeppelin/contracts@5.0.1/token/ERC721/ERC721.sol\":9548:9555  tokenId */\n      dup7\n        /* \"@openzeppelin/contracts@5.0.1/token/ERC721/ERC721.sol\":9540:9556  _owners[tokenId] */\n      dup2\n      mstore\n      0x20\n      add\n      swap1\n      dup2\n      mstore\n      0x20\n      add\n      0x00\n      keccak256\n      0x00\n        /* \"@openzeppelin/contracts@5.0.1/token/ERC721/ERC721.sol\":9540:9561  _owners[tokenId] = to */\n      0x0100\n      exp\n      dup2\n      sload\n      dup2\n      0xffffffffffffffffffffffffffffffffffffffff\n      mul\n      not\n      and\n      swap1\n      dup4\n      0xffffffffffffffffffffffffffffffffffffffff\n      and\n      mul\n      or\n      swap1\n      sstore\n      pop\n        /* \"@openzeppelin/contracts@5.0.1/token/ERC721/ERC721.sol\":9596:9603  tokenId */\n      dup4\n        /* \"@openzeppelin/contracts@5.0.1/token/ERC721/ERC721.sol\":9592:9594  to */\n      dup6\n        /* \"@openzeppelin/contracts@5.0.1/token/ERC721/ERC721.sol\":9577:9604  Transfer(from, to, tokenId) */\n      0xffffffffffffffffffffffffffffffffffffffff\n      and\n        /* \"@openzeppelin/contracts@5.0.1/token/ERC721/ERC721.sol\":9586:9590  from */\n      dup3\n        /* \"@openzeppelin/contracts@5.0.1/token/ERC721/ERC721.sol\":9577:9604  Transfer(from, to, tokenId) */\n      0xffffffffffffffffffffffffffffffffffffffff\n      and\n      0xddf252ad1be2c89b69c2b068fc378daa952ba7f163c4a11628f55a4df523b3ef\n      mload(0x40)\n      mload(0x40)\n      dup1\n      swap2\n      sub\n      swap1\n      log4\n        /* \"@openzeppelin/contracts@5.0.1/token/ERC721/ERC721.sol\":9622:9626  from */\n      dup1\n        /* \"@openzeppelin/contracts@5.0.1/token/ERC721/ERC721.sol\":9615:9626  return from */\n      swap2\n      pop\n      pop\n        /* \"@openzeppelin/contracts@5.0.1/token/ERC721/ERC721.sol\":8838:9633  function _update(address to, uint256 tokenId, address auth) internal virtual returns (address) {... */\n      swap4\n      swap3\n      pop\n      pop\n      pop\n      jump\t// out\n        /* \"@openzeppelin/contracts@5.0.1/token/ERC721/extensions/ERC721Enumerable.sol\":3846:4007  function _addTokenToAllTokensEnumeration(uint256 tokenId) private {... */\n    tag_454:\n        /* \"@openzeppelin/contracts@5.0.1/token/ERC721/extensions/ERC721Enumerable.sol\":3949:3959  _allTokens */\n      0x08\n        /* \"@openzeppelin/contracts@5.0.1/token/ERC721/extensions/ERC721Enumerable.sol\":3949:3966  _allTokens.length */\n      dup1\n      sload\n      swap1\n      pop\n        /* \"@openzeppelin/contracts@5.0.1/token/ERC721/extensions/ERC721Enumerable.sol\":3922:3937  _allTokensIndex */\n      0x09\n        /* \"@openzeppelin/contracts@5.0.1/token/ERC721/extensions/ERC721Enumerable.sol\":3922:3946  _allTokensIndex[tokenId] */\n      0x00\n        /* \"@openzeppelin/contracts@5.0.1/token/ERC721/extensions/ERC721Enumerable.sol\":3938:3945  tokenId */\n      dup4\n        /* \"@openzeppelin/contracts@5.0.1/token/ERC721/extensions/ERC721Enumerable.sol\":3922:3946  _allTokensIndex[tokenId] */\n      dup2\n      mstore\n      0x20\n      add\n      swap1\n      dup2\n      mstore\n      0x20\n      add\n      0x00\n      keccak256\n        /* \"@openzeppelin/contracts@5.0.1/token/ERC721/extensions/ERC721Enumerable.sol\":3922:3966  _allTokensIndex[tokenId] = _allTokens.length */\n      dup2\n      swap1\n      sstore\n      pop\n        /* \"@openzeppelin/contracts@5.0.1/token/ERC721/extensions/ERC721Enumerable.sol\":3976:3986  _allTokens */\n      0x08\n        /* \"@openzeppelin/contracts@5.0.1/token/ERC721/extensions/ERC721Enumerable.sol\":3992:3999  tokenId */\n      dup2\n        /* \"@openzeppelin/contracts@5.0.1/token/ERC721/extensions/ERC721Enumerable.sol\":3976:4000  _allTokens.push(tokenId) */\n      swap1\n      dup1\n      0x01\n      dup2\n      sload\n      add\n      dup1\n      dup3\n      sstore\n      dup1\n      swap2\n      pop\n      pop\n      0x01\n      swap1\n      sub\n      swap1\n      0x00\n      mstore\n      keccak256(0x00, 0x20)\n      add\n      0x00\n      swap1\n      swap2\n      swap1\n      swap2\n      swap1\n      swap2\n      pop\n      sstore\n        /* \"@openzeppelin/contracts@5.0.1/token/ERC721/extensions/ERC721Enumerable.sol\":3846:4007  function _addTokenToAllTokensEnumeration(uint256 tokenId) private {... */\n      pop\n      jump\t// out\n        /* \"@openzeppelin/contracts@5.0.1/token/ERC721/extensions/ERC721Enumerable.sol\":4624:5583  function _removeTokenFromOwnerEnumeration(address from, uint256 tokenId) private {... */\n    tag_458:\n        /* \"@openzeppelin/contracts@5.0.1/token/ERC721/extensions/ERC721Enumerable.sol\":4886:4908  uint256 lastTokenIndex */\n      0x00\n        /* \"@openzeppelin/contracts@5.0.1/token/ERC721/extensions/ERC721Enumerable.sol\":4911:4926  balanceOf(from) */\n      tag_483\n        /* \"@openzeppelin/contracts@5.0.1/token/ERC721/extensions/ERC721Enumerable.sol\":4921:4925  from */\n      dup4\n        /* \"@openzeppelin/contracts@5.0.1/token/ERC721/extensions/ERC721Enumerable.sol\":4911:4920  balanceOf */\n      tag_130\n        /* \"@openzeppelin/contracts@5.0.1/token/ERC721/extensions/ERC721Enumerable.sol\":4911:4926  balanceOf(from) */\n      jump\t// in\n    tag_483:\n        /* \"@openzeppelin/contracts@5.0.1/token/ERC721/extensions/ERC721Enumerable.sol\":4886:4926  uint256 lastTokenIndex = balanceOf(from) */\n      swap1\n      pop\n        /* \"@openzeppelin/contracts@5.0.1/token/ERC721/extensions/ERC721Enumerable.sol\":4936:4954  uint256 tokenIndex */\n      0x00\n        /* \"@openzeppelin/contracts@5.0.1/token/ERC721/extensions/ERC721Enumerable.sol\":4957:4974  _ownedTokensIndex */\n      0x07\n        /* \"@openzeppelin/contracts@5.0.1/token/ERC721/extensions/ERC721Enumerable.sol\":4957:4983  _ownedTokensIndex[tokenId] */\n      0x00\n        /* \"@openzeppelin/contracts@5.0.1/token/ERC721/extensions/ERC721Enumerable.sol\":4975:4982  tokenId */\n      dup5\n        /* \"@openzeppelin/contracts@5.0.1/token/ERC721/extensions/ERC721Enumerable.sol\":4957:4983  _ownedTokensIndex[tokenId] */\n      dup2\n      mstore\n      0x20\n      add\n      swap1\n      dup2\n      mstore\n      0x20\n      add\n      0x00\n      keccak256\n      sload\n        /* \"@openzeppelin/contracts@5.0.1/token/ERC721/extensions/ERC721Enumerable.sol\":4936:4983  uint256 tokenIndex = _ownedTokensIndex[tokenId] */\n      swap1\n      pop\n        /* \"@openzeppelin/contracts@5.0.1/token/ERC721/extensions/ERC721Enumerable.sol\":5101:5115  lastTokenIndex */\n      dup2\n        /* \"@openzeppelin/contracts@5.0.1/token/ERC721/extensions/ERC721Enumerable.sol\":5087:5097  tokenIndex */\n      dup2\n        /* \"@openzeppelin/contracts@5.0.1/token/ERC721/extensions/ERC721Enumerable.sol\":5087:5115  tokenIndex != lastTokenIndex */\n      eq\n        /* \"@openzeppelin/contracts@5.0.1/token/ERC721/extensions/ERC721Enumerable.sol\":5083:5406  if (tokenIndex != lastTokenIndex) {... */\n      tag_484\n      jumpi\n        /* \"@openzeppelin/contracts@5.0.1/token/ERC721/extensions/ERC721Enumerable.sol\":5131:5150  uint256 lastTokenId */\n      0x00\n        /* \"@openzeppelin/contracts@5.0.1/token/ERC721/extensions/ERC721Enumerable.sol\":5153:5165  _ownedTokens */\n      0x06\n        /* \"@openzeppelin/contracts@5.0.1/token/ERC721/extensions/ERC721Enumerable.sol\":5153:5171  _ownedTokens[from] */\n      0x00\n        /* \"@openzeppelin/contracts@5.0.1/token/ERC721/extensions/ERC721Enumerable.sol\":5166:5170  from */\n      dup7\n        /* \"@openzeppelin/contracts@5.0.1/token/ERC721/extensions/ERC721Enumerable.sol\":5153:5171  _ownedTokens[from] */\n      0xffffffffffffffffffffffffffffffffffffffff\n      and\n      0xffffffffffffffffffffffffffffffffffffffff\n      and\n      dup2\n      mstore\n      0x20\n      add\n      swap1\n      dup2\n      mstore\n      0x20\n      add\n      0x00\n      keccak256\n        /* \"@openzeppelin/contracts@5.0.1/token/ERC721/extensions/ERC721Enumerable.sol\":5153:5187  _ownedTokens[from][lastTokenIndex] */\n      0x00\n        /* \"@openzeppelin/contracts@5.0.1/token/ERC721/extensions/ERC721Enumerable.sol\":5172:5186  lastTokenIndex */\n      dup5\n        /* \"@openzeppelin/contracts@5.0.1/token/ERC721/extensions/ERC721Enumerable.sol\":5153:5187  _ownedTokens[from][lastTokenIndex] */\n      dup2\n      mstore\n      0x20\n      add\n      swap1\n      dup2\n      mstore\n      0x20\n      add\n      0x00\n      keccak256\n      sload\n        /* \"@openzeppelin/contracts@5.0.1/token/ERC721/extensions/ERC721Enumerable.sol\":5131:5187  uint256 lastTokenId = _ownedTokens[from][lastTokenIndex] */\n      swap1\n      pop\n        /* \"@openzeppelin/contracts@5.0.1/token/ERC721/extensions/ERC721Enumerable.sol\":5235:5246  lastTokenId */\n      dup1\n        /* \"@openzeppelin/contracts@5.0.1/token/ERC721/extensions/ERC721Enumerable.sol\":5202:5214  _ownedTokens */\n      0x06\n        /* \"@openzeppelin/contracts@5.0.1/token/ERC721/extensions/ERC721Enumerable.sol\":5202:5220  _ownedTokens[from] */\n      0x00\n        /* \"@openzeppelin/contracts@5.0.1/token/ERC721/extensions/ERC721Enumerable.sol\":5215:5219  from */\n      dup8\n        /* \"@openzeppelin/contracts@5.0.1/token/ERC721/extensions/ERC721Enumerable.sol\":5202:5220  _ownedTokens[from] */\n      0xffffffffffffffffffffffffffffffffffffffff\n      and\n      0xffffffffffffffffffffffffffffffffffffffff\n      and\n      dup2\n      mstore\n      0x20\n      add\n      swap1\n      dup2\n      mstore\n      0x20\n      add\n      0x00\n      keccak256\n        /* \"@openzeppelin/contracts@5.0.1/token/ERC721/extensions/ERC721Enumerable.sol\":5202:5232  _ownedTokens[from][tokenIndex] */\n      0x00\n        /* \"@openzeppelin/contracts@5.0.1/token/ERC721/extensions/ERC721Enumerable.sol\":5221:5231  tokenIndex */\n      dup5\n        /* \"@openzeppelin/contracts@5.0.1/token/ERC721/extensions/ERC721Enumerable.sol\":5202:5232  _ownedTokens[from][tokenIndex] */\n      dup2\n      mstore\n      0x20\n      add\n      swap1\n      dup2\n      mstore\n      0x20\n      add\n      0x00\n      keccak256\n        /* \"@openzeppelin/contracts@5.0.1/token/ERC721/extensions/ERC721Enumerable.sol\":5202:5246  _ownedTokens[from][tokenIndex] = lastTokenId */\n      dup2\n      swap1\n      sstore\n      pop\n        /* \"@openzeppelin/contracts@5.0.1/token/ERC721/extensions/ERC721Enumerable.sol\":5351:5361  tokenIndex */\n      dup2\n        /* \"@openzeppelin/contracts@5.0.1/token/ERC721/extensions/ERC721Enumerable.sol\":5318:5335  _ownedTokensIndex */\n      0x07\n        /* \"@openzeppelin/contracts@5.0.1/token/ERC721/extensions/ERC721Enumerable.sol\":5318:5348  _ownedTokensIndex[lastTokenId] */\n      0x00\n        /* \"@openzeppelin/contracts@5.0.1/token/ERC721/extensions/ERC721Enumerable.sol\":5336:5347  lastTokenId */\n      dup4\n        /* \"@openzeppelin/contracts@5.0.1/token/ERC721/extensions/ERC721Enumerable.sol\":5318:5348  _ownedTokensIndex[lastTokenId] */\n      dup2\n      mstore\n      0x20\n      add\n      swap1\n      dup2\n      mstore\n      0x20\n      add\n      0x00\n      keccak256\n        /* \"@openzeppelin/contracts@5.0.1/token/ERC721/extensions/ERC721Enumerable.sol\":5318:5361  _ownedTokensIndex[lastTokenId] = tokenIndex */\n      dup2\n      swap1\n      sstore\n      pop\n        /* \"@openzeppelin/contracts@5.0.1/token/ERC721/extensions/ERC721Enumerable.sol\":5117:5406  {... */\n      pop\n        /* \"@openzeppelin/contracts@5.0.1/token/ERC721/extensions/ERC721Enumerable.sol\":5083:5406  if (tokenIndex != lastTokenIndex) {... */\n    tag_484:\n        /* \"@openzeppelin/contracts@5.0.1/token/ERC721/extensions/ERC721Enumerable.sol\":5499:5516  _ownedTokensIndex */\n      0x07\n        /* \"@openzeppelin/contracts@5.0.1/token/ERC721/extensions/ERC721Enumerable.sol\":5499:5525  _ownedTokensIndex[tokenId] */\n      0x00\n        /* \"@openzeppelin/contracts@5.0.1/token/ERC721/extensions/ERC721Enumerable.sol\":5517:5524  tokenId */\n      dup5\n        /* \"@openzeppelin/contracts@5.0.1/token/ERC721/extensions/ERC721Enumerable.sol\":5499:5525  _ownedTokensIndex[tokenId] */\n      dup2\n      mstore\n      0x20\n      add\n      swap1\n      dup2\n      mstore\n      0x20\n      add\n      0x00\n      keccak256\n        /* \"@openzeppelin/contracts@5.0.1/token/ERC721/extensions/ERC721Enumerable.sol\":5492:5525  delete _ownedTokensIndex[tokenId] */\n      0x00\n      swap1\n      sstore\n        /* \"@openzeppelin/contracts@5.0.1/token/ERC721/extensions/ERC721Enumerable.sol\":5542:5554  _ownedTokens */\n      0x06\n        /* \"@openzeppelin/contracts@5.0.1/token/ERC721/extensions/ERC721Enumerable.sol\":5542:5560  _ownedTokens[from] */\n      0x00\n        /* \"@openzeppelin/contracts@5.0.1/token/ERC721/extensions/ERC721Enumerable.sol\":5555:5559  from */\n      dup6\n        /* \"@openzeppelin/contracts@5.0.1/token/ERC721/extensions/ERC721Enumerable.sol\":5542:5560  _ownedTokens[from] */\n      0xffffffffffffffffffffffffffffffffffffffff\n      and\n      0xffffffffffffffffffffffffffffffffffffffff\n      and\n      dup2\n      mstore\n      0x20\n      add\n      swap1\n      dup2\n      mstore\n      0x20\n      add\n      0x00\n      keccak256\n        /* \"@openzeppelin/contracts@5.0.1/token/ERC721/extensions/ERC721Enumerable.sol\":5542:5576  _ownedTokens[from][lastTokenIndex] */\n      0x00\n        /* \"@openzeppelin/contracts@5.0.1/token/ERC721/extensions/ERC721Enumerable.sol\":5561:5575  lastTokenIndex */\n      dup4\n        /* \"@openzeppelin/contracts@5.0.1/token/ERC721/extensions/ERC721Enumerable.sol\":5542:5576  _ownedTokens[from][lastTokenIndex] */\n      dup2\n      mstore\n      0x20\n      add\n      swap1\n      dup2\n      mstore\n      0x20\n      add\n      0x00\n      keccak256\n        /* \"@openzeppelin/contracts@5.0.1/token/ERC721/extensions/ERC721Enumerable.sol\":5535:5576  delete _ownedTokens[from][lastTokenIndex] */\n      0x00\n      swap1\n      sstore\n        /* \"@openzeppelin/contracts@5.0.1/token/ERC721/extensions/ERC721Enumerable.sol\":4705:5583  {... */\n      pop\n      pop\n        /* \"@openzeppelin/contracts@5.0.1/token/ERC721/extensions/ERC721Enumerable.sol\":4624:5583  function _removeTokenFromOwnerEnumeration(address from, uint256 tokenId) private {... */\n      pop\n      pop\n      jump\t// out\n        /* \"@openzeppelin/contracts@5.0.1/token/ERC721/extensions/ERC721Enumerable.sol\":5871:6932  function _removeTokenFromAllTokensEnumeration(uint256 tokenId) private {... */\n    tag_461:\n        /* \"@openzeppelin/contracts@5.0.1/token/ERC721/extensions/ERC721Enumerable.sol\":6120:6142  uint256 lastTokenIndex */\n      0x00\n        /* \"@openzeppelin/contracts@5.0.1/token/ERC721/extensions/ERC721Enumerable.sol\":6165:6166  1 */\n      0x01\n        /* \"@openzeppelin/contracts@5.0.1/token/ERC721/extensions/ERC721Enumerable.sol\":6145:6155  _allTokens */\n      0x08\n        /* \"@openzeppelin/contracts@5.0.1/token/ERC721/extensions/ERC721Enumerable.sol\":6145:6162  _allTokens.length */\n      dup1\n      sload\n      swap1\n      pop\n        /* \"@openzeppelin/contracts@5.0.1/token/ERC721/extensions/ERC721Enumerable.sol\":6145:6166  _allTokens.length - 1 */\n      tag_486\n      swap2\n      swap1\n      tag_487\n      jump\t// in\n    tag_486:\n        /* \"@openzeppelin/contracts@5.0.1/token/ERC721/extensions/ERC721Enumerable.sol\":6120:6166  uint256 lastTokenIndex = _allTokens.length - 1 */\n      swap1\n      pop\n        /* \"@openzeppelin/contracts@5.0.1/token/ERC721/extensions/ERC721Enumerable.sol\":6176:6194  uint256 tokenIndex */\n      0x00\n        /* \"@openzeppelin/contracts@5.0.1/token/ERC721/extensions/ERC721Enumerable.sol\":6197:6212  _allTokensIndex */\n      0x09\n        /* \"@openzeppelin/contracts@5.0.1/token/ERC721/extensions/ERC721Enumerable.sol\":6197:6221  _allTokensIndex[tokenId] */\n      0x00\n        /* \"@openzeppelin/contracts@5.0.1/token/ERC721/extensions/ERC721Enumerable.sol\":6213:6220  tokenId */\n      dup5\n        /* \"@openzeppelin/contracts@5.0.1/token/ERC721/extensions/ERC721Enumerable.sol\":6197:6221  _allTokensIndex[tokenId] */\n      dup2\n      mstore\n      0x20\n      add\n      swap1\n      dup2\n      mstore\n      0x20\n      add\n      0x00\n      keccak256\n      sload\n        /* \"@openzeppelin/contracts@5.0.1/token/ERC721/extensions/ERC721Enumerable.sol\":6176:6221  uint256 tokenIndex = _allTokensIndex[tokenId] */\n      swap1\n      pop\n        /* \"@openzeppelin/contracts@5.0.1/token/ERC721/extensions/ERC721Enumerable.sol\":6543:6562  uint256 lastTokenId */\n      0x00\n        /* \"@openzeppelin/contracts@5.0.1/token/ERC721/extensions/ERC721Enumerable.sol\":6565:6575  _allTokens */\n      0x08\n        /* \"@openzeppelin/contracts@5.0.1/token/ERC721/extensions/ERC721Enumerable.sol\":6576:6590  lastTokenIndex */\n      dup4\n        /* \"@openzeppelin/contracts@5.0.1/token/ERC721/extensions/ERC721Enumerable.sol\":6565:6591  _allTokens[lastTokenIndex] */\n      dup2\n      sload\n      dup2\n      lt\n      tag_488\n      jumpi\n      tag_489\n      tag_246\n      jump\t// in\n    tag_489:\n    tag_488:\n      swap1\n      0x00\n      mstore\n      keccak256(0x00, 0x20)\n      add\n      sload\n        /* \"@openzeppelin/contracts@5.0.1/token/ERC721/extensions/ERC721Enumerable.sol\":6543:6591  uint256 lastTokenId = _allTokens[lastTokenIndex] */\n      swap1\n      pop\n        /* \"@openzeppelin/contracts@5.0.1/token/ERC721/extensions/ERC721Enumerable.sol\":6627:6638  lastTokenId */\n      dup1\n        /* \"@openzeppelin/contracts@5.0.1/token/ERC721/extensions/ERC721Enumerable.sol\":6602:6612  _allTokens */\n      0x08\n        /* \"@openzeppelin/contracts@5.0.1/token/ERC721/extensions/ERC721Enumerable.sol\":6613:6623  tokenIndex */\n      dup4\n        /* \"@openzeppelin/contracts@5.0.1/token/ERC721/extensions/ERC721Enumerable.sol\":6602:6624  _allTokens[tokenIndex] */\n      dup2\n      sload\n      dup2\n      lt\n      tag_491\n      jumpi\n      tag_492\n      tag_246\n      jump\t// in\n    tag_492:\n    tag_491:\n      swap1\n      0x00\n      mstore\n      keccak256(0x00, 0x20)\n      add\n        /* \"@openzeppelin/contracts@5.0.1/token/ERC721/extensions/ERC721Enumerable.sol\":6602:6638  _allTokens[tokenIndex] = lastTokenId */\n      dup2\n      swap1\n      sstore\n      pop\n        /* \"@openzeppelin/contracts@5.0.1/token/ERC721/extensions/ERC721Enumerable.sol\":6737:6747  tokenIndex */\n      dup2\n        /* \"@openzeppelin/contracts@5.0.1/token/ERC721/extensions/ERC721Enumerable.sol\":6706:6721  _allTokensIndex */\n      0x09\n        /* \"@openzeppelin/contracts@5.0.1/token/ERC721/extensions/ERC721Enumerable.sol\":6706:6734  _allTokensIndex[lastTokenId] */\n      0x00\n        /* \"@openzeppelin/contracts@5.0.1/token/ERC721/extensions/ERC721Enumerable.sol\":6722:6733  lastTokenId */\n      dup4\n        /* \"@openzeppelin/contracts@5.0.1/token/ERC721/extensions/ERC721Enumerable.sol\":6706:6734  _allTokensIndex[lastTokenId] */\n      dup2\n      mstore\n      0x20\n      add\n      swap1\n      dup2\n      mstore\n      0x20\n      add\n      0x00\n      keccak256\n        /* \"@openzeppelin/contracts@5.0.1/token/ERC721/extensions/ERC721Enumerable.sol\":6706:6747  _allTokensIndex[lastTokenId] = tokenIndex */\n      dup2\n      swap1\n      sstore\n      pop\n        /* \"@openzeppelin/contracts@5.0.1/token/ERC721/extensions/ERC721Enumerable.sol\":6875:6890  _allTokensIndex */\n      0x09\n        /* \"@openzeppelin/contracts@5.0.1/token/ERC721/extensions/ERC721Enumerable.sol\":6875:6899  _allTokensIndex[tokenId] */\n      0x00\n        /* \"@openzeppelin/contracts@5.0.1/token/ERC721/extensions/ERC721Enumerable.sol\":6891:6898  tokenId */\n      dup6\n        /* \"@openzeppelin/contracts@5.0.1/token/ERC721/extensions/ERC721Enumerable.sol\":6875:6899  _allTokensIndex[tokenId] */\n      dup2\n      mstore\n      0x20\n      add\n      swap1\n      dup2\n      mstore\n      0x20\n      add\n      0x00\n      keccak256\n        /* \"@openzeppelin/contracts@5.0.1/token/ERC721/extensions/ERC721Enumerable.sol\":6868:6899  delete _allTokensIndex[tokenId] */\n      0x00\n      swap1\n      sstore\n        /* \"@openzeppelin/contracts@5.0.1/token/ERC721/extensions/ERC721Enumerable.sol\":6909:6919  _allTokens */\n      0x08\n        /* \"@openzeppelin/contracts@5.0.1/token/ERC721/extensions/ERC721Enumerable.sol\":6909:6925  _allTokens.pop() */\n      dup1\n      sload\n      dup1\n      tag_494\n      jumpi\n      tag_495\n      tag_496\n      jump\t// in\n    tag_495:\n    tag_494:\n      0x01\n      swap1\n      sub\n      dup2\n      dup2\n      swap1\n      0x00\n      mstore\n      keccak256(0x00, 0x20)\n      add\n      0x00\n      swap1\n      sstore\n      swap1\n      sstore\n        /* \"@openzeppelin/contracts@5.0.1/token/ERC721/extensions/ERC721Enumerable.sol\":5942:6932  {... */\n      pop\n      pop\n      pop\n        /* \"@openzeppelin/contracts@5.0.1/token/ERC721/extensions/ERC721Enumerable.sol\":5871:6932  function _removeTokenFromAllTokensEnumeration(uint256 tokenId) private {... */\n      pop\n      jump\t// out\n        /* \"@openzeppelin/contracts@5.0.1/token/ERC721/extensions/ERC721Enumerable.sol\":3437:3651  function _addTokenToOwnerEnumeration(address to, uint256 tokenId) private {... */\n    tag_465:\n        /* \"@openzeppelin/contracts@5.0.1/token/ERC721/extensions/ERC721Enumerable.sol\":3521:3535  uint256 length */\n      0x00\n        /* \"@openzeppelin/contracts@5.0.1/token/ERC721/extensions/ERC721Enumerable.sol\":3554:3555  1 */\n      0x01\n        /* \"@openzeppelin/contracts@5.0.1/token/ERC721/extensions/ERC721Enumerable.sol\":3538:3551  balanceOf(to) */\n      tag_499\n        /* \"@openzeppelin/contracts@5.0.1/token/ERC721/extensions/ERC721Enumerable.sol\":3548:3550  to */\n      dup5\n        /* \"@openzeppelin/contracts@5.0.1/token/ERC721/extensions/ERC721Enumerable.sol\":3538:3547  balanceOf */\n      tag_130\n        /* \"@openzeppelin/contracts@5.0.1/token/ERC721/extensions/ERC721Enumerable.sol\":3538:3551  balanceOf(to) */\n      jump\t// in\n    tag_499:\n        /* \"@openzeppelin/contracts@5.0.1/token/ERC721/extensions/ERC721Enumerable.sol\":3538:3555  balanceOf(to) - 1 */\n      tag_500\n      swap2\n      swap1\n      tag_487\n      jump\t// in\n    tag_500:\n        /* \"@openzeppelin/contracts@5.0.1/token/ERC721/extensions/ERC721Enumerable.sol\":3521:3555  uint256 length = balanceOf(to) - 1 */\n      swap1\n      pop\n        /* \"@openzeppelin/contracts@5.0.1/token/ERC721/extensions/ERC721Enumerable.sol\":3592:3599  tokenId */\n      dup2\n        /* \"@openzeppelin/contracts@5.0.1/token/ERC721/extensions/ERC721Enumerable.sol\":3565:3577  _ownedTokens */\n      0x06\n        /* \"@openzeppelin/contracts@5.0.1/token/ERC721/extensions/ERC721Enumerable.sol\":3565:3581  _ownedTokens[to] */\n      0x00\n        /* \"@openzeppelin/contracts@5.0.1/token/ERC721/extensions/ERC721Enumerable.sol\":3578:3580  to */\n      dup6\n        /* \"@openzeppelin/contracts@5.0.1/token/ERC721/extensions/ERC721Enumerable.sol\":3565:3581  _ownedTokens[to] */\n      0xffffffffffffffffffffffffffffffffffffffff\n      and\n      0xffffffffffffffffffffffffffffffffffffffff\n      and\n      dup2\n      mstore\n      0x20\n      add\n      swap1\n      dup2\n      mstore\n      0x20\n      add\n      0x00\n      keccak256\n        /* \"@openzeppelin/contracts@5.0.1/token/ERC721/extensions/ERC721Enumerable.sol\":3565:3589  _ownedTokens[to][length] */\n      0x00\n        /* \"@openzeppelin/contracts@5.0.1/token/ERC721/extensions/ERC721Enumerable.sol\":3582:3588  length */\n      dup4\n        /* \"@openzeppelin/contracts@5.0.1/token/ERC721/extensions/ERC721Enumerable.sol\":3565:3589  _ownedTokens[to][length] */\n      dup2\n      mstore\n      0x20\n      add\n      swap1\n      dup2\n      mstore\n      0x20\n      add\n      0x00\n      keccak256\n        /* \"@openzeppelin/contracts@5.0.1/token/ERC721/extensions/ERC721Enumerable.sol\":3565:3599  _ownedTokens[to][length] = tokenId */\n      dup2\n      swap1\n      sstore\n      pop\n        /* \"@openzeppelin/contracts@5.0.1/token/ERC721/extensions/ERC721Enumerable.sol\":3638:3644  length */\n      dup1\n        /* \"@openzeppelin/contracts@5.0.1/token/ERC721/extensions/ERC721Enumerable.sol\":3609:3626  _ownedTokensIndex */\n      0x07\n        /* \"@openzeppelin/contracts@5.0.1/token/ERC721/extensions/ERC721Enumerable.sol\":3609:3635  _ownedTokensIndex[tokenId] */\n      0x00\n        /* \"@openzeppelin/contracts@5.0.1/token/ERC721/extensions/ERC721Enumerable.sol\":3627:3634  tokenId */\n      dup5\n        /* \"@openzeppelin/contracts@5.0.1/token/ERC721/extensions/ERC721Enumerable.sol\":3609:3635  _ownedTokensIndex[tokenId] */\n      dup2\n      mstore\n      0x20\n      add\n      swap1\n      dup2\n      mstore\n      0x20\n      add\n      0x00\n      keccak256\n        /* \"@openzeppelin/contracts@5.0.1/token/ERC721/extensions/ERC721Enumerable.sol\":3609:3644  _ownedTokensIndex[tokenId] = length */\n      dup2\n      swap1\n      sstore\n      pop\n        /* \"@openzeppelin/contracts@5.0.1/token/ERC721/extensions/ERC721Enumerable.sol\":3511:3651  {... */\n      pop\n        /* \"@openzeppelin/contracts@5.0.1/token/ERC721/extensions/ERC721Enumerable.sol\":3437:3651  function _addTokenToOwnerEnumeration(address to, uint256 tokenId) private {... */\n      pop\n      pop\n      jump\t// out\n        /* \"@openzeppelin/contracts@5.0.1/token/ERC721/ERC721.sol\":7082:7450  function _checkAuthorized(address owner, address spender, uint256 tokenId) internal view virtual {... */\n    tag_476:\n        /* \"@openzeppelin/contracts@5.0.1/token/ERC721/ERC721.sol\":7194:7232  _isAuthorized(owner, spender, tokenId) */\n      tag_502\n        /* \"@openzeppelin/contracts@5.0.1/token/ERC721/ERC721.sol\":7208:7213  owner */\n      dup4\n        /* \"@openzeppelin/contracts@5.0.1/token/ERC721/ERC721.sol\":7215:7222  spender */\n      dup4\n        /* \"@openzeppelin/contracts@5.0.1/token/ERC721/ERC721.sol\":7224:7231  tokenId */\n      dup4\n        /* \"@openzeppelin/contracts@5.0.1/token/ERC721/ERC721.sol\":7194:7207  _isAuthorized */\n      tag_503\n        /* \"@openzeppelin/contracts@5.0.1/token/ERC721/ERC721.sol\":7194:7232  _isAuthorized(owner, spender, tokenId) */\n      jump\t// in\n    tag_502:\n        /* \"@openzeppelin/contracts@5.0.1/token/ERC721/ERC721.sol\":7189:7444  if (!_isAuthorized(owner, spender, tokenId)) {... */\n      tag_504\n      jumpi\n        /* \"@openzeppelin/contracts@5.0.1/token/ERC721/ERC721.sol\":7269:7270  0 */\n      0x00\n        /* \"@openzeppelin/contracts@5.0.1/token/ERC721/ERC721.sol\":7252:7271  owner == address(0) */\n      0xffffffffffffffffffffffffffffffffffffffff\n      and\n        /* \"@openzeppelin/contracts@5.0.1/token/ERC721/ERC721.sol\":7252:7257  owner */\n      dup4\n        /* \"@openzeppelin/contracts@5.0.1/token/ERC721/ERC721.sol\":7252:7271  owner == address(0) */\n      0xffffffffffffffffffffffffffffffffffffffff\n      and\n      sub\n        /* \"@openzeppelin/contracts@5.0.1/token/ERC721/ERC721.sol\":7248:7434  if (owner == address(0)) {... */\n      tag_505\n      jumpi\n        /* \"@openzeppelin/contracts@5.0.1/token/ERC721/ERC721.sol\":7321:7328  tokenId */\n      dup1\n        /* \"@openzeppelin/contracts@5.0.1/token/ERC721/ERC721.sol\":7298:7329  ERC721NonexistentToken(tokenId) */\n      mload(0x40)\n      0x7e27328900000000000000000000000000000000000000000000000000000000\n      dup2\n      mstore\n      0x04\n      add\n      tag_506\n      swap2\n      swap1\n      tag_73\n      jump\t// in\n    tag_506:\n      mload(0x40)\n      dup1\n      swap2\n      sub\n      swap1\n      revert\n        /* \"@openzeppelin/contracts@5.0.1/token/ERC721/ERC721.sol\":7248:7434  if (owner == address(0)) {... */\n    tag_505:\n        /* \"@openzeppelin/contracts@5.0.1/token/ERC721/ERC721.sol\":7402:7409  spender */\n      dup2\n        /* \"@openzeppelin/contracts@5.0.1/token/ERC721/ERC721.sol\":7411:7418  tokenId */\n      dup2\n        /* \"@openzeppelin/contracts@5.0.1/token/ERC721/ERC721.sol\":7375:7419  ERC721InsufficientApproval(spender, tokenId) */\n      mload(0x40)\n      0x177e802f00000000000000000000000000000000000000000000000000000000\n      dup2\n      mstore\n      0x04\n      add\n      tag_508\n      swap3\n      swap2\n      swap1\n      tag_232\n      jump\t// in\n    tag_508:\n      mload(0x40)\n      dup1\n      swap2\n      sub\n      swap1\n      revert\n        /* \"@openzeppelin/contracts@5.0.1/token/ERC721/ERC721.sol\":7189:7444  if (!_isAuthorized(owner, spender, tokenId)) {... */\n    tag_504:\n        /* \"@openzeppelin/contracts@5.0.1/token/ERC721/ERC721.sol\":7082:7450  function _checkAuthorized(address owner, address spender, uint256 tokenId) internal view virtual {... */\n      pop\n      pop\n      pop\n      jump\t// out\n        /* \"@openzeppelin/contracts@5.0.1/token/ERC721/ERC721.sol\":6376:6648  function _isAuthorized(address owner, address spender, uint256 tokenId) internal view virtual returns (bool) {... */\n    tag_503:\n        /* \"@openzeppelin/contracts@5.0.1/token/ERC721/ERC721.sol\":6479:6483  bool */\n      0x00\n        /* \"@openzeppelin/contracts@5.0.1/token/ERC721/ERC721.sol\":6533:6534  0 */\n      dup1\n        /* \"@openzeppelin/contracts@5.0.1/token/ERC721/ERC721.sol\":6514:6535  spender != address(0) */\n      0xffffffffffffffffffffffffffffffffffffffff\n      and\n        /* \"@openzeppelin/contracts@5.0.1/token/ERC721/ERC721.sol\":6514:6521  spender */\n      dup4\n        /* \"@openzeppelin/contracts@5.0.1/token/ERC721/ERC721.sol\":6514:6535  spender != address(0) */\n      0xffffffffffffffffffffffffffffffffffffffff\n      and\n      eq\n      iszero\n        /* \"@openzeppelin/contracts@5.0.1/token/ERC721/ERC721.sol\":6514:6641  spender != address(0) &&... */\n      dup1\n      iszero\n      tag_510\n      jumpi\n      pop\n        /* \"@openzeppelin/contracts@5.0.1/token/ERC721/ERC721.sol\":6561:6568  spender */\n      dup3\n        /* \"@openzeppelin/contracts@5.0.1/token/ERC721/ERC721.sol\":6552:6568  owner == spender */\n      0xffffffffffffffffffffffffffffffffffffffff\n      and\n        /* \"@openzeppelin/contracts@5.0.1/token/ERC721/ERC721.sol\":6552:6557  owner */\n      dup5\n        /* \"@openzeppelin/contracts@5.0.1/token/ERC721/ERC721.sol\":6552:6568  owner == spender */\n      0xffffffffffffffffffffffffffffffffffffffff\n      and\n      eq\n        /* \"@openzeppelin/contracts@5.0.1/token/ERC721/ERC721.sol\":6552:6604  owner == spender || isApprovedForAll(owner, spender) */\n      dup1\n      tag_511\n      jumpi\n      pop\n        /* \"@openzeppelin/contracts@5.0.1/token/ERC721/ERC721.sol\":6572:6604  isApprovedForAll(owner, spender) */\n      tag_512\n        /* \"@openzeppelin/contracts@5.0.1/token/ERC721/ERC721.sol\":6589:6594  owner */\n      dup5\n        /* \"@openzeppelin/contracts@5.0.1/token/ERC721/ERC721.sol\":6596:6603  spender */\n      dup5\n        /* \"@openzeppelin/contracts@5.0.1/token/ERC721/ERC721.sol\":6572:6588  isApprovedForAll */\n      tag_169\n        /* \"@openzeppelin/contracts@5.0.1/token/ERC721/ERC721.sol\":6572:6604  isApprovedForAll(owner, spender) */\n      jump\t// in\n    tag_512:\n        /* \"@openzeppelin/contracts@5.0.1/token/ERC721/ERC721.sol\":6552:6604  owner == spender || isApprovedForAll(owner, spender) */\n    tag_511:\n        /* \"@openzeppelin/contracts@5.0.1/token/ERC721/ERC721.sol\":6552:6640  owner == spender || isApprovedForAll(owner, spender) || _getApproved(tokenId) == spender */\n      dup1\n      tag_513\n      jumpi\n      pop\n        /* \"@openzeppelin/contracts@5.0.1/token/ERC721/ERC721.sol\":6633:6640  spender */\n      dup3\n        /* \"@openzeppelin/contracts@5.0.1/token/ERC721/ERC721.sol\":6608:6640  _getApproved(tokenId) == spender */\n      0xffffffffffffffffffffffffffffffffffffffff\n      and\n        /* \"@openzeppelin/contracts@5.0.1/token/ERC721/ERC721.sol\":6608:6629  _getApproved(tokenId) */\n      tag_514\n        /* \"@openzeppelin/contracts@5.0.1/token/ERC721/ERC721.sol\":6621:6628  tokenId */\n      dup4\n        /* \"@openzeppelin/contracts@5.0.1/token/ERC721/ERC721.sol\":6608:6620  _getApproved */\n      tag_189\n        /* \"@openzeppelin/contracts@5.0.1/token/ERC721/ERC721.sol\":6608:6629  _getApproved(tokenId) */\n      jump\t// in\n    tag_514:\n        /* \"@openzeppelin/contracts@5.0.1/token/ERC721/ERC721.sol\":6608:6640  _getApproved(tokenId) == spender */\n      0xffffffffffffffffffffffffffffffffffffffff\n      and\n      eq\n        /* \"@openzeppelin/contracts@5.0.1/token/ERC721/ERC721.sol\":6552:6640  owner == spender || isApprovedForAll(owner, spender) || _getApproved(tokenId) == spender */\n    tag_513:\n        /* \"@openzeppelin/contracts@5.0.1/token/ERC721/ERC721.sol\":6514:6641  spender != address(0) &&... */\n    tag_510:\n        /* \"@openzeppelin/contracts@5.0.1/token/ERC721/ERC721.sol\":6495:6641  return... */\n      swap1\n      pop\n        /* \"@openzeppelin/contracts@5.0.1/token/ERC721/ERC721.sol\":6376:6648  function _isAuthorized(address owner, address spender, uint256 tokenId) internal view virtual returns (bool) {... */\n      swap4\n      swap3\n      pop\n      pop\n      pop\n      jump\t// out\n        /* \"#utility.yul\":7:82   */\n    tag_515:\n        /* \"#utility.yul\":40:46   */\n      0x00\n        /* \"#utility.yul\":73:75   */\n      0x40\n        /* \"#utility.yul\":67:76   */\n      mload\n        /* \"#utility.yul\":57:76   */\n      swap1\n      pop\n        /* \"#utility.yul\":7:82   */\n      swap1\n      jump\t// out\n        /* \"#utility.yul\":88:205   */\n    tag_516:\n        /* \"#utility.yul\":197:198   */\n      0x00\n        /* \"#utility.yul\":194:195   */\n      dup1\n        /* \"#utility.yul\":187:199   */\n      revert\n        /* \"#utility.yul\":211:328   */\n    tag_517:\n        /* \"#utility.yul\":320:321   */\n      0x00\n        /* \"#utility.yul\":317:318   */\n      dup1\n        /* \"#utility.yul\":310:322   */\n      revert\n        /* \"#utility.yul\":334:483   */\n    tag_518:\n        /* \"#utility.yul\":370:377   */\n      0x00\n        /* \"#utility.yul\":410:476   */\n      0xffffffff00000000000000000000000000000000000000000000000000000000\n        /* \"#utility.yul\":403:408   */\n      dup3\n        /* \"#utility.yul\":399:477   */\n      and\n        /* \"#utility.yul\":388:477   */\n      swap1\n      pop\n        /* \"#utility.yul\":334:483   */\n      swap2\n      swap1\n      pop\n      jump\t// out\n        /* \"#utility.yul\":489:609   */\n    tag_519:\n        /* \"#utility.yul\":561:584   */\n      tag_574\n        /* \"#utility.yul\":578:583   */\n      dup2\n        /* \"#utility.yul\":561:584   */\n      tag_518\n      jump\t// in\n    tag_574:\n        /* \"#utility.yul\":554:559   */\n      dup2\n        /* \"#utility.yul\":551:585   */\n      eq\n        /* \"#utility.yul\":541:603   */\n      tag_575\n      jumpi\n        /* \"#utility.yul\":599:600   */\n      0x00\n        /* \"#utility.yul\":596:597   */\n      dup1\n        /* \"#utility.yul\":589:601   */\n      revert\n        /* \"#utility.yul\":541:603   */\n    tag_575:\n        /* \"#utility.yul\":489:609   */\n      pop\n      jump\t// out\n        /* \"#utility.yul\":615:752   */\n    tag_520:\n        /* \"#utility.yul\":660:665   */\n      0x00\n        /* \"#utility.yul\":698:704   */\n      dup2\n        /* \"#utility.yul\":685:705   */\n      calldataload\n        /* \"#utility.yul\":676:705   */\n      swap1\n      pop\n        /* \"#utility.yul\":714:746   */\n      tag_577\n        /* \"#utility.yul\":740:745   */\n      dup2\n        /* \"#utility.yul\":714:746   */\n      tag_519\n      jump\t// in\n    tag_577:\n        /* \"#utility.yul\":615:752   */\n      swap3\n      swap2\n      pop\n      pop\n      jump\t// out\n        /* \"#utility.yul\":758:1085   */\n    tag_42:\n        /* \"#utility.yul\":816:822   */\n      0x00\n        /* \"#utility.yul\":865:867   */\n      0x20\n        /* \"#utility.yul\":853:862   */\n      dup3\n        /* \"#utility.yul\":844:851   */\n      dup5\n        /* \"#utility.yul\":840:863   */\n      sub\n        /* \"#utility.yul\":836:868   */\n      slt\n        /* \"#utility.yul\":833:952   */\n      iszero\n      tag_579\n      jumpi\n        /* \"#utility.yul\":871:950   */\n      tag_580\n      tag_516\n      jump\t// in\n    tag_580:\n        /* \"#utility.yul\":833:952   */\n    tag_579:\n        /* \"#utility.yul\":991:992   */\n      0x00\n        /* \"#utility.yul\":1016:1068   */\n      tag_581\n        /* \"#utility.yul\":1060:1067   */\n      dup5\n        /* \"#utility.yul\":1051:1057   */\n      dup3\n        /* \"#utility.yul\":1040:1049   */\n      dup6\n        /* \"#utility.yul\":1036:1058   */\n      add\n        /* \"#utility.yul\":1016:1068   */\n      tag_520\n      jump\t// in\n    tag_581:\n        /* \"#utility.yul\":1006:1068   */\n      swap2\n      pop\n        /* \"#utility.yul\":962:1078   */\n      pop\n        /* \"#utility.yul\":758:1085   */\n      swap3\n      swap2\n      pop\n      pop\n      jump\t// out\n        /* \"#utility.yul\":1091:1181   */\n    tag_521:\n        /* \"#utility.yul\":1125:1132   */\n      0x00\n        /* \"#utility.yul\":1168:1173   */\n      dup2\n        /* \"#utility.yul\":1161:1174   */\n      iszero\n        /* \"#utility.yul\":1154:1175   */\n      iszero\n        /* \"#utility.yul\":1143:1175   */\n      swap1\n      pop\n        /* \"#utility.yul\":1091:1181   */\n      swap2\n      swap1\n      pop\n      jump\t// out\n        /* \"#utility.yul\":1187:1296   */\n    tag_522:\n        /* \"#utility.yul\":1268:1289   */\n      tag_584\n        /* \"#utility.yul\":1283:1288   */\n      dup2\n        /* \"#utility.yul\":1268:1289   */\n      tag_521\n      jump\t// in\n    tag_584:\n        /* \"#utility.yul\":1263:1266   */\n      dup3\n        /* \"#utility.yul\":1256:1290   */\n      mstore\n        /* \"#utility.yul\":1187:1296   */\n      pop\n      pop\n      jump\t// out\n        /* \"#utility.yul\":1302:1512   */\n    tag_45:\n        /* \"#utility.yul\":1389:1393   */\n      0x00\n        /* \"#utility.yul\":1427:1429   */\n      0x20\n        /* \"#utility.yul\":1416:1425   */\n      dup3\n        /* \"#utility.yul\":1412:1430   */\n      add\n        /* \"#utility.yul\":1404:1430   */\n      swap1\n      pop\n        /* \"#utility.yul\":1440:1505   */\n      tag_586\n        /* \"#utility.yul\":1502:1503   */\n      0x00\n        /* \"#utility.yul\":1491:1500   */\n      dup4\n        /* \"#utility.yul\":1487:1504   */\n      add\n        /* \"#utility.yul\":1478:1484   */\n      dup5\n        /* \"#utility.yul\":1440:1505   */\n      tag_522\n      jump\t// in\n    tag_586:\n        /* \"#utility.yul\":1302:1512   */\n      swap3\n      swap2\n      pop\n      pop\n      jump\t// out\n        /* \"#utility.yul\":1518:1617   */\n    tag_523:\n        /* \"#utility.yul\":1570:1576   */\n      0x00\n        /* \"#utility.yul\":1604:1609   */\n      dup2\n        /* \"#utility.yul\":1598:1610   */\n      mload\n        /* \"#utility.yul\":1588:1610   */\n      swap1\n      pop\n        /* \"#utility.yul\":1518:1617   */\n      swap2\n      swap1\n      pop\n      jump\t// out\n        /* \"#utility.yul\":1623:1792   */\n    tag_524:\n        /* \"#utility.yul\":1707:1718   */\n      0x00\n        /* \"#utility.yul\":1741:1747   */\n      dup3\n        /* \"#utility.yul\":1736:1739   */\n      dup3\n        /* \"#utility.yul\":1729:1748   */\n      mstore\n        /* \"#utility.yul\":1781:1785   */\n      0x20\n        /* \"#utility.yul\":1776:1779   */\n      dup3\n        /* \"#utility.yul\":1772:1786   */\n      add\n        /* \"#utility.yul\":1757:1786   */\n      swap1\n      pop\n        /* \"#utility.yul\":1623:1792   */\n      swap3\n      swap2\n      pop\n      pop\n      jump\t// out\n        /* \"#utility.yul\":1798:2044   */\n    tag_525:\n        /* \"#utility.yul\":1879:1880   */\n      0x00\n        /* \"#utility.yul\":1889:2002   */\n    tag_590:\n        /* \"#utility.yul\":1903:1909   */\n      dup4\n        /* \"#utility.yul\":1900:1901   */\n      dup2\n        /* \"#utility.yul\":1897:1910   */\n      lt\n        /* \"#utility.yul\":1889:2002   */\n      iszero\n      tag_592\n      jumpi\n        /* \"#utility.yul\":1988:1989   */\n      dup1\n        /* \"#utility.yul\":1983:1986   */\n      dup3\n        /* \"#utility.yul\":1979:1990   */\n      add\n        /* \"#utility.yul\":1973:1991   */\n      mload\n        /* \"#utility.yul\":1969:1970   */\n      dup2\n        /* \"#utility.yul\":1964:1967   */\n      dup5\n        /* \"#utility.yul\":1960:1971   */\n      add\n        /* \"#utility.yul\":1953:1992   */\n      mstore\n        /* \"#utility.yul\":1925:1927   */\n      0x20\n        /* \"#utility.yul\":1922:1923   */\n      dup2\n        /* \"#utility.yul\":1918:1928   */\n      add\n        /* \"#utility.yul\":1913:1928   */\n      swap1\n      pop\n        /* \"#utility.yul\":1889:2002   */\n      jump(tag_590)\n    tag_592:\n        /* \"#utility.yul\":2036:2037   */\n      0x00\n        /* \"#utility.yul\":2027:2033   */\n      dup5\n        /* \"#utility.yul\":2022:2025   */\n      dup5\n        /* \"#utility.yul\":2018:2034   */\n      add\n        /* \"#utility.yul\":2011:2038   */\n      mstore\n        /* \"#utility.yul\":1860:2044   */\n      pop\n        /* \"#utility.yul\":1798:2044   */\n      pop\n      pop\n      pop\n      jump\t// out\n        /* \"#utility.yul\":2050:2152   */\n    tag_526:\n        /* \"#utility.yul\":2091:2097   */\n      0x00\n        /* \"#utility.yul\":2142:2144   */\n      0x1f\n        /* \"#utility.yul\":2138:2145   */\n      not\n        /* \"#utility.yul\":2133:2135   */\n      0x1f\n        /* \"#utility.yul\":2126:2131   */\n      dup4\n        /* \"#utility.yul\":2122:2136   */\n      add\n        /* \"#utility.yul\":2118:2146   */\n      and\n        /* \"#utility.yul\":2108:2146   */\n      swap1\n      pop\n        /* \"#utility.yul\":2050:2152   */\n      swap2\n      swap1\n      pop\n      jump\t// out\n        /* \"#utility.yul\":2158:2535   */\n    tag_527:\n        /* \"#utility.yul\":2246:2249   */\n      0x00\n        /* \"#utility.yul\":2274:2313   */\n      tag_595\n        /* \"#utility.yul\":2307:2312   */\n      dup3\n        /* \"#utility.yul\":2274:2313   */\n      tag_523\n      jump\t// in\n    tag_595:\n        /* \"#utility.yul\":2329:2400   */\n      tag_596\n        /* \"#utility.yul\":2393:2399   */\n      dup2\n        /* \"#utility.yul\":2388:2391   */\n      dup6\n        /* \"#utility.yul\":2329:2400   */\n      tag_524\n      jump\t// in\n    tag_596:\n        /* \"#utility.yul\":2322:2400   */\n      swap4\n      pop\n        /* \"#utility.yul\":2409:2474   */\n      tag_597\n        /* \"#utility.yul\":2467:2473   */\n      dup2\n        /* \"#utility.yul\":2462:2465   */\n      dup6\n        /* \"#utility.yul\":2455:2459   */\n      0x20\n        /* \"#utility.yul\":2448:2453   */\n      dup7\n        /* \"#utility.yul\":2444:2460   */\n      add\n        /* \"#utility.yul\":2409:2474   */\n      tag_525\n      jump\t// in\n    tag_597:\n        /* \"#utility.yul\":2499:2528   */\n      tag_598\n        /* \"#utility.yul\":2521:2527   */\n      dup2\n        /* \"#utility.yul\":2499:2528   */\n      tag_526\n      jump\t// in\n    tag_598:\n        /* \"#utility.yul\":2494:2497   */\n      dup5\n        /* \"#utility.yul\":2490:2529   */\n      add\n        /* \"#utility.yul\":2483:2529   */\n      swap2\n      pop\n        /* \"#utility.yul\":2250:2535   */\n      pop\n        /* \"#utility.yul\":2158:2535   */\n      swap3\n      swap2\n      pop\n      pop\n      jump\t// out\n        /* \"#utility.yul\":2541:2854   */\n    tag_50:\n        /* \"#utility.yul\":2654:2658   */\n      0x00\n        /* \"#utility.yul\":2692:2694   */\n      0x20\n        /* \"#utility.yul\":2681:2690   */\n      dup3\n        /* \"#utility.yul\":2677:2695   */\n      add\n        /* \"#utility.yul\":2669:2695   */\n      swap1\n      pop\n        /* \"#utility.yul\":2741:2750   */\n      dup2\n        /* \"#utility.yul\":2735:2739   */\n      dup2\n        /* \"#utility.yul\":2731:2751   */\n      sub\n        /* \"#utility.yul\":2727:2728   */\n      0x00\n        /* \"#utility.yul\":2716:2725   */\n      dup4\n        /* \"#utility.yul\":2712:2729   */\n      add\n        /* \"#utility.yul\":2705:2752   */\n      mstore\n        /* \"#utility.yul\":2769:2847   */\n      tag_600\n        /* \"#utility.yul\":2842:2846   */\n      dup2\n        /* \"#utility.yul\":2833:2839   */\n      dup5\n        /* \"#utility.yul\":2769:2847   */\n      tag_527\n      jump\t// in\n    tag_600:\n        /* \"#utility.yul\":2761:2847   */\n      swap1\n      pop\n        /* \"#utility.yul\":2541:2854   */\n      swap3\n      swap2\n      pop\n      pop\n      jump\t// out\n        /* \"#utility.yul\":2860:2937   */\n    tag_528:\n        /* \"#utility.yul\":2897:2904   */\n      0x00\n        /* \"#utility.yul\":2926:2931   */\n      dup2\n        /* \"#utility.yul\":2915:2931   */\n      swap1\n      pop\n        /* \"#utility.yul\":2860:2937   */\n      swap2\n      swap1\n      pop\n      jump\t// out\n        /* \"#utility.yul\":2943:3065   */\n    tag_529:\n        /* \"#utility.yul\":3016:3040   */\n      tag_603\n        /* \"#utility.yul\":3034:3039   */\n      dup2\n        /* \"#utility.yul\":3016:3040   */\n      tag_528\n      jump\t// in\n    tag_603:\n        /* \"#utility.yul\":3009:3014   */\n      dup2\n        /* \"#utility.yul\":3006:3041   */\n      eq\n        /* \"#utility.yul\":2996:3059   */\n      tag_604\n      jumpi\n        /* \"#utility.yul\":3055:3056   */\n      0x00\n        /* \"#utility.yul\":3052:3053   */\n      dup1\n        /* \"#utility.yul\":3045:3057   */\n      revert\n        /* \"#utility.yul\":2996:3059   */\n    tag_604:\n        /* \"#utility.yul\":2943:3065   */\n      pop\n      jump\t// out\n        /* \"#utility.yul\":3071:3210   */\n    tag_530:\n        /* \"#utility.yul\":3117:3122   */\n      0x00\n        /* \"#utility.yul\":3155:3161   */\n      dup2\n        /* \"#utility.yul\":3142:3162   */\n      calldataload\n        /* \"#utility.yul\":3133:3162   */\n      swap1\n      pop\n        /* \"#utility.yul\":3171:3204   */\n      tag_606\n        /* \"#utility.yul\":3198:3203   */\n      dup2\n        /* \"#utility.yul\":3171:3204   */\n      tag_529\n      jump\t// in\n    tag_606:\n        /* \"#utility.yul\":3071:3210   */\n      swap3\n      swap2\n      pop\n      pop\n      jump\t// out\n        /* \"#utility.yul\":3216:3545   */\n    tag_54:\n        /* \"#utility.yul\":3275:3281   */\n      0x00\n        /* \"#utility.yul\":3324:3326   */\n      0x20\n        /* \"#utility.yul\":3312:3321   */\n      dup3\n        /* \"#utility.yul\":3303:3310   */\n      dup5\n        /* \"#utility.yul\":3299:3322   */\n      sub\n        /* \"#utility.yul\":3295:3327   */\n      slt\n        /* \"#utility.yul\":3292:3411   */\n      iszero\n      tag_608\n      jumpi\n        /* \"#utility.yul\":3330:3409   */\n      tag_609\n      tag_516\n      jump\t// in\n    tag_609:\n        /* \"#utility.yul\":3292:3411   */\n    tag_608:\n        /* \"#utility.yul\":3450:3451   */\n      0x00\n        /* \"#utility.yul\":3475:3528   */\n      tag_610\n        /* \"#utility.yul\":3520:3527   */\n      dup5\n        /* \"#utility.yul\":3511:3517   */\n      dup3\n        /* \"#utility.yul\":3500:3509   */\n      dup6\n        /* \"#utility.yul\":3496:3518   */\n      add\n        /* \"#utility.yul\":3475:3528   */\n      tag_530\n      jump\t// in\n    tag_610:\n        /* \"#utility.yul\":3465:3528   */\n      swap2\n      pop\n        /* \"#utility.yul\":3421:3538   */\n      pop\n        /* \"#utility.yul\":3216:3545   */\n      swap3\n      swap2\n      pop\n      pop\n      jump\t// out\n        /* \"#utility.yul\":3551:3677   */\n    tag_531:\n        /* \"#utility.yul\":3588:3595   */\n      0x00\n        /* \"#utility.yul\":3628:3670   */\n      0xffffffffffffffffffffffffffffffffffffffff\n        /* \"#utility.yul\":3621:3626   */\n      dup3\n        /* \"#utility.yul\":3617:3671   */\n      and\n        /* \"#utility.yul\":3606:3671   */\n      swap1\n      pop\n        /* \"#utility.yul\":3551:3677   */\n      swap2\n      swap1\n      pop\n      jump\t// out\n        /* \"#utility.yul\":3683:3779   */\n    tag_532:\n        /* \"#utility.yul\":3720:3727   */\n      0x00\n        /* \"#utility.yul\":3749:3773   */\n      tag_613\n        /* \"#utility.yul\":3767:3772   */\n      dup3\n        /* \"#utility.yul\":3749:3773   */\n      tag_531\n      jump\t// in\n    tag_613:\n        /* \"#utility.yul\":3738:3773   */\n      swap1\n      pop\n        /* \"#utility.yul\":3683:3779   */\n      swap2\n      swap1\n      pop\n      jump\t// out\n        /* \"#utility.yul\":3785:3903   */\n    tag_533:\n        /* \"#utility.yul\":3872:3896   */\n      tag_615\n        /* \"#utility.yul\":3890:3895   */\n      dup2\n        /* \"#utility.yul\":3872:3896   */\n      tag_532\n      jump\t// in\n    tag_615:\n        /* \"#utility.yul\":3867:3870   */\n      dup3\n        /* \"#utility.yul\":3860:3897   */\n      mstore\n        /* \"#utility.yul\":3785:3903   */\n      pop\n      pop\n      jump\t// out\n        /* \"#utility.yul\":3909:4131   */\n    tag_57:\n        /* \"#utility.yul\":4002:4006   */\n      0x00\n        /* \"#utility.yul\":4040:4042   */\n      0x20\n        /* \"#utility.yul\":4029:4038   */\n      dup3\n        /* \"#utility.yul\":4025:4043   */\n      add\n        /* \"#utility.yul\":4017:4043   */\n      swap1\n      pop\n        /* \"#utility.yul\":4053:4124   */\n      tag_617\n        /* \"#utility.yul\":4121:4122   */\n      0x00\n        /* \"#utility.yul\":4110:4119   */\n      dup4\n        /* \"#utility.yul\":4106:4123   */\n      add\n        /* \"#utility.yul\":4097:4103   */\n      dup5\n        /* \"#utility.yul\":4053:4124   */\n      tag_533\n      jump\t// in\n    tag_617:\n        /* \"#utility.yul\":3909:4131   */\n      swap3\n      swap2\n      pop\n      pop\n      jump\t// out\n        /* \"#utility.yul\":4137:4259   */\n    tag_534:\n        /* \"#utility.yul\":4210:4234   */\n      tag_619\n        /* \"#utility.yul\":4228:4233   */\n      dup2\n        /* \"#utility.yul\":4210:4234   */\n      tag_532\n      jump\t// in\n    tag_619:\n        /* \"#utility.yul\":4203:4208   */\n      dup2\n        /* \"#utility.yul\":4200:4235   */\n      eq\n        /* \"#utility.yul\":4190:4253   */\n      tag_620\n      jumpi\n        /* \"#utility.yul\":4249:4250   */\n      0x00\n        /* \"#utility.yul\":4246:4247   */\n      dup1\n        /* \"#utility.yul\":4239:4251   */\n      revert\n        /* \"#utility.yul\":4190:4253   */\n    tag_620:\n        /* \"#utility.yul\":4137:4259   */\n      pop\n      jump\t// out\n        /* \"#utility.yul\":4265:4404   */\n    tag_535:\n        /* \"#utility.yul\":4311:4316   */\n      0x00\n        /* \"#utility.yul\":4349:4355   */\n      dup2\n        /* \"#utility.yul\":4336:4356   */\n      calldataload\n        /* \"#utility.yul\":4327:4356   */\n      swap1\n      pop\n        /* \"#utility.yul\":4365:4398   */\n      tag_622\n        /* \"#utility.yul\":4392:4397   */\n      dup2\n        /* \"#utility.yul\":4365:4398   */\n      tag_534\n      jump\t// in\n    tag_622:\n        /* \"#utility.yul\":4265:4404   */\n      swap3\n      swap2\n      pop\n      pop\n      jump\t// out\n        /* \"#utility.yul\":4410:4884   */\n    tag_65:\n        /* \"#utility.yul\":4478:4484   */\n      0x00\n        /* \"#utility.yul\":4486:4492   */\n      dup1\n        /* \"#utility.yul\":4535:4537   */\n      0x40\n        /* \"#utility.yul\":4523:4532   */\n      dup4\n        /* \"#utility.yul\":4514:4521   */\n      dup6\n        /* \"#utility.yul\":4510:4533   */\n      sub\n        /* \"#utility.yul\":4506:4538   */\n      slt\n        /* \"#utility.yul\":4503:4622   */\n      iszero\n      tag_624\n      jumpi\n        /* \"#utility.yul\":4541:4620   */\n      tag_625\n      tag_516\n      jump\t// in\n    tag_625:\n        /* \"#utility.yul\":4503:4622   */\n    tag_624:\n        /* \"#utility.yul\":4661:4662   */\n      0x00\n        /* \"#utility.yul\":4686:4739   */\n      tag_626\n        /* \"#utility.yul\":4731:4738   */\n      dup6\n        /* \"#utility.yul\":4722:4728   */\n      dup3\n        /* \"#utility.yul\":4711:4720   */\n      dup7\n        /* \"#utility.yul\":4707:4729   */\n      add\n        /* \"#utility.yul\":4686:4739   */\n      tag_535\n      jump\t// in\n    tag_626:\n        /* \"#utility.yul\":4676:4739   */\n      swap3\n      pop\n        /* \"#utility.yul\":4632:4749   */\n      pop\n        /* \"#utility.yul\":4788:4790   */\n      0x20\n        /* \"#utility.yul\":4814:4867   */\n      tag_627\n        /* \"#utility.yul\":4859:4866   */\n      dup6\n        /* \"#utility.yul\":4850:4856   */\n      dup3\n        /* \"#utility.yul\":4839:4848   */\n      dup7\n        /* \"#utility.yul\":4835:4857   */\n      add\n        /* \"#utility.yul\":4814:4867   */\n      tag_530\n      jump\t// in\n    tag_627:\n        /* \"#utility.yul\":4804:4867   */\n      swap2\n      pop\n        /* \"#utility.yul\":4759:4877   */\n      pop\n        /* \"#utility.yul\":4410:4884   */\n      swap3\n      pop\n      swap3\n      swap1\n      pop\n      jump\t// out\n        /* \"#utility.yul\":4890:5008   */\n    tag_536:\n        /* \"#utility.yul\":4977:5001   */\n      tag_629\n        /* \"#utility.yul\":4995:5000   */\n      dup2\n        /* \"#utility.yul\":4977:5001   */\n      tag_528\n      jump\t// in\n    tag_629:\n        /* \"#utility.yul\":4972:4975   */\n      dup3\n        /* \"#utility.yul\":4965:5002   */\n      mstore\n        /* \"#utility.yul\":4890:5008   */\n      pop\n      pop\n      jump\t// out\n        /* \"#utility.yul\":5014:5236   */\n    tag_73:\n        /* \"#utility.yul\":5107:5111   */\n      0x00\n        /* \"#utility.yul\":5145:5147   */\n      0x20\n        /* \"#utility.yul\":5134:5143   */\n      dup3\n        /* \"#utility.yul\":5130:5148   */\n      add\n        /* \"#utility.yul\":5122:5148   */\n      swap1\n      pop\n        /* \"#utility.yul\":5158:5229   */\n      tag_631\n        /* \"#utility.yul\":5226:5227   */\n      0x00\n        /* \"#utility.yul\":5215:5224   */\n      dup4\n        /* \"#utility.yul\":5211:5228   */\n      add\n        /* \"#utility.yul\":5202:5208   */\n      dup5\n        /* \"#utility.yul\":5158:5229   */\n      tag_536\n      jump\t// in\n    tag_631:\n        /* \"#utility.yul\":5014:5236   */\n      swap3\n      swap2\n      pop\n      pop\n      jump\t// out\n        /* \"#utility.yul\":5242:5861   */\n    tag_77:\n        /* \"#utility.yul\":5319:5325   */\n      0x00\n        /* \"#utility.yul\":5327:5333   */\n      dup1\n        /* \"#utility.yul\":5335:5341   */\n      0x00\n        /* \"#utility.yul\":5384:5386   */\n      0x60\n        /* \"#utility.yul\":5372:5381   */\n      dup5\n        /* \"#utility.yul\":5363:5370   */\n      dup7\n        /* \"#utility.yul\":5359:5382   */\n      sub\n        /* \"#utility.yul\":5355:5387   */\n      slt\n        /* \"#utility.yul\":5352:5471   */\n      iszero\n      tag_633\n      jumpi\n        /* \"#utility.yul\":5390:5469   */\n      tag_634\n      tag_516\n      jump\t// in\n    tag_634:\n        /* \"#utility.yul\":5352:5471   */\n    tag_633:\n        /* \"#utility.yul\":5510:5511   */\n      0x00\n        /* \"#utility.yul\":5535:5588   */\n      tag_635\n        /* \"#utility.yul\":5580:5587   */\n      dup7\n        /* \"#utility.yul\":5571:5577   */\n      dup3\n        /* \"#utility.yul\":5560:5569   */\n      dup8\n        /* \"#utility.yul\":5556:5578   */\n      add\n        /* \"#utility.yul\":5535:5588   */\n      tag_535\n      jump\t// in\n    tag_635:\n        /* \"#utility.yul\":5525:5588   */\n      swap4\n      pop\n        /* \"#utility.yul\":5481:5598   */\n      pop\n        /* \"#utility.yul\":5637:5639   */\n      0x20\n        /* \"#utility.yul\":5663:5716   */\n      tag_636\n        /* \"#utility.yul\":5708:5715   */\n      dup7\n        /* \"#utility.yul\":5699:5705   */\n      dup3\n        /* \"#utility.yul\":5688:5697   */\n      dup8\n        /* \"#utility.yul\":5684:5706   */\n      add\n        /* \"#utility.yul\":5663:5716   */\n      tag_535\n      jump\t// in\n    tag_636:\n        /* \"#utility.yul\":5653:5716   */\n      swap3\n      pop\n        /* \"#utility.yul\":5608:5726   */\n      pop\n        /* \"#utility.yul\":5765:5767   */\n      0x40\n        /* \"#utility.yul\":5791:5844   */\n      tag_637\n        /* \"#utility.yul\":5836:5843   */\n      dup7\n        /* \"#utility.yul\":5827:5833   */\n      dup3\n        /* \"#utility.yul\":5816:5825   */\n      dup8\n        /* \"#utility.yul\":5812:5834   */\n      add\n        /* \"#utility.yul\":5791:5844   */\n      tag_530\n      jump\t// in\n    tag_637:\n        /* \"#utility.yul\":5781:5844   */\n      swap2\n      pop\n        /* \"#utility.yul\":5736:5854   */\n      pop\n        /* \"#utility.yul\":5242:5861   */\n      swap3\n      pop\n      swap3\n      pop\n      swap3\n      jump\t// out\n        /* \"#utility.yul\":5867:6196   */\n    tag_84:\n        /* \"#utility.yul\":5926:5932   */\n      0x00\n        /* \"#utility.yul\":5975:5977   */\n      0x20\n        /* \"#utility.yul\":5963:5972   */\n      dup3\n        /* \"#utility.yul\":5954:5961   */\n      dup5\n        /* \"#utility.yul\":5950:5973   */\n      sub\n        /* \"#utility.yul\":5946:5978   */\n      slt\n        /* \"#utility.yul\":5943:6062   */\n      iszero\n      tag_639\n      jumpi\n        /* \"#utility.yul\":5981:6060   */\n      tag_640\n      tag_516\n      jump\t// in\n    tag_640:\n        /* \"#utility.yul\":5943:6062   */\n    tag_639:\n        /* \"#utility.yul\":6101:6102   */\n      0x00\n        /* \"#utility.yul\":6126:6179   */\n      tag_641\n        /* \"#utility.yul\":6171:6178   */\n      dup5\n        /* \"#utility.yul\":6162:6168   */\n      dup3\n        /* \"#utility.yul\":6151:6160   */\n      dup6\n        /* \"#utility.yul\":6147:6169   */\n      add\n        /* \"#utility.yul\":6126:6179   */\n      tag_535\n      jump\t// in\n    tag_641:\n        /* \"#utility.yul\":6116:6179   */\n      swap2\n      pop\n        /* \"#utility.yul\":6072:6189   */\n      pop\n        /* \"#utility.yul\":5867:6196   */\n      swap3\n      swap2\n      pop\n      pop\n      jump\t// out\n        /* \"#utility.yul\":6202:6318   */\n    tag_537:\n        /* \"#utility.yul\":6272:6293   */\n      tag_643\n        /* \"#utility.yul\":6287:6292   */\n      dup2\n        /* \"#utility.yul\":6272:6293   */\n      tag_521\n      jump\t// in\n    tag_643:\n        /* \"#utility.yul\":6265:6270   */\n      dup2\n        /* \"#utility.yul\":6262:6294   */\n      eq\n        /* \"#utility.yul\":6252:6312   */\n      tag_644\n      jumpi\n        /* \"#utility.yul\":6308:6309   */\n      0x00\n        /* \"#utility.yul\":6305:6306   */\n      dup1\n        /* \"#utility.yul\":6298:6310   */\n      revert\n        /* \"#utility.yul\":6252:6312   */\n    tag_644:\n        /* \"#utility.yul\":6202:6318   */\n      pop\n      jump\t// out\n        /* \"#utility.yul\":6324:6457   */\n    tag_538:\n        /* \"#utility.yul\":6367:6372   */\n      0x00\n        /* \"#utility.yul\":6405:6411   */\n      dup2\n        /* \"#utility.yul\":6392:6412   */\n      calldataload\n        /* \"#utility.yul\":6383:6412   */\n      swap1\n      pop\n        /* \"#utility.yul\":6421:6451   */\n      tag_646\n        /* \"#utility.yul\":6445:6450   */\n      dup2\n        /* \"#utility.yul\":6421:6451   */\n      tag_537\n      jump\t// in\n    tag_646:\n        /* \"#utility.yul\":6324:6457   */\n      swap3\n      swap2\n      pop\n      pop\n      jump\t// out\n        /* \"#utility.yul\":6463:6925   */\n    tag_90:\n        /* \"#utility.yul\":6525:6531   */\n      0x00\n        /* \"#utility.yul\":6533:6539   */\n      dup1\n        /* \"#utility.yul\":6582:6584   */\n      0x40\n        /* \"#utility.yul\":6570:6579   */\n      dup4\n        /* \"#utility.yul\":6561:6568   */\n      dup6\n        /* \"#utility.yul\":6557:6580   */\n      sub\n        /* \"#utility.yul\":6553:6585   */\n      slt\n        /* \"#utility.yul\":6550:6669   */\n      iszero\n      tag_648\n      jumpi\n        /* \"#utility.yul\":6588:6667   */\n      tag_649\n      tag_516\n      jump\t// in\n    tag_649:\n        /* \"#utility.yul\":6550:6669   */\n    tag_648:\n        /* \"#utility.yul\":6708:6709   */\n      0x00\n        /* \"#utility.yul\":6733:6783   */\n      tag_650\n        /* \"#utility.yul\":6775:6782   */\n      dup6\n        /* \"#utility.yul\":6766:6772   */\n      dup3\n        /* \"#utility.yul\":6755:6764   */\n      dup7\n        /* \"#utility.yul\":6751:6773   */\n      add\n        /* \"#utility.yul\":6733:6783   */\n      tag_538\n      jump\t// in\n    tag_650:\n        /* \"#utility.yul\":6723:6783   */\n      swap3\n      pop\n        /* \"#utility.yul\":6679:6793   */\n      pop\n        /* \"#utility.yul\":6832:6834   */\n      0x20\n        /* \"#utility.yul\":6858:6908   */\n      tag_651\n        /* \"#utility.yul\":6900:6907   */\n      dup6\n        /* \"#utility.yul\":6891:6897   */\n      dup3\n        /* \"#utility.yul\":6880:6889   */\n      dup7\n        /* \"#utility.yul\":6876:6898   */\n      add\n        /* \"#utility.yul\":6858:6908   */\n      tag_538\n      jump\t// in\n    tag_651:\n        /* \"#utility.yul\":6848:6908   */\n      swap2\n      pop\n        /* \"#utility.yul\":6803:6918   */\n      pop\n        /* \"#utility.yul\":6463:6925   */\n      swap3\n      pop\n      swap3\n      swap1\n      pop\n      jump\t// out\n        /* \"#utility.yul\":6931:7048   */\n    tag_539:\n        /* \"#utility.yul\":7040:7041   */\n      0x00\n        /* \"#utility.yul\":7037:7038   */\n      dup1\n        /* \"#utility.yul\":7030:7042   */\n      revert\n        /* \"#utility.yul\":7054:7171   */\n    tag_540:\n        /* \"#utility.yul\":7163:7164   */\n      0x00\n        /* \"#utility.yul\":7160:7161   */\n      dup1\n        /* \"#utility.yul\":7153:7165   */\n      revert\n        /* \"#utility.yul\":7177:7294   */\n    tag_541:\n        /* \"#utility.yul\":7286:7287   */\n      0x00\n        /* \"#utility.yul\":7283:7284   */\n      dup1\n        /* \"#utility.yul\":7276:7288   */\n      revert\n        /* \"#utility.yul\":7317:7885   */\n    tag_542:\n        /* \"#utility.yul\":7390:7398   */\n      0x00\n        /* \"#utility.yul\":7400:7406   */\n      dup1\n        /* \"#utility.yul\":7450:7453   */\n      dup4\n        /* \"#utility.yul\":7443:7447   */\n      0x1f\n        /* \"#utility.yul\":7435:7441   */\n      dup5\n        /* \"#utility.yul\":7431:7448   */\n      add\n        /* \"#utility.yul\":7427:7454   */\n      slt\n        /* \"#utility.yul\":7417:7539   */\n      tag_656\n      jumpi\n        /* \"#utility.yul\":7458:7537   */\n      tag_657\n      tag_539\n      jump\t// in\n    tag_657:\n        /* \"#utility.yul\":7417:7539   */\n    tag_656:\n        /* \"#utility.yul\":7571:7577   */\n      dup3\n        /* \"#utility.yul\":7558:7578   */\n      calldataload\n        /* \"#utility.yul\":7548:7578   */\n      swap1\n      pop\n        /* \"#utility.yul\":7601:7619   */\n      0xffffffffffffffff\n        /* \"#utility.yul\":7593:7599   */\n      dup2\n        /* \"#utility.yul\":7590:7620   */\n      gt\n        /* \"#utility.yul\":7587:7704   */\n      iszero\n      tag_658\n      jumpi\n        /* \"#utility.yul\":7623:7702   */\n      tag_659\n      tag_540\n      jump\t// in\n    tag_659:\n        /* \"#utility.yul\":7587:7704   */\n    tag_658:\n        /* \"#utility.yul\":7737:7741   */\n      0x20\n        /* \"#utility.yul\":7729:7735   */\n      dup4\n        /* \"#utility.yul\":7725:7742   */\n      add\n        /* \"#utility.yul\":7713:7742   */\n      swap2\n      pop\n        /* \"#utility.yul\":7791:7794   */\n      dup4\n        /* \"#utility.yul\":7783:7787   */\n      0x20\n        /* \"#utility.yul\":7775:7781   */\n      dup3\n        /* \"#utility.yul\":7771:7788   */\n      mul\n        /* \"#utility.yul\":7761:7769   */\n      dup4\n        /* \"#utility.yul\":7757:7789   */\n      add\n        /* \"#utility.yul\":7754:7795   */\n      gt\n        /* \"#utility.yul\":7751:7879   */\n      iszero\n      tag_660\n      jumpi\n        /* \"#utility.yul\":7798:7877   */\n      tag_661\n      tag_541\n      jump\t// in\n    tag_661:\n        /* \"#utility.yul\":7751:7879   */\n    tag_660:\n        /* \"#utility.yul\":7317:7885   */\n      swap3\n      pop\n      swap3\n      swap1\n      pop\n      jump\t// out\n        /* \"#utility.yul\":7891:8450   */\n    tag_125:\n        /* \"#utility.yul\":7977:7983   */\n      0x00\n        /* \"#utility.yul\":7985:7991   */\n      dup1\n        /* \"#utility.yul\":8034:8036   */\n      0x20\n        /* \"#utility.yul\":8022:8031   */\n      dup4\n        /* \"#utility.yul\":8013:8020   */\n      dup6\n        /* \"#utility.yul\":8009:8032   */\n      sub\n        /* \"#utility.yul\":8005:8037   */\n      slt\n        /* \"#utility.yul\":8002:8121   */\n      iszero\n      tag_663\n      jumpi\n        /* \"#utility.yul\":8040:8119   */\n      tag_664\n      tag_516\n      jump\t// in\n    tag_664:\n        /* \"#utility.yul\":8002:8121   */\n    tag_663:\n        /* \"#utility.yul\":8188:8189   */\n      0x00\n        /* \"#utility.yul\":8177:8186   */\n      dup4\n        /* \"#utility.yul\":8173:8190   */\n      add\n        /* \"#utility.yul\":8160:8191   */\n      calldataload\n        /* \"#utility.yul\":8218:8236   */\n      0xffffffffffffffff\n        /* \"#utility.yul\":8210:8216   */\n      dup2\n        /* \"#utility.yul\":8207:8237   */\n      gt\n        /* \"#utility.yul\":8204:8321   */\n      iszero\n      tag_665\n      jumpi\n        /* \"#utility.yul\":8240:8319   */\n      tag_666\n      tag_517\n      jump\t// in\n    tag_666:\n        /* \"#utility.yul\":8204:8321   */\n    tag_665:\n        /* \"#utility.yul\":8353:8433   */\n      tag_667\n        /* \"#utility.yul\":8425:8432   */\n      dup6\n        /* \"#utility.yul\":8416:8422   */\n      dup3\n        /* \"#utility.yul\":8405:8414   */\n      dup7\n        /* \"#utility.yul\":8401:8423   */\n      add\n        /* \"#utility.yul\":8353:8433   */\n      tag_542\n      jump\t// in\n    tag_667:\n        /* \"#utility.yul\":8335:8433   */\n      swap3\n      pop\n      swap3\n      pop\n        /* \"#utility.yul\":8131:8443   */\n      pop\n        /* \"#utility.yul\":7891:8450   */\n      swap3\n      pop\n      swap3\n      swap1\n      pop\n      jump\t// out\n        /* \"#utility.yul\":8456:8924   */\n    tag_149:\n        /* \"#utility.yul\":8521:8527   */\n      0x00\n        /* \"#utility.yul\":8529:8535   */\n      dup1\n        /* \"#utility.yul\":8578:8580   */\n      0x40\n        /* \"#utility.yul\":8566:8575   */\n      dup4\n        /* \"#utility.yul\":8557:8564   */\n      dup6\n        /* \"#utility.yul\":8553:8576   */\n      sub\n        /* \"#utility.yul\":8549:8581   */\n      slt\n        /* \"#utility.yul\":8546:8665   */\n      iszero\n      tag_669\n      jumpi\n        /* \"#utility.yul\":8584:8663   */\n      tag_670\n      tag_516\n      jump\t// in\n    tag_670:\n        /* \"#utility.yul\":8546:8665   */\n    tag_669:\n        /* \"#utility.yul\":8704:8705   */\n      0x00\n        /* \"#utility.yul\":8729:8782   */\n      tag_671\n        /* \"#utility.yul\":8774:8781   */\n      dup6\n        /* \"#utility.yul\":8765:8771   */\n      dup3\n        /* \"#utility.yul\":8754:8763   */\n      dup7\n        /* \"#utility.yul\":8750:8772   */\n      add\n        /* \"#utility.yul\":8729:8782   */\n      tag_535\n      jump\t// in\n    tag_671:\n        /* \"#utility.yul\":8719:8782   */\n      swap3\n      pop\n        /* \"#utility.yul\":8675:8792   */\n      pop\n        /* \"#utility.yul\":8831:8833   */\n      0x20\n        /* \"#utility.yul\":8857:8907   */\n      tag_672\n        /* \"#utility.yul\":8899:8906   */\n      dup6\n        /* \"#utility.yul\":8890:8896   */\n      dup3\n        /* \"#utility.yul\":8879:8888   */\n      dup7\n        /* \"#utility.yul\":8875:8897   */\n      add\n        /* \"#utility.yul\":8857:8907   */\n      tag_538\n      jump\t// in\n    tag_672:\n        /* \"#utility.yul\":8847:8907   */\n      swap2\n      pop\n        /* \"#utility.yul\":8802:8917   */\n      pop\n        /* \"#utility.yul\":8456:8924   */\n      swap3\n      pop\n      swap3\n      swap1\n      pop\n      jump\t// out\n        /* \"#utility.yul\":8930:9047   */\n    tag_543:\n        /* \"#utility.yul\":9039:9040   */\n      0x00\n        /* \"#utility.yul\":9036:9037   */\n      dup1\n        /* \"#utility.yul\":9029:9041   */\n      revert\n        /* \"#utility.yul\":9053:9233   */\n    tag_386:\n        /* \"#utility.yul\":9101:9178   */\n      0x4e487b7100000000000000000000000000000000000000000000000000000000\n        /* \"#utility.yul\":9098:9099   */\n      0x00\n        /* \"#utility.yul\":9091:9179   */\n      mstore\n        /* \"#utility.yul\":9198:9202   */\n      0x41\n        /* \"#utility.yul\":9195:9196   */\n      0x04\n        /* \"#utility.yul\":9188:9203   */\n      mstore\n        /* \"#utility.yul\":9222:9226   */\n      0x24\n        /* \"#utility.yul\":9219:9220   */\n      0x00\n        /* \"#utility.yul\":9212:9227   */\n      revert\n        /* \"#utility.yul\":9239:9520   */\n    tag_544:\n        /* \"#utility.yul\":9322:9349   */\n      tag_676\n        /* \"#utility.yul\":9344:9348   */\n      dup3\n        /* \"#utility.yul\":9322:9349   */\n      tag_526\n      jump\t// in\n    tag_676:\n        /* \"#utility.yul\":9314:9320   */\n      dup2\n        /* \"#utility.yul\":9310:9350   */\n      add\n        /* \"#utility.yul\":9452:9458   */\n      dup2\n        /* \"#utility.yul\":9440:9450   */\n      dup2\n        /* \"#utility.yul\":9437:9459   */\n      lt\n        /* \"#utility.yul\":9416:9434   */\n      0xffffffffffffffff\n        /* \"#utility.yul\":9404:9414   */\n      dup3\n        /* \"#utility.yul\":9401:9435   */\n      gt\n        /* \"#utility.yul\":9398:9460   */\n      or\n        /* \"#utility.yul\":9395:9483   */\n      iszero\n      tag_677\n      jumpi\n        /* \"#utility.yul\":9463:9481   */\n      tag_678\n      tag_386\n      jump\t// in\n    tag_678:\n        /* \"#utility.yul\":9395:9483   */\n    tag_677:\n        /* \"#utility.yul\":9503:9513   */\n      dup1\n        /* \"#utility.yul\":9499:9501   */\n      0x40\n        /* \"#utility.yul\":9492:9514   */\n      mstore\n        /* \"#utility.yul\":9282:9520   */\n      pop\n        /* \"#utility.yul\":9239:9520   */\n      pop\n      pop\n      jump\t// out\n        /* \"#utility.yul\":9526:9655   */\n    tag_545:\n        /* \"#utility.yul\":9560:9566   */\n      0x00\n        /* \"#utility.yul\":9587:9607   */\n      tag_680\n      tag_515\n      jump\t// in\n    tag_680:\n        /* \"#utility.yul\":9577:9607   */\n      swap1\n      pop\n        /* \"#utility.yul\":9616:9649   */\n      tag_681\n        /* \"#utility.yul\":9644:9648   */\n      dup3\n        /* \"#utility.yul\":9636:9642   */\n      dup3\n        /* \"#utility.yul\":9616:9649   */\n      tag_544\n      jump\t// in\n    tag_681:\n        /* \"#utility.yul\":9526:9655   */\n      swap2\n      swap1\n      pop\n      jump\t// out\n        /* \"#utility.yul\":9661:9968   */\n    tag_546:\n        /* \"#utility.yul\":9722:9726   */\n      0x00\n        /* \"#utility.yul\":9812:9830   */\n      0xffffffffffffffff\n        /* \"#utility.yul\":9804:9810   */\n      dup3\n        /* \"#utility.yul\":9801:9831   */\n      gt\n        /* \"#utility.yul\":9798:9854   */\n      iszero\n      tag_683\n      jumpi\n        /* \"#utility.yul\":9834:9852   */\n      tag_684\n      tag_386\n      jump\t// in\n    tag_684:\n        /* \"#utility.yul\":9798:9854   */\n    tag_683:\n        /* \"#utility.yul\":9872:9901   */\n      tag_685\n        /* \"#utility.yul\":9894:9900   */\n      dup3\n        /* \"#utility.yul\":9872:9901   */\n      tag_526\n      jump\t// in\n    tag_685:\n        /* \"#utility.yul\":9864:9901   */\n      swap1\n      pop\n        /* \"#utility.yul\":9956:9960   */\n      0x20\n        /* \"#utility.yul\":9950:9954   */\n      dup2\n        /* \"#utility.yul\":9946:9961   */\n      add\n        /* \"#utility.yul\":9938:9961   */\n      swap1\n      pop\n        /* \"#utility.yul\":9661:9968   */\n      swap2\n      swap1\n      pop\n      jump\t// out\n        /* \"#utility.yul\":9974:10120   */\n    tag_547:\n        /* \"#utility.yul\":10071:10077   */\n      dup3\n        /* \"#utility.yul\":10066:10069   */\n      dup2\n        /* \"#utility.yul\":10061:10064   */\n      dup4\n        /* \"#utility.yul\":10048:10078   */\n      calldatacopy\n        /* \"#utility.yul\":10112:10113   */\n      0x00\n        /* \"#utility.yul\":10103:10109   */\n      dup4\n        /* \"#utility.yul\":10098:10101   */\n      dup4\n        /* \"#utility.yul\":10094:10110   */\n      add\n        /* \"#utility.yul\":10087:10114   */\n      mstore\n        /* \"#utility.yul\":9974:10120   */\n      pop\n      pop\n      pop\n      jump\t// out\n        /* \"#utility.yul\":10126:10549   */\n    tag_548:\n        /* \"#utility.yul\":10203:10208   */\n      0x00\n        /* \"#utility.yul\":10228:10293   */\n      tag_688\n        /* \"#utility.yul\":10244:10292   */\n      tag_689\n        /* \"#utility.yul\":10285:10291   */\n      dup5\n        /* \"#utility.yul\":10244:10292   */\n      tag_546\n      jump\t// in\n    tag_689:\n        /* \"#utility.yul\":10228:10293   */\n      tag_545\n      jump\t// in\n    tag_688:\n        /* \"#utility.yul\":10219:10293   */\n      swap1\n      pop\n        /* \"#utility.yul\":10316:10322   */\n      dup3\n        /* \"#utility.yul\":10309:10314   */\n      dup2\n        /* \"#utility.yul\":10302:10323   */\n      mstore\n        /* \"#utility.yul\":10354:10358   */\n      0x20\n        /* \"#utility.yul\":10347:10352   */\n      dup2\n        /* \"#utility.yul\":10343:10359   */\n      add\n        /* \"#utility.yul\":10392:10395   */\n      dup5\n        /* \"#utility.yul\":10383:10389   */\n      dup5\n        /* \"#utility.yul\":10378:10381   */\n      dup5\n        /* \"#utility.yul\":10374:10390   */\n      add\n        /* \"#utility.yul\":10371:10396   */\n      gt\n        /* \"#utility.yul\":10368:10480   */\n      iszero\n      tag_690\n      jumpi\n        /* \"#utility.yul\":10399:10478   */\n      tag_691\n      tag_543\n      jump\t// in\n    tag_691:\n        /* \"#utility.yul\":10368:10480   */\n    tag_690:\n        /* \"#utility.yul\":10489:10543   */\n      tag_692\n        /* \"#utility.yul\":10536:10542   */\n      dup5\n        /* \"#utility.yul\":10531:10534   */\n      dup3\n        /* \"#utility.yul\":10526:10529   */\n      dup6\n        /* \"#utility.yul\":10489:10543   */\n      tag_547\n      jump\t// in\n    tag_692:\n        /* \"#utility.yul\":10209:10549   */\n      pop\n        /* \"#utility.yul\":10126:10549   */\n      swap4\n      swap3\n      pop\n      pop\n      pop\n      jump\t// out\n        /* \"#utility.yul\":10568:10906   */\n    tag_549:\n        /* \"#utility.yul\":10623:10628   */\n      0x00\n        /* \"#utility.yul\":10672:10675   */\n      dup3\n        /* \"#utility.yul\":10665:10669   */\n      0x1f\n        /* \"#utility.yul\":10657:10663   */\n      dup4\n        /* \"#utility.yul\":10653:10670   */\n      add\n        /* \"#utility.yul\":10649:10676   */\n      slt\n        /* \"#utility.yul\":10639:10761   */\n      tag_694\n      jumpi\n        /* \"#utility.yul\":10680:10759   */\n      tag_695\n      tag_539\n      jump\t// in\n    tag_695:\n        /* \"#utility.yul\":10639:10761   */\n    tag_694:\n        /* \"#utility.yul\":10797:10803   */\n      dup2\n        /* \"#utility.yul\":10784:10804   */\n      calldataload\n        /* \"#utility.yul\":10822:10900   */\n      tag_696\n        /* \"#utility.yul\":10896:10899   */\n      dup5\n        /* \"#utility.yul\":10888:10894   */\n      dup3\n        /* \"#utility.yul\":10881:10885   */\n      0x20\n        /* \"#utility.yul\":10873:10879   */\n      dup7\n        /* \"#utility.yul\":10869:10886   */\n      add\n        /* \"#utility.yul\":10822:10900   */\n      tag_548\n      jump\t// in\n    tag_696:\n        /* \"#utility.yul\":10813:10900   */\n      swap2\n      pop\n        /* \"#utility.yul\":10629:10906   */\n      pop\n        /* \"#utility.yul\":10568:10906   */\n      swap3\n      swap2\n      pop\n      pop\n      jump\t// out\n        /* \"#utility.yul\":10912:11855   */\n    tag_154:\n        /* \"#utility.yul\":11007:11013   */\n      0x00\n        /* \"#utility.yul\":11015:11021   */\n      dup1\n        /* \"#utility.yul\":11023:11029   */\n      0x00\n        /* \"#utility.yul\":11031:11037   */\n      dup1\n        /* \"#utility.yul\":11080:11083   */\n      0x80\n        /* \"#utility.yul\":11068:11077   */\n      dup6\n        /* \"#utility.yul\":11059:11066   */\n      dup8\n        /* \"#utility.yul\":11055:11078   */\n      sub\n        /* \"#utility.yul\":11051:11084   */\n      slt\n        /* \"#utility.yul\":11048:11168   */\n      iszero\n      tag_698\n      jumpi\n        /* \"#utility.yul\":11087:11166   */\n      tag_699\n      tag_516\n      jump\t// in\n    tag_699:\n        /* \"#utility.yul\":11048:11168   */\n    tag_698:\n        /* \"#utility.yul\":11207:11208   */\n      0x00\n        /* \"#utility.yul\":11232:11285   */\n      tag_700\n        /* \"#utility.yul\":11277:11284   */\n      dup8\n        /* \"#utility.yul\":11268:11274   */\n      dup3\n        /* \"#utility.yul\":11257:11266   */\n      dup9\n        /* \"#utility.yul\":11253:11275   */\n      add\n        /* \"#utility.yul\":11232:11285   */\n      tag_535\n      jump\t// in\n    tag_700:\n        /* \"#utility.yul\":11222:11285   */\n      swap5\n      pop\n        /* \"#utility.yul\":11178:11295   */\n      pop\n        /* \"#utility.yul\":11334:11336   */\n      0x20\n        /* \"#utility.yul\":11360:11413   */\n      tag_701\n        /* \"#utility.yul\":11405:11412   */\n      dup8\n        /* \"#utility.yul\":11396:11402   */\n      dup3\n        /* \"#utility.yul\":11385:11394   */\n      dup9\n        /* \"#utility.yul\":11381:11403   */\n      add\n        /* \"#utility.yul\":11360:11413   */\n      tag_535\n      jump\t// in\n    tag_701:\n        /* \"#utility.yul\":11350:11413   */\n      swap4\n      pop\n        /* \"#utility.yul\":11305:11423   */\n      pop\n        /* \"#utility.yul\":11462:11464   */\n      0x40\n        /* \"#utility.yul\":11488:11541   */\n      tag_702\n        /* \"#utility.yul\":11533:11540   */\n      dup8\n        /* \"#utility.yul\":11524:11530   */\n      dup3\n        /* \"#utility.yul\":11513:11522   */\n      dup9\n        /* \"#utility.yul\":11509:11531   */\n      add\n        /* \"#utility.yul\":11488:11541   */\n      tag_530\n      jump\t// in\n    tag_702:\n        /* \"#utility.yul\":11478:11541   */\n      swap3\n      pop\n        /* \"#utility.yul\":11433:11551   */\n      pop\n        /* \"#utility.yul\":11618:11620   */\n      0x60\n        /* \"#utility.yul\":11607:11616   */\n      dup6\n        /* \"#utility.yul\":11603:11621   */\n      add\n        /* \"#utility.yul\":11590:11622   */\n      calldataload\n        /* \"#utility.yul\":11649:11667   */\n      0xffffffffffffffff\n        /* \"#utility.yul\":11641:11647   */\n      dup2\n        /* \"#utility.yul\":11638:11668   */\n      gt\n        /* \"#utility.yul\":11635:11752   */\n      iszero\n      tag_703\n      jumpi\n        /* \"#utility.yul\":11671:11750   */\n      tag_704\n      tag_517\n      jump\t// in\n    tag_704:\n        /* \"#utility.yul\":11635:11752   */\n    tag_703:\n        /* \"#utility.yul\":11776:11838   */\n      tag_705\n        /* \"#utility.yul\":11830:11837   */\n      dup8\n        /* \"#utility.yul\":11821:11827   */\n      dup3\n        /* \"#utility.yul\":11810:11819   */\n      dup9\n        /* \"#utility.yul\":11806:11828   */\n      add\n        /* \"#utility.yul\":11776:11838   */\n      tag_549\n      jump\t// in\n    tag_705:\n        /* \"#utility.yul\":11766:11838   */\n      swap2\n      pop\n        /* \"#utility.yul\":11561:11848   */\n      pop\n        /* \"#utility.yul\":10912:11855   */\n      swap3\n      swap6\n      swap2\n      swap5\n      pop\n      swap3\n      pop\n      jump\t// out\n        /* \"#utility.yul\":11861:12335   */\n    tag_168:\n        /* \"#utility.yul\":11929:11935   */\n      0x00\n        /* \"#utility.yul\":11937:11943   */\n      dup1\n        /* \"#utility.yul\":11986:11988   */\n      0x40\n        /* \"#utility.yul\":11974:11983   */\n      dup4\n        /* \"#utility.yul\":11965:11972   */\n      dup6\n        /* \"#utility.yul\":11961:11984   */\n      sub\n        /* \"#utility.yul\":11957:11989   */\n      slt\n        /* \"#utility.yul\":11954:12073   */\n      iszero\n      tag_707\n      jumpi\n        /* \"#utility.yul\":11992:12071   */\n      tag_708\n      tag_516\n      jump\t// in\n    tag_708:\n        /* \"#utility.yul\":11954:12073   */\n    tag_707:\n        /* \"#utility.yul\":12112:12113   */\n      0x00\n        /* \"#utility.yul\":12137:12190   */\n      tag_709\n        /* \"#utility.yul\":12182:12189   */\n      dup6\n        /* \"#utility.yul\":12173:12179   */\n      dup3\n        /* \"#utility.yul\":12162:12171   */\n      dup7\n        /* \"#utility.yul\":12158:12180   */\n      add\n        /* \"#utility.yul\":12137:12190   */\n      tag_535\n      jump\t// in\n    tag_709:\n        /* \"#utility.yul\":12127:12190   */\n      swap3\n      pop\n        /* \"#utility.yul\":12083:12200   */\n      pop\n        /* \"#utility.yul\":12239:12241   */\n      0x20\n        /* \"#utility.yul\":12265:12318   */\n      tag_710\n        /* \"#utility.yul\":12310:12317   */\n      dup6\n        /* \"#utility.yul\":12301:12307   */\n      dup3\n        /* \"#utility.yul\":12290:12299   */\n      dup7\n        /* \"#utility.yul\":12286:12308   */\n      add\n        /* \"#utility.yul\":12265:12318   */\n      tag_535\n      jump\t// in\n    tag_710:\n        /* \"#utility.yul\":12255:12318   */\n      swap2\n      pop\n        /* \"#utility.yul\":12210:12328   */\n      pop\n        /* \"#utility.yul\":11861:12335   */\n      swap3\n      pop\n      swap3\n      swap1\n      pop\n      jump\t// out\n        /* \"#utility.yul\":12341:12521   */\n    tag_550:\n        /* \"#utility.yul\":12389:12466   */\n      0x4e487b7100000000000000000000000000000000000000000000000000000000\n        /* \"#utility.yul\":12386:12387   */\n      0x00\n        /* \"#utility.yul\":12379:12467   */\n      mstore\n        /* \"#utility.yul\":12486:12490   */\n      0x22\n        /* \"#utility.yul\":12483:12484   */\n      0x04\n        /* \"#utility.yul\":12476:12491   */\n      mstore\n        /* \"#utility.yul\":12510:12514   */\n      0x24\n        /* \"#utility.yul\":12507:12508   */\n      0x00\n        /* \"#utility.yul\":12500:12515   */\n      revert\n        /* \"#utility.yul\":12527:12847   */\n    tag_180:\n        /* \"#utility.yul\":12571:12577   */\n      0x00\n        /* \"#utility.yul\":12608:12609   */\n      0x02\n        /* \"#utility.yul\":12602:12606   */\n      dup3\n        /* \"#utility.yul\":12598:12610   */\n      div\n        /* \"#utility.yul\":12588:12610   */\n      swap1\n      pop\n        /* \"#utility.yul\":12655:12656   */\n      0x01\n        /* \"#utility.yul\":12649:12653   */\n      dup3\n        /* \"#utility.yul\":12645:12657   */\n      and\n        /* \"#utility.yul\":12676:12694   */\n      dup1\n        /* \"#utility.yul\":12666:12747   */\n      tag_713\n      jumpi\n        /* \"#utility.yul\":12732:12736   */\n      0x7f\n        /* \"#utility.yul\":12724:12730   */\n      dup3\n        /* \"#utility.yul\":12720:12737   */\n      and\n        /* \"#utility.yul\":12710:12737   */\n      swap2\n      pop\n        /* \"#utility.yul\":12666:12747   */\n    tag_713:\n        /* \"#utility.yul\":12794:12796   */\n      0x20\n        /* \"#utility.yul\":12786:12792   */\n      dup3\n        /* \"#utility.yul\":12783:12797   */\n      lt\n        /* \"#utility.yul\":12763:12781   */\n      dup2\n        /* \"#utility.yul\":12760:12798   */\n      sub\n        /* \"#utility.yul\":12757:12841   */\n      tag_714\n      jumpi\n        /* \"#utility.yul\":12813:12831   */\n      tag_715\n      tag_550\n      jump\t// in\n    tag_715:\n        /* \"#utility.yul\":12757:12841   */\n    tag_714:\n        /* \"#utility.yul\":12578:12847   */\n      pop\n        /* \"#utility.yul\":12527:12847   */\n      swap2\n      swap1\n      pop\n      jump\t// out\n        /* \"#utility.yul\":12853:13025   */\n    tag_551:\n        /* \"#utility.yul\":12993:13017   */\n      0x416c6c6f77206c697374206d696e7420636c6f73656400000000000000000000\n        /* \"#utility.yul\":12989:12990   */\n      0x00\n        /* \"#utility.yul\":12981:12987   */\n      dup3\n        /* \"#utility.yul\":12977:12991   */\n      add\n        /* \"#utility.yul\":12970:13018   */\n      mstore\n        /* \"#utility.yul\":12853:13025   */\n      pop\n      jump\t// out\n        /* \"#utility.yul\":13031:13397   */\n    tag_552:\n        /* \"#utility.yul\":13173:13176   */\n      0x00\n        /* \"#utility.yul\":13194:13261   */\n      tag_718\n        /* \"#utility.yul\":13258:13260   */\n      0x16\n        /* \"#utility.yul\":13253:13256   */\n      dup4\n        /* \"#utility.yul\":13194:13261   */\n      tag_524\n      jump\t// in\n    tag_718:\n        /* \"#utility.yul\":13187:13261   */\n      swap2\n      pop\n        /* \"#utility.yul\":13270:13363   */\n      tag_719\n        /* \"#utility.yul\":13359:13362   */\n      dup3\n        /* \"#utility.yul\":13270:13363   */\n      tag_551\n      jump\t// in\n    tag_719:\n        /* \"#utility.yul\":13388:13390   */\n      0x20\n        /* \"#utility.yul\":13383:13386   */\n      dup3\n        /* \"#utility.yul\":13379:13391   */\n      add\n        /* \"#utility.yul\":13372:13391   */\n      swap1\n      pop\n        /* \"#utility.yul\":13031:13397   */\n      swap2\n      swap1\n      pop\n      jump\t// out\n        /* \"#utility.yul\":13403:13822   */\n    tag_198:\n        /* \"#utility.yul\":13569:13573   */\n      0x00\n        /* \"#utility.yul\":13607:13609   */\n      0x20\n        /* \"#utility.yul\":13596:13605   */\n      dup3\n        /* \"#utility.yul\":13592:13610   */\n      add\n        /* \"#utility.yul\":13584:13610   */\n      swap1\n      pop\n        /* \"#utility.yul\":13656:13665   */\n      dup2\n        /* \"#utility.yul\":13650:13654   */\n      dup2\n        /* \"#utility.yul\":13646:13666   */\n      sub\n        /* \"#utility.yul\":13642:13643   */\n      0x00\n        /* \"#utility.yul\":13631:13640   */\n      dup4\n        /* \"#utility.yul\":13627:13644   */\n      add\n        /* \"#utility.yul\":13620:13667   */\n      mstore\n        /* \"#utility.yul\":13684:13815   */\n      tag_721\n        /* \"#utility.yul\":13810:13814   */\n      dup2\n        /* \"#utility.yul\":13684:13815   */\n      tag_552\n      jump\t// in\n    tag_721:\n        /* \"#utility.yul\":13676:13815   */\n      swap1\n      pop\n        /* \"#utility.yul\":13403:13822   */\n      swap2\n      swap1\n      pop\n      jump\t// out\n        /* \"#utility.yul\":13828:14007   */\n    tag_553:\n        /* \"#utility.yul\":13968:13999   */\n      0x596f7520617265206e6f74206f6e2074686520616c6c6f77206c697374000000\n        /* \"#utility.yul\":13964:13965   */\n      0x00\n        /* \"#utility.yul\":13956:13962   */\n      dup3\n        /* \"#utility.yul\":13952:13966   */\n      add\n        /* \"#utility.yul\":13945:14000   */\n      mstore\n        /* \"#utility.yul\":13828:14007   */\n      pop\n      jump\t// out\n        /* \"#utility.yul\":14013:14379   */\n    tag_554:\n        /* \"#utility.yul\":14155:14158   */\n      0x00\n        /* \"#utility.yul\":14176:14243   */\n      tag_724\n        /* \"#utility.yul\":14240:14242   */\n      0x1d\n        /* \"#utility.yul\":14235:14238   */\n      dup4\n        /* \"#utility.yul\":14176:14243   */\n      tag_524\n      jump\t// in\n    tag_724:\n        /* \"#utility.yul\":14169:14243   */\n      swap2\n      pop\n        /* \"#utility.yul\":14252:14345   */\n      tag_725\n        /* \"#utility.yul\":14341:14344   */\n      dup3\n        /* \"#utility.yul\":14252:14345   */\n      tag_553\n      jump\t// in\n    tag_725:\n        /* \"#utility.yul\":14370:14372   */\n      0x20\n        /* \"#utility.yul\":14365:14368   */\n      dup3\n        /* \"#utility.yul\":14361:14373   */\n      add\n        /* \"#utility.yul\":14354:14373   */\n      swap1\n      pop\n        /* \"#utility.yul\":14013:14379   */\n      swap2\n      swap1\n      pop\n      jump\t// out\n        /* \"#utility.yul\":14385:14804   */\n    tag_201:\n        /* \"#utility.yul\":14551:14555   */\n      0x00\n        /* \"#utility.yul\":14589:14591   */\n      0x20\n        /* \"#utility.yul\":14578:14587   */\n      dup3\n        /* \"#utility.yul\":14574:14592   */\n      add\n        /* \"#utility.yul\":14566:14592   */\n      swap1\n      pop\n        /* \"#utility.yul\":14638:14647   */\n      dup2\n        /* \"#utility.yul\":14632:14636   */\n      dup2\n        /* \"#utility.yul\":14628:14648   */\n      sub\n        /* \"#utility.yul\":14624:14625   */\n      0x00\n        /* \"#utility.yul\":14613:14622   */\n      dup4\n        /* \"#utility.yul\":14609:14626   */\n      add\n        /* \"#utility.yul\":14602:14649   */\n      mstore\n        /* \"#utility.yul\":14666:14797   */\n      tag_727\n        /* \"#utility.yul\":14792:14796   */\n      dup2\n        /* \"#utility.yul\":14666:14797   */\n      tag_554\n      jump\t// in\n    tag_727:\n        /* \"#utility.yul\":14658:14797   */\n      swap1\n      pop\n        /* \"#utility.yul\":14385:14804   */\n      swap2\n      swap1\n      pop\n      jump\t// out\n        /* \"#utility.yul\":14810:14979   */\n    tag_555:\n        /* \"#utility.yul\":14950:14971   */\n      0x496e63726561736520796f75722066756e647300000000000000000000000000\n        /* \"#utility.yul\":14946:14947   */\n      0x00\n        /* \"#utility.yul\":14938:14944   */\n      dup3\n        /* \"#utility.yul\":14934:14948   */\n      add\n        /* \"#utility.yul\":14927:14972   */\n      mstore\n        /* \"#utility.yul\":14810:14979   */\n      pop\n      jump\t// out\n        /* \"#utility.yul\":14985:15351   */\n    tag_556:\n        /* \"#utility.yul\":15127:15130   */\n      0x00\n        /* \"#utility.yul\":15148:15215   */\n      tag_730\n        /* \"#utility.yul\":15212:15214   */\n      0x13\n        /* \"#utility.yul\":15207:15210   */\n      dup4\n        /* \"#utility.yul\":15148:15215   */\n      tag_524\n      jump\t// in\n    tag_730:\n        /* \"#utility.yul\":15141:15215   */\n      swap2\n      pop\n        /* \"#utility.yul\":15224:15317   */\n      tag_731\n        /* \"#utility.yul\":15313:15316   */\n      dup3\n        /* \"#utility.yul\":15224:15317   */\n      tag_555\n      jump\t// in\n    tag_731:\n        /* \"#utility.yul\":15342:15344   */\n      0x20\n        /* \"#utility.yul\":15337:15340   */\n      dup3\n        /* \"#utility.yul\":15333:15345   */\n      add\n        /* \"#utility.yul\":15326:15345   */\n      swap1\n      pop\n        /* \"#utility.yul\":14985:15351   */\n      swap2\n      swap1\n      pop\n      jump\t// out\n        /* \"#utility.yul\":15357:15776   */\n    tag_204:\n        /* \"#utility.yul\":15523:15527   */\n      0x00\n        /* \"#utility.yul\":15561:15563   */\n      0x20\n        /* \"#utility.yul\":15550:15559   */\n      dup3\n        /* \"#utility.yul\":15546:15564   */\n      add\n        /* \"#utility.yul\":15538:15564   */\n      swap1\n      pop\n        /* \"#utility.yul\":15610:15619   */\n      dup2\n        /* \"#utility.yul\":15604:15608   */\n      dup2\n        /* \"#utility.yul\":15600:15620   */\n      sub\n        /* \"#utility.yul\":15596:15597   */\n      0x00\n        /* \"#utility.yul\":15585:15594   */\n      dup4\n        /* \"#utility.yul\":15581:15598   */\n      add\n        /* \"#utility.yul\":15574:15621   */\n      mstore\n        /* \"#utility.yul\":15638:15769   */\n      tag_733\n        /* \"#utility.yul\":15764:15768   */\n      dup2\n        /* \"#utility.yul\":15638:15769   */\n      tag_556\n      jump\t// in\n    tag_733:\n        /* \"#utility.yul\":15630:15769   */\n      swap1\n      pop\n        /* \"#utility.yul\":15357:15776   */\n      swap2\n      swap1\n      pop\n      jump\t// out\n        /* \"#utility.yul\":15782:16224   */\n    tag_216:\n        /* \"#utility.yul\":15931:15935   */\n      0x00\n        /* \"#utility.yul\":15969:15971   */\n      0x60\n        /* \"#utility.yul\":15958:15967   */\n      dup3\n        /* \"#utility.yul\":15954:15972   */\n      add\n        /* \"#utility.yul\":15946:15972   */\n      swap1\n      pop\n        /* \"#utility.yul\":15982:16053   */\n      tag_735\n        /* \"#utility.yul\":16050:16051   */\n      0x00\n        /* \"#utility.yul\":16039:16048   */\n      dup4\n        /* \"#utility.yul\":16035:16052   */\n      add\n        /* \"#utility.yul\":16026:16032   */\n      dup7\n        /* \"#utility.yul\":15982:16053   */\n      tag_533\n      jump\t// in\n    tag_735:\n        /* \"#utility.yul\":16063:16135   */\n      tag_736\n        /* \"#utility.yul\":16131:16133   */\n      0x20\n        /* \"#utility.yul\":16120:16129   */\n      dup4\n        /* \"#utility.yul\":16116:16134   */\n      add\n        /* \"#utility.yul\":16107:16113   */\n      dup6\n        /* \"#utility.yul\":16063:16135   */\n      tag_536\n      jump\t// in\n    tag_736:\n        /* \"#utility.yul\":16145:16217   */\n      tag_737\n        /* \"#utility.yul\":16213:16215   */\n      0x40\n        /* \"#utility.yul\":16202:16211   */\n      dup4\n        /* \"#utility.yul\":16198:16216   */\n      add\n        /* \"#utility.yul\":16189:16195   */\n      dup5\n        /* \"#utility.yul\":16145:16217   */\n      tag_533\n      jump\t// in\n    tag_737:\n        /* \"#utility.yul\":15782:16224   */\n      swap5\n      swap4\n      pop\n      pop\n      pop\n      pop\n      jump\t// out\n        /* \"#utility.yul\":16230:16398   */\n    tag_557:\n        /* \"#utility.yul\":16370:16390   */\n      0x5075626c6963206d696e7420636c6f7365640000000000000000000000000000\n        /* \"#utility.yul\":16366:16367   */\n      0x00\n        /* \"#utility.yul\":16358:16364   */\n      dup3\n        /* \"#utility.yul\":16354:16368   */\n      add\n        /* \"#utility.yul\":16347:16391   */\n      mstore\n        /* \"#utility.yul\":16230:16398   */\n      pop\n      jump\t// out\n        /* \"#utility.yul\":16404:16770   */\n    tag_558:\n        /* \"#utility.yul\":16546:16549   */\n      0x00\n        /* \"#utility.yul\":16567:16634   */\n      tag_740\n        /* \"#utility.yul\":16631:16633   */\n      0x12\n        /* \"#utility.yul\":16626:16629   */\n      dup4\n        /* \"#utility.yul\":16567:16634   */\n      tag_524\n      jump\t// in\n    tag_740:\n        /* \"#utility.yul\":16560:16634   */\n      swap2\n      pop\n        /* \"#utility.yul\":16643:16736   */\n      tag_741\n        /* \"#utility.yul\":16732:16735   */\n      dup3\n        /* \"#utility.yul\":16643:16736   */\n      tag_557\n      jump\t// in\n    tag_741:\n        /* \"#utility.yul\":16761:16763   */\n      0x20\n        /* \"#utility.yul\":16756:16759   */\n      dup3\n        /* \"#utility.yul\":16752:16764   */\n      add\n        /* \"#utility.yul\":16745:16764   */\n      swap1\n      pop\n        /* \"#utility.yul\":16404:16770   */\n      swap2\n      swap1\n      pop\n      jump\t// out\n        /* \"#utility.yul\":16776:17195   */\n    tag_220:\n        /* \"#utility.yul\":16942:16946   */\n      0x00\n        /* \"#utility.yul\":16980:16982   */\n      0x20\n        /* \"#utility.yul\":16969:16978   */\n      dup3\n        /* \"#utility.yul\":16965:16983   */\n      add\n        /* \"#utility.yul\":16957:16983   */\n      swap1\n      pop\n        /* \"#utility.yul\":17029:17038   */\n      dup2\n        /* \"#utility.yul\":17023:17027   */\n      dup2\n        /* \"#utility.yul\":17019:17039   */\n      sub\n        /* \"#utility.yul\":17015:17016   */\n      0x00\n        /* \"#utility.yul\":17004:17013   */\n      dup4\n        /* \"#utility.yul\":17000:17017   */\n      add\n        /* \"#utility.yul\":16993:17040   */\n      mstore\n        /* \"#utility.yul\":17057:17188   */\n      tag_743\n        /* \"#utility.yul\":17183:17187   */\n      dup2\n        /* \"#utility.yul\":17057:17188   */\n      tag_558\n      jump\t// in\n    tag_743:\n        /* \"#utility.yul\":17049:17188   */\n      swap1\n      pop\n        /* \"#utility.yul\":16776:17195   */\n      swap2\n      swap1\n      pop\n      jump\t// out\n        /* \"#utility.yul\":17201:17533   */\n    tag_232:\n        /* \"#utility.yul\":17322:17326   */\n      0x00\n        /* \"#utility.yul\":17360:17362   */\n      0x40\n        /* \"#utility.yul\":17349:17358   */\n      dup3\n        /* \"#utility.yul\":17345:17363   */\n      add\n        /* \"#utility.yul\":17337:17363   */\n      swap1\n      pop\n        /* \"#utility.yul\":17373:17444   */\n      tag_745\n        /* \"#utility.yul\":17441:17442   */\n      0x00\n        /* \"#utility.yul\":17430:17439   */\n      dup4\n        /* \"#utility.yul\":17426:17443   */\n      add\n        /* \"#utility.yul\":17417:17423   */\n      dup6\n        /* \"#utility.yul\":17373:17444   */\n      tag_533\n      jump\t// in\n    tag_745:\n        /* \"#utility.yul\":17454:17526   */\n      tag_746\n        /* \"#utility.yul\":17522:17524   */\n      0x20\n        /* \"#utility.yul\":17511:17520   */\n      dup4\n        /* \"#utility.yul\":17507:17525   */\n      add\n        /* \"#utility.yul\":17498:17504   */\n      dup5\n        /* \"#utility.yul\":17454:17526   */\n      tag_536\n      jump\t// in\n    tag_746:\n        /* \"#utility.yul\":17201:17533   */\n      swap4\n      swap3\n      pop\n      pop\n      pop\n      jump\t// out\n        /* \"#utility.yul\":17539:17719   */\n    tag_246:\n        /* \"#utility.yul\":17587:17664   */\n      0x4e487b7100000000000000000000000000000000000000000000000000000000\n        /* \"#utility.yul\":17584:17585   */\n      0x00\n        /* \"#utility.yul\":17577:17665   */\n      mstore\n        /* \"#utility.yul\":17684:17688   */\n      0x32\n        /* \"#utility.yul\":17681:17682   */\n      0x04\n        /* \"#utility.yul\":17674:17689   */\n      mstore\n        /* \"#utility.yul\":17708:17712   */\n      0x24\n        /* \"#utility.yul\":17705:17706   */\n      0x00\n        /* \"#utility.yul\":17698:17713   */\n      revert\n        /* \"#utility.yul\":17725:17905   */\n    tag_559:\n        /* \"#utility.yul\":17773:17850   */\n      0x4e487b7100000000000000000000000000000000000000000000000000000000\n        /* \"#utility.yul\":17770:17771   */\n      0x00\n        /* \"#utility.yul\":17763:17851   */\n      mstore\n        /* \"#utility.yul\":17870:17874   */\n      0x11\n        /* \"#utility.yul\":17867:17868   */\n      0x04\n        /* \"#utility.yul\":17860:17875   */\n      mstore\n        /* \"#utility.yul\":17894:17898   */\n      0x24\n        /* \"#utility.yul\":17891:17892   */\n      0x00\n        /* \"#utility.yul\":17884:17899   */\n      revert\n        /* \"#utility.yul\":17911:18144   */\n    tag_266:\n        /* \"#utility.yul\":17950:17953   */\n      0x00\n        /* \"#utility.yul\":17973:17997   */\n      tag_750\n        /* \"#utility.yul\":17991:17996   */\n      dup3\n        /* \"#utility.yul\":17973:17997   */\n      tag_528\n      jump\t// in\n    tag_750:\n        /* \"#utility.yul\":17964:17997   */\n      swap2\n      pop\n        /* \"#utility.yul\":18019:18085   */\n      0xffffffffffffffffffffffffffffffffffffffffffffffffffffffffffffffff\n        /* \"#utility.yul\":18012:18017   */\n      dup3\n        /* \"#utility.yul\":18009:18086   */\n      sub\n        /* \"#utility.yul\":18006:18109   */\n      tag_751\n      jumpi\n        /* \"#utility.yul\":18089:18107   */\n      tag_752\n      tag_559\n      jump\t// in\n    tag_752:\n        /* \"#utility.yul\":18006:18109   */\n    tag_751:\n        /* \"#utility.yul\":18136:18137   */\n      0x01\n        /* \"#utility.yul\":18129:18134   */\n      dup3\n        /* \"#utility.yul\":18125:18138   */\n      add\n        /* \"#utility.yul\":18118:18138   */\n      swap1\n      pop\n        /* \"#utility.yul\":17911:18144   */\n      swap2\n      swap1\n      pop\n      jump\t// out\n        /* \"#utility.yul\":18150:18298   */\n    tag_560:\n        /* \"#utility.yul\":18252:18263   */\n      0x00\n        /* \"#utility.yul\":18289:18292   */\n      dup2\n        /* \"#utility.yul\":18274:18292   */\n      swap1\n      pop\n        /* \"#utility.yul\":18150:18298   */\n      swap3\n      swap2\n      pop\n      pop\n      jump\t// out\n        /* \"#utility.yul\":18304:18694   */\n    tag_561:\n        /* \"#utility.yul\":18410:18413   */\n      0x00\n        /* \"#utility.yul\":18438:18477   */\n      tag_755\n        /* \"#utility.yul\":18471:18476   */\n      dup3\n        /* \"#utility.yul\":18438:18477   */\n      tag_523\n      jump\t// in\n    tag_755:\n        /* \"#utility.yul\":18493:18582   */\n      tag_756\n        /* \"#utility.yul\":18575:18581   */\n      dup2\n        /* \"#utility.yul\":18570:18573   */\n      dup6\n        /* \"#utility.yul\":18493:18582   */\n      tag_560\n      jump\t// in\n    tag_756:\n        /* \"#utility.yul\":18486:18582   */\n      swap4\n      pop\n        /* \"#utility.yul\":18591:18656   */\n      tag_757\n        /* \"#utility.yul\":18649:18655   */\n      dup2\n        /* \"#utility.yul\":18644:18647   */\n      dup6\n        /* \"#utility.yul\":18637:18641   */\n      0x20\n        /* \"#utility.yul\":18630:18635   */\n      dup7\n        /* \"#utility.yul\":18626:18642   */\n      add\n        /* \"#utility.yul\":18591:18656   */\n      tag_525\n      jump\t// in\n    tag_757:\n        /* \"#utility.yul\":18681:18687   */\n      dup1\n        /* \"#utility.yul\":18676:18679   */\n      dup5\n        /* \"#utility.yul\":18672:18688   */\n      add\n        /* \"#utility.yul\":18665:18688   */\n      swap2\n      pop\n        /* \"#utility.yul\":18414:18694   */\n      pop\n        /* \"#utility.yul\":18304:18694   */\n      swap3\n      swap2\n      pop\n      pop\n      jump\t// out\n        /* \"#utility.yul\":18700:19135   */\n    tag_304:\n        /* \"#utility.yul\":18880:18883   */\n      0x00\n        /* \"#utility.yul\":18902:18997   */\n      tag_759\n        /* \"#utility.yul\":18993:18996   */\n      dup3\n        /* \"#utility.yul\":18984:18990   */\n      dup6\n        /* \"#utility.yul\":18902:18997   */\n      tag_561\n      jump\t// in\n    tag_759:\n        /* \"#utility.yul\":18895:18997   */\n      swap2\n      pop\n        /* \"#utility.yul\":19014:19109   */\n      tag_760\n        /* \"#utility.yul\":19105:19108   */\n      dup3\n        /* \"#utility.yul\":19096:19102   */\n      dup5\n        /* \"#utility.yul\":19014:19109   */\n      tag_561\n      jump\t// in\n    tag_760:\n        /* \"#utility.yul\":19007:19109   */\n      swap2\n      pop\n        /* \"#utility.yul\":19126:19129   */\n      dup2\n        /* \"#utility.yul\":19119:19129   */\n      swap1\n      pop\n        /* \"#utility.yul\":18700:19135   */\n      swap4\n      swap3\n      pop\n      pop\n      pop\n      jump\t// out\n        /* \"#utility.yul\":19141:19303   */\n    tag_562:\n        /* \"#utility.yul\":19281:19295   */\n      0x576520736f6c64206f7574210000000000000000000000000000000000000000\n        /* \"#utility.yul\":19277:19278   */\n      0x00\n        /* \"#utility.yul\":19269:19275   */\n      dup3\n        /* \"#utility.yul\":19265:19279   */\n      add\n        /* \"#utility.yul\":19258:19296   */\n      mstore\n        /* \"#utility.yul\":19141:19303   */\n      pop\n      jump\t// out\n        /* \"#utility.yul\":19309:19675   */\n    tag_563:\n        /* \"#utility.yul\":19451:19454   */\n      0x00\n        /* \"#utility.yul\":19472:19539   */\n      tag_763\n        /* \"#utility.yul\":19536:19538   */\n      0x0c\n        /* \"#utility.yul\":19531:19534   */\n      dup4\n        /* \"#utility.yul\":19472:19539   */\n      tag_524\n      jump\t// in\n    tag_763:\n        /* \"#utility.yul\":19465:19539   */\n      swap2\n      pop\n        /* \"#utility.yul\":19548:19641   */\n      tag_764\n        /* \"#utility.yul\":19637:19640   */\n      dup3\n        /* \"#utility.yul\":19548:19641   */\n      tag_562\n      jump\t// in\n    tag_764:\n        /* \"#utility.yul\":19666:19668   */\n      0x20\n        /* \"#utility.yul\":19661:19664   */\n      dup3\n        /* \"#utility.yul\":19657:19669   */\n      add\n        /* \"#utility.yul\":19650:19669   */\n      swap1\n      pop\n        /* \"#utility.yul\":19309:19675   */\n      swap2\n      swap1\n      pop\n      jump\t// out\n        /* \"#utility.yul\":19681:20100   */\n    tag_330:\n        /* \"#utility.yul\":19847:19851   */\n      0x00\n        /* \"#utility.yul\":19885:19887   */\n      0x20\n        /* \"#utility.yul\":19874:19883   */\n      dup3\n        /* \"#utility.yul\":19870:19888   */\n      add\n        /* \"#utility.yul\":19862:19888   */\n      swap1\n      pop\n        /* \"#utility.yul\":19934:19943   */\n      dup2\n        /* \"#utility.yul\":19928:19932   */\n      dup2\n        /* \"#utility.yul\":19924:19944   */\n      sub\n        /* \"#utility.yul\":19920:19921   */\n      0x00\n        /* \"#utility.yul\":19909:19918   */\n      dup4\n        /* \"#utility.yul\":19905:19922   */\n      add\n        /* \"#utility.yul\":19898:19945   */\n      mstore\n        /* \"#utility.yul\":19962:20093   */\n      tag_766\n        /* \"#utility.yul\":20088:20092   */\n      dup2\n        /* \"#utility.yul\":19962:20093   */\n      tag_563\n      jump\t// in\n    tag_766:\n        /* \"#utility.yul\":19954:20093   */\n      swap1\n      pop\n        /* \"#utility.yul\":19681:20100   */\n      swap2\n      swap1\n      pop\n      jump\t// out\n        /* \"#utility.yul\":20106:20204   */\n    tag_564:\n        /* \"#utility.yul\":20157:20163   */\n      0x00\n        /* \"#utility.yul\":20191:20196   */\n      dup2\n        /* \"#utility.yul\":20185:20197   */\n      mload\n        /* \"#utility.yul\":20175:20197   */\n      swap1\n      pop\n        /* \"#utility.yul\":20106:20204   */\n      swap2\n      swap1\n      pop\n      jump\t// out\n        /* \"#utility.yul\":20210:20378   */\n    tag_565:\n        /* \"#utility.yul\":20293:20304   */\n      0x00\n        /* \"#utility.yul\":20327:20333   */\n      dup3\n        /* \"#utility.yul\":20322:20325   */\n      dup3\n        /* \"#utility.yul\":20315:20334   */\n      mstore\n        /* \"#utility.yul\":20367:20371   */\n      0x20\n        /* \"#utility.yul\":20362:20365   */\n      dup3\n        /* \"#utility.yul\":20358:20372   */\n      add\n        /* \"#utility.yul\":20343:20372   */\n      swap1\n      pop\n        /* \"#utility.yul\":20210:20378   */\n      swap3\n      swap2\n      pop\n      pop\n      jump\t// out\n        /* \"#utility.yul\":20384:20757   */\n    tag_566:\n        /* \"#utility.yul\":20470:20473   */\n      0x00\n        /* \"#utility.yul\":20498:20536   */\n      tag_770\n        /* \"#utility.yul\":20530:20535   */\n      dup3\n        /* \"#utility.yul\":20498:20536   */\n      tag_564\n      jump\t// in\n    tag_770:\n        /* \"#utility.yul\":20552:20622   */\n      tag_771\n        /* \"#utility.yul\":20615:20621   */\n      dup2\n        /* \"#utility.yul\":20610:20613   */\n      dup6\n        /* \"#utility.yul\":20552:20622   */\n      tag_565\n      jump\t// in\n    tag_771:\n        /* \"#utility.yul\":20545:20622   */\n      swap4\n      pop\n        /* \"#utility.yul\":20631:20696   */\n      tag_772\n        /* \"#utility.yul\":20689:20695   */\n      dup2\n        /* \"#utility.yul\":20684:20687   */\n      dup6\n        /* \"#utility.yul\":20677:20681   */\n      0x20\n        /* \"#utility.yul\":20670:20675   */\n      dup7\n        /* \"#utility.yul\":20666:20682   */\n      add\n        /* \"#utility.yul\":20631:20696   */\n      tag_525\n      jump\t// in\n    tag_772:\n        /* \"#utility.yul\":20721:20750   */\n      tag_773\n        /* \"#utility.yul\":20743:20749   */\n      dup2\n        /* \"#utility.yul\":20721:20750   */\n      tag_526\n      jump\t// in\n    tag_773:\n        /* \"#utility.yul\":20716:20719   */\n      dup5\n        /* \"#utility.yul\":20712:20751   */\n      add\n        /* \"#utility.yul\":20705:20751   */\n      swap2\n      pop\n        /* \"#utility.yul\":20474:20757   */\n      pop\n        /* \"#utility.yul\":20384:20757   */\n      swap3\n      swap2\n      pop\n      pop\n      jump\t// out\n        /* \"#utility.yul\":20763:21403   */\n    tag_364:\n        /* \"#utility.yul\":20958:20962   */\n      0x00\n        /* \"#utility.yul\":20996:20999   */\n      0x80\n        /* \"#utility.yul\":20985:20994   */\n      dup3\n        /* \"#utility.yul\":20981:21000   */\n      add\n        /* \"#utility.yul\":20973:21000   */\n      swap1\n      pop\n        /* \"#utility.yul\":21010:21081   */\n      tag_775\n        /* \"#utility.yul\":21078:21079   */\n      0x00\n        /* \"#utility.yul\":21067:21076   */\n      dup4\n        /* \"#utility.yul\":21063:21080   */\n      add\n        /* \"#utility.yul\":21054:21060   */\n      dup8\n        /* \"#utility.yul\":21010:21081   */\n      tag_533\n      jump\t// in\n    tag_775:\n        /* \"#utility.yul\":21091:21163   */\n      tag_776\n        /* \"#utility.yul\":21159:21161   */\n      0x20\n        /* \"#utility.yul\":21148:21157   */\n      dup4\n        /* \"#utility.yul\":21144:21162   */\n      add\n        /* \"#utility.yul\":21135:21141   */\n      dup7\n        /* \"#utility.yul\":21091:21163   */\n      tag_533\n      jump\t// in\n    tag_776:\n        /* \"#utility.yul\":21173:21245   */\n      tag_777\n        /* \"#utility.yul\":21241:21243   */\n      0x40\n        /* \"#utility.yul\":21230:21239   */\n      dup4\n        /* \"#utility.yul\":21226:21244   */\n      add\n        /* \"#utility.yul\":21217:21223   */\n      dup6\n        /* \"#utility.yul\":21173:21245   */\n      tag_536\n      jump\t// in\n    tag_777:\n        /* \"#utility.yul\":21292:21301   */\n      dup2\n        /* \"#utility.yul\":21286:21290   */\n      dup2\n        /* \"#utility.yul\":21282:21302   */\n      sub\n        /* \"#utility.yul\":21277:21279   */\n      0x60\n        /* \"#utility.yul\":21266:21275   */\n      dup4\n        /* \"#utility.yul\":21262:21280   */\n      add\n        /* \"#utility.yul\":21255:21303   */\n      mstore\n        /* \"#utility.yul\":21320:21396   */\n      tag_778\n        /* \"#utility.yul\":21391:21395   */\n      dup2\n        /* \"#utility.yul\":21382:21388   */\n      dup5\n        /* \"#utility.yul\":21320:21396   */\n      tag_566\n      jump\t// in\n    tag_778:\n        /* \"#utility.yul\":21312:21396   */\n      swap1\n      pop\n        /* \"#utility.yul\":20763:21403   */\n      swap6\n      swap5\n      pop\n      pop\n      pop\n      pop\n      pop\n      jump\t// out\n        /* \"#utility.yul\":21409:21550   */\n    tag_567:\n        /* \"#utility.yul\":21465:21470   */\n      0x00\n        /* \"#utility.yul\":21496:21502   */\n      dup2\n        /* \"#utility.yul\":21490:21503   */\n      mload\n        /* \"#utility.yul\":21481:21503   */\n      swap1\n      pop\n        /* \"#utility.yul\":21512:21544   */\n      tag_780\n        /* \"#utility.yul\":21538:21543   */\n      dup2\n        /* \"#utility.yul\":21512:21544   */\n      tag_519\n      jump\t// in\n    tag_780:\n        /* \"#utility.yul\":21409:21550   */\n      swap3\n      swap2\n      pop\n      pop\n      jump\t// out\n        /* \"#utility.yul\":21556:21905   */\n    tag_367:\n        /* \"#utility.yul\":21625:21631   */\n      0x00\n        /* \"#utility.yul\":21674:21676   */\n      0x20\n        /* \"#utility.yul\":21662:21671   */\n      dup3\n        /* \"#utility.yul\":21653:21660   */\n      dup5\n        /* \"#utility.yul\":21649:21672   */\n      sub\n        /* \"#utility.yul\":21645:21677   */\n      slt\n        /* \"#utility.yul\":21642:21761   */\n      iszero\n      tag_782\n      jumpi\n        /* \"#utility.yul\":21680:21759   */\n      tag_783\n      tag_516\n      jump\t// in\n    tag_783:\n        /* \"#utility.yul\":21642:21761   */\n    tag_782:\n        /* \"#utility.yul\":21800:21801   */\n      0x00\n        /* \"#utility.yul\":21825:21888   */\n      tag_784\n        /* \"#utility.yul\":21880:21887   */\n      dup5\n        /* \"#utility.yul\":21871:21877   */\n      dup3\n        /* \"#utility.yul\":21860:21869   */\n      dup6\n        /* \"#utility.yul\":21856:21878   */\n      add\n        /* \"#utility.yul\":21825:21888   */\n      tag_567\n      jump\t// in\n    tag_784:\n        /* \"#utility.yul\":21815:21888   */\n      swap2\n      pop\n        /* \"#utility.yul\":21771:21898   */\n      pop\n        /* \"#utility.yul\":21556:21905   */\n      swap3\n      swap2\n      pop\n      pop\n      jump\t// out\n        /* \"#utility.yul\":21911:22091   */\n    tag_392:\n        /* \"#utility.yul\":21959:22036   */\n      0x4e487b7100000000000000000000000000000000000000000000000000000000\n        /* \"#utility.yul\":21956:21957   */\n      0x00\n        /* \"#utility.yul\":21949:22037   */\n      mstore\n        /* \"#utility.yul\":22056:22060   */\n      0x12\n        /* \"#utility.yul\":22053:22054   */\n      0x04\n        /* \"#utility.yul\":22046:22061   */\n      mstore\n        /* \"#utility.yul\":22080:22084   */\n      0x24\n        /* \"#utility.yul\":22077:22078   */\n      0x00\n        /* \"#utility.yul\":22070:22085   */\n      revert\n        /* \"#utility.yul\":22097:22291   */\n    tag_487:\n        /* \"#utility.yul\":22137:22141   */\n      0x00\n        /* \"#utility.yul\":22157:22177   */\n      tag_787\n        /* \"#utility.yul\":22175:22176   */\n      dup3\n        /* \"#utility.yul\":22157:22177   */\n      tag_528\n      jump\t// in\n    tag_787:\n        /* \"#utility.yul\":22152:22177   */\n      swap2\n      pop\n        /* \"#utility.yul\":22191:22211   */\n      tag_788\n        /* \"#utility.yul\":22209:22210   */\n      dup4\n        /* \"#utility.yul\":22191:22211   */\n      tag_528\n      jump\t// in\n    tag_788:\n        /* \"#utility.yul\":22186:22211   */\n      swap3\n      pop\n        /* \"#utility.yul\":22235:22236   */\n      dup3\n        /* \"#utility.yul\":22232:22233   */\n      dup3\n        /* \"#utility.yul\":22228:22237   */\n      sub\n        /* \"#utility.yul\":22220:22237   */\n      swap1\n      pop\n        /* \"#utility.yul\":22259:22260   */\n      dup2\n        /* \"#utility.yul\":22253:22257   */\n      dup2\n        /* \"#utility.yul\":22250:22261   */\n      gt\n        /* \"#utility.yul\":22247:22284   */\n      iszero\n      tag_789\n      jumpi\n        /* \"#utility.yul\":22264:22282   */\n      tag_790\n      tag_559\n      jump\t// in\n    tag_790:\n        /* \"#utility.yul\":22247:22284   */\n    tag_789:\n        /* \"#utility.yul\":22097:22291   */\n      swap3\n      swap2\n      pop\n      pop\n      jump\t// out\n        /* \"#utility.yul\":22297:22477   */\n    tag_496:\n        /* \"#utility.yul\":22345:22422   */\n      0x4e487b7100000000000000000000000000000000000000000000000000000000\n        /* \"#utility.yul\":22342:22343   */\n      0x00\n        /* \"#utility.yul\":22335:22423   */\n      mstore\n        /* \"#utility.yul\":22442:22446   */\n      0x31\n        /* \"#utility.yul\":22439:22440   */\n      0x04\n        /* \"#utility.yul\":22432:22447   */\n      mstore\n        /* \"#utility.yul\":22466:22470   */\n      0x24\n        /* \"#utility.yul\":22463:22464   */\n      0x00\n        /* \"#utility.yul\":22456:22471   */\n      revert\n    stop\n    data_1a00b0a5d56b1bcaae8768117b1b6503abc6dce73ebfd51a5f4852b6398f272b 697066733a2f2f516d593572507147544e31725a784d516732417069535a63374a69424e73317279447a58505a705168433169626d2f\n\n    auxdata: 0xa2646970667358221220c2bb4d205511cb7824abd17029195edbee778e16d315f4fe075fbb31505bb1a064736f6c63430008140033\n}\n",
				"bytecode": {
					"linkReferences": {},
					"object": "60806040526107d0600c555f600d5f6101000a81548160ff0219169083151502179055505f600d60016101000a81548160ff02191690831515021790555034801562000049575f80fd5b50604051620038df380380620038df83398181016040528101906200006f9190620002d0565b806040518060400160405280600a81526020017f5374616b65546f6b656e000000000000000000000000000000000000000000008152506040518060400160405280600381526020017f5354430000000000000000000000000000000000000000000000000000000000815250815f9081620000ec919062000564565b508060019081620000fe919062000564565b5050505f600a5f6101000a81548160ff0219169083151502179055505f73ffffffffffffffffffffffffffffffffffffffff168173ffffffffffffffffffffffffffffffffffffffff16036200018d575f6040517f1e4fbdf700000000000000000000000000000000000000000000000000000000815260040162000184919062000659565b60405180910390fd5b6200019e81620001a660201b60201c565b505062000674565b5f600a60019054906101000a900473ffffffffffffffffffffffffffffffffffffffff16905081600a60016101000a81548173ffffffffffffffffffffffffffffffffffffffff021916908373ffffffffffffffffffffffffffffffffffffffff1602179055508173ffffffffffffffffffffffffffffffffffffffff168173ffffffffffffffffffffffffffffffffffffffff167f8be0079c531659141344cd1fd0a4f28419497f9722a3daafe3b4186f6b6457e060405160405180910390a35050565b5f80fd5b5f73ffffffffffffffffffffffffffffffffffffffff82169050919050565b5f6200029a826200026f565b9050919050565b620002ac816200028e565b8114620002b7575f80fd5b50565b5f81519050620002ca81620002a1565b92915050565b5f60208284031215620002e857620002e76200026b565b5b5f620002f784828501620002ba565b91505092915050565b5f81519050919050565b7f4e487b71000000000000000000000000000000000000000000000000000000005f52604160045260245ffd5b7f4e487b71000000000000000000000000000000000000000000000000000000005f52602260045260245ffd5b5f60028204905060018216806200037c57607f821691505b60208210810362000392576200039162000337565b5b50919050565b5f819050815f5260205f209050919050565b5f6020601f8301049050919050565b5f82821b905092915050565b5f60088302620003f67fffffffffffffffffffffffffffffffffffffffffffffffffffffffffffffffff82620003b9565b620004028683620003b9565b95508019841693508086168417925050509392505050565b5f819050919050565b5f819050919050565b5f6200044c6200044662000440846200041a565b62000423565b6200041a565b9050919050565b5f819050919050565b62000467836200042c565b6200047f620004768262000453565b848454620003c5565b825550505050565b5f90565b6200049562000487565b620004a28184846200045c565b505050565b5b81811015620004c957620004bd5f826200048b565b600181019050620004a8565b5050565b601f8211156200051857620004e28162000398565b620004ed84620003aa565b81016020851015620004fd578190505b620005156200050c85620003aa565b830182620004a7565b50505b505050565b5f82821c905092915050565b5f6200053a5f19846008026200051d565b1980831691505092915050565b5f62000554838362000529565b9150826002028217905092915050565b6200056f8262000300565b67ffffffffffffffff8111156200058b576200058a6200030a565b5b62000597825462000364565b620005a4828285620004cd565b5f60209050601f831160018114620005da575f8415620005c5578287015190505b620005d1858262000547565b86555062000640565b601f198416620005ea8662000398565b5f5b828110156200061357848901518255600182019150602085019450602081019050620005ec565b868310156200063357848901516200062f601f89168262000529565b8355505b6001600288020188555050505b505050505050565b62000653816200028e565b82525050565b5f6020820190506200066e5f83018462000648565b92915050565b61325d80620006825f395ff3fe6080604052600436106101cc575f3560e01c806351cff8d9116100f65780638da5cb5b11610094578063bcc9ca5b11610063578063bcc9ca5b14610606578063c87b56dd14610630578063e985e9c51461066c578063f2fde38b146106a8576101cc565b80638da5cb5b1461056257806395d89b411461058c578063a22cb465146105b6578063b88d4fde146105de576101cc565b80636447c35d116100d05780636447c35d146104d257806370a08231146104fa578063715018a6146105365780638456cb591461054c576101cc565b806351cff8d9146104445780635c975abb1461046c5780636352211e14610496576101cc565b806323b872dd1161016e5780632f745c591161013d5780632f745c591461038e5780633f4ba83a146103ca57806342842e0e146103e05780634f6ccce714610408576101cc565b806323b872dd146102f857806326092b83146103205780632848aeaf1461032a5780632f48de7914610366576101cc565b8063085c9bac116101aa578063085c9bac14610272578063095ea7b31461029c578063102a6a73146102c457806318160ddd146102ce576101cc565b806301ffc9a7146101d057806306fdde031461020c578063081812fc14610236575b5f80fd5b3480156101db575f80fd5b506101f660048036038101906101f191906126c9565b6106d0565b604051610203919061270e565b60405180910390f35b348015610217575f80fd5b506102206106e1565b60405161022d91906127b1565b60405180910390f35b348015610241575f80fd5b5061025c60048036038101906102579190612804565b610770565b604051610269919061286e565b60405180910390f35b34801561027d575f80fd5b5061028661078b565b604051610293919061270e565b60405180910390f35b3480156102a7575f80fd5b506102c260048036038101906102bd91906128b1565b61079e565b005b6102cc6107b4565b005b3480156102d9575f80fd5b506102e26108df565b6040516102ef91906128fe565b60405180910390f35b348015610303575f80fd5b5061031e60048036038101906103199190612917565b6108eb565b005b6103286109ea565b005b348015610335575f80fd5b50610350600480360381019061034b9190612967565b610a8b565b60405161035d919061270e565b60405180910390f35b348015610371575f80fd5b5061038c600480360381019061038791906129bc565b610aa8565b005b348015610399575f80fd5b506103b460048036038101906103af91906128b1565b610ae7565b6040516103c191906128fe565b60405180910390f35b3480156103d5575f80fd5b506103de610b8b565b005b3480156103eb575f80fd5b5061040660048036038101906104019190612917565b610b9d565b005b348015610413575f80fd5b5061042e60048036038101906104299190612804565b610bbc565b60405161043b91906128fe565b60405180910390f35b34801561044f575f80fd5b5061046a60048036038101906104659190612967565b610c2e565b005b348015610477575f80fd5b50610480610c82565b60405161048d919061270e565b60405180910390f35b3480156104a1575f80fd5b506104bc60048036038101906104b79190612804565b610c97565b6040516104c9919061286e565b60405180910390f35b3480156104dd575f80fd5b506104f860048036038101906104f39190612a5b565b610ca8565b005b348015610505575f80fd5b50610520600480360381019061051b9190612967565b610d51565b60405161052d91906128fe565b60405180910390f35b348015610541575f80fd5b5061054a610e07565b005b348015610557575f80fd5b50610560610e1a565b005b34801561056d575f80fd5b50610576610e2c565b604051610583919061286e565b60405180910390f35b348015610597575f80fd5b506105a0610e55565b6040516105ad91906127b1565b60405180910390f35b3480156105c1575f80fd5b506105dc60048036038101906105d79190612aa6565b610ee5565b005b3480156105e9575f80fd5b5061060460048036038101906105ff9190612c0c565b610efb565b005b348015610611575f80fd5b5061061a610f18565b604051610627919061270e565b60405180910390f35b34801561063b575f80fd5b5061065660048036038101906106519190612804565b610f2a565b60405161066391906127b1565b60405180910390f35b348015610677575f80fd5b50610692600480360381019061068d9190612c8c565b610f90565b60405161069f919061270e565b60405180910390f35b3480156106b3575f80fd5b506106ce60048036038101906106c99190612967565b61101e565b005b5f6106da826110a2565b9050919050565b60605f80546106ef90612cf7565b80601f016020809104026020016040519081016040528092919081815260200182805461071b90612cf7565b80156107665780601f1061073d57610100808354040283529160200191610766565b820191905f5260205f20905b81548152906001019060200180831161074957829003601f168201915b5050505050905090565b5f61077a8261111b565b50610784826111a1565b9050919050565b600d60019054906101000a900460ff1681565b6107b082826107ab6111da565b6111e1565b5050565b600d60019054906101000a900460ff16610803576040517f08c379a00000000000000000000000000000000000000000000000000000000081526004016107fa90612d71565b60405180910390fd5b600e5f3373ffffffffffffffffffffffffffffffffffffffff1673ffffffffffffffffffffffffffffffffffffffff1681526020019081526020015f205f9054906101000a900460ff1661088c576040517f08c379a000000000000000000000000000000000000000000000000000000000815260040161088390612dd9565b60405180910390fd5b66038d7ea4c6800034146108d5576040517f08c379a00000000000000000000000000000000000000000000000000000000081526004016108cc90612e41565b60405180910390fd5b6108dd6111f3565b565b5f600880549050905090565b5f73ffffffffffffffffffffffffffffffffffffffff168273ffffffffffffffffffffffffffffffffffffffff160361095b575f6040517f64a0ae92000000000000000000000000000000000000000000000000000000008152600401610952919061286e565b60405180910390fd5b5f61096e83836109696111da565b611264565b90508373ffffffffffffffffffffffffffffffffffffffff168173ffffffffffffffffffffffffffffffffffffffff16146109e4578382826040517f64283d7b0000000000000000000000000000000000000000000000000000000081526004016109db93929190612e5f565b60405180910390fd5b50505050565b600d5f9054906101000a900460ff16610a38576040517f08c379a0000000000000000000000000000000000000000000000000000000008152600401610a2f90612ede565b60405180910390fd5b662386f26fc100003414610a81576040517f08c379a0000000000000000000000000000000000000000000000000000000008152600401610a7890612e41565b60405180910390fd5b610a896111f3565b565b600e602052805f5260405f205f915054906101000a900460ff1681565b610ab0611279565b81600d5f6101000a81548160ff02191690831515021790555080600d60016101000a81548160ff0219169083151502179055505050565b5f610af183610d51565b8210610b365782826040517fa57d13dc000000000000000000000000000000000000000000000000000000008152600401610b2d929190612efc565b60405180910390fd5b60065f8473ffffffffffffffffffffffffffffffffffffffff1673ffffffffffffffffffffffffffffffffffffffff1681526020019081526020015f205f8381526020019081526020015f2054905092915050565b610b93611279565b610b9b611300565b565b610bb783838360405180602001604052805f815250610efb565b505050565b5f610bc56108df565b8210610c0a575f826040517fa57d13dc000000000000000000000000000000000000000000000000000000008152600401610c01929190612efc565b60405180910390fd5b60088281548110610c1e57610c1d612f23565b5b905f5260205f2001549050919050565b610c36611279565b5f4790508173ffffffffffffffffffffffffffffffffffffffff166108fc8290811502906040515f60405180830381858888f19350505050158015610c7d573d5f803e3d5ffd5b505050565b5f600a5f9054906101000a900460ff16905090565b5f610ca18261111b565b9050919050565b610cb0611279565b5f5b82829050811015610d4c576001600e5f858585818110610cd557610cd4612f23565b5b9050602002016020810190610cea9190612967565b73ffffffffffffffffffffffffffffffffffffffff1673ffffffffffffffffffffffffffffffffffffffff1681526020019081526020015f205f6101000a81548160ff0219169083151502179055508080610d4490612f7d565b915050610cb2565b505050565b5f8073ffffffffffffffffffffffffffffffffffffffff168273ffffffffffffffffffffffffffffffffffffffff1603610dc2575f6040517f89c62b64000000000000000000000000000000000000000000000000000000008152600401610db9919061286e565b60405180910390fd5b60035f8373ffffffffffffffffffffffffffffffffffffffff1673ffffffffffffffffffffffffffffffffffffffff1681526020019081526020015f20549050919050565b610e0f611279565b610e185f611361565b565b610e22611279565b610e2a611426565b565b5f600a60019054906101000a900473ffffffffffffffffffffffffffffffffffffffff16905090565b606060018054610e6490612cf7565b80601f0160208091040260200160405190810160405280929190818152602001828054610e9090612cf7565b8015610edb5780601f10610eb257610100808354040283529160200191610edb565b820191905f5260205f20905b815481529060010190602001808311610ebe57829003601f168201915b5050505050905090565b610ef7610ef06111da565b8383611488565b5050565b610f068484846108eb565b610f12848484846115f1565b50505050565b600d5f9054906101000a900460ff1681565b6060610f358261111b565b505f610f3f6117a3565b90505f815111610f5d5760405180602001604052805f815250610f88565b80610f67846117c3565b604051602001610f78929190612ffe565b6040516020818303038152906040525b915050919050565b5f60055f8473ffffffffffffffffffffffffffffffffffffffff1673ffffffffffffffffffffffffffffffffffffffff1681526020019081526020015f205f8373ffffffffffffffffffffffffffffffffffffffff1673ffffffffffffffffffffffffffffffffffffffff1681526020019081526020015f205f9054906101000a900460ff16905092915050565b611026611279565b5f73ffffffffffffffffffffffffffffffffffffffff168173ffffffffffffffffffffffffffffffffffffffff1603611096575f6040517f1e4fbdf700000000000000000000000000000000000000000000000000000000815260040161108d919061286e565b60405180910390fd5b61109f81611361565b50565b5f7f780e9d63000000000000000000000000000000000000000000000000000000007bffffffffffffffffffffffffffffffffffffffffffffffffffffffff1916827bffffffffffffffffffffffffffffffffffffffffffffffffffffffff1916148061111457506111138261188d565b5b9050919050565b5f806111268361196e565b90505f73ffffffffffffffffffffffffffffffffffffffff168173ffffffffffffffffffffffffffffffffffffffff160361119857826040517f7e27328900000000000000000000000000000000000000000000000000000000815260040161118f91906128fe565b60405180910390fd5b80915050919050565b5f60045f8381526020019081526020015f205f9054906101000a900473ffffffffffffffffffffffffffffffffffffffff169050919050565b5f33905090565b6111ee83838360016119a7565b505050565b600c546111fe6108df565b1061123e576040517f08c379a00000000000000000000000000000000000000000000000000000000081526004016112359061306b565b60405180910390fd5b5f600b5f81548092919061125190612f7d565b9190505590506112613382611b66565b50565b5f611270848484611b83565b90509392505050565b6112816111da565b73ffffffffffffffffffffffffffffffffffffffff1661129f610e2c565b73ffffffffffffffffffffffffffffffffffffffff16146112fe576112c26111da565b6040517f118cdaa70000000000000000000000000000000000000000000000000000000081526004016112f5919061286e565b60405180910390fd5b565b611308611ba0565b5f600a5f6101000a81548160ff0219169083151502179055507f5db9ee0a495bf2e6ff9c91a7834c1ba4fdd244a5e8aa4e537bd38aeae4b073aa61134a6111da565b604051611357919061286e565b60405180910390a1565b5f600a60019054906101000a900473ffffffffffffffffffffffffffffffffffffffff16905081600a60016101000a81548173ffffffffffffffffffffffffffffffffffffffff021916908373ffffffffffffffffffffffffffffffffffffffff1602179055508173ffffffffffffffffffffffffffffffffffffffff168173ffffffffffffffffffffffffffffffffffffffff167f8be0079c531659141344cd1fd0a4f28419497f9722a3daafe3b4186f6b6457e060405160405180910390a35050565b61142e611be0565b6001600a5f6101000a81548160ff0219169083151502179055507f62e78cea01bee320cd4e420270b5ea74000d11b0c9f74754ebdbfc544b05a2586114716111da565b60405161147e919061286e565b60405180910390a1565b5f73ffffffffffffffffffffffffffffffffffffffff168273ffffffffffffffffffffffffffffffffffffffff16036114f857816040517f5b08ba180000000000000000000000000000000000000000000000000000000081526004016114ef919061286e565b60405180910390fd5b8060055f8573ffffffffffffffffffffffffffffffffffffffff1673ffffffffffffffffffffffffffffffffffffffff1681526020019081526020015f205f8473ffffffffffffffffffffffffffffffffffffffff1673ffffffffffffffffffffffffffffffffffffffff1681526020019081526020015f205f6101000a81548160ff0219169083151502179055508173ffffffffffffffffffffffffffffffffffffffff168373ffffffffffffffffffffffffffffffffffffffff167f17307eab39ab6107e8899845ad3d59bd9653f200f220920489ca2b5937696c31836040516115e4919061270e565b60405180910390a3505050565b5f8373ffffffffffffffffffffffffffffffffffffffff163b111561179d578273ffffffffffffffffffffffffffffffffffffffff1663150b7a026116346111da565b8685856040518563ffffffff1660e01b815260040161165694939291906130db565b6020604051808303815f875af192505050801561169157506040513d601f19601f8201168201806040525081019061168e9190613139565b60015b611712573d805f81146116bf576040519150601f19603f3d011682016040523d82523d5f602084013e6116c4565b606091505b505f81510361170a57836040517f64a0ae92000000000000000000000000000000000000000000000000000000008152600401611701919061286e565b60405180910390fd5b805181602001fd5b63150b7a0260e01b7bffffffffffffffffffffffffffffffffffffffffffffffffffffffff1916817bffffffffffffffffffffffffffffffffffffffffffffffffffffffff19161461179b57836040517f64a0ae92000000000000000000000000000000000000000000000000000000008152600401611792919061286e565b60405180910390fd5b505b50505050565b60606040518060600160405280603681526020016131f260369139905090565b60605f60016117d184611c21565b0190505f8167ffffffffffffffff8111156117ef576117ee612ae8565b5b6040519080825280601f01601f1916602001820160405280156118215781602001600182028036833780820191505090505b5090505f82602001820190505b600115611882578080600190039150507f3031323334353637383961626364656600000000000000000000000000000000600a86061a8153600a858161187757611876613164565b5b0494505f850361182e575b819350505050919050565b5f7f80ac58cd000000000000000000000000000000000000000000000000000000007bffffffffffffffffffffffffffffffffffffffffffffffffffffffff1916827bffffffffffffffffffffffffffffffffffffffffffffffffffffffff1916148061195757507f5b5e139f000000000000000000000000000000000000000000000000000000007bffffffffffffffffffffffffffffffffffffffffffffffffffffffff1916827bffffffffffffffffffffffffffffffffffffffffffffffffffffffff1916145b80611967575061196682611d72565b5b9050919050565b5f60025f8381526020019081526020015f205f9054906101000a900473ffffffffffffffffffffffffffffffffffffffff169050919050565b80806119df57505f73ffffffffffffffffffffffffffffffffffffffff168273ffffffffffffffffffffffffffffffffffffffff1614155b15611b11575f6119ee8461111b565b90505f73ffffffffffffffffffffffffffffffffffffffff168373ffffffffffffffffffffffffffffffffffffffff1614158015611a5857508273ffffffffffffffffffffffffffffffffffffffff168173ffffffffffffffffffffffffffffffffffffffff1614155b8015611a6b5750611a698184610f90565b155b15611aad57826040517fa9fbf51f000000000000000000000000000000000000000000000000000000008152600401611aa4919061286e565b60405180910390fd5b8115611b0f57838573ffffffffffffffffffffffffffffffffffffffff168273ffffffffffffffffffffffffffffffffffffffff167f8c5be1e5ebec7d5bd14f71427d1e84f3dd0314c0f7b2291e5b200ac8c7c3b92560405160405180910390a45b505b8360045f8581526020019081526020015f205f6101000a81548173ffffffffffffffffffffffffffffffffffffffff021916908373ffffffffffffffffffffffffffffffffffffffff16021790555050505050565b611b7f828260405180602001604052805f815250611ddb565b5050565b5f611b8c611be0565b611b97848484611df6565b90509392505050565b611ba8610c82565b611bde576040517f8dfc202b00000000000000000000000000000000000000000000000000000000815260040160405180910390fd5b565b611be8610c82565b15611c1f576040517fd93c066500000000000000000000000000000000000000000000000000000000815260040160405180910390fd5b565b5f805f90507a184f03e93ff9f4daa797ed6e38ed64bf6a1f0100000000000000008310611c7d577a184f03e93ff9f4daa797ed6e38ed64bf6a1f0100000000000000008381611c7357611c72613164565b5b0492506040810190505b6d04ee2d6d415b85acef81000000008310611cba576d04ee2d6d415b85acef81000000008381611cb057611caf613164565b5b0492506020810190505b662386f26fc100008310611ce957662386f26fc100008381611cdf57611cde613164565b5b0492506010810190505b6305f5e1008310611d12576305f5e1008381611d0857611d07613164565b5b0492506008810190505b6127108310611d37576127108381611d2d57611d2c613164565b5b0492506004810190505b60648310611d5a5760648381611d5057611d4f613164565b5b0492506002810190505b600a8310611d69576001810190505b80915050919050565b5f7f01ffc9a7000000000000000000000000000000000000000000000000000000007bffffffffffffffffffffffffffffffffffffffffffffffffffffffff1916827bffffffffffffffffffffffffffffffffffffffffffffffffffffffff1916149050919050565b611de58383611f10565b611df15f8484846115f1565b505050565b5f80611e03858585612003565b90505f73ffffffffffffffffffffffffffffffffffffffff168173ffffffffffffffffffffffffffffffffffffffff1603611e4657611e418461220e565b611e85565b8473ffffffffffffffffffffffffffffffffffffffff168173ffffffffffffffffffffffffffffffffffffffff1614611e8457611e838185612252565b5b5b5f73ffffffffffffffffffffffffffffffffffffffff168573ffffffffffffffffffffffffffffffffffffffff1603611ec657611ec18461239c565b611f05565b8473ffffffffffffffffffffffffffffffffffffffff168173ffffffffffffffffffffffffffffffffffffffff1614611f0457611f03858561245c565b5b5b809150509392505050565b5f73ffffffffffffffffffffffffffffffffffffffff168273ffffffffffffffffffffffffffffffffffffffff1603611f80575f6040517f64a0ae92000000000000000000000000000000000000000000000000000000008152600401611f77919061286e565b60405180910390fd5b5f611f8c83835f611264565b90505f73ffffffffffffffffffffffffffffffffffffffff168173ffffffffffffffffffffffffffffffffffffffff1614611ffe575f6040517f73c6ac6e000000000000000000000000000000000000000000000000000000008152600401611ff5919061286e565b60405180910390fd5b505050565b5f8061200e8461196e565b90505f73ffffffffffffffffffffffffffffffffffffffff168373ffffffffffffffffffffffffffffffffffffffff161461204f5761204e8184866124e0565b5b5f73ffffffffffffffffffffffffffffffffffffffff168173ffffffffffffffffffffffffffffffffffffffff16146120da5761208e5f855f806119a7565b600160035f8373ffffffffffffffffffffffffffffffffffffffff1673ffffffffffffffffffffffffffffffffffffffff1681526020019081526020015f205f82825403925050819055505b5f73ffffffffffffffffffffffffffffffffffffffff168573ffffffffffffffffffffffffffffffffffffffff161461215957600160035f8773ffffffffffffffffffffffffffffffffffffffff1673ffffffffffffffffffffffffffffffffffffffff1681526020019081526020015f205f82825401925050819055505b8460025f8681526020019081526020015f205f6101000a81548173ffffffffffffffffffffffffffffffffffffffff021916908373ffffffffffffffffffffffffffffffffffffffff160217905550838573ffffffffffffffffffffffffffffffffffffffff168273ffffffffffffffffffffffffffffffffffffffff167fddf252ad1be2c89b69c2b068fc378daa952ba7f163c4a11628f55a4df523b3ef60405160405180910390a4809150509392505050565b60088054905060095f8381526020019081526020015f2081905550600881908060018154018082558091505060019003905f5260205f20015f909190919091505550565b5f61225c83610d51565b90505f60075f8481526020019081526020015f20549050818114612333575f60065f8673ffffffffffffffffffffffffffffffffffffffff1673ffffffffffffffffffffffffffffffffffffffff1681526020019081526020015f205f8481526020019081526020015f205490508060065f8773ffffffffffffffffffffffffffffffffffffffff1673ffffffffffffffffffffffffffffffffffffffff1681526020019081526020015f205f8481526020019081526020015f20819055508160075f8381526020019081526020015f2081905550505b60075f8481526020019081526020015f205f905560065f8573ffffffffffffffffffffffffffffffffffffffff1673ffffffffffffffffffffffffffffffffffffffff1681526020019081526020015f205f8381526020019081526020015f205f905550505050565b5f60016008805490506123af9190613191565b90505f60095f8481526020019081526020015f205490505f600883815481106123db576123da612f23565b5b905f5260205f200154905080600883815481106123fb576123fa612f23565b5b905f5260205f2001819055508160095f8381526020019081526020015f208190555060095f8581526020019081526020015f205f90556008805480612443576124426131c4565b5b600190038181905f5260205f20015f9055905550505050565b5f600161246884610d51565b6124729190613191565b90508160065f8573ffffffffffffffffffffffffffffffffffffffff1673ffffffffffffffffffffffffffffffffffffffff1681526020019081526020015f205f8381526020019081526020015f20819055508060075f8481526020019081526020015f2081905550505050565b6124eb8383836125a3565b61259e575f73ffffffffffffffffffffffffffffffffffffffff168373ffffffffffffffffffffffffffffffffffffffff160361255f57806040517f7e27328900000000000000000000000000000000000000000000000000000000815260040161255691906128fe565b60405180910390fd5b81816040517f177e802f000000000000000000000000000000000000000000000000000000008152600401612595929190612efc565b60405180910390fd5b505050565b5f8073ffffffffffffffffffffffffffffffffffffffff168373ffffffffffffffffffffffffffffffffffffffff161415801561265a57508273ffffffffffffffffffffffffffffffffffffffff168473ffffffffffffffffffffffffffffffffffffffff16148061261b575061261a8484610f90565b5b8061265957508273ffffffffffffffffffffffffffffffffffffffff16612641836111a1565b73ffffffffffffffffffffffffffffffffffffffff16145b5b90509392505050565b5f604051905090565b5f80fd5b5f80fd5b5f7fffffffff0000000000000000000000000000000000000000000000000000000082169050919050565b6126a881612674565b81146126b2575f80fd5b50565b5f813590506126c38161269f565b92915050565b5f602082840312156126de576126dd61266c565b5b5f6126eb848285016126b5565b91505092915050565b5f8115159050919050565b612708816126f4565b82525050565b5f6020820190506127215f8301846126ff565b92915050565b5f81519050919050565b5f82825260208201905092915050565b5f5b8381101561275e578082015181840152602081019050612743565b5f8484015250505050565b5f601f19601f8301169050919050565b5f61278382612727565b61278d8185612731565b935061279d818560208601612741565b6127a681612769565b840191505092915050565b5f6020820190508181035f8301526127c98184612779565b905092915050565b5f819050919050565b6127e3816127d1565b81146127ed575f80fd5b50565b5f813590506127fe816127da565b92915050565b5f602082840312156128195761281861266c565b5b5f612826848285016127f0565b91505092915050565b5f73ffffffffffffffffffffffffffffffffffffffff82169050919050565b5f6128588261282f565b9050919050565b6128688161284e565b82525050565b5f6020820190506128815f83018461285f565b92915050565b6128908161284e565b811461289a575f80fd5b50565b5f813590506128ab81612887565b92915050565b5f80604083850312156128c7576128c661266c565b5b5f6128d48582860161289d565b92505060206128e5858286016127f0565b9150509250929050565b6128f8816127d1565b82525050565b5f6020820190506129115f8301846128ef565b92915050565b5f805f6060848603121561292e5761292d61266c565b5b5f61293b8682870161289d565b935050602061294c8682870161289d565b925050604061295d868287016127f0565b9150509250925092565b5f6020828403121561297c5761297b61266c565b5b5f6129898482850161289d565b91505092915050565b61299b816126f4565b81146129a5575f80fd5b50565b5f813590506129b681612992565b92915050565b5f80604083850312156129d2576129d161266c565b5b5f6129df858286016129a8565b92505060206129f0858286016129a8565b9150509250929050565b5f80fd5b5f80fd5b5f80fd5b5f8083601f840112612a1b57612a1a6129fa565b5b8235905067ffffffffffffffff811115612a3857612a376129fe565b5b602083019150836020820283011115612a5457612a53612a02565b5b9250929050565b5f8060208385031215612a7157612a7061266c565b5b5f83013567ffffffffffffffff811115612a8e57612a8d612670565b5b612a9a85828601612a06565b92509250509250929050565b5f8060408385031215612abc57612abb61266c565b5b5f612ac98582860161289d565b9250506020612ada858286016129a8565b9150509250929050565b5f80fd5b7f4e487b71000000000000000000000000000000000000000000000000000000005f52604160045260245ffd5b612b1e82612769565b810181811067ffffffffffffffff82111715612b3d57612b3c612ae8565b5b80604052505050565b5f612b4f612663565b9050612b5b8282612b15565b919050565b5f67ffffffffffffffff821115612b7a57612b79612ae8565b5b612b8382612769565b9050602081019050919050565b828183375f83830152505050565b5f612bb0612bab84612b60565b612b46565b905082815260208101848484011115612bcc57612bcb612ae4565b5b612bd7848285612b90565b509392505050565b5f82601f830112612bf357612bf26129fa565b5b8135612c03848260208601612b9e565b91505092915050565b5f805f8060808587031215612c2457612c2361266c565b5b5f612c318782880161289d565b9450506020612c428782880161289d565b9350506040612c53878288016127f0565b925050606085013567ffffffffffffffff811115612c7457612c73612670565b5b612c8087828801612bdf565b91505092959194509250565b5f8060408385031215612ca257612ca161266c565b5b5f612caf8582860161289d565b9250506020612cc08582860161289d565b9150509250929050565b7f4e487b71000000000000000000000000000000000000000000000000000000005f52602260045260245ffd5b5f6002820490506001821680612d0e57607f821691505b602082108103612d2157612d20612cca565b5b50919050565b7f416c6c6f77206c697374206d696e7420636c6f736564000000000000000000005f82015250565b5f612d5b601683612731565b9150612d6682612d27565b602082019050919050565b5f6020820190508181035f830152612d8881612d4f565b9050919050565b7f596f7520617265206e6f74206f6e2074686520616c6c6f77206c6973740000005f82015250565b5f612dc3601d83612731565b9150612dce82612d8f565b602082019050919050565b5f6020820190508181035f830152612df081612db7565b9050919050565b7f496e63726561736520796f75722066756e6473000000000000000000000000005f82015250565b5f612e2b601383612731565b9150612e3682612df7565b602082019050919050565b5f6020820190508181035f830152612e5881612e1f565b9050919050565b5f606082019050612e725f83018661285f565b612e7f60208301856128ef565b612e8c604083018461285f565b949350505050565b7f5075626c6963206d696e7420636c6f73656400000000000000000000000000005f82015250565b5f612ec8601283612731565b9150612ed382612e94565b602082019050919050565b5f6020820190508181035f830152612ef581612ebc565b9050919050565b5f604082019050612f0f5f83018561285f565b612f1c60208301846128ef565b9392505050565b7f4e487b71000000000000000000000000000000000000000000000000000000005f52603260045260245ffd5b7f4e487b71000000000000000000000000000000000000000000000000000000005f52601160045260245ffd5b5f612f87826127d1565b91507fffffffffffffffffffffffffffffffffffffffffffffffffffffffffffffffff8203612fb957612fb8612f50565b5b600182019050919050565b5f81905092915050565b5f612fd882612727565b612fe28185612fc4565b9350612ff2818560208601612741565b80840191505092915050565b5f6130098285612fce565b91506130158284612fce565b91508190509392505050565b7f576520736f6c64206f75742100000000000000000000000000000000000000005f82015250565b5f613055600c83612731565b915061306082613021565b602082019050919050565b5f6020820190508181035f83015261308281613049565b9050919050565b5f81519050919050565b5f82825260208201905092915050565b5f6130ad82613089565b6130b78185613093565b93506130c7818560208601612741565b6130d081612769565b840191505092915050565b5f6080820190506130ee5f83018761285f565b6130fb602083018661285f565b61310860408301856128ef565b818103606083015261311a81846130a3565b905095945050505050565b5f815190506131338161269f565b92915050565b5f6020828403121561314e5761314d61266c565b5b5f61315b84828501613125565b91505092915050565b7f4e487b71000000000000000000000000000000000000000000000000000000005f52601260045260245ffd5b5f61319b826127d1565b91506131a6836127d1565b92508282039050818111156131be576131bd612f50565b5b92915050565b7f4e487b71000000000000000000000000000000000000000000000000000000005f52603160045260245ffdfe697066733a2f2f516d593572507147544e31725a784d516732417069535a63374a69424e73317279447a58505a705168433169626d2fa2646970667358221220c2bb4d205511cb7824abd17029195edbee778e16d315f4fe075fbb31505bb1a064736f6c63430008140033",
					"opcodes": "PUSH1 0x80 PUSH1 0x40 MSTORE PUSH2 0x7D0 PUSH1 0xC SSTORE PUSH0 PUSH1 0xD PUSH0 PUSH2 0x100 EXP DUP2 SLOAD DUP2 PUSH1 0xFF MUL NOT AND SWAP1 DUP4 ISZERO ISZERO MUL OR SWAP1 SSTORE POP PUSH0 PUSH1 0xD PUSH1 0x1 PUSH2 0x100 EXP DUP2 SLOAD DUP2 PUSH1 0xFF MUL NOT AND SWAP1 DUP4 ISZERO ISZERO MUL OR SWAP1 SSTORE POP CALLVALUE DUP1 ISZERO PUSH3 0x49 JUMPI PUSH0 DUP1 REVERT JUMPDEST POP PUSH1 0x40 MLOAD PUSH3 0x38DF CODESIZE SUB DUP1 PUSH3 0x38DF DUP4 CODECOPY DUP2 DUP2 ADD PUSH1 0x40 MSTORE DUP2 ADD SWAP1 PUSH3 0x6F SWAP2 SWAP1 PUSH3 0x2D0 JUMP JUMPDEST DUP1 PUSH1 0x40 MLOAD DUP1 PUSH1 0x40 ADD PUSH1 0x40 MSTORE DUP1 PUSH1 0xA DUP2 MSTORE PUSH1 0x20 ADD PUSH32 0x5374616B65546F6B656E00000000000000000000000000000000000000000000 DUP2 MSTORE POP PUSH1 0x40 MLOAD DUP1 PUSH1 0x40 ADD PUSH1 0x40 MSTORE DUP1 PUSH1 0x3 DUP2 MSTORE PUSH1 0x20 ADD PUSH32 0x5354430000000000000000000000000000000000000000000000000000000000 DUP2 MSTORE POP DUP2 PUSH0 SWAP1 DUP2 PUSH3 0xEC SWAP2 SWAP1 PUSH3 0x564 JUMP JUMPDEST POP DUP1 PUSH1 0x1 SWAP1 DUP2 PUSH3 0xFE SWAP2 SWAP1 PUSH3 0x564 JUMP JUMPDEST POP POP POP PUSH0 PUSH1 0xA PUSH0 PUSH2 0x100 EXP DUP2 SLOAD DUP2 PUSH1 0xFF MUL NOT AND SWAP1 DUP4 ISZERO ISZERO MUL OR SWAP1 SSTORE POP PUSH0 PUSH20 0xFFFFFFFFFFFFFFFFFFFFFFFFFFFFFFFFFFFFFFFF AND DUP2 PUSH20 0xFFFFFFFFFFFFFFFFFFFFFFFFFFFFFFFFFFFFFFFF AND SUB PUSH3 0x18D JUMPI PUSH0 PUSH1 0x40 MLOAD PUSH32 0x1E4FBDF700000000000000000000000000000000000000000000000000000000 DUP2 MSTORE PUSH1 0x4 ADD PUSH3 0x184 SWAP2 SWAP1 PUSH3 0x659 JUMP JUMPDEST PUSH1 0x40 MLOAD DUP1 SWAP2 SUB SWAP1 REVERT JUMPDEST PUSH3 0x19E DUP2 PUSH3 0x1A6 PUSH1 0x20 SHL PUSH1 0x20 SHR JUMP JUMPDEST POP POP PUSH3 0x674 JUMP JUMPDEST PUSH0 PUSH1 0xA PUSH1 0x1 SWAP1 SLOAD SWAP1 PUSH2 0x100 EXP SWAP1 DIV PUSH20 0xFFFFFFFFFFFFFFFFFFFFFFFFFFFFFFFFFFFFFFFF AND SWAP1 POP DUP2 PUSH1 0xA PUSH1 0x1 PUSH2 0x100 EXP DUP2 SLOAD DUP2 PUSH20 0xFFFFFFFFFFFFFFFFFFFFFFFFFFFFFFFFFFFFFFFF MUL NOT AND SWAP1 DUP4 PUSH20 0xFFFFFFFFFFFFFFFFFFFFFFFFFFFFFFFFFFFFFFFF AND MUL OR SWAP1 SSTORE POP DUP2 PUSH20 0xFFFFFFFFFFFFFFFFFFFFFFFFFFFFFFFFFFFFFFFF AND DUP2 PUSH20 0xFFFFFFFFFFFFFFFFFFFFFFFFFFFFFFFFFFFFFFFF AND PUSH32 0x8BE0079C531659141344CD1FD0A4F28419497F9722A3DAAFE3B4186F6B6457E0 PUSH1 0x40 MLOAD PUSH1 0x40 MLOAD DUP1 SWAP2 SUB SWAP1 LOG3 POP POP JUMP JUMPDEST PUSH0 DUP1 REVERT JUMPDEST PUSH0 PUSH20 0xFFFFFFFFFFFFFFFFFFFFFFFFFFFFFFFFFFFFFFFF DUP3 AND SWAP1 POP SWAP2 SWAP1 POP JUMP JUMPDEST PUSH0 PUSH3 0x29A DUP3 PUSH3 0x26F JUMP JUMPDEST SWAP1 POP SWAP2 SWAP1 POP JUMP JUMPDEST PUSH3 0x2AC DUP2 PUSH3 0x28E JUMP JUMPDEST DUP2 EQ PUSH3 0x2B7 JUMPI PUSH0 DUP1 REVERT JUMPDEST POP JUMP JUMPDEST PUSH0 DUP2 MLOAD SWAP1 POP PUSH3 0x2CA DUP2 PUSH3 0x2A1 JUMP JUMPDEST SWAP3 SWAP2 POP POP JUMP JUMPDEST PUSH0 PUSH1 0x20 DUP3 DUP5 SUB SLT ISZERO PUSH3 0x2E8 JUMPI PUSH3 0x2E7 PUSH3 0x26B JUMP JUMPDEST JUMPDEST PUSH0 PUSH3 0x2F7 DUP5 DUP3 DUP6 ADD PUSH3 0x2BA JUMP JUMPDEST SWAP2 POP POP SWAP3 SWAP2 POP POP JUMP JUMPDEST PUSH0 DUP2 MLOAD SWAP1 POP SWAP2 SWAP1 POP JUMP JUMPDEST PUSH32 0x4E487B7100000000000000000000000000000000000000000000000000000000 PUSH0 MSTORE PUSH1 0x41 PUSH1 0x4 MSTORE PUSH1 0x24 PUSH0 REVERT JUMPDEST PUSH32 0x4E487B7100000000000000000000000000000000000000000000000000000000 PUSH0 MSTORE PUSH1 0x22 PUSH1 0x4 MSTORE PUSH1 0x24 PUSH0 REVERT JUMPDEST PUSH0 PUSH1 0x2 DUP3 DIV SWAP1 POP PUSH1 0x1 DUP3 AND DUP1 PUSH3 0x37C JUMPI PUSH1 0x7F DUP3 AND SWAP2 POP JUMPDEST PUSH1 0x20 DUP3 LT DUP2 SUB PUSH3 0x392 JUMPI PUSH3 0x391 PUSH3 0x337 JUMP JUMPDEST JUMPDEST POP SWAP2 SWAP1 POP JUMP JUMPDEST PUSH0 DUP2 SWAP1 POP DUP2 PUSH0 MSTORE PUSH1 0x20 PUSH0 KECCAK256 SWAP1 POP SWAP2 SWAP1 POP JUMP JUMPDEST PUSH0 PUSH1 0x20 PUSH1 0x1F DUP4 ADD DIV SWAP1 POP SWAP2 SWAP1 POP JUMP JUMPDEST PUSH0 DUP3 DUP3 SHL SWAP1 POP SWAP3 SWAP2 POP POP JUMP JUMPDEST PUSH0 PUSH1 0x8 DUP4 MUL PUSH3 0x3F6 PUSH32 0xFFFFFFFFFFFFFFFFFFFFFFFFFFFFFFFFFFFFFFFFFFFFFFFFFFFFFFFFFFFFFFFF DUP3 PUSH3 0x3B9 JUMP JUMPDEST PUSH3 0x402 DUP7 DUP4 PUSH3 0x3B9 JUMP JUMPDEST SWAP6 POP DUP1 NOT DUP5 AND SWAP4 POP DUP1 DUP7 AND DUP5 OR SWAP3 POP POP POP SWAP4 SWAP3 POP POP POP JUMP JUMPDEST PUSH0 DUP2 SWAP1 POP SWAP2 SWAP1 POP JUMP JUMPDEST PUSH0 DUP2 SWAP1 POP SWAP2 SWAP1 POP JUMP JUMPDEST PUSH0 PUSH3 0x44C PUSH3 0x446 PUSH3 0x440 DUP5 PUSH3 0x41A JUMP JUMPDEST PUSH3 0x423 JUMP JUMPDEST PUSH3 0x41A JUMP JUMPDEST SWAP1 POP SWAP2 SWAP1 POP JUMP JUMPDEST PUSH0 DUP2 SWAP1 POP SWAP2 SWAP1 POP JUMP JUMPDEST PUSH3 0x467 DUP4 PUSH3 0x42C JUMP JUMPDEST PUSH3 0x47F PUSH3 0x476 DUP3 PUSH3 0x453 JUMP JUMPDEST DUP5 DUP5 SLOAD PUSH3 0x3C5 JUMP JUMPDEST DUP3 SSTORE POP POP POP POP JUMP JUMPDEST PUSH0 SWAP1 JUMP JUMPDEST PUSH3 0x495 PUSH3 0x487 JUMP JUMPDEST PUSH3 0x4A2 DUP2 DUP5 DUP5 PUSH3 0x45C JUMP JUMPDEST POP POP POP JUMP JUMPDEST JUMPDEST DUP2 DUP2 LT ISZERO PUSH3 0x4C9 JUMPI PUSH3 0x4BD PUSH0 DUP3 PUSH3 0x48B JUMP JUMPDEST PUSH1 0x1 DUP2 ADD SWAP1 POP PUSH3 0x4A8 JUMP JUMPDEST POP POP JUMP JUMPDEST PUSH1 0x1F DUP3 GT ISZERO PUSH3 0x518 JUMPI PUSH3 0x4E2 DUP2 PUSH3 0x398 JUMP JUMPDEST PUSH3 0x4ED DUP5 PUSH3 0x3AA JUMP JUMPDEST DUP2 ADD PUSH1 0x20 DUP6 LT ISZERO PUSH3 0x4FD JUMPI DUP2 SWAP1 POP JUMPDEST PUSH3 0x515 PUSH3 0x50C DUP6 PUSH3 0x3AA JUMP JUMPDEST DUP4 ADD DUP3 PUSH3 0x4A7 JUMP JUMPDEST POP POP JUMPDEST POP POP POP JUMP JUMPDEST PUSH0 DUP3 DUP3 SHR SWAP1 POP SWAP3 SWAP2 POP POP JUMP JUMPDEST PUSH0 PUSH3 0x53A PUSH0 NOT DUP5 PUSH1 0x8 MUL PUSH3 0x51D JUMP JUMPDEST NOT DUP1 DUP4 AND SWAP2 POP POP SWAP3 SWAP2 POP POP JUMP JUMPDEST PUSH0 PUSH3 0x554 DUP4 DUP4 PUSH3 0x529 JUMP JUMPDEST SWAP2 POP DUP3 PUSH1 0x2 MUL DUP3 OR SWAP1 POP SWAP3 SWAP2 POP POP JUMP JUMPDEST PUSH3 0x56F DUP3 PUSH3 0x300 JUMP JUMPDEST PUSH8 0xFFFFFFFFFFFFFFFF DUP2 GT ISZERO PUSH3 0x58B JUMPI PUSH3 0x58A PUSH3 0x30A JUMP JUMPDEST JUMPDEST PUSH3 0x597 DUP3 SLOAD PUSH3 0x364 JUMP JUMPDEST PUSH3 0x5A4 DUP3 DUP3 DUP6 PUSH3 0x4CD JUMP JUMPDEST PUSH0 PUSH1 0x20 SWAP1 POP PUSH1 0x1F DUP4 GT PUSH1 0x1 DUP2 EQ PUSH3 0x5DA JUMPI PUSH0 DUP5 ISZERO PUSH3 0x5C5 JUMPI DUP3 DUP8 ADD MLOAD SWAP1 POP JUMPDEST PUSH3 0x5D1 DUP6 DUP3 PUSH3 0x547 JUMP JUMPDEST DUP7 SSTORE POP PUSH3 0x640 JUMP JUMPDEST PUSH1 0x1F NOT DUP5 AND PUSH3 0x5EA DUP7 PUSH3 0x398 JUMP JUMPDEST PUSH0 JUMPDEST DUP3 DUP2 LT ISZERO PUSH3 0x613 JUMPI DUP5 DUP10 ADD MLOAD DUP3 SSTORE PUSH1 0x1 DUP3 ADD SWAP2 POP PUSH1 0x20 DUP6 ADD SWAP5 POP PUSH1 0x20 DUP2 ADD SWAP1 POP PUSH3 0x5EC JUMP JUMPDEST DUP7 DUP4 LT ISZERO PUSH3 0x633 JUMPI DUP5 DUP10 ADD MLOAD PUSH3 0x62F PUSH1 0x1F DUP10 AND DUP3 PUSH3 0x529 JUMP JUMPDEST DUP4 SSTORE POP JUMPDEST PUSH1 0x1 PUSH1 0x2 DUP9 MUL ADD DUP9 SSTORE POP POP POP JUMPDEST POP POP POP POP POP POP JUMP JUMPDEST PUSH3 0x653 DUP2 PUSH3 0x28E JUMP JUMPDEST DUP3 MSTORE POP POP JUMP JUMPDEST PUSH0 PUSH1 0x20 DUP3 ADD SWAP1 POP PUSH3 0x66E PUSH0 DUP4 ADD DUP5 PUSH3 0x648 JUMP JUMPDEST SWAP3 SWAP2 POP POP JUMP JUMPDEST PUSH2 0x325D DUP1 PUSH3 0x682 PUSH0 CODECOPY PUSH0 RETURN INVALID PUSH1 0x80 PUSH1 0x40 MSTORE PUSH1 0x4 CALLDATASIZE LT PUSH2 0x1CC JUMPI PUSH0 CALLDATALOAD PUSH1 0xE0 SHR DUP1 PUSH4 0x51CFF8D9 GT PUSH2 0xF6 JUMPI DUP1 PUSH4 0x8DA5CB5B GT PUSH2 0x94 JUMPI DUP1 PUSH4 0xBCC9CA5B GT PUSH2 0x63 JUMPI DUP1 PUSH4 0xBCC9CA5B EQ PUSH2 0x606 JUMPI DUP1 PUSH4 0xC87B56DD EQ PUSH2 0x630 JUMPI DUP1 PUSH4 0xE985E9C5 EQ PUSH2 0x66C JUMPI DUP1 PUSH4 0xF2FDE38B EQ PUSH2 0x6A8 JUMPI PUSH2 0x1CC JUMP JUMPDEST DUP1 PUSH4 0x8DA5CB5B EQ PUSH2 0x562 JUMPI DUP1 PUSH4 0x95D89B41 EQ PUSH2 0x58C JUMPI DUP1 PUSH4 0xA22CB465 EQ PUSH2 0x5B6 JUMPI DUP1 PUSH4 0xB88D4FDE EQ PUSH2 0x5DE JUMPI PUSH2 0x1CC JUMP JUMPDEST DUP1 PUSH4 0x6447C35D GT PUSH2 0xD0 JUMPI DUP1 PUSH4 0x6447C35D EQ PUSH2 0x4D2 JUMPI DUP1 PUSH4 0x70A08231 EQ PUSH2 0x4FA JUMPI DUP1 PUSH4 0x715018A6 EQ PUSH2 0x536 JUMPI DUP1 PUSH4 0x8456CB59 EQ PUSH2 0x54C JUMPI PUSH2 0x1CC JUMP JUMPDEST DUP1 PUSH4 0x51CFF8D9 EQ PUSH2 0x444 JUMPI DUP1 PUSH4 0x5C975ABB EQ PUSH2 0x46C JUMPI DUP1 PUSH4 0x6352211E EQ PUSH2 0x496 JUMPI PUSH2 0x1CC JUMP JUMPDEST DUP1 PUSH4 0x23B872DD GT PUSH2 0x16E JUMPI DUP1 PUSH4 0x2F745C59 GT PUSH2 0x13D JUMPI DUP1 PUSH4 0x2F745C59 EQ PUSH2 0x38E JUMPI DUP1 PUSH4 0x3F4BA83A EQ PUSH2 0x3CA JUMPI DUP1 PUSH4 0x42842E0E EQ PUSH2 0x3E0 JUMPI DUP1 PUSH4 0x4F6CCCE7 EQ PUSH2 0x408 JUMPI PUSH2 0x1CC JUMP JUMPDEST DUP1 PUSH4 0x23B872DD EQ PUSH2 0x2F8 JUMPI DUP1 PUSH4 0x26092B83 EQ PUSH2 0x320 JUMPI DUP1 PUSH4 0x2848AEAF EQ PUSH2 0x32A JUMPI DUP1 PUSH4 0x2F48DE79 EQ PUSH2 0x366 JUMPI PUSH2 0x1CC JUMP JUMPDEST DUP1 PUSH4 0x85C9BAC GT PUSH2 0x1AA JUMPI DUP1 PUSH4 0x85C9BAC EQ PUSH2 0x272 JUMPI DUP1 PUSH4 0x95EA7B3 EQ PUSH2 0x29C JUMPI DUP1 PUSH4 0x102A6A73 EQ PUSH2 0x2C4 JUMPI DUP1 PUSH4 0x18160DDD EQ PUSH2 0x2CE JUMPI PUSH2 0x1CC JUMP JUMPDEST DUP1 PUSH4 0x1FFC9A7 EQ PUSH2 0x1D0 JUMPI DUP1 PUSH4 0x6FDDE03 EQ PUSH2 0x20C JUMPI DUP1 PUSH4 0x81812FC EQ PUSH2 0x236 JUMPI JUMPDEST PUSH0 DUP1 REVERT JUMPDEST CALLVALUE DUP1 ISZERO PUSH2 0x1DB JUMPI PUSH0 DUP1 REVERT JUMPDEST POP PUSH2 0x1F6 PUSH1 0x4 DUP1 CALLDATASIZE SUB DUP2 ADD SWAP1 PUSH2 0x1F1 SWAP2 SWAP1 PUSH2 0x26C9 JUMP JUMPDEST PUSH2 0x6D0 JUMP JUMPDEST PUSH1 0x40 MLOAD PUSH2 0x203 SWAP2 SWAP1 PUSH2 0x270E JUMP JUMPDEST PUSH1 0x40 MLOAD DUP1 SWAP2 SUB SWAP1 RETURN JUMPDEST CALLVALUE DUP1 ISZERO PUSH2 0x217 JUMPI PUSH0 DUP1 REVERT JUMPDEST POP PUSH2 0x220 PUSH2 0x6E1 JUMP JUMPDEST PUSH1 0x40 MLOAD PUSH2 0x22D SWAP2 SWAP1 PUSH2 0x27B1 JUMP JUMPDEST PUSH1 0x40 MLOAD DUP1 SWAP2 SUB SWAP1 RETURN JUMPDEST CALLVALUE DUP1 ISZERO PUSH2 0x241 JUMPI PUSH0 DUP1 REVERT JUMPDEST POP PUSH2 0x25C PUSH1 0x4 DUP1 CALLDATASIZE SUB DUP2 ADD SWAP1 PUSH2 0x257 SWAP2 SWAP1 PUSH2 0x2804 JUMP JUMPDEST PUSH2 0x770 JUMP JUMPDEST PUSH1 0x40 MLOAD PUSH2 0x269 SWAP2 SWAP1 PUSH2 0x286E JUMP JUMPDEST PUSH1 0x40 MLOAD DUP1 SWAP2 SUB SWAP1 RETURN JUMPDEST CALLVALUE DUP1 ISZERO PUSH2 0x27D JUMPI PUSH0 DUP1 REVERT JUMPDEST POP PUSH2 0x286 PUSH2 0x78B JUMP JUMPDEST PUSH1 0x40 MLOAD PUSH2 0x293 SWAP2 SWAP1 PUSH2 0x270E JUMP JUMPDEST PUSH1 0x40 MLOAD DUP1 SWAP2 SUB SWAP1 RETURN JUMPDEST CALLVALUE DUP1 ISZERO PUSH2 0x2A7 JUMPI PUSH0 DUP1 REVERT JUMPDEST POP PUSH2 0x2C2 PUSH1 0x4 DUP1 CALLDATASIZE SUB DUP2 ADD SWAP1 PUSH2 0x2BD SWAP2 SWAP1 PUSH2 0x28B1 JUMP JUMPDEST PUSH2 0x79E JUMP JUMPDEST STOP JUMPDEST PUSH2 0x2CC PUSH2 0x7B4 JUMP JUMPDEST STOP JUMPDEST CALLVALUE DUP1 ISZERO PUSH2 0x2D9 JUMPI PUSH0 DUP1 REVERT JUMPDEST POP PUSH2 0x2E2 PUSH2 0x8DF JUMP JUMPDEST PUSH1 0x40 MLOAD PUSH2 0x2EF SWAP2 SWAP1 PUSH2 0x28FE JUMP JUMPDEST PUSH1 0x40 MLOAD DUP1 SWAP2 SUB SWAP1 RETURN JUMPDEST CALLVALUE DUP1 ISZERO PUSH2 0x303 JUMPI PUSH0 DUP1 REVERT JUMPDEST POP PUSH2 0x31E PUSH1 0x4 DUP1 CALLDATASIZE SUB DUP2 ADD SWAP1 PUSH2 0x319 SWAP2 SWAP1 PUSH2 0x2917 JUMP JUMPDEST PUSH2 0x8EB JUMP JUMPDEST STOP JUMPDEST PUSH2 0x328 PUSH2 0x9EA JUMP JUMPDEST STOP JUMPDEST CALLVALUE DUP1 ISZERO PUSH2 0x335 JUMPI PUSH0 DUP1 REVERT JUMPDEST POP PUSH2 0x350 PUSH1 0x4 DUP1 CALLDATASIZE SUB DUP2 ADD SWAP1 PUSH2 0x34B SWAP2 SWAP1 PUSH2 0x2967 JUMP JUMPDEST PUSH2 0xA8B JUMP JUMPDEST PUSH1 0x40 MLOAD PUSH2 0x35D SWAP2 SWAP1 PUSH2 0x270E JUMP JUMPDEST PUSH1 0x40 MLOAD DUP1 SWAP2 SUB SWAP1 RETURN JUMPDEST CALLVALUE DUP1 ISZERO PUSH2 0x371 JUMPI PUSH0 DUP1 REVERT JUMPDEST POP PUSH2 0x38C PUSH1 0x4 DUP1 CALLDATASIZE SUB DUP2 ADD SWAP1 PUSH2 0x387 SWAP2 SWAP1 PUSH2 0x29BC JUMP JUMPDEST PUSH2 0xAA8 JUMP JUMPDEST STOP JUMPDEST CALLVALUE DUP1 ISZERO PUSH2 0x399 JUMPI PUSH0 DUP1 REVERT JUMPDEST POP PUSH2 0x3B4 PUSH1 0x4 DUP1 CALLDATASIZE SUB DUP2 ADD SWAP1 PUSH2 0x3AF SWAP2 SWAP1 PUSH2 0x28B1 JUMP JUMPDEST PUSH2 0xAE7 JUMP JUMPDEST PUSH1 0x40 MLOAD PUSH2 0x3C1 SWAP2 SWAP1 PUSH2 0x28FE JUMP JUMPDEST PUSH1 0x40 MLOAD DUP1 SWAP2 SUB SWAP1 RETURN JUMPDEST CALLVALUE DUP1 ISZERO PUSH2 0x3D5 JUMPI PUSH0 DUP1 REVERT JUMPDEST POP PUSH2 0x3DE PUSH2 0xB8B JUMP JUMPDEST STOP JUMPDEST CALLVALUE DUP1 ISZERO PUSH2 0x3EB JUMPI PUSH0 DUP1 REVERT JUMPDEST POP PUSH2 0x406 PUSH1 0x4 DUP1 CALLDATASIZE SUB DUP2 ADD SWAP1 PUSH2 0x401 SWAP2 SWAP1 PUSH2 0x2917 JUMP JUMPDEST PUSH2 0xB9D JUMP JUMPDEST STOP JUMPDEST CALLVALUE DUP1 ISZERO PUSH2 0x413 JUMPI PUSH0 DUP1 REVERT JUMPDEST POP PUSH2 0x42E PUSH1 0x4 DUP1 CALLDATASIZE SUB DUP2 ADD SWAP1 PUSH2 0x429 SWAP2 SWAP1 PUSH2 0x2804 JUMP JUMPDEST PUSH2 0xBBC JUMP JUMPDEST PUSH1 0x40 MLOAD PUSH2 0x43B SWAP2 SWAP1 PUSH2 0x28FE JUMP JUMPDEST PUSH1 0x40 MLOAD DUP1 SWAP2 SUB SWAP1 RETURN JUMPDEST CALLVALUE DUP1 ISZERO PUSH2 0x44F JUMPI PUSH0 DUP1 REVERT JUMPDEST POP PUSH2 0x46A PUSH1 0x4 DUP1 CALLDATASIZE SUB DUP2 ADD SWAP1 PUSH2 0x465 SWAP2 SWAP1 PUSH2 0x2967 JUMP JUMPDEST PUSH2 0xC2E JUMP JUMPDEST STOP JUMPDEST CALLVALUE DUP1 ISZERO PUSH2 0x477 JUMPI PUSH0 DUP1 REVERT JUMPDEST POP PUSH2 0x480 PUSH2 0xC82 JUMP JUMPDEST PUSH1 0x40 MLOAD PUSH2 0x48D SWAP2 SWAP1 PUSH2 0x270E JUMP JUMPDEST PUSH1 0x40 MLOAD DUP1 SWAP2 SUB SWAP1 RETURN JUMPDEST CALLVALUE DUP1 ISZERO PUSH2 0x4A1 JUMPI PUSH0 DUP1 REVERT JUMPDEST POP PUSH2 0x4BC PUSH1 0x4 DUP1 CALLDATASIZE SUB DUP2 ADD SWAP1 PUSH2 0x4B7 SWAP2 SWAP1 PUSH2 0x2804 JUMP JUMPDEST PUSH2 0xC97 JUMP JUMPDEST PUSH1 0x40 MLOAD PUSH2 0x4C9 SWAP2 SWAP1 PUSH2 0x286E JUMP JUMPDEST PUSH1 0x40 MLOAD DUP1 SWAP2 SUB SWAP1 RETURN JUMPDEST CALLVALUE DUP1 ISZERO PUSH2 0x4DD JUMPI PUSH0 DUP1 REVERT JUMPDEST POP PUSH2 0x4F8 PUSH1 0x4 DUP1 CALLDATASIZE SUB DUP2 ADD SWAP1 PUSH2 0x4F3 SWAP2 SWAP1 PUSH2 0x2A5B JUMP JUMPDEST PUSH2 0xCA8 JUMP JUMPDEST STOP JUMPDEST CALLVALUE DUP1 ISZERO PUSH2 0x505 JUMPI PUSH0 DUP1 REVERT JUMPDEST POP PUSH2 0x520 PUSH1 0x4 DUP1 CALLDATASIZE SUB DUP2 ADD SWAP1 PUSH2 0x51B SWAP2 SWAP1 PUSH2 0x2967 JUMP JUMPDEST PUSH2 0xD51 JUMP JUMPDEST PUSH1 0x40 MLOAD PUSH2 0x52D SWAP2 SWAP1 PUSH2 0x28FE JUMP JUMPDEST PUSH1 0x40 MLOAD DUP1 SWAP2 SUB SWAP1 RETURN JUMPDEST CALLVALUE DUP1 ISZERO PUSH2 0x541 JUMPI PUSH0 DUP1 REVERT JUMPDEST POP PUSH2 0x54A PUSH2 0xE07 JUMP JUMPDEST STOP JUMPDEST CALLVALUE DUP1 ISZERO PUSH2 0x557 JUMPI PUSH0 DUP1 REVERT JUMPDEST POP PUSH2 0x560 PUSH2 0xE1A JUMP JUMPDEST STOP JUMPDEST CALLVALUE DUP1 ISZERO PUSH2 0x56D JUMPI PUSH0 DUP1 REVERT JUMPDEST POP PUSH2 0x576 PUSH2 0xE2C JUMP JUMPDEST PUSH1 0x40 MLOAD PUSH2 0x583 SWAP2 SWAP1 PUSH2 0x286E JUMP JUMPDEST PUSH1 0x40 MLOAD DUP1 SWAP2 SUB SWAP1 RETURN JUMPDEST CALLVALUE DUP1 ISZERO PUSH2 0x597 JUMPI PUSH0 DUP1 REVERT JUMPDEST POP PUSH2 0x5A0 PUSH2 0xE55 JUMP JUMPDEST PUSH1 0x40 MLOAD PUSH2 0x5AD SWAP2 SWAP1 PUSH2 0x27B1 JUMP JUMPDEST PUSH1 0x40 MLOAD DUP1 SWAP2 SUB SWAP1 RETURN JUMPDEST CALLVALUE DUP1 ISZERO PUSH2 0x5C1 JUMPI PUSH0 DUP1 REVERT JUMPDEST POP PUSH2 0x5DC PUSH1 0x4 DUP1 CALLDATASIZE SUB DUP2 ADD SWAP1 PUSH2 0x5D7 SWAP2 SWAP1 PUSH2 0x2AA6 JUMP JUMPDEST PUSH2 0xEE5 JUMP JUMPDEST STOP JUMPDEST CALLVALUE DUP1 ISZERO PUSH2 0x5E9 JUMPI PUSH0 DUP1 REVERT JUMPDEST POP PUSH2 0x604 PUSH1 0x4 DUP1 CALLDATASIZE SUB DUP2 ADD SWAP1 PUSH2 0x5FF SWAP2 SWAP1 PUSH2 0x2C0C JUMP JUMPDEST PUSH2 0xEFB JUMP JUMPDEST STOP JUMPDEST CALLVALUE DUP1 ISZERO PUSH2 0x611 JUMPI PUSH0 DUP1 REVERT JUMPDEST POP PUSH2 0x61A PUSH2 0xF18 JUMP JUMPDEST PUSH1 0x40 MLOAD PUSH2 0x627 SWAP2 SWAP1 PUSH2 0x270E JUMP JUMPDEST PUSH1 0x40 MLOAD DUP1 SWAP2 SUB SWAP1 RETURN JUMPDEST CALLVALUE DUP1 ISZERO PUSH2 0x63B JUMPI PUSH0 DUP1 REVERT JUMPDEST POP PUSH2 0x656 PUSH1 0x4 DUP1 CALLDATASIZE SUB DUP2 ADD SWAP1 PUSH2 0x651 SWAP2 SWAP1 PUSH2 0x2804 JUMP JUMPDEST PUSH2 0xF2A JUMP JUMPDEST PUSH1 0x40 MLOAD PUSH2 0x663 SWAP2 SWAP1 PUSH2 0x27B1 JUMP JUMPDEST PUSH1 0x40 MLOAD DUP1 SWAP2 SUB SWAP1 RETURN JUMPDEST CALLVALUE DUP1 ISZERO PUSH2 0x677 JUMPI PUSH0 DUP1 REVERT JUMPDEST POP PUSH2 0x692 PUSH1 0x4 DUP1 CALLDATASIZE SUB DUP2 ADD SWAP1 PUSH2 0x68D SWAP2 SWAP1 PUSH2 0x2C8C JUMP JUMPDEST PUSH2 0xF90 JUMP JUMPDEST PUSH1 0x40 MLOAD PUSH2 0x69F SWAP2 SWAP1 PUSH2 0x270E JUMP JUMPDEST PUSH1 0x40 MLOAD DUP1 SWAP2 SUB SWAP1 RETURN JUMPDEST CALLVALUE DUP1 ISZERO PUSH2 0x6B3 JUMPI PUSH0 DUP1 REVERT JUMPDEST POP PUSH2 0x6CE PUSH1 0x4 DUP1 CALLDATASIZE SUB DUP2 ADD SWAP1 PUSH2 0x6C9 SWAP2 SWAP1 PUSH2 0x2967 JUMP JUMPDEST PUSH2 0x101E JUMP JUMPDEST STOP JUMPDEST PUSH0 PUSH2 0x6DA DUP3 PUSH2 0x10A2 JUMP JUMPDEST SWAP1 POP SWAP2 SWAP1 POP JUMP JUMPDEST PUSH1 0x60 PUSH0 DUP1 SLOAD PUSH2 0x6EF SWAP1 PUSH2 0x2CF7 JUMP JUMPDEST DUP1 PUSH1 0x1F ADD PUSH1 0x20 DUP1 SWAP2 DIV MUL PUSH1 0x20 ADD PUSH1 0x40 MLOAD SWAP1 DUP2 ADD PUSH1 0x40 MSTORE DUP1 SWAP3 SWAP2 SWAP1 DUP2 DUP2 MSTORE PUSH1 0x20 ADD DUP3 DUP1 SLOAD PUSH2 0x71B SWAP1 PUSH2 0x2CF7 JUMP JUMPDEST DUP1 ISZERO PUSH2 0x766 JUMPI DUP1 PUSH1 0x1F LT PUSH2 0x73D JUMPI PUSH2 0x100 DUP1 DUP4 SLOAD DIV MUL DUP4 MSTORE SWAP2 PUSH1 0x20 ADD SWAP2 PUSH2 0x766 JUMP JUMPDEST DUP3 ADD SWAP2 SWAP1 PUSH0 MSTORE PUSH1 0x20 PUSH0 KECCAK256 SWAP1 JUMPDEST DUP2 SLOAD DUP2 MSTORE SWAP1 PUSH1 0x1 ADD SWAP1 PUSH1 0x20 ADD DUP1 DUP4 GT PUSH2 0x749 JUMPI DUP3 SWAP1 SUB PUSH1 0x1F AND DUP3 ADD SWAP2 JUMPDEST POP POP POP POP POP SWAP1 POP SWAP1 JUMP JUMPDEST PUSH0 PUSH2 0x77A DUP3 PUSH2 0x111B JUMP JUMPDEST POP PUSH2 0x784 DUP3 PUSH2 0x11A1 JUMP JUMPDEST SWAP1 POP SWAP2 SWAP1 POP JUMP JUMPDEST PUSH1 0xD PUSH1 0x1 SWAP1 SLOAD SWAP1 PUSH2 0x100 EXP SWAP1 DIV PUSH1 0xFF AND DUP2 JUMP JUMPDEST PUSH2 0x7B0 DUP3 DUP3 PUSH2 0x7AB PUSH2 0x11DA JUMP JUMPDEST PUSH2 0x11E1 JUMP JUMPDEST POP POP JUMP JUMPDEST PUSH1 0xD PUSH1 0x1 SWAP1 SLOAD SWAP1 PUSH2 0x100 EXP SWAP1 DIV PUSH1 0xFF AND PUSH2 0x803 JUMPI PUSH1 0x40 MLOAD PUSH32 0x8C379A000000000000000000000000000000000000000000000000000000000 DUP2 MSTORE PUSH1 0x4 ADD PUSH2 0x7FA SWAP1 PUSH2 0x2D71 JUMP JUMPDEST PUSH1 0x40 MLOAD DUP1 SWAP2 SUB SWAP1 REVERT JUMPDEST PUSH1 0xE PUSH0 CALLER PUSH20 0xFFFFFFFFFFFFFFFFFFFFFFFFFFFFFFFFFFFFFFFF AND PUSH20 0xFFFFFFFFFFFFFFFFFFFFFFFFFFFFFFFFFFFFFFFF AND DUP2 MSTORE PUSH1 0x20 ADD SWAP1 DUP2 MSTORE PUSH1 0x20 ADD PUSH0 KECCAK256 PUSH0 SWAP1 SLOAD SWAP1 PUSH2 0x100 EXP SWAP1 DIV PUSH1 0xFF AND PUSH2 0x88C JUMPI PUSH1 0x40 MLOAD PUSH32 0x8C379A000000000000000000000000000000000000000000000000000000000 DUP2 MSTORE PUSH1 0x4 ADD PUSH2 0x883 SWAP1 PUSH2 0x2DD9 JUMP JUMPDEST PUSH1 0x40 MLOAD DUP1 SWAP2 SUB SWAP1 REVERT JUMPDEST PUSH7 0x38D7EA4C68000 CALLVALUE EQ PUSH2 0x8D5 JUMPI PUSH1 0x40 MLOAD PUSH32 0x8C379A000000000000000000000000000000000000000000000000000000000 DUP2 MSTORE PUSH1 0x4 ADD PUSH2 0x8CC SWAP1 PUSH2 0x2E41 JUMP JUMPDEST PUSH1 0x40 MLOAD DUP1 SWAP2 SUB SWAP1 REVERT JUMPDEST PUSH2 0x8DD PUSH2 0x11F3 JUMP JUMPDEST JUMP JUMPDEST PUSH0 PUSH1 0x8 DUP1 SLOAD SWAP1 POP SWAP1 POP SWAP1 JUMP JUMPDEST PUSH0 PUSH20 0xFFFFFFFFFFFFFFFFFFFFFFFFFFFFFFFFFFFFFFFF AND DUP3 PUSH20 0xFFFFFFFFFFFFFFFFFFFFFFFFFFFFFFFFFFFFFFFF AND SUB PUSH2 0x95B JUMPI PUSH0 PUSH1 0x40 MLOAD PUSH32 0x64A0AE9200000000000000000000000000000000000000000000000000000000 DUP2 MSTORE PUSH1 0x4 ADD PUSH2 0x952 SWAP2 SWAP1 PUSH2 0x286E JUMP JUMPDEST PUSH1 0x40 MLOAD DUP1 SWAP2 SUB SWAP1 REVERT JUMPDEST PUSH0 PUSH2 0x96E DUP4 DUP4 PUSH2 0x969 PUSH2 0x11DA JUMP JUMPDEST PUSH2 0x1264 JUMP JUMPDEST SWAP1 POP DUP4 PUSH20 0xFFFFFFFFFFFFFFFFFFFFFFFFFFFFFFFFFFFFFFFF AND DUP2 PUSH20 0xFFFFFFFFFFFFFFFFFFFFFFFFFFFFFFFFFFFFFFFF AND EQ PUSH2 0x9E4 JUMPI DUP4 DUP3 DUP3 PUSH1 0x40 MLOAD PUSH32 0x64283D7B00000000000000000000000000000000000000000000000000000000 DUP2 MSTORE PUSH1 0x4 ADD PUSH2 0x9DB SWAP4 SWAP3 SWAP2 SWAP1 PUSH2 0x2E5F JUMP JUMPDEST PUSH1 0x40 MLOAD DUP1 SWAP2 SUB SWAP1 REVERT JUMPDEST POP POP POP POP JUMP JUMPDEST PUSH1 0xD PUSH0 SWAP1 SLOAD SWAP1 PUSH2 0x100 EXP SWAP1 DIV PUSH1 0xFF AND PUSH2 0xA38 JUMPI PUSH1 0x40 MLOAD PUSH32 0x8C379A000000000000000000000000000000000000000000000000000000000 DUP2 MSTORE PUSH1 0x4 ADD PUSH2 0xA2F SWAP1 PUSH2 0x2EDE JUMP JUMPDEST PUSH1 0x40 MLOAD DUP1 SWAP2 SUB SWAP1 REVERT JUMPDEST PUSH7 0x2386F26FC10000 CALLVALUE EQ PUSH2 0xA81 JUMPI PUSH1 0x40 MLOAD PUSH32 0x8C379A000000000000000000000000000000000000000000000000000000000 DUP2 MSTORE PUSH1 0x4 ADD PUSH2 0xA78 SWAP1 PUSH2 0x2E41 JUMP JUMPDEST PUSH1 0x40 MLOAD DUP1 SWAP2 SUB SWAP1 REVERT JUMPDEST PUSH2 0xA89 PUSH2 0x11F3 JUMP JUMPDEST JUMP JUMPDEST PUSH1 0xE PUSH1 0x20 MSTORE DUP1 PUSH0 MSTORE PUSH1 0x40 PUSH0 KECCAK256 PUSH0 SWAP2 POP SLOAD SWAP1 PUSH2 0x100 EXP SWAP1 DIV PUSH1 0xFF AND DUP2 JUMP JUMPDEST PUSH2 0xAB0 PUSH2 0x1279 JUMP JUMPDEST DUP2 PUSH1 0xD PUSH0 PUSH2 0x100 EXP DUP2 SLOAD DUP2 PUSH1 0xFF MUL NOT AND SWAP1 DUP4 ISZERO ISZERO MUL OR SWAP1 SSTORE POP DUP1 PUSH1 0xD PUSH1 0x1 PUSH2 0x100 EXP DUP2 SLOAD DUP2 PUSH1 0xFF MUL NOT AND SWAP1 DUP4 ISZERO ISZERO MUL OR SWAP1 SSTORE POP POP POP JUMP JUMPDEST PUSH0 PUSH2 0xAF1 DUP4 PUSH2 0xD51 JUMP JUMPDEST DUP3 LT PUSH2 0xB36 JUMPI DUP3 DUP3 PUSH1 0x40 MLOAD PUSH32 0xA57D13DC00000000000000000000000000000000000000000000000000000000 DUP2 MSTORE PUSH1 0x4 ADD PUSH2 0xB2D SWAP3 SWAP2 SWAP1 PUSH2 0x2EFC JUMP JUMPDEST PUSH1 0x40 MLOAD DUP1 SWAP2 SUB SWAP1 REVERT JUMPDEST PUSH1 0x6 PUSH0 DUP5 PUSH20 0xFFFFFFFFFFFFFFFFFFFFFFFFFFFFFFFFFFFFFFFF AND PUSH20 0xFFFFFFFFFFFFFFFFFFFFFFFFFFFFFFFFFFFFFFFF AND DUP2 MSTORE PUSH1 0x20 ADD SWAP1 DUP2 MSTORE PUSH1 0x20 ADD PUSH0 KECCAK256 PUSH0 DUP4 DUP2 MSTORE PUSH1 0x20 ADD SWAP1 DUP2 MSTORE PUSH1 0x20 ADD PUSH0 KECCAK256 SLOAD SWAP1 POP SWAP3 SWAP2 POP POP JUMP JUMPDEST PUSH2 0xB93 PUSH2 0x1279 JUMP JUMPDEST PUSH2 0xB9B PUSH2 0x1300 JUMP JUMPDEST JUMP JUMPDEST PUSH2 0xBB7 DUP4 DUP4 DUP4 PUSH1 0x40 MLOAD DUP1 PUSH1 0x20 ADD PUSH1 0x40 MSTORE DUP1 PUSH0 DUP2 MSTORE POP PUSH2 0xEFB JUMP JUMPDEST POP POP POP JUMP JUMPDEST PUSH0 PUSH2 0xBC5 PUSH2 0x8DF JUMP JUMPDEST DUP3 LT PUSH2 0xC0A JUMPI PUSH0 DUP3 PUSH1 0x40 MLOAD PUSH32 0xA57D13DC00000000000000000000000000000000000000000000000000000000 DUP2 MSTORE PUSH1 0x4 ADD PUSH2 0xC01 SWAP3 SWAP2 SWAP1 PUSH2 0x2EFC JUMP JUMPDEST PUSH1 0x40 MLOAD DUP1 SWAP2 SUB SWAP1 REVERT JUMPDEST PUSH1 0x8 DUP3 DUP2 SLOAD DUP2 LT PUSH2 0xC1E JUMPI PUSH2 0xC1D PUSH2 0x2F23 JUMP JUMPDEST JUMPDEST SWAP1 PUSH0 MSTORE PUSH1 0x20 PUSH0 KECCAK256 ADD SLOAD SWAP1 POP SWAP2 SWAP1 POP JUMP JUMPDEST PUSH2 0xC36 PUSH2 0x1279 JUMP JUMPDEST PUSH0 SELFBALANCE SWAP1 POP DUP2 PUSH20 0xFFFFFFFFFFFFFFFFFFFFFFFFFFFFFFFFFFFFFFFF AND PUSH2 0x8FC DUP3 SWAP1 DUP2 ISZERO MUL SWAP1 PUSH1 0x40 MLOAD PUSH0 PUSH1 0x40 MLOAD DUP1 DUP4 SUB DUP2 DUP6 DUP9 DUP9 CALL SWAP4 POP POP POP POP ISZERO DUP1 ISZERO PUSH2 0xC7D JUMPI RETURNDATASIZE PUSH0 DUP1 RETURNDATACOPY RETURNDATASIZE PUSH0 REVERT JUMPDEST POP POP POP JUMP JUMPDEST PUSH0 PUSH1 0xA PUSH0 SWAP1 SLOAD SWAP1 PUSH2 0x100 EXP SWAP1 DIV PUSH1 0xFF AND SWAP1 POP SWAP1 JUMP JUMPDEST PUSH0 PUSH2 0xCA1 DUP3 PUSH2 0x111B JUMP JUMPDEST SWAP1 POP SWAP2 SWAP1 POP JUMP JUMPDEST PUSH2 0xCB0 PUSH2 0x1279 JUMP JUMPDEST PUSH0 JUMPDEST DUP3 DUP3 SWAP1 POP DUP2 LT ISZERO PUSH2 0xD4C JUMPI PUSH1 0x1 PUSH1 0xE PUSH0 DUP6 DUP6 DUP6 DUP2 DUP2 LT PUSH2 0xCD5 JUMPI PUSH2 0xCD4 PUSH2 0x2F23 JUMP JUMPDEST JUMPDEST SWAP1 POP PUSH1 0x20 MUL ADD PUSH1 0x20 DUP2 ADD SWAP1 PUSH2 0xCEA SWAP2 SWAP1 PUSH2 0x2967 JUMP JUMPDEST PUSH20 0xFFFFFFFFFFFFFFFFFFFFFFFFFFFFFFFFFFFFFFFF AND PUSH20 0xFFFFFFFFFFFFFFFFFFFFFFFFFFFFFFFFFFFFFFFF AND DUP2 MSTORE PUSH1 0x20 ADD SWAP1 DUP2 MSTORE PUSH1 0x20 ADD PUSH0 KECCAK256 PUSH0 PUSH2 0x100 EXP DUP2 SLOAD DUP2 PUSH1 0xFF MUL NOT AND SWAP1 DUP4 ISZERO ISZERO MUL OR SWAP1 SSTORE POP DUP1 DUP1 PUSH2 0xD44 SWAP1 PUSH2 0x2F7D JUMP JUMPDEST SWAP2 POP POP PUSH2 0xCB2 JUMP JUMPDEST POP POP POP JUMP JUMPDEST PUSH0 DUP1 PUSH20 0xFFFFFFFFFFFFFFFFFFFFFFFFFFFFFFFFFFFFFFFF AND DUP3 PUSH20 0xFFFFFFFFFFFFFFFFFFFFFFFFFFFFFFFFFFFFFFFF AND SUB PUSH2 0xDC2 JUMPI PUSH0 PUSH1 0x40 MLOAD PUSH32 0x89C62B6400000000000000000000000000000000000000000000000000000000 DUP2 MSTORE PUSH1 0x4 ADD PUSH2 0xDB9 SWAP2 SWAP1 PUSH2 0x286E JUMP JUMPDEST PUSH1 0x40 MLOAD DUP1 SWAP2 SUB SWAP1 REVERT JUMPDEST PUSH1 0x3 PUSH0 DUP4 PUSH20 0xFFFFFFFFFFFFFFFFFFFFFFFFFFFFFFFFFFFFFFFF AND PUSH20 0xFFFFFFFFFFFFFFFFFFFFFFFFFFFFFFFFFFFFFFFF AND DUP2 MSTORE PUSH1 0x20 ADD SWAP1 DUP2 MSTORE PUSH1 0x20 ADD PUSH0 KECCAK256 SLOAD SWAP1 POP SWAP2 SWAP1 POP JUMP JUMPDEST PUSH2 0xE0F PUSH2 0x1279 JUMP JUMPDEST PUSH2 0xE18 PUSH0 PUSH2 0x1361 JUMP JUMPDEST JUMP JUMPDEST PUSH2 0xE22 PUSH2 0x1279 JUMP JUMPDEST PUSH2 0xE2A PUSH2 0x1426 JUMP JUMPDEST JUMP JUMPDEST PUSH0 PUSH1 0xA PUSH1 0x1 SWAP1 SLOAD SWAP1 PUSH2 0x100 EXP SWAP1 DIV PUSH20 0xFFFFFFFFFFFFFFFFFFFFFFFFFFFFFFFFFFFFFFFF AND SWAP1 POP SWAP1 JUMP JUMPDEST PUSH1 0x60 PUSH1 0x1 DUP1 SLOAD PUSH2 0xE64 SWAP1 PUSH2 0x2CF7 JUMP JUMPDEST DUP1 PUSH1 0x1F ADD PUSH1 0x20 DUP1 SWAP2 DIV MUL PUSH1 0x20 ADD PUSH1 0x40 MLOAD SWAP1 DUP2 ADD PUSH1 0x40 MSTORE DUP1 SWAP3 SWAP2 SWAP1 DUP2 DUP2 MSTORE PUSH1 0x20 ADD DUP3 DUP1 SLOAD PUSH2 0xE90 SWAP1 PUSH2 0x2CF7 JUMP JUMPDEST DUP1 ISZERO PUSH2 0xEDB JUMPI DUP1 PUSH1 0x1F LT PUSH2 0xEB2 JUMPI PUSH2 0x100 DUP1 DUP4 SLOAD DIV MUL DUP4 MSTORE SWAP2 PUSH1 0x20 ADD SWAP2 PUSH2 0xEDB JUMP JUMPDEST DUP3 ADD SWAP2 SWAP1 PUSH0 MSTORE PUSH1 0x20 PUSH0 KECCAK256 SWAP1 JUMPDEST DUP2 SLOAD DUP2 MSTORE SWAP1 PUSH1 0x1 ADD SWAP1 PUSH1 0x20 ADD DUP1 DUP4 GT PUSH2 0xEBE JUMPI DUP3 SWAP1 SUB PUSH1 0x1F AND DUP3 ADD SWAP2 JUMPDEST POP POP POP POP POP SWAP1 POP SWAP1 JUMP JUMPDEST PUSH2 0xEF7 PUSH2 0xEF0 PUSH2 0x11DA JUMP JUMPDEST DUP4 DUP4 PUSH2 0x1488 JUMP JUMPDEST POP POP JUMP JUMPDEST PUSH2 0xF06 DUP5 DUP5 DUP5 PUSH2 0x8EB JUMP JUMPDEST PUSH2 0xF12 DUP5 DUP5 DUP5 DUP5 PUSH2 0x15F1 JUMP JUMPDEST POP POP POP POP JUMP JUMPDEST PUSH1 0xD PUSH0 SWAP1 SLOAD SWAP1 PUSH2 0x100 EXP SWAP1 DIV PUSH1 0xFF AND DUP2 JUMP JUMPDEST PUSH1 0x60 PUSH2 0xF35 DUP3 PUSH2 0x111B JUMP JUMPDEST POP PUSH0 PUSH2 0xF3F PUSH2 0x17A3 JUMP JUMPDEST SWAP1 POP PUSH0 DUP2 MLOAD GT PUSH2 0xF5D JUMPI PUSH1 0x40 MLOAD DUP1 PUSH1 0x20 ADD PUSH1 0x40 MSTORE DUP1 PUSH0 DUP2 MSTORE POP PUSH2 0xF88 JUMP JUMPDEST DUP1 PUSH2 0xF67 DUP5 PUSH2 0x17C3 JUMP JUMPDEST PUSH1 0x40 MLOAD PUSH1 0x20 ADD PUSH2 0xF78 SWAP3 SWAP2 SWAP1 PUSH2 0x2FFE JUMP JUMPDEST PUSH1 0x40 MLOAD PUSH1 0x20 DUP2 DUP4 SUB SUB DUP2 MSTORE SWAP1 PUSH1 0x40 MSTORE JUMPDEST SWAP2 POP POP SWAP2 SWAP1 POP JUMP JUMPDEST PUSH0 PUSH1 0x5 PUSH0 DUP5 PUSH20 0xFFFFFFFFFFFFFFFFFFFFFFFFFFFFFFFFFFFFFFFF AND PUSH20 0xFFFFFFFFFFFFFFFFFFFFFFFFFFFFFFFFFFFFFFFF AND DUP2 MSTORE PUSH1 0x20 ADD SWAP1 DUP2 MSTORE PUSH1 0x20 ADD PUSH0 KECCAK256 PUSH0 DUP4 PUSH20 0xFFFFFFFFFFFFFFFFFFFFFFFFFFFFFFFFFFFFFFFF AND PUSH20 0xFFFFFFFFFFFFFFFFFFFFFFFFFFFFFFFFFFFFFFFF AND DUP2 MSTORE PUSH1 0x20 ADD SWAP1 DUP2 MSTORE PUSH1 0x20 ADD PUSH0 KECCAK256 PUSH0 SWAP1 SLOAD SWAP1 PUSH2 0x100 EXP SWAP1 DIV PUSH1 0xFF AND SWAP1 POP SWAP3 SWAP2 POP POP JUMP JUMPDEST PUSH2 0x1026 PUSH2 0x1279 JUMP JUMPDEST PUSH0 PUSH20 0xFFFFFFFFFFFFFFFFFFFFFFFFFFFFFFFFFFFFFFFF AND DUP2 PUSH20 0xFFFFFFFFFFFFFFFFFFFFFFFFFFFFFFFFFFFFFFFF AND SUB PUSH2 0x1096 JUMPI PUSH0 PUSH1 0x40 MLOAD PUSH32 0x1E4FBDF700000000000000000000000000000000000000000000000000000000 DUP2 MSTORE PUSH1 0x4 ADD PUSH2 0x108D SWAP2 SWAP1 PUSH2 0x286E JUMP JUMPDEST PUSH1 0x40 MLOAD DUP1 SWAP2 SUB SWAP1 REVERT JUMPDEST PUSH2 0x109F DUP2 PUSH2 0x1361 JUMP JUMPDEST POP JUMP JUMPDEST PUSH0 PUSH32 0x780E9D6300000000000000000000000000000000000000000000000000000000 PUSH28 0xFFFFFFFFFFFFFFFFFFFFFFFFFFFFFFFFFFFFFFFFFFFFFFFFFFFFFFFF NOT AND DUP3 PUSH28 0xFFFFFFFFFFFFFFFFFFFFFFFFFFFFFFFFFFFFFFFFFFFFFFFFFFFFFFFF NOT AND EQ DUP1 PUSH2 0x1114 JUMPI POP PUSH2 0x1113 DUP3 PUSH2 0x188D JUMP JUMPDEST JUMPDEST SWAP1 POP SWAP2 SWAP1 POP JUMP JUMPDEST PUSH0 DUP1 PUSH2 0x1126 DUP4 PUSH2 0x196E JUMP JUMPDEST SWAP1 POP PUSH0 PUSH20 0xFFFFFFFFFFFFFFFFFFFFFFFFFFFFFFFFFFFFFFFF AND DUP2 PUSH20 0xFFFFFFFFFFFFFFFFFFFFFFFFFFFFFFFFFFFFFFFF AND SUB PUSH2 0x1198 JUMPI DUP3 PUSH1 0x40 MLOAD PUSH32 0x7E27328900000000000000000000000000000000000000000000000000000000 DUP2 MSTORE PUSH1 0x4 ADD PUSH2 0x118F SWAP2 SWAP1 PUSH2 0x28FE JUMP JUMPDEST PUSH1 0x40 MLOAD DUP1 SWAP2 SUB SWAP1 REVERT JUMPDEST DUP1 SWAP2 POP POP SWAP2 SWAP1 POP JUMP JUMPDEST PUSH0 PUSH1 0x4 PUSH0 DUP4 DUP2 MSTORE PUSH1 0x20 ADD SWAP1 DUP2 MSTORE PUSH1 0x20 ADD PUSH0 KECCAK256 PUSH0 SWAP1 SLOAD SWAP1 PUSH2 0x100 EXP SWAP1 DIV PUSH20 0xFFFFFFFFFFFFFFFFFFFFFFFFFFFFFFFFFFFFFFFF AND SWAP1 POP SWAP2 SWAP1 POP JUMP JUMPDEST PUSH0 CALLER SWAP1 POP SWAP1 JUMP JUMPDEST PUSH2 0x11EE DUP4 DUP4 DUP4 PUSH1 0x1 PUSH2 0x19A7 JUMP JUMPDEST POP POP POP JUMP JUMPDEST PUSH1 0xC SLOAD PUSH2 0x11FE PUSH2 0x8DF JUMP JUMPDEST LT PUSH2 0x123E JUMPI PUSH1 0x40 MLOAD PUSH32 0x8C379A000000000000000000000000000000000000000000000000000000000 DUP2 MSTORE PUSH1 0x4 ADD PUSH2 0x1235 SWAP1 PUSH2 0x306B JUMP JUMPDEST PUSH1 0x40 MLOAD DUP1 SWAP2 SUB SWAP1 REVERT JUMPDEST PUSH0 PUSH1 0xB PUSH0 DUP2 SLOAD DUP1 SWAP3 SWAP2 SWAP1 PUSH2 0x1251 SWAP1 PUSH2 0x2F7D JUMP JUMPDEST SWAP2 SWAP1 POP SSTORE SWAP1 POP PUSH2 0x1261 CALLER DUP3 PUSH2 0x1B66 JUMP JUMPDEST POP JUMP JUMPDEST PUSH0 PUSH2 0x1270 DUP5 DUP5 DUP5 PUSH2 0x1B83 JUMP JUMPDEST SWAP1 POP SWAP4 SWAP3 POP POP POP JUMP JUMPDEST PUSH2 0x1281 PUSH2 0x11DA JUMP JUMPDEST PUSH20 0xFFFFFFFFFFFFFFFFFFFFFFFFFFFFFFFFFFFFFFFF AND PUSH2 0x129F PUSH2 0xE2C JUMP JUMPDEST PUSH20 0xFFFFFFFFFFFFFFFFFFFFFFFFFFFFFFFFFFFFFFFF AND EQ PUSH2 0x12FE JUMPI PUSH2 0x12C2 PUSH2 0x11DA JUMP JUMPDEST PUSH1 0x40 MLOAD PUSH32 0x118CDAA700000000000000000000000000000000000000000000000000000000 DUP2 MSTORE PUSH1 0x4 ADD PUSH2 0x12F5 SWAP2 SWAP1 PUSH2 0x286E JUMP JUMPDEST PUSH1 0x40 MLOAD DUP1 SWAP2 SUB SWAP1 REVERT JUMPDEST JUMP JUMPDEST PUSH2 0x1308 PUSH2 0x1BA0 JUMP JUMPDEST PUSH0 PUSH1 0xA PUSH0 PUSH2 0x100 EXP DUP2 SLOAD DUP2 PUSH1 0xFF MUL NOT AND SWAP1 DUP4 ISZERO ISZERO MUL OR SWAP1 SSTORE POP PUSH32 0x5DB9EE0A495BF2E6FF9C91A7834C1BA4FDD244A5E8AA4E537BD38AEAE4B073AA PUSH2 0x134A PUSH2 0x11DA JUMP JUMPDEST PUSH1 0x40 MLOAD PUSH2 0x1357 SWAP2 SWAP1 PUSH2 0x286E JUMP JUMPDEST PUSH1 0x40 MLOAD DUP1 SWAP2 SUB SWAP1 LOG1 JUMP JUMPDEST PUSH0 PUSH1 0xA PUSH1 0x1 SWAP1 SLOAD SWAP1 PUSH2 0x100 EXP SWAP1 DIV PUSH20 0xFFFFFFFFFFFFFFFFFFFFFFFFFFFFFFFFFFFFFFFF AND SWAP1 POP DUP2 PUSH1 0xA PUSH1 0x1 PUSH2 0x100 EXP DUP2 SLOAD DUP2 PUSH20 0xFFFFFFFFFFFFFFFFFFFFFFFFFFFFFFFFFFFFFFFF MUL NOT AND SWAP1 DUP4 PUSH20 0xFFFFFFFFFFFFFFFFFFFFFFFFFFFFFFFFFFFFFFFF AND MUL OR SWAP1 SSTORE POP DUP2 PUSH20 0xFFFFFFFFFFFFFFFFFFFFFFFFFFFFFFFFFFFFFFFF AND DUP2 PUSH20 0xFFFFFFFFFFFFFFFFFFFFFFFFFFFFFFFFFFFFFFFF AND PUSH32 0x8BE0079C531659141344CD1FD0A4F28419497F9722A3DAAFE3B4186F6B6457E0 PUSH1 0x40 MLOAD PUSH1 0x40 MLOAD DUP1 SWAP2 SUB SWAP1 LOG3 POP POP JUMP JUMPDEST PUSH2 0x142E PUSH2 0x1BE0 JUMP JUMPDEST PUSH1 0x1 PUSH1 0xA PUSH0 PUSH2 0x100 EXP DUP2 SLOAD DUP2 PUSH1 0xFF MUL NOT AND SWAP1 DUP4 ISZERO ISZERO MUL OR SWAP1 SSTORE POP PUSH32 0x62E78CEA01BEE320CD4E420270B5EA74000D11B0C9F74754EBDBFC544B05A258 PUSH2 0x1471 PUSH2 0x11DA JUMP JUMPDEST PUSH1 0x40 MLOAD PUSH2 0x147E SWAP2 SWAP1 PUSH2 0x286E JUMP JUMPDEST PUSH1 0x40 MLOAD DUP1 SWAP2 SUB SWAP1 LOG1 JUMP JUMPDEST PUSH0 PUSH20 0xFFFFFFFFFFFFFFFFFFFFFFFFFFFFFFFFFFFFFFFF AND DUP3 PUSH20 0xFFFFFFFFFFFFFFFFFFFFFFFFFFFFFFFFFFFFFFFF AND SUB PUSH2 0x14F8 JUMPI DUP2 PUSH1 0x40 MLOAD PUSH32 0x5B08BA1800000000000000000000000000000000000000000000000000000000 DUP2 MSTORE PUSH1 0x4 ADD PUSH2 0x14EF SWAP2 SWAP1 PUSH2 0x286E JUMP JUMPDEST PUSH1 0x40 MLOAD DUP1 SWAP2 SUB SWAP1 REVERT JUMPDEST DUP1 PUSH1 0x5 PUSH0 DUP6 PUSH20 0xFFFFFFFFFFFFFFFFFFFFFFFFFFFFFFFFFFFFFFFF AND PUSH20 0xFFFFFFFFFFFFFFFFFFFFFFFFFFFFFFFFFFFFFFFF AND DUP2 MSTORE PUSH1 0x20 ADD SWAP1 DUP2 MSTORE PUSH1 0x20 ADD PUSH0 KECCAK256 PUSH0 DUP5 PUSH20 0xFFFFFFFFFFFFFFFFFFFFFFFFFFFFFFFFFFFFFFFF AND PUSH20 0xFFFFFFFFFFFFFFFFFFFFFFFFFFFFFFFFFFFFFFFF AND DUP2 MSTORE PUSH1 0x20 ADD SWAP1 DUP2 MSTORE PUSH1 0x20 ADD PUSH0 KECCAK256 PUSH0 PUSH2 0x100 EXP DUP2 SLOAD DUP2 PUSH1 0xFF MUL NOT AND SWAP1 DUP4 ISZERO ISZERO MUL OR SWAP1 SSTORE POP DUP2 PUSH20 0xFFFFFFFFFFFFFFFFFFFFFFFFFFFFFFFFFFFFFFFF AND DUP4 PUSH20 0xFFFFFFFFFFFFFFFFFFFFFFFFFFFFFFFFFFFFFFFF AND PUSH32 0x17307EAB39AB6107E8899845AD3D59BD9653F200F220920489CA2B5937696C31 DUP4 PUSH1 0x40 MLOAD PUSH2 0x15E4 SWAP2 SWAP1 PUSH2 0x270E JUMP JUMPDEST PUSH1 0x40 MLOAD DUP1 SWAP2 SUB SWAP1 LOG3 POP POP POP JUMP JUMPDEST PUSH0 DUP4 PUSH20 0xFFFFFFFFFFFFFFFFFFFFFFFFFFFFFFFFFFFFFFFF AND EXTCODESIZE GT ISZERO PUSH2 0x179D JUMPI DUP3 PUSH20 0xFFFFFFFFFFFFFFFFFFFFFFFFFFFFFFFFFFFFFFFF AND PUSH4 0x150B7A02 PUSH2 0x1634 PUSH2 0x11DA JUMP JUMPDEST DUP7 DUP6 DUP6 PUSH1 0x40 MLOAD DUP6 PUSH4 0xFFFFFFFF AND PUSH1 0xE0 SHL DUP2 MSTORE PUSH1 0x4 ADD PUSH2 0x1656 SWAP5 SWAP4 SWAP3 SWAP2 SWAP1 PUSH2 0x30DB JUMP JUMPDEST PUSH1 0x20 PUSH1 0x40 MLOAD DUP1 DUP4 SUB DUP2 PUSH0 DUP8 GAS CALL SWAP3 POP POP POP DUP1 ISZERO PUSH2 0x1691 JUMPI POP PUSH1 0x40 MLOAD RETURNDATASIZE PUSH1 0x1F NOT PUSH1 0x1F DUP3 ADD AND DUP3 ADD DUP1 PUSH1 0x40 MSTORE POP DUP2 ADD SWAP1 PUSH2 0x168E SWAP2 SWAP1 PUSH2 0x3139 JUMP JUMPDEST PUSH1 0x1 JUMPDEST PUSH2 0x1712 JUMPI RETURNDATASIZE DUP1 PUSH0 DUP2 EQ PUSH2 0x16BF JUMPI PUSH1 0x40 MLOAD SWAP2 POP PUSH1 0x1F NOT PUSH1 0x3F RETURNDATASIZE ADD AND DUP3 ADD PUSH1 0x40 MSTORE RETURNDATASIZE DUP3 MSTORE RETURNDATASIZE PUSH0 PUSH1 0x20 DUP5 ADD RETURNDATACOPY PUSH2 0x16C4 JUMP JUMPDEST PUSH1 0x60 SWAP2 POP JUMPDEST POP PUSH0 DUP2 MLOAD SUB PUSH2 0x170A JUMPI DUP4 PUSH1 0x40 MLOAD PUSH32 0x64A0AE9200000000000000000000000000000000000000000000000000000000 DUP2 MSTORE PUSH1 0x4 ADD PUSH2 0x1701 SWAP2 SWAP1 PUSH2 0x286E JUMP JUMPDEST PUSH1 0x40 MLOAD DUP1 SWAP2 SUB SWAP1 REVERT JUMPDEST DUP1 MLOAD DUP2 PUSH1 0x20 ADD REVERT JUMPDEST PUSH4 0x150B7A02 PUSH1 0xE0 SHL PUSH28 0xFFFFFFFFFFFFFFFFFFFFFFFFFFFFFFFFFFFFFFFFFFFFFFFFFFFFFFFF NOT AND DUP2 PUSH28 0xFFFFFFFFFFFFFFFFFFFFFFFFFFFFFFFFFFFFFFFFFFFFFFFFFFFFFFFF NOT AND EQ PUSH2 0x179B JUMPI DUP4 PUSH1 0x40 MLOAD PUSH32 0x64A0AE9200000000000000000000000000000000000000000000000000000000 DUP2 MSTORE PUSH1 0x4 ADD PUSH2 0x1792 SWAP2 SWAP1 PUSH2 0x286E JUMP JUMPDEST PUSH1 0x40 MLOAD DUP1 SWAP2 SUB SWAP1 REVERT JUMPDEST POP JUMPDEST POP POP POP POP JUMP JUMPDEST PUSH1 0x60 PUSH1 0x40 MLOAD DUP1 PUSH1 0x60 ADD PUSH1 0x40 MSTORE DUP1 PUSH1 0x36 DUP2 MSTORE PUSH1 0x20 ADD PUSH2 0x31F2 PUSH1 0x36 SWAP2 CODECOPY SWAP1 POP SWAP1 JUMP JUMPDEST PUSH1 0x60 PUSH0 PUSH1 0x1 PUSH2 0x17D1 DUP5 PUSH2 0x1C21 JUMP JUMPDEST ADD SWAP1 POP PUSH0 DUP2 PUSH8 0xFFFFFFFFFFFFFFFF DUP2 GT ISZERO PUSH2 0x17EF JUMPI PUSH2 0x17EE PUSH2 0x2AE8 JUMP JUMPDEST JUMPDEST PUSH1 0x40 MLOAD SWAP1 DUP1 DUP3 MSTORE DUP1 PUSH1 0x1F ADD PUSH1 0x1F NOT AND PUSH1 0x20 ADD DUP3 ADD PUSH1 0x40 MSTORE DUP1 ISZERO PUSH2 0x1821 JUMPI DUP2 PUSH1 0x20 ADD PUSH1 0x1 DUP3 MUL DUP1 CALLDATASIZE DUP4 CALLDATACOPY DUP1 DUP3 ADD SWAP2 POP POP SWAP1 POP JUMPDEST POP SWAP1 POP PUSH0 DUP3 PUSH1 0x20 ADD DUP3 ADD SWAP1 POP JUMPDEST PUSH1 0x1 ISZERO PUSH2 0x1882 JUMPI DUP1 DUP1 PUSH1 0x1 SWAP1 SUB SWAP2 POP POP PUSH32 0x3031323334353637383961626364656600000000000000000000000000000000 PUSH1 0xA DUP7 MOD BYTE DUP2 MSTORE8 PUSH1 0xA DUP6 DUP2 PUSH2 0x1877 JUMPI PUSH2 0x1876 PUSH2 0x3164 JUMP JUMPDEST JUMPDEST DIV SWAP5 POP PUSH0 DUP6 SUB PUSH2 0x182E JUMPI JUMPDEST DUP2 SWAP4 POP POP POP POP SWAP2 SWAP1 POP JUMP JUMPDEST PUSH0 PUSH32 0x80AC58CD00000000000000000000000000000000000000000000000000000000 PUSH28 0xFFFFFFFFFFFFFFFFFFFFFFFFFFFFFFFFFFFFFFFFFFFFFFFFFFFFFFFF NOT AND DUP3 PUSH28 0xFFFFFFFFFFFFFFFFFFFFFFFFFFFFFFFFFFFFFFFFFFFFFFFFFFFFFFFF NOT AND EQ DUP1 PUSH2 0x1957 JUMPI POP PUSH32 0x5B5E139F00000000000000000000000000000000000000000000000000000000 PUSH28 0xFFFFFFFFFFFFFFFFFFFFFFFFFFFFFFFFFFFFFFFFFFFFFFFFFFFFFFFF NOT AND DUP3 PUSH28 0xFFFFFFFFFFFFFFFFFFFFFFFFFFFFFFFFFFFFFFFFFFFFFFFFFFFFFFFF NOT AND EQ JUMPDEST DUP1 PUSH2 0x1967 JUMPI POP PUSH2 0x1966 DUP3 PUSH2 0x1D72 JUMP JUMPDEST JUMPDEST SWAP1 POP SWAP2 SWAP1 POP JUMP JUMPDEST PUSH0 PUSH1 0x2 PUSH0 DUP4 DUP2 MSTORE PUSH1 0x20 ADD SWAP1 DUP2 MSTORE PUSH1 0x20 ADD PUSH0 KECCAK256 PUSH0 SWAP1 SLOAD SWAP1 PUSH2 0x100 EXP SWAP1 DIV PUSH20 0xFFFFFFFFFFFFFFFFFFFFFFFFFFFFFFFFFFFFFFFF AND SWAP1 POP SWAP2 SWAP1 POP JUMP JUMPDEST DUP1 DUP1 PUSH2 0x19DF JUMPI POP PUSH0 PUSH20 0xFFFFFFFFFFFFFFFFFFFFFFFFFFFFFFFFFFFFFFFF AND DUP3 PUSH20 0xFFFFFFFFFFFFFFFFFFFFFFFFFFFFFFFFFFFFFFFF AND EQ ISZERO JUMPDEST ISZERO PUSH2 0x1B11 JUMPI PUSH0 PUSH2 0x19EE DUP5 PUSH2 0x111B JUMP JUMPDEST SWAP1 POP PUSH0 PUSH20 0xFFFFFFFFFFFFFFFFFFFFFFFFFFFFFFFFFFFFFFFF AND DUP4 PUSH20 0xFFFFFFFFFFFFFFFFFFFFFFFFFFFFFFFFFFFFFFFF AND EQ ISZERO DUP1 ISZERO PUSH2 0x1A58 JUMPI POP DUP3 PUSH20 0xFFFFFFFFFFFFFFFFFFFFFFFFFFFFFFFFFFFFFFFF AND DUP2 PUSH20 0xFFFFFFFFFFFFFFFFFFFFFFFFFFFFFFFFFFFFFFFF AND EQ ISZERO JUMPDEST DUP1 ISZERO PUSH2 0x1A6B JUMPI POP PUSH2 0x1A69 DUP2 DUP5 PUSH2 0xF90 JUMP JUMPDEST ISZERO JUMPDEST ISZERO PUSH2 0x1AAD JUMPI DUP3 PUSH1 0x40 MLOAD PUSH32 0xA9FBF51F00000000000000000000000000000000000000000000000000000000 DUP2 MSTORE PUSH1 0x4 ADD PUSH2 0x1AA4 SWAP2 SWAP1 PUSH2 0x286E JUMP JUMPDEST PUSH1 0x40 MLOAD DUP1 SWAP2 SUB SWAP1 REVERT JUMPDEST DUP2 ISZERO PUSH2 0x1B0F JUMPI DUP4 DUP6 PUSH20 0xFFFFFFFFFFFFFFFFFFFFFFFFFFFFFFFFFFFFFFFF AND DUP3 PUSH20 0xFFFFFFFFFFFFFFFFFFFFFFFFFFFFFFFFFFFFFFFF AND PUSH32 0x8C5BE1E5EBEC7D5BD14F71427D1E84F3DD0314C0F7B2291E5B200AC8C7C3B925 PUSH1 0x40 MLOAD PUSH1 0x40 MLOAD DUP1 SWAP2 SUB SWAP1 LOG4 JUMPDEST POP JUMPDEST DUP4 PUSH1 0x4 PUSH0 DUP6 DUP2 MSTORE PUSH1 0x20 ADD SWAP1 DUP2 MSTORE PUSH1 0x20 ADD PUSH0 KECCAK256 PUSH0 PUSH2 0x100 EXP DUP2 SLOAD DUP2 PUSH20 0xFFFFFFFFFFFFFFFFFFFFFFFFFFFFFFFFFFFFFFFF MUL NOT AND SWAP1 DUP4 PUSH20 0xFFFFFFFFFFFFFFFFFFFFFFFFFFFFFFFFFFFFFFFF AND MUL OR SWAP1 SSTORE POP POP POP POP POP JUMP JUMPDEST PUSH2 0x1B7F DUP3 DUP3 PUSH1 0x40 MLOAD DUP1 PUSH1 0x20 ADD PUSH1 0x40 MSTORE DUP1 PUSH0 DUP2 MSTORE POP PUSH2 0x1DDB JUMP JUMPDEST POP POP JUMP JUMPDEST PUSH0 PUSH2 0x1B8C PUSH2 0x1BE0 JUMP JUMPDEST PUSH2 0x1B97 DUP5 DUP5 DUP5 PUSH2 0x1DF6 JUMP JUMPDEST SWAP1 POP SWAP4 SWAP3 POP POP POP JUMP JUMPDEST PUSH2 0x1BA8 PUSH2 0xC82 JUMP JUMPDEST PUSH2 0x1BDE JUMPI PUSH1 0x40 MLOAD PUSH32 0x8DFC202B00000000000000000000000000000000000000000000000000000000 DUP2 MSTORE PUSH1 0x4 ADD PUSH1 0x40 MLOAD DUP1 SWAP2 SUB SWAP1 REVERT JUMPDEST JUMP JUMPDEST PUSH2 0x1BE8 PUSH2 0xC82 JUMP JUMPDEST ISZERO PUSH2 0x1C1F JUMPI PUSH1 0x40 MLOAD PUSH32 0xD93C066500000000000000000000000000000000000000000000000000000000 DUP2 MSTORE PUSH1 0x4 ADD PUSH1 0x40 MLOAD DUP1 SWAP2 SUB SWAP1 REVERT JUMPDEST JUMP JUMPDEST PUSH0 DUP1 PUSH0 SWAP1 POP PUSH27 0x184F03E93FF9F4DAA797ED6E38ED64BF6A1F010000000000000000 DUP4 LT PUSH2 0x1C7D JUMPI PUSH27 0x184F03E93FF9F4DAA797ED6E38ED64BF6A1F010000000000000000 DUP4 DUP2 PUSH2 0x1C73 JUMPI PUSH2 0x1C72 PUSH2 0x3164 JUMP JUMPDEST JUMPDEST DIV SWAP3 POP PUSH1 0x40 DUP2 ADD SWAP1 POP JUMPDEST PUSH14 0x4EE2D6D415B85ACEF8100000000 DUP4 LT PUSH2 0x1CBA JUMPI PUSH14 0x4EE2D6D415B85ACEF8100000000 DUP4 DUP2 PUSH2 0x1CB0 JUMPI PUSH2 0x1CAF PUSH2 0x3164 JUMP JUMPDEST JUMPDEST DIV SWAP3 POP PUSH1 0x20 DUP2 ADD SWAP1 POP JUMPDEST PUSH7 0x2386F26FC10000 DUP4 LT PUSH2 0x1CE9 JUMPI PUSH7 0x2386F26FC10000 DUP4 DUP2 PUSH2 0x1CDF JUMPI PUSH2 0x1CDE PUSH2 0x3164 JUMP JUMPDEST JUMPDEST DIV SWAP3 POP PUSH1 0x10 DUP2 ADD SWAP1 POP JUMPDEST PUSH4 0x5F5E100 DUP4 LT PUSH2 0x1D12 JUMPI PUSH4 0x5F5E100 DUP4 DUP2 PUSH2 0x1D08 JUMPI PUSH2 0x1D07 PUSH2 0x3164 JUMP JUMPDEST JUMPDEST DIV SWAP3 POP PUSH1 0x8 DUP2 ADD SWAP1 POP JUMPDEST PUSH2 0x2710 DUP4 LT PUSH2 0x1D37 JUMPI PUSH2 0x2710 DUP4 DUP2 PUSH2 0x1D2D JUMPI PUSH2 0x1D2C PUSH2 0x3164 JUMP JUMPDEST JUMPDEST DIV SWAP3 POP PUSH1 0x4 DUP2 ADD SWAP1 POP JUMPDEST PUSH1 0x64 DUP4 LT PUSH2 0x1D5A JUMPI PUSH1 0x64 DUP4 DUP2 PUSH2 0x1D50 JUMPI PUSH2 0x1D4F PUSH2 0x3164 JUMP JUMPDEST JUMPDEST DIV SWAP3 POP PUSH1 0x2 DUP2 ADD SWAP1 POP JUMPDEST PUSH1 0xA DUP4 LT PUSH2 0x1D69 JUMPI PUSH1 0x1 DUP2 ADD SWAP1 POP JUMPDEST DUP1 SWAP2 POP POP SWAP2 SWAP1 POP JUMP JUMPDEST PUSH0 PUSH32 0x1FFC9A700000000000000000000000000000000000000000000000000000000 PUSH28 0xFFFFFFFFFFFFFFFFFFFFFFFFFFFFFFFFFFFFFFFFFFFFFFFFFFFFFFFF NOT AND DUP3 PUSH28 0xFFFFFFFFFFFFFFFFFFFFFFFFFFFFFFFFFFFFFFFFFFFFFFFFFFFFFFFF NOT AND EQ SWAP1 POP SWAP2 SWAP1 POP JUMP JUMPDEST PUSH2 0x1DE5 DUP4 DUP4 PUSH2 0x1F10 JUMP JUMPDEST PUSH2 0x1DF1 PUSH0 DUP5 DUP5 DUP5 PUSH2 0x15F1 JUMP JUMPDEST POP POP POP JUMP JUMPDEST PUSH0 DUP1 PUSH2 0x1E03 DUP6 DUP6 DUP6 PUSH2 0x2003 JUMP JUMPDEST SWAP1 POP PUSH0 PUSH20 0xFFFFFFFFFFFFFFFFFFFFFFFFFFFFFFFFFFFFFFFF AND DUP2 PUSH20 0xFFFFFFFFFFFFFFFFFFFFFFFFFFFFFFFFFFFFFFFF AND SUB PUSH2 0x1E46 JUMPI PUSH2 0x1E41 DUP5 PUSH2 0x220E JUMP JUMPDEST PUSH2 0x1E85 JUMP JUMPDEST DUP5 PUSH20 0xFFFFFFFFFFFFFFFFFFFFFFFFFFFFFFFFFFFFFFFF AND DUP2 PUSH20 0xFFFFFFFFFFFFFFFFFFFFFFFFFFFFFFFFFFFFFFFF AND EQ PUSH2 0x1E84 JUMPI PUSH2 0x1E83 DUP2 DUP6 PUSH2 0x2252 JUMP JUMPDEST JUMPDEST JUMPDEST PUSH0 PUSH20 0xFFFFFFFFFFFFFFFFFFFFFFFFFFFFFFFFFFFFFFFF AND DUP6 PUSH20 0xFFFFFFFFFFFFFFFFFFFFFFFFFFFFFFFFFFFFFFFF AND SUB PUSH2 0x1EC6 JUMPI PUSH2 0x1EC1 DUP5 PUSH2 0x239C JUMP JUMPDEST PUSH2 0x1F05 JUMP JUMPDEST DUP5 PUSH20 0xFFFFFFFFFFFFFFFFFFFFFFFFFFFFFFFFFFFFFFFF AND DUP2 PUSH20 0xFFFFFFFFFFFFFFFFFFFFFFFFFFFFFFFFFFFFFFFF AND EQ PUSH2 0x1F04 JUMPI PUSH2 0x1F03 DUP6 DUP6 PUSH2 0x245C JUMP JUMPDEST JUMPDEST JUMPDEST DUP1 SWAP2 POP POP SWAP4 SWAP3 POP POP POP JUMP JUMPDEST PUSH0 PUSH20 0xFFFFFFFFFFFFFFFFFFFFFFFFFFFFFFFFFFFFFFFF AND DUP3 PUSH20 0xFFFFFFFFFFFFFFFFFFFFFFFFFFFFFFFFFFFFFFFF AND SUB PUSH2 0x1F80 JUMPI PUSH0 PUSH1 0x40 MLOAD PUSH32 0x64A0AE9200000000000000000000000000000000000000000000000000000000 DUP2 MSTORE PUSH1 0x4 ADD PUSH2 0x1F77 SWAP2 SWAP1 PUSH2 0x286E JUMP JUMPDEST PUSH1 0x40 MLOAD DUP1 SWAP2 SUB SWAP1 REVERT JUMPDEST PUSH0 PUSH2 0x1F8C DUP4 DUP4 PUSH0 PUSH2 0x1264 JUMP JUMPDEST SWAP1 POP PUSH0 PUSH20 0xFFFFFFFFFFFFFFFFFFFFFFFFFFFFFFFFFFFFFFFF AND DUP2 PUSH20 0xFFFFFFFFFFFFFFFFFFFFFFFFFFFFFFFFFFFFFFFF AND EQ PUSH2 0x1FFE JUMPI PUSH0 PUSH1 0x40 MLOAD PUSH32 0x73C6AC6E00000000000000000000000000000000000000000000000000000000 DUP2 MSTORE PUSH1 0x4 ADD PUSH2 0x1FF5 SWAP2 SWAP1 PUSH2 0x286E JUMP JUMPDEST PUSH1 0x40 MLOAD DUP1 SWAP2 SUB SWAP1 REVERT JUMPDEST POP POP POP JUMP JUMPDEST PUSH0 DUP1 PUSH2 0x200E DUP5 PUSH2 0x196E JUMP JUMPDEST SWAP1 POP PUSH0 PUSH20 0xFFFFFFFFFFFFFFFFFFFFFFFFFFFFFFFFFFFFFFFF AND DUP4 PUSH20 0xFFFFFFFFFFFFFFFFFFFFFFFFFFFFFFFFFFFFFFFF AND EQ PUSH2 0x204F JUMPI PUSH2 0x204E DUP2 DUP5 DUP7 PUSH2 0x24E0 JUMP JUMPDEST JUMPDEST PUSH0 PUSH20 0xFFFFFFFFFFFFFFFFFFFFFFFFFFFFFFFFFFFFFFFF AND DUP2 PUSH20 0xFFFFFFFFFFFFFFFFFFFFFFFFFFFFFFFFFFFFFFFF AND EQ PUSH2 0x20DA JUMPI PUSH2 0x208E PUSH0 DUP6 PUSH0 DUP1 PUSH2 0x19A7 JUMP JUMPDEST PUSH1 0x1 PUSH1 0x3 PUSH0 DUP4 PUSH20 0xFFFFFFFFFFFFFFFFFFFFFFFFFFFFFFFFFFFFFFFF AND PUSH20 0xFFFFFFFFFFFFFFFFFFFFFFFFFFFFFFFFFFFFFFFF AND DUP2 MSTORE PUSH1 0x20 ADD SWAP1 DUP2 MSTORE PUSH1 0x20 ADD PUSH0 KECCAK256 PUSH0 DUP3 DUP3 SLOAD SUB SWAP3 POP POP DUP2 SWAP1 SSTORE POP JUMPDEST PUSH0 PUSH20 0xFFFFFFFFFFFFFFFFFFFFFFFFFFFFFFFFFFFFFFFF AND DUP6 PUSH20 0xFFFFFFFFFFFFFFFFFFFFFFFFFFFFFFFFFFFFFFFF AND EQ PUSH2 0x2159 JUMPI PUSH1 0x1 PUSH1 0x3 PUSH0 DUP8 PUSH20 0xFFFFFFFFFFFFFFFFFFFFFFFFFFFFFFFFFFFFFFFF AND PUSH20 0xFFFFFFFFFFFFFFFFFFFFFFFFFFFFFFFFFFFFFFFF AND DUP2 MSTORE PUSH1 0x20 ADD SWAP1 DUP2 MSTORE PUSH1 0x20 ADD PUSH0 KECCAK256 PUSH0 DUP3 DUP3 SLOAD ADD SWAP3 POP POP DUP2 SWAP1 SSTORE POP JUMPDEST DUP5 PUSH1 0x2 PUSH0 DUP7 DUP2 MSTORE PUSH1 0x20 ADD SWAP1 DUP2 MSTORE PUSH1 0x20 ADD PUSH0 KECCAK256 PUSH0 PUSH2 0x100 EXP DUP2 SLOAD DUP2 PUSH20 0xFFFFFFFFFFFFFFFFFFFFFFFFFFFFFFFFFFFFFFFF MUL NOT AND SWAP1 DUP4 PUSH20 0xFFFFFFFFFFFFFFFFFFFFFFFFFFFFFFFFFFFFFFFF AND MUL OR SWAP1 SSTORE POP DUP4 DUP6 PUSH20 0xFFFFFFFFFFFFFFFFFFFFFFFFFFFFFFFFFFFFFFFF AND DUP3 PUSH20 0xFFFFFFFFFFFFFFFFFFFFFFFFFFFFFFFFFFFFFFFF AND PUSH32 0xDDF252AD1BE2C89B69C2B068FC378DAA952BA7F163C4A11628F55A4DF523B3EF PUSH1 0x40 MLOAD PUSH1 0x40 MLOAD DUP1 SWAP2 SUB SWAP1 LOG4 DUP1 SWAP2 POP POP SWAP4 SWAP3 POP POP POP JUMP JUMPDEST PUSH1 0x8 DUP1 SLOAD SWAP1 POP PUSH1 0x9 PUSH0 DUP4 DUP2 MSTORE PUSH1 0x20 ADD SWAP1 DUP2 MSTORE PUSH1 0x20 ADD PUSH0 KECCAK256 DUP2 SWAP1 SSTORE POP PUSH1 0x8 DUP2 SWAP1 DUP1 PUSH1 0x1 DUP2 SLOAD ADD DUP1 DUP3 SSTORE DUP1 SWAP2 POP POP PUSH1 0x1 SWAP1 SUB SWAP1 PUSH0 MSTORE PUSH1 0x20 PUSH0 KECCAK256 ADD PUSH0 SWAP1 SWAP2 SWAP1 SWAP2 SWAP1 SWAP2 POP SSTORE POP JUMP JUMPDEST PUSH0 PUSH2 0x225C DUP4 PUSH2 0xD51 JUMP JUMPDEST SWAP1 POP PUSH0 PUSH1 0x7 PUSH0 DUP5 DUP2 MSTORE PUSH1 0x20 ADD SWAP1 DUP2 MSTORE PUSH1 0x20 ADD PUSH0 KECCAK256 SLOAD SWAP1 POP DUP2 DUP2 EQ PUSH2 0x2333 JUMPI PUSH0 PUSH1 0x6 PUSH0 DUP7 PUSH20 0xFFFFFFFFFFFFFFFFFFFFFFFFFFFFFFFFFFFFFFFF AND PUSH20 0xFFFFFFFFFFFFFFFFFFFFFFFFFFFFFFFFFFFFFFFF AND DUP2 MSTORE PUSH1 0x20 ADD SWAP1 DUP2 MSTORE PUSH1 0x20 ADD PUSH0 KECCAK256 PUSH0 DUP5 DUP2 MSTORE PUSH1 0x20 ADD SWAP1 DUP2 MSTORE PUSH1 0x20 ADD PUSH0 KECCAK256 SLOAD SWAP1 POP DUP1 PUSH1 0x6 PUSH0 DUP8 PUSH20 0xFFFFFFFFFFFFFFFFFFFFFFFFFFFFFFFFFFFFFFFF AND PUSH20 0xFFFFFFFFFFFFFFFFFFFFFFFFFFFFFFFFFFFFFFFF AND DUP2 MSTORE PUSH1 0x20 ADD SWAP1 DUP2 MSTORE PUSH1 0x20 ADD PUSH0 KECCAK256 PUSH0 DUP5 DUP2 MSTORE PUSH1 0x20 ADD SWAP1 DUP2 MSTORE PUSH1 0x20 ADD PUSH0 KECCAK256 DUP2 SWAP1 SSTORE POP DUP2 PUSH1 0x7 PUSH0 DUP4 DUP2 MSTORE PUSH1 0x20 ADD SWAP1 DUP2 MSTORE PUSH1 0x20 ADD PUSH0 KECCAK256 DUP2 SWAP1 SSTORE POP POP JUMPDEST PUSH1 0x7 PUSH0 DUP5 DUP2 MSTORE PUSH1 0x20 ADD SWAP1 DUP2 MSTORE PUSH1 0x20 ADD PUSH0 KECCAK256 PUSH0 SWAP1 SSTORE PUSH1 0x6 PUSH0 DUP6 PUSH20 0xFFFFFFFFFFFFFFFFFFFFFFFFFFFFFFFFFFFFFFFF AND PUSH20 0xFFFFFFFFFFFFFFFFFFFFFFFFFFFFFFFFFFFFFFFF AND DUP2 MSTORE PUSH1 0x20 ADD SWAP1 DUP2 MSTORE PUSH1 0x20 ADD PUSH0 KECCAK256 PUSH0 DUP4 DUP2 MSTORE PUSH1 0x20 ADD SWAP1 DUP2 MSTORE PUSH1 0x20 ADD PUSH0 KECCAK256 PUSH0 SWAP1 SSTORE POP POP POP POP JUMP JUMPDEST PUSH0 PUSH1 0x1 PUSH1 0x8 DUP1 SLOAD SWAP1 POP PUSH2 0x23AF SWAP2 SWAP1 PUSH2 0x3191 JUMP JUMPDEST SWAP1 POP PUSH0 PUSH1 0x9 PUSH0 DUP5 DUP2 MSTORE PUSH1 0x20 ADD SWAP1 DUP2 MSTORE PUSH1 0x20 ADD PUSH0 KECCAK256 SLOAD SWAP1 POP PUSH0 PUSH1 0x8 DUP4 DUP2 SLOAD DUP2 LT PUSH2 0x23DB JUMPI PUSH2 0x23DA PUSH2 0x2F23 JUMP JUMPDEST JUMPDEST SWAP1 PUSH0 MSTORE PUSH1 0x20 PUSH0 KECCAK256 ADD SLOAD SWAP1 POP DUP1 PUSH1 0x8 DUP4 DUP2 SLOAD DUP2 LT PUSH2 0x23FB JUMPI PUSH2 0x23FA PUSH2 0x2F23 JUMP JUMPDEST JUMPDEST SWAP1 PUSH0 MSTORE PUSH1 0x20 PUSH0 KECCAK256 ADD DUP2 SWAP1 SSTORE POP DUP2 PUSH1 0x9 PUSH0 DUP4 DUP2 MSTORE PUSH1 0x20 ADD SWAP1 DUP2 MSTORE PUSH1 0x20 ADD PUSH0 KECCAK256 DUP2 SWAP1 SSTORE POP PUSH1 0x9 PUSH0 DUP6 DUP2 MSTORE PUSH1 0x20 ADD SWAP1 DUP2 MSTORE PUSH1 0x20 ADD PUSH0 KECCAK256 PUSH0 SWAP1 SSTORE PUSH1 0x8 DUP1 SLOAD DUP1 PUSH2 0x2443 JUMPI PUSH2 0x2442 PUSH2 0x31C4 JUMP JUMPDEST JUMPDEST PUSH1 0x1 SWAP1 SUB DUP2 DUP2 SWAP1 PUSH0 MSTORE PUSH1 0x20 PUSH0 KECCAK256 ADD PUSH0 SWAP1 SSTORE SWAP1 SSTORE POP POP POP POP JUMP JUMPDEST PUSH0 PUSH1 0x1 PUSH2 0x2468 DUP5 PUSH2 0xD51 JUMP JUMPDEST PUSH2 0x2472 SWAP2 SWAP1 PUSH2 0x3191 JUMP JUMPDEST SWAP1 POP DUP2 PUSH1 0x6 PUSH0 DUP6 PUSH20 0xFFFFFFFFFFFFFFFFFFFFFFFFFFFFFFFFFFFFFFFF AND PUSH20 0xFFFFFFFFFFFFFFFFFFFFFFFFFFFFFFFFFFFFFFFF AND DUP2 MSTORE PUSH1 0x20 ADD SWAP1 DUP2 MSTORE PUSH1 0x20 ADD PUSH0 KECCAK256 PUSH0 DUP4 DUP2 MSTORE PUSH1 0x20 ADD SWAP1 DUP2 MSTORE PUSH1 0x20 ADD PUSH0 KECCAK256 DUP2 SWAP1 SSTORE POP DUP1 PUSH1 0x7 PUSH0 DUP5 DUP2 MSTORE PUSH1 0x20 ADD SWAP1 DUP2 MSTORE PUSH1 0x20 ADD PUSH0 KECCAK256 DUP2 SWAP1 SSTORE POP POP POP POP JUMP JUMPDEST PUSH2 0x24EB DUP4 DUP4 DUP4 PUSH2 0x25A3 JUMP JUMPDEST PUSH2 0x259E JUMPI PUSH0 PUSH20 0xFFFFFFFFFFFFFFFFFFFFFFFFFFFFFFFFFFFFFFFF AND DUP4 PUSH20 0xFFFFFFFFFFFFFFFFFFFFFFFFFFFFFFFFFFFFFFFF AND SUB PUSH2 0x255F JUMPI DUP1 PUSH1 0x40 MLOAD PUSH32 0x7E27328900000000000000000000000000000000000000000000000000000000 DUP2 MSTORE PUSH1 0x4 ADD PUSH2 0x2556 SWAP2 SWAP1 PUSH2 0x28FE JUMP JUMPDEST PUSH1 0x40 MLOAD DUP1 SWAP2 SUB SWAP1 REVERT JUMPDEST DUP2 DUP2 PUSH1 0x40 MLOAD PUSH32 0x177E802F00000000000000000000000000000000000000000000000000000000 DUP2 MSTORE PUSH1 0x4 ADD PUSH2 0x2595 SWAP3 SWAP2 SWAP1 PUSH2 0x2EFC JUMP JUMPDEST PUSH1 0x40 MLOAD DUP1 SWAP2 SUB SWAP1 REVERT JUMPDEST POP POP POP JUMP JUMPDEST PUSH0 DUP1 PUSH20 0xFFFFFFFFFFFFFFFFFFFFFFFFFFFFFFFFFFFFFFFF AND DUP4 PUSH20 0xFFFFFFFFFFFFFFFFFFFFFFFFFFFFFFFFFFFFFFFF AND EQ ISZERO DUP1 ISZERO PUSH2 0x265A JUMPI POP DUP3 PUSH20 0xFFFFFFFFFFFFFFFFFFFFFFFFFFFFFFFFFFFFFFFF AND DUP5 PUSH20 0xFFFFFFFFFFFFFFFFFFFFFFFFFFFFFFFFFFFFFFFF AND EQ DUP1 PUSH2 0x261B JUMPI POP PUSH2 0x261A DUP5 DUP5 PUSH2 0xF90 JUMP JUMPDEST JUMPDEST DUP1 PUSH2 0x2659 JUMPI POP DUP3 PUSH20 0xFFFFFFFFFFFFFFFFFFFFFFFFFFFFFFFFFFFFFFFF AND PUSH2 0x2641 DUP4 PUSH2 0x11A1 JUMP JUMPDEST PUSH20 0xFFFFFFFFFFFFFFFFFFFFFFFFFFFFFFFFFFFFFFFF AND EQ JUMPDEST JUMPDEST SWAP1 POP SWAP4 SWAP3 POP POP POP JUMP JUMPDEST PUSH0 PUSH1 0x40 MLOAD SWAP1 POP SWAP1 JUMP JUMPDEST PUSH0 DUP1 REVERT JUMPDEST PUSH0 DUP1 REVERT JUMPDEST PUSH0 PUSH32 0xFFFFFFFF00000000000000000000000000000000000000000000000000000000 DUP3 AND SWAP1 POP SWAP2 SWAP1 POP JUMP JUMPDEST PUSH2 0x26A8 DUP2 PUSH2 0x2674 JUMP JUMPDEST DUP2 EQ PUSH2 0x26B2 JUMPI PUSH0 DUP1 REVERT JUMPDEST POP JUMP JUMPDEST PUSH0 DUP2 CALLDATALOAD SWAP1 POP PUSH2 0x26C3 DUP2 PUSH2 0x269F JUMP JUMPDEST SWAP3 SWAP2 POP POP JUMP JUMPDEST PUSH0 PUSH1 0x20 DUP3 DUP5 SUB SLT ISZERO PUSH2 0x26DE JUMPI PUSH2 0x26DD PUSH2 0x266C JUMP JUMPDEST JUMPDEST PUSH0 PUSH2 0x26EB DUP5 DUP3 DUP6 ADD PUSH2 0x26B5 JUMP JUMPDEST SWAP2 POP POP SWAP3 SWAP2 POP POP JUMP JUMPDEST PUSH0 DUP2 ISZERO ISZERO SWAP1 POP SWAP2 SWAP1 POP JUMP JUMPDEST PUSH2 0x2708 DUP2 PUSH2 0x26F4 JUMP JUMPDEST DUP3 MSTORE POP POP JUMP JUMPDEST PUSH0 PUSH1 0x20 DUP3 ADD SWAP1 POP PUSH2 0x2721 PUSH0 DUP4 ADD DUP5 PUSH2 0x26FF JUMP JUMPDEST SWAP3 SWAP2 POP POP JUMP JUMPDEST PUSH0 DUP2 MLOAD SWAP1 POP SWAP2 SWAP1 POP JUMP JUMPDEST PUSH0 DUP3 DUP3 MSTORE PUSH1 0x20 DUP3 ADD SWAP1 POP SWAP3 SWAP2 POP POP JUMP JUMPDEST PUSH0 JUMPDEST DUP4 DUP2 LT ISZERO PUSH2 0x275E JUMPI DUP1 DUP3 ADD MLOAD DUP2 DUP5 ADD MSTORE PUSH1 0x20 DUP2 ADD SWAP1 POP PUSH2 0x2743 JUMP JUMPDEST PUSH0 DUP5 DUP5 ADD MSTORE POP POP POP POP JUMP JUMPDEST PUSH0 PUSH1 0x1F NOT PUSH1 0x1F DUP4 ADD AND SWAP1 POP SWAP2 SWAP1 POP JUMP JUMPDEST PUSH0 PUSH2 0x2783 DUP3 PUSH2 0x2727 JUMP JUMPDEST PUSH2 0x278D DUP2 DUP6 PUSH2 0x2731 JUMP JUMPDEST SWAP4 POP PUSH2 0x279D DUP2 DUP6 PUSH1 0x20 DUP7 ADD PUSH2 0x2741 JUMP JUMPDEST PUSH2 0x27A6 DUP2 PUSH2 0x2769 JUMP JUMPDEST DUP5 ADD SWAP2 POP POP SWAP3 SWAP2 POP POP JUMP JUMPDEST PUSH0 PUSH1 0x20 DUP3 ADD SWAP1 POP DUP2 DUP2 SUB PUSH0 DUP4 ADD MSTORE PUSH2 0x27C9 DUP2 DUP5 PUSH2 0x2779 JUMP JUMPDEST SWAP1 POP SWAP3 SWAP2 POP POP JUMP JUMPDEST PUSH0 DUP2 SWAP1 POP SWAP2 SWAP1 POP JUMP JUMPDEST PUSH2 0x27E3 DUP2 PUSH2 0x27D1 JUMP JUMPDEST DUP2 EQ PUSH2 0x27ED JUMPI PUSH0 DUP1 REVERT JUMPDEST POP JUMP JUMPDEST PUSH0 DUP2 CALLDATALOAD SWAP1 POP PUSH2 0x27FE DUP2 PUSH2 0x27DA JUMP JUMPDEST SWAP3 SWAP2 POP POP JUMP JUMPDEST PUSH0 PUSH1 0x20 DUP3 DUP5 SUB SLT ISZERO PUSH2 0x2819 JUMPI PUSH2 0x2818 PUSH2 0x266C JUMP JUMPDEST JUMPDEST PUSH0 PUSH2 0x2826 DUP5 DUP3 DUP6 ADD PUSH2 0x27F0 JUMP JUMPDEST SWAP2 POP POP SWAP3 SWAP2 POP POP JUMP JUMPDEST PUSH0 PUSH20 0xFFFFFFFFFFFFFFFFFFFFFFFFFFFFFFFFFFFFFFFF DUP3 AND SWAP1 POP SWAP2 SWAP1 POP JUMP JUMPDEST PUSH0 PUSH2 0x2858 DUP3 PUSH2 0x282F JUMP JUMPDEST SWAP1 POP SWAP2 SWAP1 POP JUMP JUMPDEST PUSH2 0x2868 DUP2 PUSH2 0x284E JUMP JUMPDEST DUP3 MSTORE POP POP JUMP JUMPDEST PUSH0 PUSH1 0x20 DUP3 ADD SWAP1 POP PUSH2 0x2881 PUSH0 DUP4 ADD DUP5 PUSH2 0x285F JUMP JUMPDEST SWAP3 SWAP2 POP POP JUMP JUMPDEST PUSH2 0x2890 DUP2 PUSH2 0x284E JUMP JUMPDEST DUP2 EQ PUSH2 0x289A JUMPI PUSH0 DUP1 REVERT JUMPDEST POP JUMP JUMPDEST PUSH0 DUP2 CALLDATALOAD SWAP1 POP PUSH2 0x28AB DUP2 PUSH2 0x2887 JUMP JUMPDEST SWAP3 SWAP2 POP POP JUMP JUMPDEST PUSH0 DUP1 PUSH1 0x40 DUP4 DUP6 SUB SLT ISZERO PUSH2 0x28C7 JUMPI PUSH2 0x28C6 PUSH2 0x266C JUMP JUMPDEST JUMPDEST PUSH0 PUSH2 0x28D4 DUP6 DUP3 DUP7 ADD PUSH2 0x289D JUMP JUMPDEST SWAP3 POP POP PUSH1 0x20 PUSH2 0x28E5 DUP6 DUP3 DUP7 ADD PUSH2 0x27F0 JUMP JUMPDEST SWAP2 POP POP SWAP3 POP SWAP3 SWAP1 POP JUMP JUMPDEST PUSH2 0x28F8 DUP2 PUSH2 0x27D1 JUMP JUMPDEST DUP3 MSTORE POP POP JUMP JUMPDEST PUSH0 PUSH1 0x20 DUP3 ADD SWAP1 POP PUSH2 0x2911 PUSH0 DUP4 ADD DUP5 PUSH2 0x28EF JUMP JUMPDEST SWAP3 SWAP2 POP POP JUMP JUMPDEST PUSH0 DUP1 PUSH0 PUSH1 0x60 DUP5 DUP7 SUB SLT ISZERO PUSH2 0x292E JUMPI PUSH2 0x292D PUSH2 0x266C JUMP JUMPDEST JUMPDEST PUSH0 PUSH2 0x293B DUP7 DUP3 DUP8 ADD PUSH2 0x289D JUMP JUMPDEST SWAP4 POP POP PUSH1 0x20 PUSH2 0x294C DUP7 DUP3 DUP8 ADD PUSH2 0x289D JUMP JUMPDEST SWAP3 POP POP PUSH1 0x40 PUSH2 0x295D DUP7 DUP3 DUP8 ADD PUSH2 0x27F0 JUMP JUMPDEST SWAP2 POP POP SWAP3 POP SWAP3 POP SWAP3 JUMP JUMPDEST PUSH0 PUSH1 0x20 DUP3 DUP5 SUB SLT ISZERO PUSH2 0x297C JUMPI PUSH2 0x297B PUSH2 0x266C JUMP JUMPDEST JUMPDEST PUSH0 PUSH2 0x2989 DUP5 DUP3 DUP6 ADD PUSH2 0x289D JUMP JUMPDEST SWAP2 POP POP SWAP3 SWAP2 POP POP JUMP JUMPDEST PUSH2 0x299B DUP2 PUSH2 0x26F4 JUMP JUMPDEST DUP2 EQ PUSH2 0x29A5 JUMPI PUSH0 DUP1 REVERT JUMPDEST POP JUMP JUMPDEST PUSH0 DUP2 CALLDATALOAD SWAP1 POP PUSH2 0x29B6 DUP2 PUSH2 0x2992 JUMP JUMPDEST SWAP3 SWAP2 POP POP JUMP JUMPDEST PUSH0 DUP1 PUSH1 0x40 DUP4 DUP6 SUB SLT ISZERO PUSH2 0x29D2 JUMPI PUSH2 0x29D1 PUSH2 0x266C JUMP JUMPDEST JUMPDEST PUSH0 PUSH2 0x29DF DUP6 DUP3 DUP7 ADD PUSH2 0x29A8 JUMP JUMPDEST SWAP3 POP POP PUSH1 0x20 PUSH2 0x29F0 DUP6 DUP3 DUP7 ADD PUSH2 0x29A8 JUMP JUMPDEST SWAP2 POP POP SWAP3 POP SWAP3 SWAP1 POP JUMP JUMPDEST PUSH0 DUP1 REVERT JUMPDEST PUSH0 DUP1 REVERT JUMPDEST PUSH0 DUP1 REVERT JUMPDEST PUSH0 DUP1 DUP4 PUSH1 0x1F DUP5 ADD SLT PUSH2 0x2A1B JUMPI PUSH2 0x2A1A PUSH2 0x29FA JUMP JUMPDEST JUMPDEST DUP3 CALLDATALOAD SWAP1 POP PUSH8 0xFFFFFFFFFFFFFFFF DUP2 GT ISZERO PUSH2 0x2A38 JUMPI PUSH2 0x2A37 PUSH2 0x29FE JUMP JUMPDEST JUMPDEST PUSH1 0x20 DUP4 ADD SWAP2 POP DUP4 PUSH1 0x20 DUP3 MUL DUP4 ADD GT ISZERO PUSH2 0x2A54 JUMPI PUSH2 0x2A53 PUSH2 0x2A02 JUMP JUMPDEST JUMPDEST SWAP3 POP SWAP3 SWAP1 POP JUMP JUMPDEST PUSH0 DUP1 PUSH1 0x20 DUP4 DUP6 SUB SLT ISZERO PUSH2 0x2A71 JUMPI PUSH2 0x2A70 PUSH2 0x266C JUMP JUMPDEST JUMPDEST PUSH0 DUP4 ADD CALLDATALOAD PUSH8 0xFFFFFFFFFFFFFFFF DUP2 GT ISZERO PUSH2 0x2A8E JUMPI PUSH2 0x2A8D PUSH2 0x2670 JUMP JUMPDEST JUMPDEST PUSH2 0x2A9A DUP6 DUP3 DUP7 ADD PUSH2 0x2A06 JUMP JUMPDEST SWAP3 POP SWAP3 POP POP SWAP3 POP SWAP3 SWAP1 POP JUMP JUMPDEST PUSH0 DUP1 PUSH1 0x40 DUP4 DUP6 SUB SLT ISZERO PUSH2 0x2ABC JUMPI PUSH2 0x2ABB PUSH2 0x266C JUMP JUMPDEST JUMPDEST PUSH0 PUSH2 0x2AC9 DUP6 DUP3 DUP7 ADD PUSH2 0x289D JUMP JUMPDEST SWAP3 POP POP PUSH1 0x20 PUSH2 0x2ADA DUP6 DUP3 DUP7 ADD PUSH2 0x29A8 JUMP JUMPDEST SWAP2 POP POP SWAP3 POP SWAP3 SWAP1 POP JUMP JUMPDEST PUSH0 DUP1 REVERT JUMPDEST PUSH32 0x4E487B7100000000000000000000000000000000000000000000000000000000 PUSH0 MSTORE PUSH1 0x41 PUSH1 0x4 MSTORE PUSH1 0x24 PUSH0 REVERT JUMPDEST PUSH2 0x2B1E DUP3 PUSH2 0x2769 JUMP JUMPDEST DUP2 ADD DUP2 DUP2 LT PUSH8 0xFFFFFFFFFFFFFFFF DUP3 GT OR ISZERO PUSH2 0x2B3D JUMPI PUSH2 0x2B3C PUSH2 0x2AE8 JUMP JUMPDEST JUMPDEST DUP1 PUSH1 0x40 MSTORE POP POP POP JUMP JUMPDEST PUSH0 PUSH2 0x2B4F PUSH2 0x2663 JUMP JUMPDEST SWAP1 POP PUSH2 0x2B5B DUP3 DUP3 PUSH2 0x2B15 JUMP JUMPDEST SWAP2 SWAP1 POP JUMP JUMPDEST PUSH0 PUSH8 0xFFFFFFFFFFFFFFFF DUP3 GT ISZERO PUSH2 0x2B7A JUMPI PUSH2 0x2B79 PUSH2 0x2AE8 JUMP JUMPDEST JUMPDEST PUSH2 0x2B83 DUP3 PUSH2 0x2769 JUMP JUMPDEST SWAP1 POP PUSH1 0x20 DUP2 ADD SWAP1 POP SWAP2 SWAP1 POP JUMP JUMPDEST DUP3 DUP2 DUP4 CALLDATACOPY PUSH0 DUP4 DUP4 ADD MSTORE POP POP POP JUMP JUMPDEST PUSH0 PUSH2 0x2BB0 PUSH2 0x2BAB DUP5 PUSH2 0x2B60 JUMP JUMPDEST PUSH2 0x2B46 JUMP JUMPDEST SWAP1 POP DUP3 DUP2 MSTORE PUSH1 0x20 DUP2 ADD DUP5 DUP5 DUP5 ADD GT ISZERO PUSH2 0x2BCC JUMPI PUSH2 0x2BCB PUSH2 0x2AE4 JUMP JUMPDEST JUMPDEST PUSH2 0x2BD7 DUP5 DUP3 DUP6 PUSH2 0x2B90 JUMP JUMPDEST POP SWAP4 SWAP3 POP POP POP JUMP JUMPDEST PUSH0 DUP3 PUSH1 0x1F DUP4 ADD SLT PUSH2 0x2BF3 JUMPI PUSH2 0x2BF2 PUSH2 0x29FA JUMP JUMPDEST JUMPDEST DUP2 CALLDATALOAD PUSH2 0x2C03 DUP5 DUP3 PUSH1 0x20 DUP7 ADD PUSH2 0x2B9E JUMP JUMPDEST SWAP2 POP POP SWAP3 SWAP2 POP POP JUMP JUMPDEST PUSH0 DUP1 PUSH0 DUP1 PUSH1 0x80 DUP6 DUP8 SUB SLT ISZERO PUSH2 0x2C24 JUMPI PUSH2 0x2C23 PUSH2 0x266C JUMP JUMPDEST JUMPDEST PUSH0 PUSH2 0x2C31 DUP8 DUP3 DUP9 ADD PUSH2 0x289D JUMP JUMPDEST SWAP5 POP POP PUSH1 0x20 PUSH2 0x2C42 DUP8 DUP3 DUP9 ADD PUSH2 0x289D JUMP JUMPDEST SWAP4 POP POP PUSH1 0x40 PUSH2 0x2C53 DUP8 DUP3 DUP9 ADD PUSH2 0x27F0 JUMP JUMPDEST SWAP3 POP POP PUSH1 0x60 DUP6 ADD CALLDATALOAD PUSH8 0xFFFFFFFFFFFFFFFF DUP2 GT ISZERO PUSH2 0x2C74 JUMPI PUSH2 0x2C73 PUSH2 0x2670 JUMP JUMPDEST JUMPDEST PUSH2 0x2C80 DUP8 DUP3 DUP9 ADD PUSH2 0x2BDF JUMP JUMPDEST SWAP2 POP POP SWAP3 SWAP6 SWAP2 SWAP5 POP SWAP3 POP JUMP JUMPDEST PUSH0 DUP1 PUSH1 0x40 DUP4 DUP6 SUB SLT ISZERO PUSH2 0x2CA2 JUMPI PUSH2 0x2CA1 PUSH2 0x266C JUMP JUMPDEST JUMPDEST PUSH0 PUSH2 0x2CAF DUP6 DUP3 DUP7 ADD PUSH2 0x289D JUMP JUMPDEST SWAP3 POP POP PUSH1 0x20 PUSH2 0x2CC0 DUP6 DUP3 DUP7 ADD PUSH2 0x289D JUMP JUMPDEST SWAP2 POP POP SWAP3 POP SWAP3 SWAP1 POP JUMP JUMPDEST PUSH32 0x4E487B7100000000000000000000000000000000000000000000000000000000 PUSH0 MSTORE PUSH1 0x22 PUSH1 0x4 MSTORE PUSH1 0x24 PUSH0 REVERT JUMPDEST PUSH0 PUSH1 0x2 DUP3 DIV SWAP1 POP PUSH1 0x1 DUP3 AND DUP1 PUSH2 0x2D0E JUMPI PUSH1 0x7F DUP3 AND SWAP2 POP JUMPDEST PUSH1 0x20 DUP3 LT DUP2 SUB PUSH2 0x2D21 JUMPI PUSH2 0x2D20 PUSH2 0x2CCA JUMP JUMPDEST JUMPDEST POP SWAP2 SWAP1 POP JUMP JUMPDEST PUSH32 0x416C6C6F77206C697374206D696E7420636C6F73656400000000000000000000 PUSH0 DUP3 ADD MSTORE POP JUMP JUMPDEST PUSH0 PUSH2 0x2D5B PUSH1 0x16 DUP4 PUSH2 0x2731 JUMP JUMPDEST SWAP2 POP PUSH2 0x2D66 DUP3 PUSH2 0x2D27 JUMP JUMPDEST PUSH1 0x20 DUP3 ADD SWAP1 POP SWAP2 SWAP1 POP JUMP JUMPDEST PUSH0 PUSH1 0x20 DUP3 ADD SWAP1 POP DUP2 DUP2 SUB PUSH0 DUP4 ADD MSTORE PUSH2 0x2D88 DUP2 PUSH2 0x2D4F JUMP JUMPDEST SWAP1 POP SWAP2 SWAP1 POP JUMP JUMPDEST PUSH32 0x596F7520617265206E6F74206F6E2074686520616C6C6F77206C697374000000 PUSH0 DUP3 ADD MSTORE POP JUMP JUMPDEST PUSH0 PUSH2 0x2DC3 PUSH1 0x1D DUP4 PUSH2 0x2731 JUMP JUMPDEST SWAP2 POP PUSH2 0x2DCE DUP3 PUSH2 0x2D8F JUMP JUMPDEST PUSH1 0x20 DUP3 ADD SWAP1 POP SWAP2 SWAP1 POP JUMP JUMPDEST PUSH0 PUSH1 0x20 DUP3 ADD SWAP1 POP DUP2 DUP2 SUB PUSH0 DUP4 ADD MSTORE PUSH2 0x2DF0 DUP2 PUSH2 0x2DB7 JUMP JUMPDEST SWAP1 POP SWAP2 SWAP1 POP JUMP JUMPDEST PUSH32 0x496E63726561736520796F75722066756E647300000000000000000000000000 PUSH0 DUP3 ADD MSTORE POP JUMP JUMPDEST PUSH0 PUSH2 0x2E2B PUSH1 0x13 DUP4 PUSH2 0x2731 JUMP JUMPDEST SWAP2 POP PUSH2 0x2E36 DUP3 PUSH2 0x2DF7 JUMP JUMPDEST PUSH1 0x20 DUP3 ADD SWAP1 POP SWAP2 SWAP1 POP JUMP JUMPDEST PUSH0 PUSH1 0x20 DUP3 ADD SWAP1 POP DUP2 DUP2 SUB PUSH0 DUP4 ADD MSTORE PUSH2 0x2E58 DUP2 PUSH2 0x2E1F JUMP JUMPDEST SWAP1 POP SWAP2 SWAP1 POP JUMP JUMPDEST PUSH0 PUSH1 0x60 DUP3 ADD SWAP1 POP PUSH2 0x2E72 PUSH0 DUP4 ADD DUP7 PUSH2 0x285F JUMP JUMPDEST PUSH2 0x2E7F PUSH1 0x20 DUP4 ADD DUP6 PUSH2 0x28EF JUMP JUMPDEST PUSH2 0x2E8C PUSH1 0x40 DUP4 ADD DUP5 PUSH2 0x285F JUMP JUMPDEST SWAP5 SWAP4 POP POP POP POP JUMP JUMPDEST PUSH32 0x5075626C6963206D696E7420636C6F7365640000000000000000000000000000 PUSH0 DUP3 ADD MSTORE POP JUMP JUMPDEST PUSH0 PUSH2 0x2EC8 PUSH1 0x12 DUP4 PUSH2 0x2731 JUMP JUMPDEST SWAP2 POP PUSH2 0x2ED3 DUP3 PUSH2 0x2E94 JUMP JUMPDEST PUSH1 0x20 DUP3 ADD SWAP1 POP SWAP2 SWAP1 POP JUMP JUMPDEST PUSH0 PUSH1 0x20 DUP3 ADD SWAP1 POP DUP2 DUP2 SUB PUSH0 DUP4 ADD MSTORE PUSH2 0x2EF5 DUP2 PUSH2 0x2EBC JUMP JUMPDEST SWAP1 POP SWAP2 SWAP1 POP JUMP JUMPDEST PUSH0 PUSH1 0x40 DUP3 ADD SWAP1 POP PUSH2 0x2F0F PUSH0 DUP4 ADD DUP6 PUSH2 0x285F JUMP JUMPDEST PUSH2 0x2F1C PUSH1 0x20 DUP4 ADD DUP5 PUSH2 0x28EF JUMP JUMPDEST SWAP4 SWAP3 POP POP POP JUMP JUMPDEST PUSH32 0x4E487B7100000000000000000000000000000000000000000000000000000000 PUSH0 MSTORE PUSH1 0x32 PUSH1 0x4 MSTORE PUSH1 0x24 PUSH0 REVERT JUMPDEST PUSH32 0x4E487B7100000000000000000000000000000000000000000000000000000000 PUSH0 MSTORE PUSH1 0x11 PUSH1 0x4 MSTORE PUSH1 0x24 PUSH0 REVERT JUMPDEST PUSH0 PUSH2 0x2F87 DUP3 PUSH2 0x27D1 JUMP JUMPDEST SWAP2 POP PUSH32 0xFFFFFFFFFFFFFFFFFFFFFFFFFFFFFFFFFFFFFFFFFFFFFFFFFFFFFFFFFFFFFFFF DUP3 SUB PUSH2 0x2FB9 JUMPI PUSH2 0x2FB8 PUSH2 0x2F50 JUMP JUMPDEST JUMPDEST PUSH1 0x1 DUP3 ADD SWAP1 POP SWAP2 SWAP1 POP JUMP JUMPDEST PUSH0 DUP2 SWAP1 POP SWAP3 SWAP2 POP POP JUMP JUMPDEST PUSH0 PUSH2 0x2FD8 DUP3 PUSH2 0x2727 JUMP JUMPDEST PUSH2 0x2FE2 DUP2 DUP6 PUSH2 0x2FC4 JUMP JUMPDEST SWAP4 POP PUSH2 0x2FF2 DUP2 DUP6 PUSH1 0x20 DUP7 ADD PUSH2 0x2741 JUMP JUMPDEST DUP1 DUP5 ADD SWAP2 POP POP SWAP3 SWAP2 POP POP JUMP JUMPDEST PUSH0 PUSH2 0x3009 DUP3 DUP6 PUSH2 0x2FCE JUMP JUMPDEST SWAP2 POP PUSH2 0x3015 DUP3 DUP5 PUSH2 0x2FCE JUMP JUMPDEST SWAP2 POP DUP2 SWAP1 POP SWAP4 SWAP3 POP POP POP JUMP JUMPDEST PUSH32 0x576520736F6C64206F7574210000000000000000000000000000000000000000 PUSH0 DUP3 ADD MSTORE POP JUMP JUMPDEST PUSH0 PUSH2 0x3055 PUSH1 0xC DUP4 PUSH2 0x2731 JUMP JUMPDEST SWAP2 POP PUSH2 0x3060 DUP3 PUSH2 0x3021 JUMP JUMPDEST PUSH1 0x20 DUP3 ADD SWAP1 POP SWAP2 SWAP1 POP JUMP JUMPDEST PUSH0 PUSH1 0x20 DUP3 ADD SWAP1 POP DUP2 DUP2 SUB PUSH0 DUP4 ADD MSTORE PUSH2 0x3082 DUP2 PUSH2 0x3049 JUMP JUMPDEST SWAP1 POP SWAP2 SWAP1 POP JUMP JUMPDEST PUSH0 DUP2 MLOAD SWAP1 POP SWAP2 SWAP1 POP JUMP JUMPDEST PUSH0 DUP3 DUP3 MSTORE PUSH1 0x20 DUP3 ADD SWAP1 POP SWAP3 SWAP2 POP POP JUMP JUMPDEST PUSH0 PUSH2 0x30AD DUP3 PUSH2 0x3089 JUMP JUMPDEST PUSH2 0x30B7 DUP2 DUP6 PUSH2 0x3093 JUMP JUMPDEST SWAP4 POP PUSH2 0x30C7 DUP2 DUP6 PUSH1 0x20 DUP7 ADD PUSH2 0x2741 JUMP JUMPDEST PUSH2 0x30D0 DUP2 PUSH2 0x2769 JUMP JUMPDEST DUP5 ADD SWAP2 POP POP SWAP3 SWAP2 POP POP JUMP JUMPDEST PUSH0 PUSH1 0x80 DUP3 ADD SWAP1 POP PUSH2 0x30EE PUSH0 DUP4 ADD DUP8 PUSH2 0x285F JUMP JUMPDEST PUSH2 0x30FB PUSH1 0x20 DUP4 ADD DUP7 PUSH2 0x285F JUMP JUMPDEST PUSH2 0x3108 PUSH1 0x40 DUP4 ADD DUP6 PUSH2 0x28EF JUMP JUMPDEST DUP2 DUP2 SUB PUSH1 0x60 DUP4 ADD MSTORE PUSH2 0x311A DUP2 DUP5 PUSH2 0x30A3 JUMP JUMPDEST SWAP1 POP SWAP6 SWAP5 POP POP POP POP POP JUMP JUMPDEST PUSH0 DUP2 MLOAD SWAP1 POP PUSH2 0x3133 DUP2 PUSH2 0x269F JUMP JUMPDEST SWAP3 SWAP2 POP POP JUMP JUMPDEST PUSH0 PUSH1 0x20 DUP3 DUP5 SUB SLT ISZERO PUSH2 0x314E JUMPI PUSH2 0x314D PUSH2 0x266C JUMP JUMPDEST JUMPDEST PUSH0 PUSH2 0x315B DUP5 DUP3 DUP6 ADD PUSH2 0x3125 JUMP JUMPDEST SWAP2 POP POP SWAP3 SWAP2 POP POP JUMP JUMPDEST PUSH32 0x4E487B7100000000000000000000000000000000000000000000000000000000 PUSH0 MSTORE PUSH1 0x12 PUSH1 0x4 MSTORE PUSH1 0x24 PUSH0 REVERT JUMPDEST PUSH0 PUSH2 0x319B DUP3 PUSH2 0x27D1 JUMP JUMPDEST SWAP2 POP PUSH2 0x31A6 DUP4 PUSH2 0x27D1 JUMP JUMPDEST SWAP3 POP DUP3 DUP3 SUB SWAP1 POP DUP2 DUP2 GT ISZERO PUSH2 0x31BE JUMPI PUSH2 0x31BD PUSH2 0x2F50 JUMP JUMPDEST JUMPDEST SWAP3 SWAP2 POP POP JUMP JUMPDEST PUSH32 0x4E487B7100000000000000000000000000000000000000000000000000000000 PUSH0 MSTORE PUSH1 0x31 PUSH1 0x4 MSTORE PUSH1 0x24 PUSH0 REVERT INVALID PUSH10 0x7066733A2F2F516D5935 PUSH19 0x507147544E31725A784D516732417069535A63 CALLDATACOPY 0x4A PUSH10 0x424E73317279447A5850 GAS PUSH17 0x5168433169626D2FA26469706673582212 KECCAK256 0xC2 0xBB 0x4D KECCAK256 SSTORE GT 0xCB PUSH25 0x24ABD17029195EDBEE778E16D315F4FE075FBB31505BB1A064 PUSH20 0x6F6C634300081400330000000000000000000000 "
				},
				"gasEstimates": {
					"creation": {
						"codeDepositCost": "2578600",
						"executionCost": "infinite",
						"totalCost": "infinite"
					},
					"external": {
						"allowList(address)": "2923",
						"allowListMint()": "infinite",
						"allowListMintOpen()": "2563",
						"approve(address,uint256)": "infinite",
						"balanceOf(address)": "infinite",
						"editMintWindows(bool,bool)": "infinite",
						"getApproved(uint256)": "infinite",
						"isApprovedForAll(address,address)": "infinite",
						"name()": "infinite",
						"owner()": "2611",
						"ownerOf(uint256)": "infinite",
						"pause()": "infinite",
						"paused()": "2541",
						"publicMint()": "infinite",
						"publicMintOpen()": "2510",
						"renounceOwnership()": "infinite",
						"safeTransferFrom(address,address,uint256)": "infinite",
						"safeTransferFrom(address,address,uint256,bytes)": "infinite",
						"setAllowList(address[])": "infinite",
						"setApprovalForAll(address,bool)": "infinite",
						"supportsInterface(bytes4)": "940",
						"symbol()": "infinite",
						"tokenByIndex(uint256)": "infinite",
						"tokenOfOwnerByIndex(address,uint256)": "infinite",
						"tokenURI(uint256)": "infinite",
						"totalSupply()": "2552",
						"transferFrom(address,address,uint256)": "infinite",
						"transferOwnership(address)": "infinite",
						"unpause()": "infinite",
						"withdraw(address)": "infinite"
					},
					"internal": {
						"_baseURI()": "infinite",
						"_increaseBalance(address,uint128)": "infinite",
						"_update(address,uint256,address)": "infinite",
						"internalMint()": "infinite"
					}
				},
				"methodIdentifiers": {
					"allowList(address)": "2848aeaf",
					"allowListMint()": "102a6a73",
					"allowListMintOpen()": "085c9bac",
					"approve(address,uint256)": "095ea7b3",
					"balanceOf(address)": "70a08231",
					"editMintWindows(bool,bool)": "2f48de79",
					"getApproved(uint256)": "081812fc",
					"isApprovedForAll(address,address)": "e985e9c5",
					"name()": "06fdde03",
					"owner()": "8da5cb5b",
					"ownerOf(uint256)": "6352211e",
					"pause()": "8456cb59",
					"paused()": "5c975abb",
					"publicMint()": "26092b83",
					"publicMintOpen()": "bcc9ca5b",
					"renounceOwnership()": "715018a6",
					"safeTransferFrom(address,address,uint256)": "42842e0e",
					"safeTransferFrom(address,address,uint256,bytes)": "b88d4fde",
					"setAllowList(address[])": "6447c35d",
					"setApprovalForAll(address,bool)": "a22cb465",
					"supportsInterface(bytes4)": "01ffc9a7",
					"symbol()": "95d89b41",
					"tokenByIndex(uint256)": "4f6ccce7",
					"tokenOfOwnerByIndex(address,uint256)": "2f745c59",
					"tokenURI(uint256)": "c87b56dd",
					"totalSupply()": "18160ddd",
					"transferFrom(address,address,uint256)": "23b872dd",
					"transferOwnership(address)": "f2fde38b",
					"unpause()": "3f4ba83a",
					"withdraw(address)": "51cff8d9"
				}
			},
			"storageLayout": {
				"storage": [
					{
						"astId": 317,
						"contract": "contracts/StakeTokenNFT.sol:StakeToken",
						"label": "_name",
						"offset": 0,
						"slot": "0",
						"type": "t_string_storage"
					},
					{
						"astId": 319,
						"contract": "contracts/StakeTokenNFT.sol:StakeToken",
						"label": "_symbol",
						"offset": 0,
						"slot": "1",
						"type": "t_string_storage"
					},
					{
						"astId": 323,
						"contract": "contracts/StakeTokenNFT.sol:StakeToken",
						"label": "_owners",
						"offset": 0,
						"slot": "2",
						"type": "t_mapping(t_uint256,t_address)"
					},
					{
						"astId": 327,
						"contract": "contracts/StakeTokenNFT.sol:StakeToken",
						"label": "_balances",
						"offset": 0,
						"slot": "3",
						"type": "t_mapping(t_address,t_uint256)"
					},
					{
						"astId": 331,
						"contract": "contracts/StakeTokenNFT.sol:StakeToken",
						"label": "_tokenApprovals",
						"offset": 0,
						"slot": "4",
						"type": "t_mapping(t_uint256,t_address)"
					},
					{
						"astId": 337,
						"contract": "contracts/StakeTokenNFT.sol:StakeToken",
						"label": "_operatorApprovals",
						"offset": 0,
						"slot": "5",
						"type": "t_mapping(t_address,t_mapping(t_address,t_bool))"
					},
					{
						"astId": 1447,
						"contract": "contracts/StakeTokenNFT.sol:StakeToken",
						"label": "_ownedTokens",
						"offset": 0,
						"slot": "6",
						"type": "t_mapping(t_address,t_mapping(t_uint256,t_uint256))"
					},
					{
						"astId": 1451,
						"contract": "contracts/StakeTokenNFT.sol:StakeToken",
						"label": "_ownedTokensIndex",
						"offset": 0,
						"slot": "7",
						"type": "t_mapping(t_uint256,t_uint256)"
					},
					{
						"astId": 1454,
						"contract": "contracts/StakeTokenNFT.sol:StakeToken",
						"label": "_allTokens",
						"offset": 0,
						"slot": "8",
						"type": "t_array(t_uint256)dyn_storage"
					},
					{
						"astId": 1458,
						"contract": "contracts/StakeTokenNFT.sol:StakeToken",
						"label": "_allTokensIndex",
						"offset": 0,
						"slot": "9",
						"type": "t_mapping(t_uint256,t_uint256)"
					},
					{
						"astId": 1946,
						"contract": "contracts/StakeTokenNFT.sol:StakeToken",
						"label": "_paused",
						"offset": 0,
						"slot": "10",
						"type": "t_bool"
					},
					{
						"astId": 8,
						"contract": "contracts/StakeTokenNFT.sol:StakeToken",
						"label": "_owner",
						"offset": 1,
						"slot": "10",
						"type": "t_address"
					},
					{
						"astId": 3520,
						"contract": "contracts/StakeTokenNFT.sol:StakeToken",
						"label": "_nextTokenId",
						"offset": 0,
						"slot": "11",
						"type": "t_uint256"
					},
					{
						"astId": 3523,
						"contract": "contracts/StakeTokenNFT.sol:StakeToken",
						"label": "maxSupply",
						"offset": 0,
						"slot": "12",
						"type": "t_uint256"
					},
					{
						"astId": 3526,
						"contract": "contracts/StakeTokenNFT.sol:StakeToken",
						"label": "publicMintOpen",
						"offset": 0,
						"slot": "13",
						"type": "t_bool"
					},
					{
						"astId": 3529,
						"contract": "contracts/StakeTokenNFT.sol:StakeToken",
						"label": "allowListMintOpen",
						"offset": 1,
						"slot": "13",
						"type": "t_bool"
					},
					{
						"astId": 3533,
						"contract": "contracts/StakeTokenNFT.sol:StakeToken",
						"label": "allowList",
						"offset": 0,
						"slot": "14",
						"type": "t_mapping(t_address,t_bool)"
					}
				],
				"types": {
					"t_address": {
						"encoding": "inplace",
						"label": "address",
						"numberOfBytes": "20"
					},
					"t_array(t_uint256)dyn_storage": {
						"base": "t_uint256",
						"encoding": "dynamic_array",
						"label": "uint256[]",
						"numberOfBytes": "32"
					},
					"t_bool": {
						"encoding": "inplace",
						"label": "bool",
						"numberOfBytes": "1"
					},
					"t_mapping(t_address,t_bool)": {
						"encoding": "mapping",
						"key": "t_address",
						"label": "mapping(address => bool)",
						"numberOfBytes": "32",
						"value": "t_bool"
					},
					"t_mapping(t_address,t_mapping(t_address,t_bool))": {
						"encoding": "mapping",
						"key": "t_address",
						"label": "mapping(address => mapping(address => bool))",
						"numberOfBytes": "32",
						"value": "t_mapping(t_address,t_bool)"
					},
					"t_mapping(t_address,t_mapping(t_uint256,t_uint256))": {
						"encoding": "mapping",
						"key": "t_address",
						"label": "mapping(address => mapping(uint256 => uint256))",
						"numberOfBytes": "32",
						"value": "t_mapping(t_uint256,t_uint256)"
					},
					"t_mapping(t_address,t_uint256)": {
						"encoding": "mapping",
						"key": "t_address",
						"label": "mapping(address => uint256)",
						"numberOfBytes": "32",
						"value": "t_uint256"
					},
					"t_mapping(t_uint256,t_address)": {
						"encoding": "mapping",
						"key": "t_uint256",
						"label": "mapping(uint256 => address)",
						"numberOfBytes": "32",
						"value": "t_address"
					},
					"t_mapping(t_uint256,t_uint256)": {
						"encoding": "mapping",
						"key": "t_uint256",
						"label": "mapping(uint256 => uint256)",
						"numberOfBytes": "32",
						"value": "t_uint256"
					},
					"t_string_storage": {
						"encoding": "bytes",
						"label": "string",
						"numberOfBytes": "32"
					},
					"t_uint256": {
						"encoding": "inplace",
						"label": "uint256",
						"numberOfBytes": "32"
					}
				}
			},
			"userdoc": {
				"kind": "user",
				"methods": {},
				"version": 1
			}
		}
	}
}