{
	"contracts/StakeTokenStaking.sol": {
		"Staking": {
			"abi": [
				{
					"inputs": [
						{
							"internalType": "address",
							"name": "_nft",
							"type": "address"
						},
						{
							"internalType": "address",
							"name": "_token",
							"type": "address"
						}
					],
					"stateMutability": "nonpayable",
					"type": "constructor"
				},
				{
					"inputs": [
						{
							"internalType": "uint256",
							"name": "_tokenId",
							"type": "uint256"
						}
					],
					"name": "calculateReward",
					"outputs": [
						{
							"internalType": "uint256",
							"name": "",
							"type": "uint256"
						}
					],
					"stateMutability": "view",
					"type": "function"
				},
				{
					"inputs": [
						{
							"internalType": "address",
							"name": "",
							"type": "address"
						},
						{
							"internalType": "address",
							"name": "",
							"type": "address"
						},
						{
							"internalType": "uint256",
							"name": "",
							"type": "uint256"
						},
						{
							"internalType": "bytes",
							"name": "",
							"type": "bytes"
						}
					],
					"name": "onERC721Received",
					"outputs": [
						{
							"internalType": "bytes4",
							"name": "",
							"type": "bytes4"
						}
					],
					"stateMutability": "nonpayable",
					"type": "function"
				},
				{
					"inputs": [
						{
							"internalType": "address",
							"name": "",
							"type": "address"
						},
						{
							"internalType": "uint256",
							"name": "",
							"type": "uint256"
						}
					],
					"name": "stakes",
					"outputs": [
						{
							"internalType": "uint256",
							"name": "",
							"type": "uint256"
						}
					],
					"stateMutability": "view",
					"type": "function"
				},
				{
					"inputs": [
						{
							"internalType": "uint256",
							"name": "_tokenId",
							"type": "uint256"
						}
					],
					"name": "staking",
					"outputs": [],
					"stateMutability": "nonpayable",
					"type": "function"
				},
				{
					"inputs": [
						{
							"internalType": "uint256",
							"name": "_tokenId",
							"type": "uint256"
						}
					],
					"name": "unstake",
					"outputs": [],
					"stateMutability": "nonpayable",
					"type": "function"
				}
			],
			"devdoc": {
				"kind": "dev",
				"methods": {
					"onERC721Received(address,address,uint256,bytes)": {
						"details": "See {IERC721Receiver-onERC721Received}. Always returns `IERC721Receiver.onERC721Received.selector`."
					}
				},
				"version": 1
			},
			"evm": {
				"assembly": "    /* \"contracts/StakeTokenStaking.sol\":327:2009  contract Staking is IERC721Receiver, ERC721Holder {... */\n  mstore(0x40, 0xc0)\n    /* \"contracts/StakeTokenStaking.sol\":545:657  constructor(address _nft, address _token) {... */\n  callvalue\n  dup1\n  iszero\n  tag_1\n  jumpi\n  0x00\n  dup1\n  revert\ntag_1:\n  pop\n  mload(0x40)\n  sub(codesize, bytecodeSize)\n  dup1\n  bytecodeSize\n  dup4\n  codecopy\n  dup2\n  dup2\n  add\n  0x40\n  mstore\n  dup2\n  add\n  swap1\n  tag_2\n  swap2\n  swap1\n  tag_3\n  jump\t// in\ntag_2:\n    /* \"contracts/StakeTokenStaking.sol\":612:616  _nft */\n  dup2\n    /* \"contracts/StakeTokenStaking.sol\":598:617  nft = IERC721(_nft) */\n  0xffffffffffffffffffffffffffffffffffffffff\n  and\n  0x80\n  dup2\n  0xffffffffffffffffffffffffffffffffffffffff\n  and\n  dup2\n  mstore\n  pop\n  pop\n    /* \"contracts/StakeTokenStaking.sol\":642:648  _token */\n  dup1\n    /* \"contracts/StakeTokenStaking.sol\":628:649  token = ERC20(_token) */\n  0xffffffffffffffffffffffffffffffffffffffff\n  and\n  0xa0\n  dup2\n  0xffffffffffffffffffffffffffffffffffffffff\n  and\n  dup2\n  mstore\n  pop\n  pop\n    /* \"contracts/StakeTokenStaking.sol\":545:657  constructor(address _nft, address _token) {... */\n  pop\n  pop\n    /* \"contracts/StakeTokenStaking.sol\":327:2009  contract Staking is IERC721Receiver, ERC721Holder {... */\n  jump(tag_6)\n    /* \"#utility.yul\":88:205   */\ntag_8:\n    /* \"#utility.yul\":197:198   */\n  0x00\n    /* \"#utility.yul\":194:195   */\n  dup1\n    /* \"#utility.yul\":187:199   */\n  revert\n    /* \"#utility.yul\":334:460   */\ntag_10:\n    /* \"#utility.yul\":371:378   */\n  0x00\n    /* \"#utility.yul\":411:453   */\n  0xffffffffffffffffffffffffffffffffffffffff\n    /* \"#utility.yul\":404:409   */\n  dup3\n    /* \"#utility.yul\":400:454   */\n  and\n    /* \"#utility.yul\":389:454   */\n  swap1\n  pop\n    /* \"#utility.yul\":334:460   */\n  swap2\n  swap1\n  pop\n  jump\t// out\n    /* \"#utility.yul\":466:562   */\ntag_11:\n    /* \"#utility.yul\":503:510   */\n  0x00\n    /* \"#utility.yul\":532:556   */\n  tag_20\n    /* \"#utility.yul\":550:555   */\n  dup3\n    /* \"#utility.yul\":532:556   */\n  tag_10\n  jump\t// in\ntag_20:\n    /* \"#utility.yul\":521:556   */\n  swap1\n  pop\n    /* \"#utility.yul\":466:562   */\n  swap2\n  swap1\n  pop\n  jump\t// out\n    /* \"#utility.yul\":568:690   */\ntag_12:\n    /* \"#utility.yul\":641:665   */\n  tag_22\n    /* \"#utility.yul\":659:664   */\n  dup2\n    /* \"#utility.yul\":641:665   */\n  tag_11\n  jump\t// in\ntag_22:\n    /* \"#utility.yul\":634:639   */\n  dup2\n    /* \"#utility.yul\":631:666   */\n  eq\n    /* \"#utility.yul\":621:684   */\n  tag_23\n  jumpi\n    /* \"#utility.yul\":680:681   */\n  0x00\n    /* \"#utility.yul\":677:678   */\n  dup1\n    /* \"#utility.yul\":670:682   */\n  revert\n    /* \"#utility.yul\":621:684   */\ntag_23:\n    /* \"#utility.yul\":568:690   */\n  pop\n  jump\t// out\n    /* \"#utility.yul\":696:839   */\ntag_13:\n    /* \"#utility.yul\":753:758   */\n  0x00\n    /* \"#utility.yul\":784:790   */\n  dup2\n    /* \"#utility.yul\":778:791   */\n  mload\n    /* \"#utility.yul\":769:791   */\n  swap1\n  pop\n    /* \"#utility.yul\":800:833   */\n  tag_25\n    /* \"#utility.yul\":827:832   */\n  dup2\n    /* \"#utility.yul\":800:833   */\n  tag_12\n  jump\t// in\ntag_25:\n    /* \"#utility.yul\":696:839   */\n  swap3\n  swap2\n  pop\n  pop\n  jump\t// out\n    /* \"#utility.yul\":845:1352   */\ntag_3:\n    /* \"#utility.yul\":924:930   */\n  0x00\n    /* \"#utility.yul\":932:938   */\n  dup1\n    /* \"#utility.yul\":981:983   */\n  0x40\n    /* \"#utility.yul\":969:978   */\n  dup4\n    /* \"#utility.yul\":960:967   */\n  dup6\n    /* \"#utility.yul\":956:979   */\n  sub\n    /* \"#utility.yul\":952:984   */\n  slt\n    /* \"#utility.yul\":949:1068   */\n  iszero\n  tag_27\n  jumpi\n    /* \"#utility.yul\":987:1066   */\n  tag_28\n  tag_8\n  jump\t// in\ntag_28:\n    /* \"#utility.yul\":949:1068   */\ntag_27:\n    /* \"#utility.yul\":1107:1108   */\n  0x00\n    /* \"#utility.yul\":1132:1196   */\n  tag_29\n    /* \"#utility.yul\":1188:1195   */\n  dup6\n    /* \"#utility.yul\":1179:1185   */\n  dup3\n    /* \"#utility.yul\":1168:1177   */\n  dup7\n    /* \"#utility.yul\":1164:1186   */\n  add\n    /* \"#utility.yul\":1132:1196   */\n  tag_13\n  jump\t// in\ntag_29:\n    /* \"#utility.yul\":1122:1196   */\n  swap3\n  pop\n    /* \"#utility.yul\":1078:1206   */\n  pop\n    /* \"#utility.yul\":1245:1247   */\n  0x20\n    /* \"#utility.yul\":1271:1335   */\n  tag_30\n    /* \"#utility.yul\":1327:1334   */\n  dup6\n    /* \"#utility.yul\":1318:1324   */\n  dup3\n    /* \"#utility.yul\":1307:1316   */\n  dup7\n    /* \"#utility.yul\":1303:1325   */\n  add\n    /* \"#utility.yul\":1271:1335   */\n  tag_13\n  jump\t// in\ntag_30:\n    /* \"#utility.yul\":1261:1335   */\n  swap2\n  pop\n    /* \"#utility.yul\":1216:1345   */\n  pop\n    /* \"#utility.yul\":845:1352   */\n  swap3\n  pop\n  swap3\n  swap1\n  pop\n  jump\t// out\n    /* \"contracts/StakeTokenStaking.sol\":327:2009  contract Staking is IERC721Receiver, ERC721Holder {... */\ntag_6:\n  mload(0x80)\n  mload(0xa0)\n  codecopy(0x00, dataOffset(sub_0), dataSize(sub_0))\n  0x00\n  assignImmutable(\"0x78a9014aa316c0d81e8cac1983f47ca946aa7db198b97933cfa2b1daf2bdc940\")\n  0x00\n  assignImmutable(\"0xb2b512b441304a14c78813be0575a2b1be8296b169485190a954ec0635e46369\")\n  return(0x00, dataSize(sub_0))\nstop\n\nsub_0: assembly {\n        /* \"contracts/StakeTokenStaking.sol\":327:2009  contract Staking is IERC721Receiver, ERC721Holder {... */\n      mstore(0x40, 0x80)\n      callvalue\n      dup1\n      iszero\n      tag_1\n      jumpi\n      0x00\n      dup1\n      revert\n    tag_1:\n      pop\n      jumpi(tag_2, lt(calldatasize, 0x04))\n      shr(0xe0, calldataload(0x00))\n      dup1\n      0x150b7a02\n      eq\n      tag_3\n      jumpi\n      dup1\n      0x1dbb2a22\n      eq\n      tag_4\n      jumpi\n      dup1\n      0x2e17de78\n      eq\n      tag_5\n      jumpi\n      dup1\n      0x584b62a1\n      eq\n      tag_6\n      jumpi\n      dup1\n      0xd2d7231f\n      eq\n      tag_7\n      jumpi\n    tag_2:\n      0x00\n      dup1\n      revert\n        /* \"@openzeppelin/contracts/token/ERC721/utils/ERC721Holder.sol\":639:792  function onERC721Received(address, address, uint256, bytes memory) public virtual returns (bytes4) {... */\n    tag_3:\n      tag_8\n      0x04\n      dup1\n      calldatasize\n      sub\n      dup2\n      add\n      swap1\n      tag_9\n      swap2\n      swap1\n      tag_10\n      jump\t// in\n    tag_9:\n      tag_11\n      jump\t// in\n    tag_8:\n      mload(0x40)\n      tag_12\n      swap2\n      swap1\n      tag_13\n      jump\t// in\n    tag_12:\n      mload(0x40)\n      dup1\n      swap2\n      sub\n      swap1\n      return\n        /* \"contracts/StakeTokenStaking.sol\":979:1261  function staking(uint256 _tokenId) public {... */\n    tag_4:\n      tag_14\n      0x04\n      dup1\n      calldatasize\n      sub\n      dup2\n      add\n      swap1\n      tag_15\n      swap2\n      swap1\n      tag_16\n      jump\t// in\n    tag_15:\n      tag_17\n      jump\t// in\n    tag_14:\n      stop\n        /* \"contracts/StakeTokenStaking.sol\":1624:2004  function unstake(uint256 _tokenId) public {... */\n    tag_5:\n      tag_18\n      0x04\n      dup1\n      calldatasize\n      sub\n      dup2\n      add\n      swap1\n      tag_19\n      swap2\n      swap1\n      tag_16\n      jump\t// in\n    tag_19:\n      tag_20\n      jump\t// in\n    tag_18:\n      stop\n        /* \"contracts/StakeTokenStaking.sol\":474:536  mapping (address => mapping(uint256 => uint256)) public stakes */\n    tag_6:\n      tag_21\n      0x04\n      dup1\n      calldatasize\n      sub\n      dup2\n      add\n      swap1\n      tag_22\n      swap2\n      swap1\n      tag_23\n      jump\t// in\n    tag_22:\n      tag_24\n      jump\t// in\n    tag_21:\n      mload(0x40)\n      tag_25\n      swap2\n      swap1\n      tag_26\n      jump\t// in\n    tag_25:\n      mload(0x40)\n      dup1\n      swap2\n      sub\n      swap1\n      return\n        /* \"contracts/StakeTokenStaking.sol\":1269:1616  function calculateReward(uint256 _tokenId) public view returns(uint256) {... */\n    tag_7:\n      tag_27\n      0x04\n      dup1\n      calldatasize\n      sub\n      dup2\n      add\n      swap1\n      tag_28\n      swap2\n      swap1\n      tag_16\n      jump\t// in\n    tag_28:\n      tag_29\n      jump\t// in\n    tag_27:\n      mload(0x40)\n      tag_30\n      swap2\n      swap1\n      tag_26\n      jump\t// in\n    tag_30:\n      mload(0x40)\n      dup1\n      swap2\n      sub\n      swap1\n      return\n        /* \"@openzeppelin/contracts/token/ERC721/utils/ERC721Holder.sol\":639:792  function onERC721Received(address, address, uint256, bytes memory) public virtual returns (bytes4) {... */\n    tag_11:\n        /* \"@openzeppelin/contracts/token/ERC721/utils/ERC721Holder.sol\":730:736  bytes4 */\n      0x00\n        /* \"@openzeppelin/contracts/token/ERC721/utils/ERC721Holder.sol\":755:785  this.onERC721Received.selector */\n      shl(0xe0, 0x150b7a02)\n        /* \"@openzeppelin/contracts/token/ERC721/utils/ERC721Holder.sol\":748:785  return this.onERC721Received.selector */\n      swap1\n      pop\n        /* \"@openzeppelin/contracts/token/ERC721/utils/ERC721Holder.sol\":639:792  function onERC721Received(address, address, uint256, bytes memory) public virtual returns (bytes4) {... */\n      swap5\n      swap4\n      pop\n      pop\n      pop\n      pop\n      jump\t// out\n        /* \"contracts/StakeTokenStaking.sol\":979:1261  function staking(uint256 _tokenId) public {... */\n    tag_17:\n        /* \"contracts/StakeTokenStaking.sol\":1065:1075  msg.sender */\n      caller\n        /* \"contracts/StakeTokenStaking.sol\":1040:1075  nft.ownerOf(_tokenId) == msg.sender */\n      0xffffffffffffffffffffffffffffffffffffffff\n      and\n        /* \"contracts/StakeTokenStaking.sol\":1040:1043  nft */\n      immutable(\"0xb2b512b441304a14c78813be0575a2b1be8296b169485190a954ec0635e46369\")\n        /* \"contracts/StakeTokenStaking.sol\":1040:1051  nft.ownerOf */\n      0xffffffffffffffffffffffffffffffffffffffff\n      and\n      0x6352211e\n        /* \"contracts/StakeTokenStaking.sol\":1052:1060  _tokenId */\n      dup4\n        /* \"contracts/StakeTokenStaking.sol\":1040:1061  nft.ownerOf(_tokenId) */\n      mload(0x40)\n      dup3\n      0xffffffff\n      and\n      0xe0\n      shl\n      dup2\n      mstore\n      0x04\n      add\n      tag_33\n      swap2\n      swap1\n      tag_26\n      jump\t// in\n    tag_33:\n      0x20\n      mload(0x40)\n      dup1\n      dup4\n      sub\n      dup2\n      dup7\n      gas\n      staticcall\n      iszero\n      dup1\n      iszero\n      tag_35\n      jumpi\n      returndatasize\n      0x00\n      dup1\n      returndatacopy\n      revert(0x00, returndatasize)\n    tag_35:\n      pop\n      pop\n      pop\n      pop\n      mload(0x40)\n      returndatasize\n      not(0x1f)\n      0x1f\n      dup3\n      add\n      and\n      dup3\n      add\n      dup1\n      0x40\n      mstore\n      pop\n      dup2\n      add\n      swap1\n      tag_36\n      swap2\n      swap1\n      tag_37\n      jump\t// in\n    tag_36:\n        /* \"contracts/StakeTokenStaking.sol\":1040:1075  nft.ownerOf(_tokenId) == msg.sender */\n      0xffffffffffffffffffffffffffffffffffffffff\n      and\n      eq\n        /* \"contracts/StakeTokenStaking.sol\":1032:1103  require(nft.ownerOf(_tokenId) == msg.sender, \"You're not own this NFT\") */\n      tag_38\n      jumpi\n      mload(0x40)\n      0x08c379a000000000000000000000000000000000000000000000000000000000\n      dup2\n      mstore\n      0x04\n      add\n      tag_39\n      swap1\n      tag_40\n      jump\t// in\n    tag_39:\n      mload(0x40)\n      dup1\n      swap2\n      sub\n      swap1\n      revert\n    tag_38:\n        /* \"contracts/StakeTokenStaking.sol\":1166:1181  block.timestamp */\n      timestamp\n        /* \"contracts/StakeTokenStaking.sol\":1135:1141  stakes */\n      0x00\n        /* \"contracts/StakeTokenStaking.sol\":1135:1153  stakes[msg.sender] */\n      dup1\n        /* \"contracts/StakeTokenStaking.sol\":1142:1152  msg.sender */\n      caller\n        /* \"contracts/StakeTokenStaking.sol\":1135:1153  stakes[msg.sender] */\n      0xffffffffffffffffffffffffffffffffffffffff\n      and\n      0xffffffffffffffffffffffffffffffffffffffff\n      and\n      dup2\n      mstore\n      0x20\n      add\n      swap1\n      dup2\n      mstore\n      0x20\n      add\n      0x00\n      keccak256\n        /* \"contracts/StakeTokenStaking.sol\":1135:1163  stakes[msg.sender][_tokenId] */\n      0x00\n        /* \"contracts/StakeTokenStaking.sol\":1154:1162  _tokenId */\n      dup4\n        /* \"contracts/StakeTokenStaking.sol\":1135:1163  stakes[msg.sender][_tokenId] */\n      dup2\n      mstore\n      0x20\n      add\n      swap1\n      dup2\n      mstore\n      0x20\n      add\n      0x00\n      keccak256\n        /* \"contracts/StakeTokenStaking.sol\":1135:1181  stakes[msg.sender][_tokenId] = block.timestamp */\n      dup2\n      swap1\n      sstore\n      pop\n        /* \"contracts/StakeTokenStaking.sol\":1192:1195  nft */\n      immutable(\"0xb2b512b441304a14c78813be0575a2b1be8296b169485190a954ec0635e46369\")\n        /* \"contracts/StakeTokenStaking.sol\":1192:1212  nft.safeTransferFrom */\n      0xffffffffffffffffffffffffffffffffffffffff\n      and\n      0xb88d4fde\n        /* \"contracts/StakeTokenStaking.sol\":1213:1223  msg.sender */\n      caller\n        /* \"contracts/StakeTokenStaking.sol\":1233:1237  this */\n      address\n        /* \"contracts/StakeTokenStaking.sol\":1240:1248  _tokenId */\n      dup5\n        /* \"contracts/StakeTokenStaking.sol\":1192:1253  nft.safeTransferFrom(msg.sender, address(this), _tokenId, \"\") */\n      mload(0x40)\n      dup5\n      0xffffffff\n      and\n      0xe0\n      shl\n      dup2\n      mstore\n      0x04\n      add\n      tag_41\n      swap4\n      swap3\n      swap2\n      swap1\n      tag_42\n      jump\t// in\n    tag_41:\n      0x00\n      mload(0x40)\n      dup1\n      dup4\n      sub\n      dup2\n      0x00\n      dup8\n      dup1\n      extcodesize\n      iszero\n      dup1\n      iszero\n      tag_43\n      jumpi\n      0x00\n      dup1\n      revert\n    tag_43:\n      pop\n      gas\n      call\n      iszero\n      dup1\n      iszero\n      tag_45\n      jumpi\n      returndatasize\n      0x00\n      dup1\n      returndatacopy\n      revert(0x00, returndatasize)\n    tag_45:\n      pop\n      pop\n      pop\n      pop\n        /* \"contracts/StakeTokenStaking.sol\":979:1261  function staking(uint256 _tokenId) public {... */\n      pop\n      jump\t// out\n        /* \"contracts/StakeTokenStaking.sol\":1624:2004  function unstake(uint256 _tokenId) public {... */\n    tag_20:\n        /* \"contracts/StakeTokenStaking.sol\":1705:1725  uint256 rewardAmount */\n      0x00\n        /* \"contracts/StakeTokenStaking.sol\":1728:1753  calculateReward(_tokenId) */\n      tag_47\n        /* \"contracts/StakeTokenStaking.sol\":1744:1752  _tokenId */\n      dup3\n        /* \"contracts/StakeTokenStaking.sol\":1728:1743  calculateReward */\n      tag_29\n        /* \"contracts/StakeTokenStaking.sol\":1728:1753  calculateReward(_tokenId) */\n      jump\t// in\n    tag_47:\n        /* \"contracts/StakeTokenStaking.sol\":1705:1753  uint256 rewardAmount = calculateReward(_tokenId) */\n      swap1\n      pop\n        /* \"contracts/StakeTokenStaking.sol\":1771:1777  stakes */\n      0x00\n        /* \"contracts/StakeTokenStaking.sol\":1771:1789  stakes[msg.sender] */\n      dup1\n        /* \"contracts/StakeTokenStaking.sol\":1778:1788  msg.sender */\n      caller\n        /* \"contracts/StakeTokenStaking.sol\":1771:1789  stakes[msg.sender] */\n      0xffffffffffffffffffffffffffffffffffffffff\n      and\n      0xffffffffffffffffffffffffffffffffffffffff\n      and\n      dup2\n      mstore\n      0x20\n      add\n      swap1\n      dup2\n      mstore\n      0x20\n      add\n      0x00\n      keccak256\n        /* \"contracts/StakeTokenStaking.sol\":1771:1799  stakes[msg.sender][_tokenId] */\n      0x00\n        /* \"contracts/StakeTokenStaking.sol\":1790:1798  _tokenId */\n      dup4\n        /* \"contracts/StakeTokenStaking.sol\":1771:1799  stakes[msg.sender][_tokenId] */\n      dup2\n      mstore\n      0x20\n      add\n      swap1\n      dup2\n      mstore\n      0x20\n      add\n      0x00\n      keccak256\n        /* \"contracts/StakeTokenStaking.sol\":1764:1799  delete stakes[msg.sender][_tokenId] */\n      0x00\n      swap1\n      sstore\n        /* \"contracts/StakeTokenStaking.sol\":1810:1813  nft */\n      immutable(\"0xb2b512b441304a14c78813be0575a2b1be8296b169485190a954ec0635e46369\")\n        /* \"contracts/StakeTokenStaking.sol\":1810:1830  nft.safeTransferFrom */\n      0xffffffffffffffffffffffffffffffffffffffff\n      and\n      0xb88d4fde\n        /* \"contracts/StakeTokenStaking.sol\":1839:1843  this */\n      address\n        /* \"contracts/StakeTokenStaking.sol\":1846:1856  msg.sender */\n      caller\n        /* \"contracts/StakeTokenStaking.sol\":1858:1866  _tokenId */\n      dup6\n        /* \"contracts/StakeTokenStaking.sol\":1810:1871  nft.safeTransferFrom(address(this), msg.sender, _tokenId, \"\") */\n      mload(0x40)\n      dup5\n      0xffffffff\n      and\n      0xe0\n      shl\n      dup2\n      mstore\n      0x04\n      add\n      tag_48\n      swap4\n      swap3\n      swap2\n      swap1\n      tag_42\n      jump\t// in\n    tag_48:\n      0x00\n      mload(0x40)\n      dup1\n      dup4\n      sub\n      dup2\n      0x00\n      dup8\n      dup1\n      extcodesize\n      iszero\n      dup1\n      iszero\n      tag_49\n      jumpi\n      0x00\n      dup1\n      revert\n    tag_49:\n      pop\n      gas\n      call\n      iszero\n      dup1\n      iszero\n      tag_51\n      jumpi\n      returndatasize\n      0x00\n      dup1\n      returndatacopy\n      revert(0x00, returndatasize)\n    tag_51:\n      pop\n      pop\n      pop\n      pop\n        /* \"contracts/StakeTokenStaking.sol\":1884:1889  token */\n      immutable(\"0x78a9014aa316c0d81e8cac1983f47ca946aa7db198b97933cfa2b1daf2bdc940\")\n        /* \"contracts/StakeTokenStaking.sol\":1884:1898  token.transfer */\n      0xffffffffffffffffffffffffffffffffffffffff\n      and\n      0xa9059cbb\n        /* \"contracts/StakeTokenStaking.sol\":1899:1909  msg.sender */\n      caller\n        /* \"contracts/StakeTokenStaking.sol\":1911:1923  rewardAmount */\n      dup4\n        /* \"contracts/StakeTokenStaking.sol\":1884:1924  token.transfer(msg.sender, rewardAmount) */\n      mload(0x40)\n      dup4\n      0xffffffff\n      and\n      0xe0\n      shl\n      dup2\n      mstore\n      0x04\n      add\n      tag_52\n      swap3\n      swap2\n      swap1\n      tag_53\n      jump\t// in\n    tag_52:\n      0x20\n      mload(0x40)\n      dup1\n      dup4\n      sub\n      dup2\n      0x00\n      dup8\n      gas\n      call\n      iszero\n      dup1\n      iszero\n      tag_55\n      jumpi\n      returndatasize\n      0x00\n      dup1\n      returndatacopy\n      revert(0x00, returndatasize)\n    tag_55:\n      pop\n      pop\n      pop\n      pop\n      mload(0x40)\n      returndatasize\n      not(0x1f)\n      0x1f\n      dup3\n      add\n      and\n      dup3\n      add\n      dup1\n      0x40\n      mstore\n      pop\n      dup2\n      add\n      swap1\n      tag_56\n      swap2\n      swap1\n      tag_57\n      jump\t// in\n    tag_56:\n      pop\n        /* \"contracts/StakeTokenStaking.sol\":1666:2004  {... */\n      pop\n        /* \"contracts/StakeTokenStaking.sol\":1624:2004  function unstake(uint256 _tokenId) public {... */\n      pop\n      jump\t// out\n        /* \"contracts/StakeTokenStaking.sol\":474:536  mapping (address => mapping(uint256 => uint256)) public stakes */\n    tag_24:\n      mstore(0x20, 0x00)\n      dup2\n      0x00\n      mstore\n      mstore(0x20, keccak256(0x00, 0x40))\n      dup1\n      0x00\n      mstore\n      keccak256(0x00, 0x40)\n      0x00\n      swap2\n      pop\n      swap2\n      pop\n      pop\n      sload\n      dup2\n      jump\t// out\n        /* \"contracts/StakeTokenStaking.sol\":1269:1616  function calculateReward(uint256 _tokenId) public view returns(uint256) {... */\n    tag_29:\n        /* \"contracts/StakeTokenStaking.sol\":1332:1339  uint256 */\n      0x00\n        /* \"contracts/StakeTokenStaking.sol\":1391:1392  0 */\n      dup1\n        /* \"contracts/StakeTokenStaking.sol\":1360:1366  stakes */\n      0x00\n        /* \"contracts/StakeTokenStaking.sol\":1360:1378  stakes[msg.sender] */\n      dup1\n        /* \"contracts/StakeTokenStaking.sol\":1367:1377  msg.sender */\n      caller\n        /* \"contracts/StakeTokenStaking.sol\":1360:1378  stakes[msg.sender] */\n      0xffffffffffffffffffffffffffffffffffffffff\n      and\n      0xffffffffffffffffffffffffffffffffffffffff\n      and\n      dup2\n      mstore\n      0x20\n      add\n      swap1\n      dup2\n      mstore\n      0x20\n      add\n      0x00\n      keccak256\n        /* \"contracts/StakeTokenStaking.sol\":1360:1388  stakes[msg.sender][_tokenId] */\n      0x00\n        /* \"contracts/StakeTokenStaking.sol\":1379:1387  _tokenId */\n      dup5\n        /* \"contracts/StakeTokenStaking.sol\":1360:1388  stakes[msg.sender][_tokenId] */\n      dup2\n      mstore\n      0x20\n      add\n      swap1\n      dup2\n      mstore\n      0x20\n      add\n      0x00\n      keccak256\n      sload\n        /* \"contracts/StakeTokenStaking.sol\":1360:1392  stakes[msg.sender][_tokenId] > 0 */\n      gt\n        /* \"contracts/StakeTokenStaking.sol\":1352:1421  require(stakes[msg.sender][_tokenId] > 0, \"You never stake this NFT\") */\n      tag_59\n      jumpi\n      mload(0x40)\n      0x08c379a000000000000000000000000000000000000000000000000000000000\n      dup2\n      mstore\n      0x04\n      add\n      tag_60\n      swap1\n      tag_61\n      jump\t// in\n    tag_60:\n      mload(0x40)\n      dup1\n      swap2\n      sub\n      swap1\n      revert\n    tag_59:\n        /* \"contracts/StakeTokenStaking.sol\":1432:1444  uint256 time */\n      0x00\n        /* \"contracts/StakeTokenStaking.sol\":1465:1471  stakes */\n      dup1\n        /* \"contracts/StakeTokenStaking.sol\":1465:1483  stakes[msg.sender] */\n      0x00\n        /* \"contracts/StakeTokenStaking.sol\":1472:1482  msg.sender */\n      caller\n        /* \"contracts/StakeTokenStaking.sol\":1465:1483  stakes[msg.sender] */\n      0xffffffffffffffffffffffffffffffffffffffff\n      and\n      0xffffffffffffffffffffffffffffffffffffffff\n      and\n      dup2\n      mstore\n      0x20\n      add\n      swap1\n      dup2\n      mstore\n      0x20\n      add\n      0x00\n      keccak256\n        /* \"contracts/StakeTokenStaking.sol\":1465:1493  stakes[msg.sender][_tokenId] */\n      0x00\n        /* \"contracts/StakeTokenStaking.sol\":1484:1492  _tokenId */\n      dup5\n        /* \"contracts/StakeTokenStaking.sol\":1465:1493  stakes[msg.sender][_tokenId] */\n      dup2\n      mstore\n      0x20\n      add\n      swap1\n      dup2\n      mstore\n      0x20\n      add\n      0x00\n      keccak256\n      sload\n        /* \"contracts/StakeTokenStaking.sol\":1447:1462  block.timestamp */\n      timestamp\n        /* \"contracts/StakeTokenStaking.sol\":1447:1493  block.timestamp - stakes[msg.sender][_tokenId] */\n      tag_62\n      swap2\n      swap1\n      tag_63\n      jump\t// in\n    tag_62:\n        /* \"contracts/StakeTokenStaking.sol\":1432:1493  uint256 time = block.timestamp - stakes[msg.sender][_tokenId] */\n      swap1\n      pop\n        /* \"contracts/StakeTokenStaking.sol\":1504:1524  uint256 rewardAmount */\n      0x00\n        /* \"contracts/StakeTokenStaking.sol\":1569:1578  1 minutes */\n      0x3c\n        /* \"contracts/StakeTokenStaking.sol\":1557:1565  10 ** 18 */\n      0x0de0b6b3a7640000\n        /* \"contracts/StakeTokenStaking.sol\":1549:1553  time */\n      dup4\n        /* \"contracts/StakeTokenStaking.sol\":1527:1546  calculateRate(time) */\n      tag_64\n        /* \"contracts/StakeTokenStaking.sol\":1541:1545  time */\n      dup6\n        /* \"contracts/StakeTokenStaking.sol\":1527:1540  calculateRate */\n      tag_65\n        /* \"contracts/StakeTokenStaking.sol\":1527:1546  calculateRate(time) */\n      jump\t// in\n    tag_64:\n        /* \"contracts/StakeTokenStaking.sol\":1527:1553  calculateRate(time) * time */\n      tag_66\n      swap2\n      swap1\n      tag_67\n      jump\t// in\n    tag_66:\n        /* \"contracts/StakeTokenStaking.sol\":1527:1566  calculateRate(time) * time * (10 ** 18) */\n      tag_68\n      swap2\n      swap1\n      tag_67\n      jump\t// in\n    tag_68:\n        /* \"contracts/StakeTokenStaking.sol\":1527:1578  calculateRate(time) * time * (10 ** 18) / 1 minutes */\n      tag_69\n      swap2\n      swap1\n      tag_70\n      jump\t// in\n    tag_69:\n        /* \"contracts/StakeTokenStaking.sol\":1504:1578  uint256 rewardAmount = calculateRate(time) * time * (10 ** 18) / 1 minutes */\n      swap1\n      pop\n        /* \"contracts/StakeTokenStaking.sol\":1596:1608  rewardAmount */\n      dup1\n        /* \"contracts/StakeTokenStaking.sol\":1589:1608  return rewardAmount */\n      swap3\n      pop\n      pop\n      pop\n        /* \"contracts/StakeTokenStaking.sol\":1269:1616  function calculateReward(uint256 _tokenId) public view returns(uint256) {... */\n      swap2\n      swap1\n      pop\n      jump\t// out\n        /* \"contracts/StakeTokenStaking.sol\":665:971  function calculateRate(uint256 time) private pure returns(uint256) {... */\n    tag_65:\n        /* \"contracts/StakeTokenStaking.sol\":723:730  uint256 */\n      0x00\n        /* \"contracts/StakeTokenStaking.sol\":753:762  1 minutes */\n      0x3c\n        /* \"contracts/StakeTokenStaking.sol\":746:750  time */\n      dup3\n        /* \"contracts/StakeTokenStaking.sol\":746:762  time < 1 minutes */\n      lt\n        /* \"contracts/StakeTokenStaking.sol\":743:964  if(time < 1 minutes) {... */\n      iszero\n      tag_72\n      jumpi\n        /* \"contracts/StakeTokenStaking.sol\":786:787  0 */\n      0x00\n        /* \"contracts/StakeTokenStaking.sol\":779:787  return 0 */\n      swap1\n      pop\n      jump(tag_71)\n        /* \"contracts/StakeTokenStaking.sol\":743:964  if(time < 1 minutes) {... */\n    tag_72:\n        /* \"contracts/StakeTokenStaking.sol\":815:824  3 minutes */\n      0xb4\n        /* \"contracts/StakeTokenStaking.sol\":808:812  time */\n      dup3\n        /* \"contracts/StakeTokenStaking.sol\":808:824  time < 3 minutes */\n      lt\n        /* \"contracts/StakeTokenStaking.sol\":805:964  if(time < 3 minutes) {... */\n      iszero\n      tag_74\n      jumpi\n        /* \"contracts/StakeTokenStaking.sol\":848:849  3 */\n      0x03\n        /* \"contracts/StakeTokenStaking.sol\":841:849  return 3 */\n      swap1\n      pop\n      jump(tag_71)\n        /* \"contracts/StakeTokenStaking.sol\":805:964  if(time < 3 minutes) {... */\n    tag_74:\n        /* \"contracts/StakeTokenStaking.sol\":877:886  5 minutes */\n      0x012c\n        /* \"contracts/StakeTokenStaking.sol\":870:874  time */\n      dup3\n        /* \"contracts/StakeTokenStaking.sol\":870:886  time < 5 minutes */\n      lt\n        /* \"contracts/StakeTokenStaking.sol\":867:964  if(time < 5 minutes) {... */\n      iszero\n      tag_76\n      jumpi\n        /* \"contracts/StakeTokenStaking.sol\":910:911  5 */\n      0x05\n        /* \"contracts/StakeTokenStaking.sol\":903:911  return 5 */\n      swap1\n      pop\n      jump(tag_71)\n        /* \"contracts/StakeTokenStaking.sol\":867:964  if(time < 5 minutes) {... */\n    tag_76:\n        /* \"contracts/StakeTokenStaking.sol\":950:952  10 */\n      0x0a\n        /* \"contracts/StakeTokenStaking.sol\":943:952  return 10 */\n      swap1\n      pop\n        /* \"contracts/StakeTokenStaking.sol\":665:971  function calculateRate(uint256 time) private pure returns(uint256) {... */\n    tag_71:\n      swap2\n      swap1\n      pop\n      jump\t// out\n        /* \"#utility.yul\":7:82   */\n    tag_78:\n        /* \"#utility.yul\":40:46   */\n      0x00\n        /* \"#utility.yul\":73:75   */\n      0x40\n        /* \"#utility.yul\":67:76   */\n      mload\n        /* \"#utility.yul\":57:76   */\n      swap1\n      pop\n        /* \"#utility.yul\":7:82   */\n      swap1\n      jump\t// out\n        /* \"#utility.yul\":88:205   */\n    tag_79:\n        /* \"#utility.yul\":197:198   */\n      0x00\n        /* \"#utility.yul\":194:195   */\n      dup1\n        /* \"#utility.yul\":187:199   */\n      revert\n        /* \"#utility.yul\":211:328   */\n    tag_80:\n        /* \"#utility.yul\":320:321   */\n      0x00\n        /* \"#utility.yul\":317:318   */\n      dup1\n        /* \"#utility.yul\":310:322   */\n      revert\n        /* \"#utility.yul\":334:460   */\n    tag_81:\n        /* \"#utility.yul\":371:378   */\n      0x00\n        /* \"#utility.yul\":411:453   */\n      0xffffffffffffffffffffffffffffffffffffffff\n        /* \"#utility.yul\":404:409   */\n      dup3\n        /* \"#utility.yul\":400:454   */\n      and\n        /* \"#utility.yul\":389:454   */\n      swap1\n      pop\n        /* \"#utility.yul\":334:460   */\n      swap2\n      swap1\n      pop\n      jump\t// out\n        /* \"#utility.yul\":466:562   */\n    tag_82:\n        /* \"#utility.yul\":503:510   */\n      0x00\n        /* \"#utility.yul\":532:556   */\n      tag_122\n        /* \"#utility.yul\":550:555   */\n      dup3\n        /* \"#utility.yul\":532:556   */\n      tag_81\n      jump\t// in\n    tag_122:\n        /* \"#utility.yul\":521:556   */\n      swap1\n      pop\n        /* \"#utility.yul\":466:562   */\n      swap2\n      swap1\n      pop\n      jump\t// out\n        /* \"#utility.yul\":568:690   */\n    tag_83:\n        /* \"#utility.yul\":641:665   */\n      tag_124\n        /* \"#utility.yul\":659:664   */\n      dup2\n        /* \"#utility.yul\":641:665   */\n      tag_82\n      jump\t// in\n    tag_124:\n        /* \"#utility.yul\":634:639   */\n      dup2\n        /* \"#utility.yul\":631:666   */\n      eq\n        /* \"#utility.yul\":621:684   */\n      tag_125\n      jumpi\n        /* \"#utility.yul\":680:681   */\n      0x00\n        /* \"#utility.yul\":677:678   */\n      dup1\n        /* \"#utility.yul\":670:682   */\n      revert\n        /* \"#utility.yul\":621:684   */\n    tag_125:\n        /* \"#utility.yul\":568:690   */\n      pop\n      jump\t// out\n        /* \"#utility.yul\":696:835   */\n    tag_84:\n        /* \"#utility.yul\":742:747   */\n      0x00\n        /* \"#utility.yul\":780:786   */\n      dup2\n        /* \"#utility.yul\":767:787   */\n      calldataload\n        /* \"#utility.yul\":758:787   */\n      swap1\n      pop\n        /* \"#utility.yul\":796:829   */\n      tag_127\n        /* \"#utility.yul\":823:828   */\n      dup2\n        /* \"#utility.yul\":796:829   */\n      tag_83\n      jump\t// in\n    tag_127:\n        /* \"#utility.yul\":696:835   */\n      swap3\n      swap2\n      pop\n      pop\n      jump\t// out\n        /* \"#utility.yul\":841:918   */\n    tag_85:\n        /* \"#utility.yul\":878:885   */\n      0x00\n        /* \"#utility.yul\":907:912   */\n      dup2\n        /* \"#utility.yul\":896:912   */\n      swap1\n      pop\n        /* \"#utility.yul\":841:918   */\n      swap2\n      swap1\n      pop\n      jump\t// out\n        /* \"#utility.yul\":924:1046   */\n    tag_86:\n        /* \"#utility.yul\":997:1021   */\n      tag_130\n        /* \"#utility.yul\":1015:1020   */\n      dup2\n        /* \"#utility.yul\":997:1021   */\n      tag_85\n      jump\t// in\n    tag_130:\n        /* \"#utility.yul\":990:995   */\n      dup2\n        /* \"#utility.yul\":987:1022   */\n      eq\n        /* \"#utility.yul\":977:1040   */\n      tag_131\n      jumpi\n        /* \"#utility.yul\":1036:1037   */\n      0x00\n        /* \"#utility.yul\":1033:1034   */\n      dup1\n        /* \"#utility.yul\":1026:1038   */\n      revert\n        /* \"#utility.yul\":977:1040   */\n    tag_131:\n        /* \"#utility.yul\":924:1046   */\n      pop\n      jump\t// out\n        /* \"#utility.yul\":1052:1191   */\n    tag_87:\n        /* \"#utility.yul\":1098:1103   */\n      0x00\n        /* \"#utility.yul\":1136:1142   */\n      dup2\n        /* \"#utility.yul\":1123:1143   */\n      calldataload\n        /* \"#utility.yul\":1114:1143   */\n      swap1\n      pop\n        /* \"#utility.yul\":1152:1185   */\n      tag_133\n        /* \"#utility.yul\":1179:1184   */\n      dup2\n        /* \"#utility.yul\":1152:1185   */\n      tag_86\n      jump\t// in\n    tag_133:\n        /* \"#utility.yul\":1052:1191   */\n      swap3\n      swap2\n      pop\n      pop\n      jump\t// out\n        /* \"#utility.yul\":1197:1314   */\n    tag_88:\n        /* \"#utility.yul\":1306:1307   */\n      0x00\n        /* \"#utility.yul\":1303:1304   */\n      dup1\n        /* \"#utility.yul\":1296:1308   */\n      revert\n        /* \"#utility.yul\":1320:1437   */\n    tag_89:\n        /* \"#utility.yul\":1429:1430   */\n      0x00\n        /* \"#utility.yul\":1426:1427   */\n      dup1\n        /* \"#utility.yul\":1419:1431   */\n      revert\n        /* \"#utility.yul\":1443:1545   */\n    tag_90:\n        /* \"#utility.yul\":1484:1490   */\n      0x00\n        /* \"#utility.yul\":1535:1537   */\n      0x1f\n        /* \"#utility.yul\":1531:1538   */\n      not\n        /* \"#utility.yul\":1526:1528   */\n      0x1f\n        /* \"#utility.yul\":1519:1524   */\n      dup4\n        /* \"#utility.yul\":1515:1529   */\n      add\n        /* \"#utility.yul\":1511:1539   */\n      and\n        /* \"#utility.yul\":1501:1539   */\n      swap1\n      pop\n        /* \"#utility.yul\":1443:1545   */\n      swap2\n      swap1\n      pop\n      jump\t// out\n        /* \"#utility.yul\":1551:1731   */\n    tag_91:\n        /* \"#utility.yul\":1599:1676   */\n      0x4e487b7100000000000000000000000000000000000000000000000000000000\n        /* \"#utility.yul\":1596:1597   */\n      0x00\n        /* \"#utility.yul\":1589:1677   */\n      mstore\n        /* \"#utility.yul\":1696:1700   */\n      0x41\n        /* \"#utility.yul\":1693:1694   */\n      0x04\n        /* \"#utility.yul\":1686:1701   */\n      mstore\n        /* \"#utility.yul\":1720:1724   */\n      0x24\n        /* \"#utility.yul\":1717:1718   */\n      0x00\n        /* \"#utility.yul\":1710:1725   */\n      revert\n        /* \"#utility.yul\":1737:2018   */\n    tag_92:\n        /* \"#utility.yul\":1820:1847   */\n      tag_139\n        /* \"#utility.yul\":1842:1846   */\n      dup3\n        /* \"#utility.yul\":1820:1847   */\n      tag_90\n      jump\t// in\n    tag_139:\n        /* \"#utility.yul\":1812:1818   */\n      dup2\n        /* \"#utility.yul\":1808:1848   */\n      add\n        /* \"#utility.yul\":1950:1956   */\n      dup2\n        /* \"#utility.yul\":1938:1948   */\n      dup2\n        /* \"#utility.yul\":1935:1957   */\n      lt\n        /* \"#utility.yul\":1914:1932   */\n      0xffffffffffffffff\n        /* \"#utility.yul\":1902:1912   */\n      dup3\n        /* \"#utility.yul\":1899:1933   */\n      gt\n        /* \"#utility.yul\":1896:1958   */\n      or\n        /* \"#utility.yul\":1893:1981   */\n      iszero\n      tag_140\n      jumpi\n        /* \"#utility.yul\":1961:1979   */\n      tag_141\n      tag_91\n      jump\t// in\n    tag_141:\n        /* \"#utility.yul\":1893:1981   */\n    tag_140:\n        /* \"#utility.yul\":2001:2011   */\n      dup1\n        /* \"#utility.yul\":1997:1999   */\n      0x40\n        /* \"#utility.yul\":1990:2012   */\n      mstore\n        /* \"#utility.yul\":1780:2018   */\n      pop\n        /* \"#utility.yul\":1737:2018   */\n      pop\n      pop\n      jump\t// out\n        /* \"#utility.yul\":2024:2153   */\n    tag_93:\n        /* \"#utility.yul\":2058:2064   */\n      0x00\n        /* \"#utility.yul\":2085:2105   */\n      tag_143\n      tag_78\n      jump\t// in\n    tag_143:\n        /* \"#utility.yul\":2075:2105   */\n      swap1\n      pop\n        /* \"#utility.yul\":2114:2147   */\n      tag_144\n        /* \"#utility.yul\":2142:2146   */\n      dup3\n        /* \"#utility.yul\":2134:2140   */\n      dup3\n        /* \"#utility.yul\":2114:2147   */\n      tag_92\n      jump\t// in\n    tag_144:\n        /* \"#utility.yul\":2024:2153   */\n      swap2\n      swap1\n      pop\n      jump\t// out\n        /* \"#utility.yul\":2159:2466   */\n    tag_94:\n        /* \"#utility.yul\":2220:2224   */\n      0x00\n        /* \"#utility.yul\":2310:2328   */\n      0xffffffffffffffff\n        /* \"#utility.yul\":2302:2308   */\n      dup3\n        /* \"#utility.yul\":2299:2329   */\n      gt\n        /* \"#utility.yul\":2296:2352   */\n      iszero\n      tag_146\n      jumpi\n        /* \"#utility.yul\":2332:2350   */\n      tag_147\n      tag_91\n      jump\t// in\n    tag_147:\n        /* \"#utility.yul\":2296:2352   */\n    tag_146:\n        /* \"#utility.yul\":2370:2399   */\n      tag_148\n        /* \"#utility.yul\":2392:2398   */\n      dup3\n        /* \"#utility.yul\":2370:2399   */\n      tag_90\n      jump\t// in\n    tag_148:\n        /* \"#utility.yul\":2362:2399   */\n      swap1\n      pop\n        /* \"#utility.yul\":2454:2458   */\n      0x20\n        /* \"#utility.yul\":2448:2452   */\n      dup2\n        /* \"#utility.yul\":2444:2459   */\n      add\n        /* \"#utility.yul\":2436:2459   */\n      swap1\n      pop\n        /* \"#utility.yul\":2159:2466   */\n      swap2\n      swap1\n      pop\n      jump\t// out\n        /* \"#utility.yul\":2472:2618   */\n    tag_95:\n        /* \"#utility.yul\":2569:2575   */\n      dup3\n        /* \"#utility.yul\":2564:2567   */\n      dup2\n        /* \"#utility.yul\":2559:2562   */\n      dup4\n        /* \"#utility.yul\":2546:2576   */\n      calldatacopy\n        /* \"#utility.yul\":2610:2611   */\n      0x00\n        /* \"#utility.yul\":2601:2607   */\n      dup4\n        /* \"#utility.yul\":2596:2599   */\n      dup4\n        /* \"#utility.yul\":2592:2608   */\n      add\n        /* \"#utility.yul\":2585:2612   */\n      mstore\n        /* \"#utility.yul\":2472:2618   */\n      pop\n      pop\n      pop\n      jump\t// out\n        /* \"#utility.yul\":2624:3047   */\n    tag_96:\n        /* \"#utility.yul\":2701:2706   */\n      0x00\n        /* \"#utility.yul\":2726:2791   */\n      tag_151\n        /* \"#utility.yul\":2742:2790   */\n      tag_152\n        /* \"#utility.yul\":2783:2789   */\n      dup5\n        /* \"#utility.yul\":2742:2790   */\n      tag_94\n      jump\t// in\n    tag_152:\n        /* \"#utility.yul\":2726:2791   */\n      tag_93\n      jump\t// in\n    tag_151:\n        /* \"#utility.yul\":2717:2791   */\n      swap1\n      pop\n        /* \"#utility.yul\":2814:2820   */\n      dup3\n        /* \"#utility.yul\":2807:2812   */\n      dup2\n        /* \"#utility.yul\":2800:2821   */\n      mstore\n        /* \"#utility.yul\":2852:2856   */\n      0x20\n        /* \"#utility.yul\":2845:2850   */\n      dup2\n        /* \"#utility.yul\":2841:2857   */\n      add\n        /* \"#utility.yul\":2890:2893   */\n      dup5\n        /* \"#utility.yul\":2881:2887   */\n      dup5\n        /* \"#utility.yul\":2876:2879   */\n      dup5\n        /* \"#utility.yul\":2872:2888   */\n      add\n        /* \"#utility.yul\":2869:2894   */\n      gt\n        /* \"#utility.yul\":2866:2978   */\n      iszero\n      tag_153\n      jumpi\n        /* \"#utility.yul\":2897:2976   */\n      tag_154\n      tag_89\n      jump\t// in\n    tag_154:\n        /* \"#utility.yul\":2866:2978   */\n    tag_153:\n        /* \"#utility.yul\":2987:3041   */\n      tag_155\n        /* \"#utility.yul\":3034:3040   */\n      dup5\n        /* \"#utility.yul\":3029:3032   */\n      dup3\n        /* \"#utility.yul\":3024:3027   */\n      dup6\n        /* \"#utility.yul\":2987:3041   */\n      tag_95\n      jump\t// in\n    tag_155:\n        /* \"#utility.yul\":2707:3047   */\n      pop\n        /* \"#utility.yul\":2624:3047   */\n      swap4\n      swap3\n      pop\n      pop\n      pop\n      jump\t// out\n        /* \"#utility.yul\":3066:3404   */\n    tag_97:\n        /* \"#utility.yul\":3121:3126   */\n      0x00\n        /* \"#utility.yul\":3170:3173   */\n      dup3\n        /* \"#utility.yul\":3163:3167   */\n      0x1f\n        /* \"#utility.yul\":3155:3161   */\n      dup4\n        /* \"#utility.yul\":3151:3168   */\n      add\n        /* \"#utility.yul\":3147:3174   */\n      slt\n        /* \"#utility.yul\":3137:3259   */\n      tag_157\n      jumpi\n        /* \"#utility.yul\":3178:3257   */\n      tag_158\n      tag_88\n      jump\t// in\n    tag_158:\n        /* \"#utility.yul\":3137:3259   */\n    tag_157:\n        /* \"#utility.yul\":3295:3301   */\n      dup2\n        /* \"#utility.yul\":3282:3302   */\n      calldataload\n        /* \"#utility.yul\":3320:3398   */\n      tag_159\n        /* \"#utility.yul\":3394:3397   */\n      dup5\n        /* \"#utility.yul\":3386:3392   */\n      dup3\n        /* \"#utility.yul\":3379:3383   */\n      0x20\n        /* \"#utility.yul\":3371:3377   */\n      dup7\n        /* \"#utility.yul\":3367:3384   */\n      add\n        /* \"#utility.yul\":3320:3398   */\n      tag_96\n      jump\t// in\n    tag_159:\n        /* \"#utility.yul\":3311:3398   */\n      swap2\n      pop\n        /* \"#utility.yul\":3127:3404   */\n      pop\n        /* \"#utility.yul\":3066:3404   */\n      swap3\n      swap2\n      pop\n      pop\n      jump\t// out\n        /* \"#utility.yul\":3410:4353   */\n    tag_10:\n        /* \"#utility.yul\":3505:3511   */\n      0x00\n        /* \"#utility.yul\":3513:3519   */\n      dup1\n        /* \"#utility.yul\":3521:3527   */\n      0x00\n        /* \"#utility.yul\":3529:3535   */\n      dup1\n        /* \"#utility.yul\":3578:3581   */\n      0x80\n        /* \"#utility.yul\":3566:3575   */\n      dup6\n        /* \"#utility.yul\":3557:3564   */\n      dup8\n        /* \"#utility.yul\":3553:3576   */\n      sub\n        /* \"#utility.yul\":3549:3582   */\n      slt\n        /* \"#utility.yul\":3546:3666   */\n      iszero\n      tag_161\n      jumpi\n        /* \"#utility.yul\":3585:3664   */\n      tag_162\n      tag_79\n      jump\t// in\n    tag_162:\n        /* \"#utility.yul\":3546:3666   */\n    tag_161:\n        /* \"#utility.yul\":3705:3706   */\n      0x00\n        /* \"#utility.yul\":3730:3783   */\n      tag_163\n        /* \"#utility.yul\":3775:3782   */\n      dup8\n        /* \"#utility.yul\":3766:3772   */\n      dup3\n        /* \"#utility.yul\":3755:3764   */\n      dup9\n        /* \"#utility.yul\":3751:3773   */\n      add\n        /* \"#utility.yul\":3730:3783   */\n      tag_84\n      jump\t// in\n    tag_163:\n        /* \"#utility.yul\":3720:3783   */\n      swap5\n      pop\n        /* \"#utility.yul\":3676:3793   */\n      pop\n        /* \"#utility.yul\":3832:3834   */\n      0x20\n        /* \"#utility.yul\":3858:3911   */\n      tag_164\n        /* \"#utility.yul\":3903:3910   */\n      dup8\n        /* \"#utility.yul\":3894:3900   */\n      dup3\n        /* \"#utility.yul\":3883:3892   */\n      dup9\n        /* \"#utility.yul\":3879:3901   */\n      add\n        /* \"#utility.yul\":3858:3911   */\n      tag_84\n      jump\t// in\n    tag_164:\n        /* \"#utility.yul\":3848:3911   */\n      swap4\n      pop\n        /* \"#utility.yul\":3803:3921   */\n      pop\n        /* \"#utility.yul\":3960:3962   */\n      0x40\n        /* \"#utility.yul\":3986:4039   */\n      tag_165\n        /* \"#utility.yul\":4031:4038   */\n      dup8\n        /* \"#utility.yul\":4022:4028   */\n      dup3\n        /* \"#utility.yul\":4011:4020   */\n      dup9\n        /* \"#utility.yul\":4007:4029   */\n      add\n        /* \"#utility.yul\":3986:4039   */\n      tag_87\n      jump\t// in\n    tag_165:\n        /* \"#utility.yul\":3976:4039   */\n      swap3\n      pop\n        /* \"#utility.yul\":3931:4049   */\n      pop\n        /* \"#utility.yul\":4116:4118   */\n      0x60\n        /* \"#utility.yul\":4105:4114   */\n      dup6\n        /* \"#utility.yul\":4101:4119   */\n      add\n        /* \"#utility.yul\":4088:4120   */\n      calldataload\n        /* \"#utility.yul\":4147:4165   */\n      0xffffffffffffffff\n        /* \"#utility.yul\":4139:4145   */\n      dup2\n        /* \"#utility.yul\":4136:4166   */\n      gt\n        /* \"#utility.yul\":4133:4250   */\n      iszero\n      tag_166\n      jumpi\n        /* \"#utility.yul\":4169:4248   */\n      tag_167\n      tag_80\n      jump\t// in\n    tag_167:\n        /* \"#utility.yul\":4133:4250   */\n    tag_166:\n        /* \"#utility.yul\":4274:4336   */\n      tag_168\n        /* \"#utility.yul\":4328:4335   */\n      dup8\n        /* \"#utility.yul\":4319:4325   */\n      dup3\n        /* \"#utility.yul\":4308:4317   */\n      dup9\n        /* \"#utility.yul\":4304:4326   */\n      add\n        /* \"#utility.yul\":4274:4336   */\n      tag_97\n      jump\t// in\n    tag_168:\n        /* \"#utility.yul\":4264:4336   */\n      swap2\n      pop\n        /* \"#utility.yul\":4059:4346   */\n      pop\n        /* \"#utility.yul\":3410:4353   */\n      swap3\n      swap6\n      swap2\n      swap5\n      pop\n      swap3\n      pop\n      jump\t// out\n        /* \"#utility.yul\":4359:4508   */\n    tag_98:\n        /* \"#utility.yul\":4395:4402   */\n      0x00\n        /* \"#utility.yul\":4435:4501   */\n      0xffffffff00000000000000000000000000000000000000000000000000000000\n        /* \"#utility.yul\":4428:4433   */\n      dup3\n        /* \"#utility.yul\":4424:4502   */\n      and\n        /* \"#utility.yul\":4413:4502   */\n      swap1\n      pop\n        /* \"#utility.yul\":4359:4508   */\n      swap2\n      swap1\n      pop\n      jump\t// out\n        /* \"#utility.yul\":4514:4629   */\n    tag_99:\n        /* \"#utility.yul\":4599:4622   */\n      tag_171\n        /* \"#utility.yul\":4616:4621   */\n      dup2\n        /* \"#utility.yul\":4599:4622   */\n      tag_98\n      jump\t// in\n    tag_171:\n        /* \"#utility.yul\":4594:4597   */\n      dup3\n        /* \"#utility.yul\":4587:4623   */\n      mstore\n        /* \"#utility.yul\":4514:4629   */\n      pop\n      pop\n      jump\t// out\n        /* \"#utility.yul\":4635:4853   */\n    tag_13:\n        /* \"#utility.yul\":4726:4730   */\n      0x00\n        /* \"#utility.yul\":4764:4766   */\n      0x20\n        /* \"#utility.yul\":4753:4762   */\n      dup3\n        /* \"#utility.yul\":4749:4767   */\n      add\n        /* \"#utility.yul\":4741:4767   */\n      swap1\n      pop\n        /* \"#utility.yul\":4777:4846   */\n      tag_173\n        /* \"#utility.yul\":4843:4844   */\n      0x00\n        /* \"#utility.yul\":4832:4841   */\n      dup4\n        /* \"#utility.yul\":4828:4845   */\n      add\n        /* \"#utility.yul\":4819:4825   */\n      dup5\n        /* \"#utility.yul\":4777:4846   */\n      tag_99\n      jump\t// in\n    tag_173:\n        /* \"#utility.yul\":4635:4853   */\n      swap3\n      swap2\n      pop\n      pop\n      jump\t// out\n        /* \"#utility.yul\":4859:5188   */\n    tag_16:\n        /* \"#utility.yul\":4918:4924   */\n      0x00\n        /* \"#utility.yul\":4967:4969   */\n      0x20\n        /* \"#utility.yul\":4955:4964   */\n      dup3\n        /* \"#utility.yul\":4946:4953   */\n      dup5\n        /* \"#utility.yul\":4942:4965   */\n      sub\n        /* \"#utility.yul\":4938:4970   */\n      slt\n        /* \"#utility.yul\":4935:5054   */\n      iszero\n      tag_175\n      jumpi\n        /* \"#utility.yul\":4973:5052   */\n      tag_176\n      tag_79\n      jump\t// in\n    tag_176:\n        /* \"#utility.yul\":4935:5054   */\n    tag_175:\n        /* \"#utility.yul\":5093:5094   */\n      0x00\n        /* \"#utility.yul\":5118:5171   */\n      tag_177\n        /* \"#utility.yul\":5163:5170   */\n      dup5\n        /* \"#utility.yul\":5154:5160   */\n      dup3\n        /* \"#utility.yul\":5143:5152   */\n      dup6\n        /* \"#utility.yul\":5139:5161   */\n      add\n        /* \"#utility.yul\":5118:5171   */\n      tag_87\n      jump\t// in\n    tag_177:\n        /* \"#utility.yul\":5108:5171   */\n      swap2\n      pop\n        /* \"#utility.yul\":5064:5181   */\n      pop\n        /* \"#utility.yul\":4859:5188   */\n      swap3\n      swap2\n      pop\n      pop\n      jump\t// out\n        /* \"#utility.yul\":5194:5668   */\n    tag_23:\n        /* \"#utility.yul\":5262:5268   */\n      0x00\n        /* \"#utility.yul\":5270:5276   */\n      dup1\n        /* \"#utility.yul\":5319:5321   */\n      0x40\n        /* \"#utility.yul\":5307:5316   */\n      dup4\n        /* \"#utility.yul\":5298:5305   */\n      dup6\n        /* \"#utility.yul\":5294:5317   */\n      sub\n        /* \"#utility.yul\":5290:5322   */\n      slt\n        /* \"#utility.yul\":5287:5406   */\n      iszero\n      tag_179\n      jumpi\n        /* \"#utility.yul\":5325:5404   */\n      tag_180\n      tag_79\n      jump\t// in\n    tag_180:\n        /* \"#utility.yul\":5287:5406   */\n    tag_179:\n        /* \"#utility.yul\":5445:5446   */\n      0x00\n        /* \"#utility.yul\":5470:5523   */\n      tag_181\n        /* \"#utility.yul\":5515:5522   */\n      dup6\n        /* \"#utility.yul\":5506:5512   */\n      dup3\n        /* \"#utility.yul\":5495:5504   */\n      dup7\n        /* \"#utility.yul\":5491:5513   */\n      add\n        /* \"#utility.yul\":5470:5523   */\n      tag_84\n      jump\t// in\n    tag_181:\n        /* \"#utility.yul\":5460:5523   */\n      swap3\n      pop\n        /* \"#utility.yul\":5416:5533   */\n      pop\n        /* \"#utility.yul\":5572:5574   */\n      0x20\n        /* \"#utility.yul\":5598:5651   */\n      tag_182\n        /* \"#utility.yul\":5643:5650   */\n      dup6\n        /* \"#utility.yul\":5634:5640   */\n      dup3\n        /* \"#utility.yul\":5623:5632   */\n      dup7\n        /* \"#utility.yul\":5619:5641   */\n      add\n        /* \"#utility.yul\":5598:5651   */\n      tag_87\n      jump\t// in\n    tag_182:\n        /* \"#utility.yul\":5588:5651   */\n      swap2\n      pop\n        /* \"#utility.yul\":5543:5661   */\n      pop\n        /* \"#utility.yul\":5194:5668   */\n      swap3\n      pop\n      swap3\n      swap1\n      pop\n      jump\t// out\n        /* \"#utility.yul\":5674:5792   */\n    tag_100:\n        /* \"#utility.yul\":5761:5785   */\n      tag_184\n        /* \"#utility.yul\":5779:5784   */\n      dup2\n        /* \"#utility.yul\":5761:5785   */\n      tag_85\n      jump\t// in\n    tag_184:\n        /* \"#utility.yul\":5756:5759   */\n      dup3\n        /* \"#utility.yul\":5749:5786   */\n      mstore\n        /* \"#utility.yul\":5674:5792   */\n      pop\n      pop\n      jump\t// out\n        /* \"#utility.yul\":5798:6020   */\n    tag_26:\n        /* \"#utility.yul\":5891:5895   */\n      0x00\n        /* \"#utility.yul\":5929:5931   */\n      0x20\n        /* \"#utility.yul\":5918:5927   */\n      dup3\n        /* \"#utility.yul\":5914:5932   */\n      add\n        /* \"#utility.yul\":5906:5932   */\n      swap1\n      pop\n        /* \"#utility.yul\":5942:6013   */\n      tag_186\n        /* \"#utility.yul\":6010:6011   */\n      0x00\n        /* \"#utility.yul\":5999:6008   */\n      dup4\n        /* \"#utility.yul\":5995:6012   */\n      add\n        /* \"#utility.yul\":5986:5992   */\n      dup5\n        /* \"#utility.yul\":5942:6013   */\n      tag_100\n      jump\t// in\n    tag_186:\n        /* \"#utility.yul\":5798:6020   */\n      swap3\n      swap2\n      pop\n      pop\n      jump\t// out\n        /* \"#utility.yul\":6026:6169   */\n    tag_101:\n        /* \"#utility.yul\":6083:6088   */\n      0x00\n        /* \"#utility.yul\":6114:6120   */\n      dup2\n        /* \"#utility.yul\":6108:6121   */\n      mload\n        /* \"#utility.yul\":6099:6121   */\n      swap1\n      pop\n        /* \"#utility.yul\":6130:6163   */\n      tag_188\n        /* \"#utility.yul\":6157:6162   */\n      dup2\n        /* \"#utility.yul\":6130:6163   */\n      tag_83\n      jump\t// in\n    tag_188:\n        /* \"#utility.yul\":6026:6169   */\n      swap3\n      swap2\n      pop\n      pop\n      jump\t// out\n        /* \"#utility.yul\":6175:6526   */\n    tag_37:\n        /* \"#utility.yul\":6245:6251   */\n      0x00\n        /* \"#utility.yul\":6294:6296   */\n      0x20\n        /* \"#utility.yul\":6282:6291   */\n      dup3\n        /* \"#utility.yul\":6273:6280   */\n      dup5\n        /* \"#utility.yul\":6269:6292   */\n      sub\n        /* \"#utility.yul\":6265:6297   */\n      slt\n        /* \"#utility.yul\":6262:6381   */\n      iszero\n      tag_190\n      jumpi\n        /* \"#utility.yul\":6300:6379   */\n      tag_191\n      tag_79\n      jump\t// in\n    tag_191:\n        /* \"#utility.yul\":6262:6381   */\n    tag_190:\n        /* \"#utility.yul\":6420:6421   */\n      0x00\n        /* \"#utility.yul\":6445:6509   */\n      tag_192\n        /* \"#utility.yul\":6501:6508   */\n      dup5\n        /* \"#utility.yul\":6492:6498   */\n      dup3\n        /* \"#utility.yul\":6481:6490   */\n      dup6\n        /* \"#utility.yul\":6477:6499   */\n      add\n        /* \"#utility.yul\":6445:6509   */\n      tag_101\n      jump\t// in\n    tag_192:\n        /* \"#utility.yul\":6435:6509   */\n      swap2\n      pop\n        /* \"#utility.yul\":6391:6519   */\n      pop\n        /* \"#utility.yul\":6175:6526   */\n      swap3\n      swap2\n      pop\n      pop\n      jump\t// out\n        /* \"#utility.yul\":6532:6701   */\n    tag_102:\n        /* \"#utility.yul\":6616:6627   */\n      0x00\n        /* \"#utility.yul\":6650:6656   */\n      dup3\n        /* \"#utility.yul\":6645:6648   */\n      dup3\n        /* \"#utility.yul\":6638:6657   */\n      mstore\n        /* \"#utility.yul\":6690:6694   */\n      0x20\n        /* \"#utility.yul\":6685:6688   */\n      dup3\n        /* \"#utility.yul\":6681:6695   */\n      add\n        /* \"#utility.yul\":6666:6695   */\n      swap1\n      pop\n        /* \"#utility.yul\":6532:6701   */\n      swap3\n      swap2\n      pop\n      pop\n      jump\t// out\n        /* \"#utility.yul\":6707:6880   */\n    tag_103:\n        /* \"#utility.yul\":6847:6872   */\n      0x596f75277265206e6f74206f776e2074686973204e4654000000000000000000\n        /* \"#utility.yul\":6843:6844   */\n      0x00\n        /* \"#utility.yul\":6835:6841   */\n      dup3\n        /* \"#utility.yul\":6831:6845   */\n      add\n        /* \"#utility.yul\":6824:6873   */\n      mstore\n        /* \"#utility.yul\":6707:6880   */\n      pop\n      jump\t// out\n        /* \"#utility.yul\":6886:7252   */\n    tag_104:\n        /* \"#utility.yul\":7028:7031   */\n      0x00\n        /* \"#utility.yul\":7049:7116   */\n      tag_196\n        /* \"#utility.yul\":7113:7115   */\n      0x17\n        /* \"#utility.yul\":7108:7111   */\n      dup4\n        /* \"#utility.yul\":7049:7116   */\n      tag_102\n      jump\t// in\n    tag_196:\n        /* \"#utility.yul\":7042:7116   */\n      swap2\n      pop\n        /* \"#utility.yul\":7125:7218   */\n      tag_197\n        /* \"#utility.yul\":7214:7217   */\n      dup3\n        /* \"#utility.yul\":7125:7218   */\n      tag_103\n      jump\t// in\n    tag_197:\n        /* \"#utility.yul\":7243:7245   */\n      0x20\n        /* \"#utility.yul\":7238:7241   */\n      dup3\n        /* \"#utility.yul\":7234:7246   */\n      add\n        /* \"#utility.yul\":7227:7246   */\n      swap1\n      pop\n        /* \"#utility.yul\":6886:7252   */\n      swap2\n      swap1\n      pop\n      jump\t// out\n        /* \"#utility.yul\":7258:7677   */\n    tag_40:\n        /* \"#utility.yul\":7424:7428   */\n      0x00\n        /* \"#utility.yul\":7462:7464   */\n      0x20\n        /* \"#utility.yul\":7451:7460   */\n      dup3\n        /* \"#utility.yul\":7447:7465   */\n      add\n        /* \"#utility.yul\":7439:7465   */\n      swap1\n      pop\n        /* \"#utility.yul\":7511:7520   */\n      dup2\n        /* \"#utility.yul\":7505:7509   */\n      dup2\n        /* \"#utility.yul\":7501:7521   */\n      sub\n        /* \"#utility.yul\":7497:7498   */\n      0x00\n        /* \"#utility.yul\":7486:7495   */\n      dup4\n        /* \"#utility.yul\":7482:7499   */\n      add\n        /* \"#utility.yul\":7475:7522   */\n      mstore\n        /* \"#utility.yul\":7539:7670   */\n      tag_199\n        /* \"#utility.yul\":7665:7669   */\n      dup2\n        /* \"#utility.yul\":7539:7670   */\n      tag_104\n      jump\t// in\n    tag_199:\n        /* \"#utility.yul\":7531:7670   */\n      swap1\n      pop\n        /* \"#utility.yul\":7258:7677   */\n      swap2\n      swap1\n      pop\n      jump\t// out\n        /* \"#utility.yul\":7683:7801   */\n    tag_105:\n        /* \"#utility.yul\":7770:7794   */\n      tag_201\n        /* \"#utility.yul\":7788:7793   */\n      dup2\n        /* \"#utility.yul\":7770:7794   */\n      tag_82\n      jump\t// in\n    tag_201:\n        /* \"#utility.yul\":7765:7768   */\n      dup3\n        /* \"#utility.yul\":7758:7795   */\n      mstore\n        /* \"#utility.yul\":7683:7801   */\n      pop\n      pop\n      jump\t// out\n        /* \"#utility.yul\":7807:7975   */\n    tag_106:\n        /* \"#utility.yul\":7890:7901   */\n      0x00\n        /* \"#utility.yul\":7924:7930   */\n      dup3\n        /* \"#utility.yul\":7919:7922   */\n      dup3\n        /* \"#utility.yul\":7912:7931   */\n      mstore\n        /* \"#utility.yul\":7964:7968   */\n      0x20\n        /* \"#utility.yul\":7959:7962   */\n      dup3\n        /* \"#utility.yul\":7955:7969   */\n      add\n        /* \"#utility.yul\":7940:7969   */\n      swap1\n      pop\n        /* \"#utility.yul\":7807:7975   */\n      swap3\n      swap2\n      pop\n      pop\n      jump\t// out\n        /* \"#utility.yul\":7981:8095   */\n    tag_107:\n      pop\n      jump\t// out\n        /* \"#utility.yul\":8101:8463   */\n    tag_108:\n        /* \"#utility.yul\":8242:8245   */\n      0x00\n        /* \"#utility.yul\":8263:8328   */\n      tag_205\n        /* \"#utility.yul\":8326:8327   */\n      0x00\n        /* \"#utility.yul\":8321:8324   */\n      dup4\n        /* \"#utility.yul\":8263:8328   */\n      tag_106\n      jump\t// in\n    tag_205:\n        /* \"#utility.yul\":8256:8328   */\n      swap2\n      pop\n        /* \"#utility.yul\":8337:8430   */\n      tag_206\n        /* \"#utility.yul\":8426:8429   */\n      dup3\n        /* \"#utility.yul\":8337:8430   */\n      tag_107\n      jump\t// in\n    tag_206:\n        /* \"#utility.yul\":8455:8456   */\n      0x00\n        /* \"#utility.yul\":8450:8453   */\n      dup3\n        /* \"#utility.yul\":8446:8457   */\n      add\n        /* \"#utility.yul\":8439:8457   */\n      swap1\n      pop\n        /* \"#utility.yul\":8101:8463   */\n      swap2\n      swap1\n      pop\n      jump\t// out\n        /* \"#utility.yul\":8469:9217   */\n    tag_42:\n        /* \"#utility.yul\":8718:8722   */\n      0x00\n        /* \"#utility.yul\":8756:8759   */\n      0x80\n        /* \"#utility.yul\":8745:8754   */\n      dup3\n        /* \"#utility.yul\":8741:8760   */\n      add\n        /* \"#utility.yul\":8733:8760   */\n      swap1\n      pop\n        /* \"#utility.yul\":8770:8841   */\n      tag_208\n        /* \"#utility.yul\":8838:8839   */\n      0x00\n        /* \"#utility.yul\":8827:8836   */\n      dup4\n        /* \"#utility.yul\":8823:8840   */\n      add\n        /* \"#utility.yul\":8814:8820   */\n      dup7\n        /* \"#utility.yul\":8770:8841   */\n      tag_105\n      jump\t// in\n    tag_208:\n        /* \"#utility.yul\":8851:8923   */\n      tag_209\n        /* \"#utility.yul\":8919:8921   */\n      0x20\n        /* \"#utility.yul\":8908:8917   */\n      dup4\n        /* \"#utility.yul\":8904:8922   */\n      add\n        /* \"#utility.yul\":8895:8901   */\n      dup6\n        /* \"#utility.yul\":8851:8923   */\n      tag_105\n      jump\t// in\n    tag_209:\n        /* \"#utility.yul\":8933:9005   */\n      tag_210\n        /* \"#utility.yul\":9001:9003   */\n      0x40\n        /* \"#utility.yul\":8990:8999   */\n      dup4\n        /* \"#utility.yul\":8986:9004   */\n      add\n        /* \"#utility.yul\":8977:8983   */\n      dup5\n        /* \"#utility.yul\":8933:9005   */\n      tag_100\n      jump\t// in\n    tag_210:\n        /* \"#utility.yul\":9052:9061   */\n      dup2\n        /* \"#utility.yul\":9046:9050   */\n      dup2\n        /* \"#utility.yul\":9042:9062   */\n      sub\n        /* \"#utility.yul\":9037:9039   */\n      0x60\n        /* \"#utility.yul\":9026:9035   */\n      dup4\n        /* \"#utility.yul\":9022:9040   */\n      add\n        /* \"#utility.yul\":9015:9063   */\n      mstore\n        /* \"#utility.yul\":9080:9210   */\n      tag_211\n        /* \"#utility.yul\":9205:9209   */\n      dup2\n        /* \"#utility.yul\":9080:9210   */\n      tag_108\n      jump\t// in\n    tag_211:\n        /* \"#utility.yul\":9072:9210   */\n      swap1\n      pop\n        /* \"#utility.yul\":8469:9217   */\n      swap5\n      swap4\n      pop\n      pop\n      pop\n      pop\n      jump\t// out\n        /* \"#utility.yul\":9223:9555   */\n    tag_53:\n        /* \"#utility.yul\":9344:9348   */\n      0x00\n        /* \"#utility.yul\":9382:9384   */\n      0x40\n        /* \"#utility.yul\":9371:9380   */\n      dup3\n        /* \"#utility.yul\":9367:9385   */\n      add\n        /* \"#utility.yul\":9359:9385   */\n      swap1\n      pop\n        /* \"#utility.yul\":9395:9466   */\n      tag_213\n        /* \"#utility.yul\":9463:9464   */\n      0x00\n        /* \"#utility.yul\":9452:9461   */\n      dup4\n        /* \"#utility.yul\":9448:9465   */\n      add\n        /* \"#utility.yul\":9439:9445   */\n      dup6\n        /* \"#utility.yul\":9395:9466   */\n      tag_105\n      jump\t// in\n    tag_213:\n        /* \"#utility.yul\":9476:9548   */\n      tag_214\n        /* \"#utility.yul\":9544:9546   */\n      0x20\n        /* \"#utility.yul\":9533:9542   */\n      dup4\n        /* \"#utility.yul\":9529:9547   */\n      add\n        /* \"#utility.yul\":9520:9526   */\n      dup5\n        /* \"#utility.yul\":9476:9548   */\n      tag_100\n      jump\t// in\n    tag_214:\n        /* \"#utility.yul\":9223:9555   */\n      swap4\n      swap3\n      pop\n      pop\n      pop\n      jump\t// out\n        /* \"#utility.yul\":9561:9651   */\n    tag_109:\n        /* \"#utility.yul\":9595:9602   */\n      0x00\n        /* \"#utility.yul\":9638:9643   */\n      dup2\n        /* \"#utility.yul\":9631:9644   */\n      iszero\n        /* \"#utility.yul\":9624:9645   */\n      iszero\n        /* \"#utility.yul\":9613:9645   */\n      swap1\n      pop\n        /* \"#utility.yul\":9561:9651   */\n      swap2\n      swap1\n      pop\n      jump\t// out\n        /* \"#utility.yul\":9657:9773   */\n    tag_110:\n        /* \"#utility.yul\":9727:9748   */\n      tag_217\n        /* \"#utility.yul\":9742:9747   */\n      dup2\n        /* \"#utility.yul\":9727:9748   */\n      tag_109\n      jump\t// in\n    tag_217:\n        /* \"#utility.yul\":9720:9725   */\n      dup2\n        /* \"#utility.yul\":9717:9749   */\n      eq\n        /* \"#utility.yul\":9707:9767   */\n      tag_218\n      jumpi\n        /* \"#utility.yul\":9763:9764   */\n      0x00\n        /* \"#utility.yul\":9760:9761   */\n      dup1\n        /* \"#utility.yul\":9753:9765   */\n      revert\n        /* \"#utility.yul\":9707:9767   */\n    tag_218:\n        /* \"#utility.yul\":9657:9773   */\n      pop\n      jump\t// out\n        /* \"#utility.yul\":9779:9916   */\n    tag_111:\n        /* \"#utility.yul\":9833:9838   */\n      0x00\n        /* \"#utility.yul\":9864:9870   */\n      dup2\n        /* \"#utility.yul\":9858:9871   */\n      mload\n        /* \"#utility.yul\":9849:9871   */\n      swap1\n      pop\n        /* \"#utility.yul\":9880:9910   */\n      tag_220\n        /* \"#utility.yul\":9904:9909   */\n      dup2\n        /* \"#utility.yul\":9880:9910   */\n      tag_110\n      jump\t// in\n    tag_220:\n        /* \"#utility.yul\":9779:9916   */\n      swap3\n      swap2\n      pop\n      pop\n      jump\t// out\n        /* \"#utility.yul\":9922:10267   */\n    tag_57:\n        /* \"#utility.yul\":9989:9995   */\n      0x00\n        /* \"#utility.yul\":10038:10040   */\n      0x20\n        /* \"#utility.yul\":10026:10035   */\n      dup3\n        /* \"#utility.yul\":10017:10024   */\n      dup5\n        /* \"#utility.yul\":10013:10036   */\n      sub\n        /* \"#utility.yul\":10009:10041   */\n      slt\n        /* \"#utility.yul\":10006:10125   */\n      iszero\n      tag_222\n      jumpi\n        /* \"#utility.yul\":10044:10123   */\n      tag_223\n      tag_79\n      jump\t// in\n    tag_223:\n        /* \"#utility.yul\":10006:10125   */\n    tag_222:\n        /* \"#utility.yul\":10164:10165   */\n      0x00\n        /* \"#utility.yul\":10189:10250   */\n      tag_224\n        /* \"#utility.yul\":10242:10249   */\n      dup5\n        /* \"#utility.yul\":10233:10239   */\n      dup3\n        /* \"#utility.yul\":10222:10231   */\n      dup6\n        /* \"#utility.yul\":10218:10240   */\n      add\n        /* \"#utility.yul\":10189:10250   */\n      tag_111\n      jump\t// in\n    tag_224:\n        /* \"#utility.yul\":10179:10250   */\n      swap2\n      pop\n        /* \"#utility.yul\":10135:10260   */\n      pop\n        /* \"#utility.yul\":9922:10267   */\n      swap3\n      swap2\n      pop\n      pop\n      jump\t// out\n        /* \"#utility.yul\":10273:10447   */\n    tag_112:\n        /* \"#utility.yul\":10413:10439   */\n      0x596f75206e65766572207374616b652074686973204e46540000000000000000\n        /* \"#utility.yul\":10409:10410   */\n      0x00\n        /* \"#utility.yul\":10401:10407   */\n      dup3\n        /* \"#utility.yul\":10397:10411   */\n      add\n        /* \"#utility.yul\":10390:10440   */\n      mstore\n        /* \"#utility.yul\":10273:10447   */\n      pop\n      jump\t// out\n        /* \"#utility.yul\":10453:10819   */\n    tag_113:\n        /* \"#utility.yul\":10595:10598   */\n      0x00\n        /* \"#utility.yul\":10616:10683   */\n      tag_227\n        /* \"#utility.yul\":10680:10682   */\n      0x18\n        /* \"#utility.yul\":10675:10678   */\n      dup4\n        /* \"#utility.yul\":10616:10683   */\n      tag_102\n      jump\t// in\n    tag_227:\n        /* \"#utility.yul\":10609:10683   */\n      swap2\n      pop\n        /* \"#utility.yul\":10692:10785   */\n      tag_228\n        /* \"#utility.yul\":10781:10784   */\n      dup3\n        /* \"#utility.yul\":10692:10785   */\n      tag_112\n      jump\t// in\n    tag_228:\n        /* \"#utility.yul\":10810:10812   */\n      0x20\n        /* \"#utility.yul\":10805:10808   */\n      dup3\n        /* \"#utility.yul\":10801:10813   */\n      add\n        /* \"#utility.yul\":10794:10813   */\n      swap1\n      pop\n        /* \"#utility.yul\":10453:10819   */\n      swap2\n      swap1\n      pop\n      jump\t// out\n        /* \"#utility.yul\":10825:11244   */\n    tag_61:\n        /* \"#utility.yul\":10991:10995   */\n      0x00\n        /* \"#utility.yul\":11029:11031   */\n      0x20\n        /* \"#utility.yul\":11018:11027   */\n      dup3\n        /* \"#utility.yul\":11014:11032   */\n      add\n        /* \"#utility.yul\":11006:11032   */\n      swap1\n      pop\n        /* \"#utility.yul\":11078:11087   */\n      dup2\n        /* \"#utility.yul\":11072:11076   */\n      dup2\n        /* \"#utility.yul\":11068:11088   */\n      sub\n        /* \"#utility.yul\":11064:11065   */\n      0x00\n        /* \"#utility.yul\":11053:11062   */\n      dup4\n        /* \"#utility.yul\":11049:11066   */\n      add\n        /* \"#utility.yul\":11042:11089   */\n      mstore\n        /* \"#utility.yul\":11106:11237   */\n      tag_230\n        /* \"#utility.yul\":11232:11236   */\n      dup2\n        /* \"#utility.yul\":11106:11237   */\n      tag_113\n      jump\t// in\n    tag_230:\n        /* \"#utility.yul\":11098:11237   */\n      swap1\n      pop\n        /* \"#utility.yul\":10825:11244   */\n      swap2\n      swap1\n      pop\n      jump\t// out\n        /* \"#utility.yul\":11250:11430   */\n    tag_114:\n        /* \"#utility.yul\":11298:11375   */\n      0x4e487b7100000000000000000000000000000000000000000000000000000000\n        /* \"#utility.yul\":11295:11296   */\n      0x00\n        /* \"#utility.yul\":11288:11376   */\n      mstore\n        /* \"#utility.yul\":11395:11399   */\n      0x11\n        /* \"#utility.yul\":11392:11393   */\n      0x04\n        /* \"#utility.yul\":11385:11400   */\n      mstore\n        /* \"#utility.yul\":11419:11423   */\n      0x24\n        /* \"#utility.yul\":11416:11417   */\n      0x00\n        /* \"#utility.yul\":11409:11424   */\n      revert\n        /* \"#utility.yul\":11436:11630   */\n    tag_63:\n        /* \"#utility.yul\":11476:11480   */\n      0x00\n        /* \"#utility.yul\":11496:11516   */\n      tag_233\n        /* \"#utility.yul\":11514:11515   */\n      dup3\n        /* \"#utility.yul\":11496:11516   */\n      tag_85\n      jump\t// in\n    tag_233:\n        /* \"#utility.yul\":11491:11516   */\n      swap2\n      pop\n        /* \"#utility.yul\":11530:11550   */\n      tag_234\n        /* \"#utility.yul\":11548:11549   */\n      dup4\n        /* \"#utility.yul\":11530:11550   */\n      tag_85\n      jump\t// in\n    tag_234:\n        /* \"#utility.yul\":11525:11550   */\n      swap3\n      pop\n        /* \"#utility.yul\":11574:11575   */\n      dup3\n        /* \"#utility.yul\":11571:11572   */\n      dup3\n        /* \"#utility.yul\":11567:11576   */\n      sub\n        /* \"#utility.yul\":11559:11576   */\n      swap1\n      pop\n        /* \"#utility.yul\":11598:11599   */\n      dup2\n        /* \"#utility.yul\":11592:11596   */\n      dup2\n        /* \"#utility.yul\":11589:11600   */\n      gt\n        /* \"#utility.yul\":11586:11623   */\n      iszero\n      tag_235\n      jumpi\n        /* \"#utility.yul\":11603:11621   */\n      tag_236\n      tag_114\n      jump\t// in\n    tag_236:\n        /* \"#utility.yul\":11586:11623   */\n    tag_235:\n        /* \"#utility.yul\":11436:11630   */\n      swap3\n      swap2\n      pop\n      pop\n      jump\t// out\n        /* \"#utility.yul\":11636:12046   */\n    tag_67:\n        /* \"#utility.yul\":11676:11683   */\n      0x00\n        /* \"#utility.yul\":11699:11719   */\n      tag_238\n        /* \"#utility.yul\":11717:11718   */\n      dup3\n        /* \"#utility.yul\":11699:11719   */\n      tag_85\n      jump\t// in\n    tag_238:\n        /* \"#utility.yul\":11694:11719   */\n      swap2\n      pop\n        /* \"#utility.yul\":11733:11753   */\n      tag_239\n        /* \"#utility.yul\":11751:11752   */\n      dup4\n        /* \"#utility.yul\":11733:11753   */\n      tag_85\n      jump\t// in\n    tag_239:\n        /* \"#utility.yul\":11728:11753   */\n      swap3\n      pop\n        /* \"#utility.yul\":11788:11789   */\n      dup3\n        /* \"#utility.yul\":11785:11786   */\n      dup3\n        /* \"#utility.yul\":11781:11790   */\n      mul\n        /* \"#utility.yul\":11810:11840   */\n      tag_240\n        /* \"#utility.yul\":11828:11839   */\n      dup2\n        /* \"#utility.yul\":11810:11840   */\n      tag_85\n      jump\t// in\n    tag_240:\n        /* \"#utility.yul\":11799:11840   */\n      swap2\n      pop\n        /* \"#utility.yul\":11989:11990   */\n      dup3\n        /* \"#utility.yul\":11980:11987   */\n      dup3\n        /* \"#utility.yul\":11976:11991   */\n      div\n        /* \"#utility.yul\":11973:11974   */\n      dup5\n        /* \"#utility.yul\":11970:11992   */\n      eq\n        /* \"#utility.yul\":11950:11951   */\n      dup4\n        /* \"#utility.yul\":11943:11952   */\n      iszero\n        /* \"#utility.yul\":11923:12006   */\n      or\n        /* \"#utility.yul\":11900:12039   */\n      tag_241\n      jumpi\n        /* \"#utility.yul\":12019:12037   */\n      tag_242\n      tag_114\n      jump\t// in\n    tag_242:\n        /* \"#utility.yul\":11900:12039   */\n    tag_241:\n        /* \"#utility.yul\":11684:12046   */\n      pop\n        /* \"#utility.yul\":11636:12046   */\n      swap3\n      swap2\n      pop\n      pop\n      jump\t// out\n        /* \"#utility.yul\":12052:12232   */\n    tag_115:\n        /* \"#utility.yul\":12100:12177   */\n      0x4e487b7100000000000000000000000000000000000000000000000000000000\n        /* \"#utility.yul\":12097:12098   */\n      0x00\n        /* \"#utility.yul\":12090:12178   */\n      mstore\n        /* \"#utility.yul\":12197:12201   */\n      0x12\n        /* \"#utility.yul\":12194:12195   */\n      0x04\n        /* \"#utility.yul\":12187:12202   */\n      mstore\n        /* \"#utility.yul\":12221:12225   */\n      0x24\n        /* \"#utility.yul\":12218:12219   */\n      0x00\n        /* \"#utility.yul\":12211:12226   */\n      revert\n        /* \"#utility.yul\":12238:12423   */\n    tag_70:\n        /* \"#utility.yul\":12278:12279   */\n      0x00\n        /* \"#utility.yul\":12295:12315   */\n      tag_245\n        /* \"#utility.yul\":12313:12314   */\n      dup3\n        /* \"#utility.yul\":12295:12315   */\n      tag_85\n      jump\t// in\n    tag_245:\n        /* \"#utility.yul\":12290:12315   */\n      swap2\n      pop\n        /* \"#utility.yul\":12329:12349   */\n      tag_246\n        /* \"#utility.yul\":12347:12348   */\n      dup4\n        /* \"#utility.yul\":12329:12349   */\n      tag_85\n      jump\t// in\n    tag_246:\n        /* \"#utility.yul\":12324:12349   */\n      swap3\n      pop\n        /* \"#utility.yul\":12368:12369   */\n      dup3\n        /* \"#utility.yul\":12358:12393   */\n      tag_247\n      jumpi\n        /* \"#utility.yul\":12373:12391   */\n      tag_248\n      tag_115\n      jump\t// in\n    tag_248:\n        /* \"#utility.yul\":12358:12393   */\n    tag_247:\n        /* \"#utility.yul\":12415:12416   */\n      dup3\n        /* \"#utility.yul\":12412:12413   */\n      dup3\n        /* \"#utility.yul\":12408:12417   */\n      div\n        /* \"#utility.yul\":12403:12417   */\n      swap1\n      pop\n        /* \"#utility.yul\":12238:12423   */\n      swap3\n      swap2\n      pop\n      pop\n      jump\t// out\n\n    auxdata: 0xa264697066735822122070bebd69f9c69019ade06a64bdd8c8261cd31a8239c1e80545c8e02eec4c11a764736f6c63430008180033\n}\n",
				"bytecode": {
					"linkReferences": {},
					"object": "60c060405234801561000f575f80fd5b50604051610e2f380380610e2f833981810160405281019061003191906100fe565b8173ffffffffffffffffffffffffffffffffffffffff1660808173ffffffffffffffffffffffffffffffffffffffff16815250508073ffffffffffffffffffffffffffffffffffffffff1660a08173ffffffffffffffffffffffffffffffffffffffff1681525050505061013c565b5f80fd5b5f73ffffffffffffffffffffffffffffffffffffffff82169050919050565b5f6100cd826100a4565b9050919050565b6100dd816100c3565b81146100e7575f80fd5b50565b5f815190506100f8816100d4565b92915050565b5f8060408385031215610114576101136100a0565b5b5f610121858286016100ea565b9250506020610132858286016100ea565b9150509250929050565b60805160a051610cc461016b5f395f6103fc01525f818161014d0152818161028b01526103720152610cc45ff3fe608060405234801561000f575f80fd5b5060043610610055575f3560e01c8063150b7a02146100595780631dbb2a22146100895780632e17de78146100a5578063584b62a1146100c1578063d2d7231f146100f1575b5f80fd5b610073600480360381019061006e91906107fc565b610121565b60405161008091906108b6565b60405180910390f35b6100a3600480360381019061009e91906108cf565b610134565b005b6100bf60048036038101906100ba91906108cf565b610316565b005b6100db60048036038101906100d691906108fa565b61049a565b6040516100e89190610947565b60405180910390f35b61010b600480360381019061010691906108cf565b6104b9565b6040516101189190610947565b60405180910390f35b5f63150b7a0260e01b9050949350505050565b3373ffffffffffffffffffffffffffffffffffffffff167f000000000000000000000000000000000000000000000000000000000000000073ffffffffffffffffffffffffffffffffffffffff16636352211e836040518263ffffffff1660e01b81526004016101a49190610947565b602060405180830381865afa1580156101bf573d5f803e3d5ffd5b505050506040513d601f19601f820116820180604052508101906101e39190610974565b73ffffffffffffffffffffffffffffffffffffffff1614610239576040517f08c379a0000000000000000000000000000000000000000000000000000000008152600401610230906109f9565b60405180910390fd5b425f803373ffffffffffffffffffffffffffffffffffffffff1673ffffffffffffffffffffffffffffffffffffffff1681526020019081526020015f205f8381526020019081526020015f20819055507f000000000000000000000000000000000000000000000000000000000000000073ffffffffffffffffffffffffffffffffffffffff1663b88d4fde3330846040518463ffffffff1660e01b81526004016102e693929190610a59565b5f604051808303815f87803b1580156102fd575f80fd5b505af115801561030f573d5f803e3d5ffd5b5050505050565b5f610320826104b9565b90505f803373ffffffffffffffffffffffffffffffffffffffff1673ffffffffffffffffffffffffffffffffffffffff1681526020019081526020015f205f8381526020019081526020015f205f90557f000000000000000000000000000000000000000000000000000000000000000073ffffffffffffffffffffffffffffffffffffffff1663b88d4fde3033856040518463ffffffff1660e01b81526004016103cd93929190610a59565b5f604051808303815f87803b1580156103e4575f80fd5b505af11580156103f6573d5f803e3d5ffd5b505050507f000000000000000000000000000000000000000000000000000000000000000073ffffffffffffffffffffffffffffffffffffffff1663a9059cbb33836040518363ffffffff1660e01b8152600401610455929190610aa1565b6020604051808303815f875af1158015610471573d5f803e3d5ffd5b505050506040513d601f19601f820116820180604052508101906104959190610afd565b505050565b5f602052815f5260405f20602052805f5260405f205f91509150505481565b5f805f803373ffffffffffffffffffffffffffffffffffffffff1673ffffffffffffffffffffffffffffffffffffffff1681526020019081526020015f205f8481526020019081526020015f205411610547576040517f08c379a000000000000000000000000000000000000000000000000000000000815260040161053e90610b72565b60405180910390fd5b5f805f3373ffffffffffffffffffffffffffffffffffffffff1673ffffffffffffffffffffffffffffffffffffffff1681526020019081526020015f205f8481526020019081526020015f20544261059f9190610bbd565b90505f603c670de0b6b3a7640000836105b7856105e1565b6105c19190610bf0565b6105cb9190610bf0565b6105d59190610c5e565b90508092505050919050565b5f603c8210156105f3575f905061061d565b60b4821015610605576003905061061d565b61012c821015610618576005905061061d565b600a90505b919050565b5f604051905090565b5f80fd5b5f80fd5b5f73ffffffffffffffffffffffffffffffffffffffff82169050919050565b5f61065c82610633565b9050919050565b61066c81610652565b8114610676575f80fd5b50565b5f8135905061068781610663565b92915050565b5f819050919050565b61069f8161068d565b81146106a9575f80fd5b50565b5f813590506106ba81610696565b92915050565b5f80fd5b5f80fd5b5f601f19601f8301169050919050565b7f4e487b71000000000000000000000000000000000000000000000000000000005f52604160045260245ffd5b61070e826106c8565b810181811067ffffffffffffffff8211171561072d5761072c6106d8565b5b80604052505050565b5f61073f610622565b905061074b8282610705565b919050565b5f67ffffffffffffffff82111561076a576107696106d8565b5b610773826106c8565b9050602081019050919050565b828183375f83830152505050565b5f6107a061079b84610750565b610736565b9050828152602081018484840111156107bc576107bb6106c4565b5b6107c7848285610780565b509392505050565b5f82601f8301126107e3576107e26106c0565b5b81356107f384826020860161078e565b91505092915050565b5f805f80608085870312156108145761081361062b565b5b5f61082187828801610679565b945050602061083287828801610679565b9350506040610843878288016106ac565b925050606085013567ffffffffffffffff8111156108645761086361062f565b5b610870878288016107cf565b91505092959194509250565b5f7fffffffff0000000000000000000000000000000000000000000000000000000082169050919050565b6108b08161087c565b82525050565b5f6020820190506108c95f8301846108a7565b92915050565b5f602082840312156108e4576108e361062b565b5b5f6108f1848285016106ac565b91505092915050565b5f80604083850312156109105761090f61062b565b5b5f61091d85828601610679565b925050602061092e858286016106ac565b9150509250929050565b6109418161068d565b82525050565b5f60208201905061095a5f830184610938565b92915050565b5f8151905061096e81610663565b92915050565b5f602082840312156109895761098861062b565b5b5f61099684828501610960565b91505092915050565b5f82825260208201905092915050565b7f596f75277265206e6f74206f776e2074686973204e46540000000000000000005f82015250565b5f6109e360178361099f565b91506109ee826109af565b602082019050919050565b5f6020820190508181035f830152610a10816109d7565b9050919050565b610a2081610652565b82525050565b5f82825260208201905092915050565b50565b5f610a445f83610a26565b9150610a4f82610a36565b5f82019050919050565b5f608082019050610a6c5f830186610a17565b610a796020830185610a17565b610a866040830184610938565b8181036060830152610a9781610a39565b9050949350505050565b5f604082019050610ab45f830185610a17565b610ac16020830184610938565b9392505050565b5f8115159050919050565b610adc81610ac8565b8114610ae6575f80fd5b50565b5f81519050610af781610ad3565b92915050565b5f60208284031215610b1257610b1161062b565b5b5f610b1f84828501610ae9565b91505092915050565b7f596f75206e65766572207374616b652074686973204e465400000000000000005f82015250565b5f610b5c60188361099f565b9150610b6782610b28565b602082019050919050565b5f6020820190508181035f830152610b8981610b50565b9050919050565b7f4e487b71000000000000000000000000000000000000000000000000000000005f52601160045260245ffd5b5f610bc78261068d565b9150610bd28361068d565b9250828203905081811115610bea57610be9610b90565b5b92915050565b5f610bfa8261068d565b9150610c058361068d565b9250828202610c138161068d565b91508282048414831517610c2a57610c29610b90565b5b5092915050565b7f4e487b71000000000000000000000000000000000000000000000000000000005f52601260045260245ffd5b5f610c688261068d565b9150610c738361068d565b925082610c8357610c82610c31565b5b82820490509291505056fea264697066735822122070bebd69f9c69019ade06a64bdd8c8261cd31a8239c1e80545c8e02eec4c11a764736f6c63430008180033",
					"opcodes": "PUSH1 0xC0 PUSH1 0x40 MSTORE CALLVALUE DUP1 ISZERO PUSH2 0xF JUMPI PUSH0 DUP1 REVERT JUMPDEST POP PUSH1 0x40 MLOAD PUSH2 0xE2F CODESIZE SUB DUP1 PUSH2 0xE2F DUP4 CODECOPY DUP2 DUP2 ADD PUSH1 0x40 MSTORE DUP2 ADD SWAP1 PUSH2 0x31 SWAP2 SWAP1 PUSH2 0xFE JUMP JUMPDEST DUP2 PUSH20 0xFFFFFFFFFFFFFFFFFFFFFFFFFFFFFFFFFFFFFFFF AND PUSH1 0x80 DUP2 PUSH20 0xFFFFFFFFFFFFFFFFFFFFFFFFFFFFFFFFFFFFFFFF AND DUP2 MSTORE POP POP DUP1 PUSH20 0xFFFFFFFFFFFFFFFFFFFFFFFFFFFFFFFFFFFFFFFF AND PUSH1 0xA0 DUP2 PUSH20 0xFFFFFFFFFFFFFFFFFFFFFFFFFFFFFFFFFFFFFFFF AND DUP2 MSTORE POP POP POP POP PUSH2 0x13C JUMP JUMPDEST PUSH0 DUP1 REVERT JUMPDEST PUSH0 PUSH20 0xFFFFFFFFFFFFFFFFFFFFFFFFFFFFFFFFFFFFFFFF DUP3 AND SWAP1 POP SWAP2 SWAP1 POP JUMP JUMPDEST PUSH0 PUSH2 0xCD DUP3 PUSH2 0xA4 JUMP JUMPDEST SWAP1 POP SWAP2 SWAP1 POP JUMP JUMPDEST PUSH2 0xDD DUP2 PUSH2 0xC3 JUMP JUMPDEST DUP2 EQ PUSH2 0xE7 JUMPI PUSH0 DUP1 REVERT JUMPDEST POP JUMP JUMPDEST PUSH0 DUP2 MLOAD SWAP1 POP PUSH2 0xF8 DUP2 PUSH2 0xD4 JUMP JUMPDEST SWAP3 SWAP2 POP POP JUMP JUMPDEST PUSH0 DUP1 PUSH1 0x40 DUP4 DUP6 SUB SLT ISZERO PUSH2 0x114 JUMPI PUSH2 0x113 PUSH2 0xA0 JUMP JUMPDEST JUMPDEST PUSH0 PUSH2 0x121 DUP6 DUP3 DUP7 ADD PUSH2 0xEA JUMP JUMPDEST SWAP3 POP POP PUSH1 0x20 PUSH2 0x132 DUP6 DUP3 DUP7 ADD PUSH2 0xEA JUMP JUMPDEST SWAP2 POP POP SWAP3 POP SWAP3 SWAP1 POP JUMP JUMPDEST PUSH1 0x80 MLOAD PUSH1 0xA0 MLOAD PUSH2 0xCC4 PUSH2 0x16B PUSH0 CODECOPY PUSH0 PUSH2 0x3FC ADD MSTORE PUSH0 DUP2 DUP2 PUSH2 0x14D ADD MSTORE DUP2 DUP2 PUSH2 0x28B ADD MSTORE PUSH2 0x372 ADD MSTORE PUSH2 0xCC4 PUSH0 RETURN INVALID PUSH1 0x80 PUSH1 0x40 MSTORE CALLVALUE DUP1 ISZERO PUSH2 0xF JUMPI PUSH0 DUP1 REVERT JUMPDEST POP PUSH1 0x4 CALLDATASIZE LT PUSH2 0x55 JUMPI PUSH0 CALLDATALOAD PUSH1 0xE0 SHR DUP1 PUSH4 0x150B7A02 EQ PUSH2 0x59 JUMPI DUP1 PUSH4 0x1DBB2A22 EQ PUSH2 0x89 JUMPI DUP1 PUSH4 0x2E17DE78 EQ PUSH2 0xA5 JUMPI DUP1 PUSH4 0x584B62A1 EQ PUSH2 0xC1 JUMPI DUP1 PUSH4 0xD2D7231F EQ PUSH2 0xF1 JUMPI JUMPDEST PUSH0 DUP1 REVERT JUMPDEST PUSH2 0x73 PUSH1 0x4 DUP1 CALLDATASIZE SUB DUP2 ADD SWAP1 PUSH2 0x6E SWAP2 SWAP1 PUSH2 0x7FC JUMP JUMPDEST PUSH2 0x121 JUMP JUMPDEST PUSH1 0x40 MLOAD PUSH2 0x80 SWAP2 SWAP1 PUSH2 0x8B6 JUMP JUMPDEST PUSH1 0x40 MLOAD DUP1 SWAP2 SUB SWAP1 RETURN JUMPDEST PUSH2 0xA3 PUSH1 0x4 DUP1 CALLDATASIZE SUB DUP2 ADD SWAP1 PUSH2 0x9E SWAP2 SWAP1 PUSH2 0x8CF JUMP JUMPDEST PUSH2 0x134 JUMP JUMPDEST STOP JUMPDEST PUSH2 0xBF PUSH1 0x4 DUP1 CALLDATASIZE SUB DUP2 ADD SWAP1 PUSH2 0xBA SWAP2 SWAP1 PUSH2 0x8CF JUMP JUMPDEST PUSH2 0x316 JUMP JUMPDEST STOP JUMPDEST PUSH2 0xDB PUSH1 0x4 DUP1 CALLDATASIZE SUB DUP2 ADD SWAP1 PUSH2 0xD6 SWAP2 SWAP1 PUSH2 0x8FA JUMP JUMPDEST PUSH2 0x49A JUMP JUMPDEST PUSH1 0x40 MLOAD PUSH2 0xE8 SWAP2 SWAP1 PUSH2 0x947 JUMP JUMPDEST PUSH1 0x40 MLOAD DUP1 SWAP2 SUB SWAP1 RETURN JUMPDEST PUSH2 0x10B PUSH1 0x4 DUP1 CALLDATASIZE SUB DUP2 ADD SWAP1 PUSH2 0x106 SWAP2 SWAP1 PUSH2 0x8CF JUMP JUMPDEST PUSH2 0x4B9 JUMP JUMPDEST PUSH1 0x40 MLOAD PUSH2 0x118 SWAP2 SWAP1 PUSH2 0x947 JUMP JUMPDEST PUSH1 0x40 MLOAD DUP1 SWAP2 SUB SWAP1 RETURN JUMPDEST PUSH0 PUSH4 0x150B7A02 PUSH1 0xE0 SHL SWAP1 POP SWAP5 SWAP4 POP POP POP POP JUMP JUMPDEST CALLER PUSH20 0xFFFFFFFFFFFFFFFFFFFFFFFFFFFFFFFFFFFFFFFF AND PUSH32 0x0 PUSH20 0xFFFFFFFFFFFFFFFFFFFFFFFFFFFFFFFFFFFFFFFF AND PUSH4 0x6352211E DUP4 PUSH1 0x40 MLOAD DUP3 PUSH4 0xFFFFFFFF AND PUSH1 0xE0 SHL DUP2 MSTORE PUSH1 0x4 ADD PUSH2 0x1A4 SWAP2 SWAP1 PUSH2 0x947 JUMP JUMPDEST PUSH1 0x20 PUSH1 0x40 MLOAD DUP1 DUP4 SUB DUP2 DUP7 GAS STATICCALL ISZERO DUP1 ISZERO PUSH2 0x1BF JUMPI RETURNDATASIZE PUSH0 DUP1 RETURNDATACOPY RETURNDATASIZE PUSH0 REVERT JUMPDEST POP POP POP POP PUSH1 0x40 MLOAD RETURNDATASIZE PUSH1 0x1F NOT PUSH1 0x1F DUP3 ADD AND DUP3 ADD DUP1 PUSH1 0x40 MSTORE POP DUP2 ADD SWAP1 PUSH2 0x1E3 SWAP2 SWAP1 PUSH2 0x974 JUMP JUMPDEST PUSH20 0xFFFFFFFFFFFFFFFFFFFFFFFFFFFFFFFFFFFFFFFF AND EQ PUSH2 0x239 JUMPI PUSH1 0x40 MLOAD PUSH32 0x8C379A000000000000000000000000000000000000000000000000000000000 DUP2 MSTORE PUSH1 0x4 ADD PUSH2 0x230 SWAP1 PUSH2 0x9F9 JUMP JUMPDEST PUSH1 0x40 MLOAD DUP1 SWAP2 SUB SWAP1 REVERT JUMPDEST TIMESTAMP PUSH0 DUP1 CALLER PUSH20 0xFFFFFFFFFFFFFFFFFFFFFFFFFFFFFFFFFFFFFFFF AND PUSH20 0xFFFFFFFFFFFFFFFFFFFFFFFFFFFFFFFFFFFFFFFF AND DUP2 MSTORE PUSH1 0x20 ADD SWAP1 DUP2 MSTORE PUSH1 0x20 ADD PUSH0 KECCAK256 PUSH0 DUP4 DUP2 MSTORE PUSH1 0x20 ADD SWAP1 DUP2 MSTORE PUSH1 0x20 ADD PUSH0 KECCAK256 DUP2 SWAP1 SSTORE POP PUSH32 0x0 PUSH20 0xFFFFFFFFFFFFFFFFFFFFFFFFFFFFFFFFFFFFFFFF AND PUSH4 0xB88D4FDE CALLER ADDRESS DUP5 PUSH1 0x40 MLOAD DUP5 PUSH4 0xFFFFFFFF AND PUSH1 0xE0 SHL DUP2 MSTORE PUSH1 0x4 ADD PUSH2 0x2E6 SWAP4 SWAP3 SWAP2 SWAP1 PUSH2 0xA59 JUMP JUMPDEST PUSH0 PUSH1 0x40 MLOAD DUP1 DUP4 SUB DUP2 PUSH0 DUP8 DUP1 EXTCODESIZE ISZERO DUP1 ISZERO PUSH2 0x2FD JUMPI PUSH0 DUP1 REVERT JUMPDEST POP GAS CALL ISZERO DUP1 ISZERO PUSH2 0x30F JUMPI RETURNDATASIZE PUSH0 DUP1 RETURNDATACOPY RETURNDATASIZE PUSH0 REVERT JUMPDEST POP POP POP POP POP JUMP JUMPDEST PUSH0 PUSH2 0x320 DUP3 PUSH2 0x4B9 JUMP JUMPDEST SWAP1 POP PUSH0 DUP1 CALLER PUSH20 0xFFFFFFFFFFFFFFFFFFFFFFFFFFFFFFFFFFFFFFFF AND PUSH20 0xFFFFFFFFFFFFFFFFFFFFFFFFFFFFFFFFFFFFFFFF AND DUP2 MSTORE PUSH1 0x20 ADD SWAP1 DUP2 MSTORE PUSH1 0x20 ADD PUSH0 KECCAK256 PUSH0 DUP4 DUP2 MSTORE PUSH1 0x20 ADD SWAP1 DUP2 MSTORE PUSH1 0x20 ADD PUSH0 KECCAK256 PUSH0 SWAP1 SSTORE PUSH32 0x0 PUSH20 0xFFFFFFFFFFFFFFFFFFFFFFFFFFFFFFFFFFFFFFFF AND PUSH4 0xB88D4FDE ADDRESS CALLER DUP6 PUSH1 0x40 MLOAD DUP5 PUSH4 0xFFFFFFFF AND PUSH1 0xE0 SHL DUP2 MSTORE PUSH1 0x4 ADD PUSH2 0x3CD SWAP4 SWAP3 SWAP2 SWAP1 PUSH2 0xA59 JUMP JUMPDEST PUSH0 PUSH1 0x40 MLOAD DUP1 DUP4 SUB DUP2 PUSH0 DUP8 DUP1 EXTCODESIZE ISZERO DUP1 ISZERO PUSH2 0x3E4 JUMPI PUSH0 DUP1 REVERT JUMPDEST POP GAS CALL ISZERO DUP1 ISZERO PUSH2 0x3F6 JUMPI RETURNDATASIZE PUSH0 DUP1 RETURNDATACOPY RETURNDATASIZE PUSH0 REVERT JUMPDEST POP POP POP POP PUSH32 0x0 PUSH20 0xFFFFFFFFFFFFFFFFFFFFFFFFFFFFFFFFFFFFFFFF AND PUSH4 0xA9059CBB CALLER DUP4 PUSH1 0x40 MLOAD DUP4 PUSH4 0xFFFFFFFF AND PUSH1 0xE0 SHL DUP2 MSTORE PUSH1 0x4 ADD PUSH2 0x455 SWAP3 SWAP2 SWAP1 PUSH2 0xAA1 JUMP JUMPDEST PUSH1 0x20 PUSH1 0x40 MLOAD DUP1 DUP4 SUB DUP2 PUSH0 DUP8 GAS CALL ISZERO DUP1 ISZERO PUSH2 0x471 JUMPI RETURNDATASIZE PUSH0 DUP1 RETURNDATACOPY RETURNDATASIZE PUSH0 REVERT JUMPDEST POP POP POP POP PUSH1 0x40 MLOAD RETURNDATASIZE PUSH1 0x1F NOT PUSH1 0x1F DUP3 ADD AND DUP3 ADD DUP1 PUSH1 0x40 MSTORE POP DUP2 ADD SWAP1 PUSH2 0x495 SWAP2 SWAP1 PUSH2 0xAFD JUMP JUMPDEST POP POP POP JUMP JUMPDEST PUSH0 PUSH1 0x20 MSTORE DUP2 PUSH0 MSTORE PUSH1 0x40 PUSH0 KECCAK256 PUSH1 0x20 MSTORE DUP1 PUSH0 MSTORE PUSH1 0x40 PUSH0 KECCAK256 PUSH0 SWAP2 POP SWAP2 POP POP SLOAD DUP2 JUMP JUMPDEST PUSH0 DUP1 PUSH0 DUP1 CALLER PUSH20 0xFFFFFFFFFFFFFFFFFFFFFFFFFFFFFFFFFFFFFFFF AND PUSH20 0xFFFFFFFFFFFFFFFFFFFFFFFFFFFFFFFFFFFFFFFF AND DUP2 MSTORE PUSH1 0x20 ADD SWAP1 DUP2 MSTORE PUSH1 0x20 ADD PUSH0 KECCAK256 PUSH0 DUP5 DUP2 MSTORE PUSH1 0x20 ADD SWAP1 DUP2 MSTORE PUSH1 0x20 ADD PUSH0 KECCAK256 SLOAD GT PUSH2 0x547 JUMPI PUSH1 0x40 MLOAD PUSH32 0x8C379A000000000000000000000000000000000000000000000000000000000 DUP2 MSTORE PUSH1 0x4 ADD PUSH2 0x53E SWAP1 PUSH2 0xB72 JUMP JUMPDEST PUSH1 0x40 MLOAD DUP1 SWAP2 SUB SWAP1 REVERT JUMPDEST PUSH0 DUP1 PUSH0 CALLER PUSH20 0xFFFFFFFFFFFFFFFFFFFFFFFFFFFFFFFFFFFFFFFF AND PUSH20 0xFFFFFFFFFFFFFFFFFFFFFFFFFFFFFFFFFFFFFFFF AND DUP2 MSTORE PUSH1 0x20 ADD SWAP1 DUP2 MSTORE PUSH1 0x20 ADD PUSH0 KECCAK256 PUSH0 DUP5 DUP2 MSTORE PUSH1 0x20 ADD SWAP1 DUP2 MSTORE PUSH1 0x20 ADD PUSH0 KECCAK256 SLOAD TIMESTAMP PUSH2 0x59F SWAP2 SWAP1 PUSH2 0xBBD JUMP JUMPDEST SWAP1 POP PUSH0 PUSH1 0x3C PUSH8 0xDE0B6B3A7640000 DUP4 PUSH2 0x5B7 DUP6 PUSH2 0x5E1 JUMP JUMPDEST PUSH2 0x5C1 SWAP2 SWAP1 PUSH2 0xBF0 JUMP JUMPDEST PUSH2 0x5CB SWAP2 SWAP1 PUSH2 0xBF0 JUMP JUMPDEST PUSH2 0x5D5 SWAP2 SWAP1 PUSH2 0xC5E JUMP JUMPDEST SWAP1 POP DUP1 SWAP3 POP POP POP SWAP2 SWAP1 POP JUMP JUMPDEST PUSH0 PUSH1 0x3C DUP3 LT ISZERO PUSH2 0x5F3 JUMPI PUSH0 SWAP1 POP PUSH2 0x61D JUMP JUMPDEST PUSH1 0xB4 DUP3 LT ISZERO PUSH2 0x605 JUMPI PUSH1 0x3 SWAP1 POP PUSH2 0x61D JUMP JUMPDEST PUSH2 0x12C DUP3 LT ISZERO PUSH2 0x618 JUMPI PUSH1 0x5 SWAP1 POP PUSH2 0x61D JUMP JUMPDEST PUSH1 0xA SWAP1 POP JUMPDEST SWAP2 SWAP1 POP JUMP JUMPDEST PUSH0 PUSH1 0x40 MLOAD SWAP1 POP SWAP1 JUMP JUMPDEST PUSH0 DUP1 REVERT JUMPDEST PUSH0 DUP1 REVERT JUMPDEST PUSH0 PUSH20 0xFFFFFFFFFFFFFFFFFFFFFFFFFFFFFFFFFFFFFFFF DUP3 AND SWAP1 POP SWAP2 SWAP1 POP JUMP JUMPDEST PUSH0 PUSH2 0x65C DUP3 PUSH2 0x633 JUMP JUMPDEST SWAP1 POP SWAP2 SWAP1 POP JUMP JUMPDEST PUSH2 0x66C DUP2 PUSH2 0x652 JUMP JUMPDEST DUP2 EQ PUSH2 0x676 JUMPI PUSH0 DUP1 REVERT JUMPDEST POP JUMP JUMPDEST PUSH0 DUP2 CALLDATALOAD SWAP1 POP PUSH2 0x687 DUP2 PUSH2 0x663 JUMP JUMPDEST SWAP3 SWAP2 POP POP JUMP JUMPDEST PUSH0 DUP2 SWAP1 POP SWAP2 SWAP1 POP JUMP JUMPDEST PUSH2 0x69F DUP2 PUSH2 0x68D JUMP JUMPDEST DUP2 EQ PUSH2 0x6A9 JUMPI PUSH0 DUP1 REVERT JUMPDEST POP JUMP JUMPDEST PUSH0 DUP2 CALLDATALOAD SWAP1 POP PUSH2 0x6BA DUP2 PUSH2 0x696 JUMP JUMPDEST SWAP3 SWAP2 POP POP JUMP JUMPDEST PUSH0 DUP1 REVERT JUMPDEST PUSH0 DUP1 REVERT JUMPDEST PUSH0 PUSH1 0x1F NOT PUSH1 0x1F DUP4 ADD AND SWAP1 POP SWAP2 SWAP1 POP JUMP JUMPDEST PUSH32 0x4E487B7100000000000000000000000000000000000000000000000000000000 PUSH0 MSTORE PUSH1 0x41 PUSH1 0x4 MSTORE PUSH1 0x24 PUSH0 REVERT JUMPDEST PUSH2 0x70E DUP3 PUSH2 0x6C8 JUMP JUMPDEST DUP2 ADD DUP2 DUP2 LT PUSH8 0xFFFFFFFFFFFFFFFF DUP3 GT OR ISZERO PUSH2 0x72D JUMPI PUSH2 0x72C PUSH2 0x6D8 JUMP JUMPDEST JUMPDEST DUP1 PUSH1 0x40 MSTORE POP POP POP JUMP JUMPDEST PUSH0 PUSH2 0x73F PUSH2 0x622 JUMP JUMPDEST SWAP1 POP PUSH2 0x74B DUP3 DUP3 PUSH2 0x705 JUMP JUMPDEST SWAP2 SWAP1 POP JUMP JUMPDEST PUSH0 PUSH8 0xFFFFFFFFFFFFFFFF DUP3 GT ISZERO PUSH2 0x76A JUMPI PUSH2 0x769 PUSH2 0x6D8 JUMP JUMPDEST JUMPDEST PUSH2 0x773 DUP3 PUSH2 0x6C8 JUMP JUMPDEST SWAP1 POP PUSH1 0x20 DUP2 ADD SWAP1 POP SWAP2 SWAP1 POP JUMP JUMPDEST DUP3 DUP2 DUP4 CALLDATACOPY PUSH0 DUP4 DUP4 ADD MSTORE POP POP POP JUMP JUMPDEST PUSH0 PUSH2 0x7A0 PUSH2 0x79B DUP5 PUSH2 0x750 JUMP JUMPDEST PUSH2 0x736 JUMP JUMPDEST SWAP1 POP DUP3 DUP2 MSTORE PUSH1 0x20 DUP2 ADD DUP5 DUP5 DUP5 ADD GT ISZERO PUSH2 0x7BC JUMPI PUSH2 0x7BB PUSH2 0x6C4 JUMP JUMPDEST JUMPDEST PUSH2 0x7C7 DUP5 DUP3 DUP6 PUSH2 0x780 JUMP JUMPDEST POP SWAP4 SWAP3 POP POP POP JUMP JUMPDEST PUSH0 DUP3 PUSH1 0x1F DUP4 ADD SLT PUSH2 0x7E3 JUMPI PUSH2 0x7E2 PUSH2 0x6C0 JUMP JUMPDEST JUMPDEST DUP2 CALLDATALOAD PUSH2 0x7F3 DUP5 DUP3 PUSH1 0x20 DUP7 ADD PUSH2 0x78E JUMP JUMPDEST SWAP2 POP POP SWAP3 SWAP2 POP POP JUMP JUMPDEST PUSH0 DUP1 PUSH0 DUP1 PUSH1 0x80 DUP6 DUP8 SUB SLT ISZERO PUSH2 0x814 JUMPI PUSH2 0x813 PUSH2 0x62B JUMP JUMPDEST JUMPDEST PUSH0 PUSH2 0x821 DUP8 DUP3 DUP9 ADD PUSH2 0x679 JUMP JUMPDEST SWAP5 POP POP PUSH1 0x20 PUSH2 0x832 DUP8 DUP3 DUP9 ADD PUSH2 0x679 JUMP JUMPDEST SWAP4 POP POP PUSH1 0x40 PUSH2 0x843 DUP8 DUP3 DUP9 ADD PUSH2 0x6AC JUMP JUMPDEST SWAP3 POP POP PUSH1 0x60 DUP6 ADD CALLDATALOAD PUSH8 0xFFFFFFFFFFFFFFFF DUP2 GT ISZERO PUSH2 0x864 JUMPI PUSH2 0x863 PUSH2 0x62F JUMP JUMPDEST JUMPDEST PUSH2 0x870 DUP8 DUP3 DUP9 ADD PUSH2 0x7CF JUMP JUMPDEST SWAP2 POP POP SWAP3 SWAP6 SWAP2 SWAP5 POP SWAP3 POP JUMP JUMPDEST PUSH0 PUSH32 0xFFFFFFFF00000000000000000000000000000000000000000000000000000000 DUP3 AND SWAP1 POP SWAP2 SWAP1 POP JUMP JUMPDEST PUSH2 0x8B0 DUP2 PUSH2 0x87C JUMP JUMPDEST DUP3 MSTORE POP POP JUMP JUMPDEST PUSH0 PUSH1 0x20 DUP3 ADD SWAP1 POP PUSH2 0x8C9 PUSH0 DUP4 ADD DUP5 PUSH2 0x8A7 JUMP JUMPDEST SWAP3 SWAP2 POP POP JUMP JUMPDEST PUSH0 PUSH1 0x20 DUP3 DUP5 SUB SLT ISZERO PUSH2 0x8E4 JUMPI PUSH2 0x8E3 PUSH2 0x62B JUMP JUMPDEST JUMPDEST PUSH0 PUSH2 0x8F1 DUP5 DUP3 DUP6 ADD PUSH2 0x6AC JUMP JUMPDEST SWAP2 POP POP SWAP3 SWAP2 POP POP JUMP JUMPDEST PUSH0 DUP1 PUSH1 0x40 DUP4 DUP6 SUB SLT ISZERO PUSH2 0x910 JUMPI PUSH2 0x90F PUSH2 0x62B JUMP JUMPDEST JUMPDEST PUSH0 PUSH2 0x91D DUP6 DUP3 DUP7 ADD PUSH2 0x679 JUMP JUMPDEST SWAP3 POP POP PUSH1 0x20 PUSH2 0x92E DUP6 DUP3 DUP7 ADD PUSH2 0x6AC JUMP JUMPDEST SWAP2 POP POP SWAP3 POP SWAP3 SWAP1 POP JUMP JUMPDEST PUSH2 0x941 DUP2 PUSH2 0x68D JUMP JUMPDEST DUP3 MSTORE POP POP JUMP JUMPDEST PUSH0 PUSH1 0x20 DUP3 ADD SWAP1 POP PUSH2 0x95A PUSH0 DUP4 ADD DUP5 PUSH2 0x938 JUMP JUMPDEST SWAP3 SWAP2 POP POP JUMP JUMPDEST PUSH0 DUP2 MLOAD SWAP1 POP PUSH2 0x96E DUP2 PUSH2 0x663 JUMP JUMPDEST SWAP3 SWAP2 POP POP JUMP JUMPDEST PUSH0 PUSH1 0x20 DUP3 DUP5 SUB SLT ISZERO PUSH2 0x989 JUMPI PUSH2 0x988 PUSH2 0x62B JUMP JUMPDEST JUMPDEST PUSH0 PUSH2 0x996 DUP5 DUP3 DUP6 ADD PUSH2 0x960 JUMP JUMPDEST SWAP2 POP POP SWAP3 SWAP2 POP POP JUMP JUMPDEST PUSH0 DUP3 DUP3 MSTORE PUSH1 0x20 DUP3 ADD SWAP1 POP SWAP3 SWAP2 POP POP JUMP JUMPDEST PUSH32 0x596F75277265206E6F74206F776E2074686973204E4654000000000000000000 PUSH0 DUP3 ADD MSTORE POP JUMP JUMPDEST PUSH0 PUSH2 0x9E3 PUSH1 0x17 DUP4 PUSH2 0x99F JUMP JUMPDEST SWAP2 POP PUSH2 0x9EE DUP3 PUSH2 0x9AF JUMP JUMPDEST PUSH1 0x20 DUP3 ADD SWAP1 POP SWAP2 SWAP1 POP JUMP JUMPDEST PUSH0 PUSH1 0x20 DUP3 ADD SWAP1 POP DUP2 DUP2 SUB PUSH0 DUP4 ADD MSTORE PUSH2 0xA10 DUP2 PUSH2 0x9D7 JUMP JUMPDEST SWAP1 POP SWAP2 SWAP1 POP JUMP JUMPDEST PUSH2 0xA20 DUP2 PUSH2 0x652 JUMP JUMPDEST DUP3 MSTORE POP POP JUMP JUMPDEST PUSH0 DUP3 DUP3 MSTORE PUSH1 0x20 DUP3 ADD SWAP1 POP SWAP3 SWAP2 POP POP JUMP JUMPDEST POP JUMP JUMPDEST PUSH0 PUSH2 0xA44 PUSH0 DUP4 PUSH2 0xA26 JUMP JUMPDEST SWAP2 POP PUSH2 0xA4F DUP3 PUSH2 0xA36 JUMP JUMPDEST PUSH0 DUP3 ADD SWAP1 POP SWAP2 SWAP1 POP JUMP JUMPDEST PUSH0 PUSH1 0x80 DUP3 ADD SWAP1 POP PUSH2 0xA6C PUSH0 DUP4 ADD DUP7 PUSH2 0xA17 JUMP JUMPDEST PUSH2 0xA79 PUSH1 0x20 DUP4 ADD DUP6 PUSH2 0xA17 JUMP JUMPDEST PUSH2 0xA86 PUSH1 0x40 DUP4 ADD DUP5 PUSH2 0x938 JUMP JUMPDEST DUP2 DUP2 SUB PUSH1 0x60 DUP4 ADD MSTORE PUSH2 0xA97 DUP2 PUSH2 0xA39 JUMP JUMPDEST SWAP1 POP SWAP5 SWAP4 POP POP POP POP JUMP JUMPDEST PUSH0 PUSH1 0x40 DUP3 ADD SWAP1 POP PUSH2 0xAB4 PUSH0 DUP4 ADD DUP6 PUSH2 0xA17 JUMP JUMPDEST PUSH2 0xAC1 PUSH1 0x20 DUP4 ADD DUP5 PUSH2 0x938 JUMP JUMPDEST SWAP4 SWAP3 POP POP POP JUMP JUMPDEST PUSH0 DUP2 ISZERO ISZERO SWAP1 POP SWAP2 SWAP1 POP JUMP JUMPDEST PUSH2 0xADC DUP2 PUSH2 0xAC8 JUMP JUMPDEST DUP2 EQ PUSH2 0xAE6 JUMPI PUSH0 DUP1 REVERT JUMPDEST POP JUMP JUMPDEST PUSH0 DUP2 MLOAD SWAP1 POP PUSH2 0xAF7 DUP2 PUSH2 0xAD3 JUMP JUMPDEST SWAP3 SWAP2 POP POP JUMP JUMPDEST PUSH0 PUSH1 0x20 DUP3 DUP5 SUB SLT ISZERO PUSH2 0xB12 JUMPI PUSH2 0xB11 PUSH2 0x62B JUMP JUMPDEST JUMPDEST PUSH0 PUSH2 0xB1F DUP5 DUP3 DUP6 ADD PUSH2 0xAE9 JUMP JUMPDEST SWAP2 POP POP SWAP3 SWAP2 POP POP JUMP JUMPDEST PUSH32 0x596F75206E65766572207374616B652074686973204E46540000000000000000 PUSH0 DUP3 ADD MSTORE POP JUMP JUMPDEST PUSH0 PUSH2 0xB5C PUSH1 0x18 DUP4 PUSH2 0x99F JUMP JUMPDEST SWAP2 POP PUSH2 0xB67 DUP3 PUSH2 0xB28 JUMP JUMPDEST PUSH1 0x20 DUP3 ADD SWAP1 POP SWAP2 SWAP1 POP JUMP JUMPDEST PUSH0 PUSH1 0x20 DUP3 ADD SWAP1 POP DUP2 DUP2 SUB PUSH0 DUP4 ADD MSTORE PUSH2 0xB89 DUP2 PUSH2 0xB50 JUMP JUMPDEST SWAP1 POP SWAP2 SWAP1 POP JUMP JUMPDEST PUSH32 0x4E487B7100000000000000000000000000000000000000000000000000000000 PUSH0 MSTORE PUSH1 0x11 PUSH1 0x4 MSTORE PUSH1 0x24 PUSH0 REVERT JUMPDEST PUSH0 PUSH2 0xBC7 DUP3 PUSH2 0x68D JUMP JUMPDEST SWAP2 POP PUSH2 0xBD2 DUP4 PUSH2 0x68D JUMP JUMPDEST SWAP3 POP DUP3 DUP3 SUB SWAP1 POP DUP2 DUP2 GT ISZERO PUSH2 0xBEA JUMPI PUSH2 0xBE9 PUSH2 0xB90 JUMP JUMPDEST JUMPDEST SWAP3 SWAP2 POP POP JUMP JUMPDEST PUSH0 PUSH2 0xBFA DUP3 PUSH2 0x68D JUMP JUMPDEST SWAP2 POP PUSH2 0xC05 DUP4 PUSH2 0x68D JUMP JUMPDEST SWAP3 POP DUP3 DUP3 MUL PUSH2 0xC13 DUP2 PUSH2 0x68D JUMP JUMPDEST SWAP2 POP DUP3 DUP3 DIV DUP5 EQ DUP4 ISZERO OR PUSH2 0xC2A JUMPI PUSH2 0xC29 PUSH2 0xB90 JUMP JUMPDEST JUMPDEST POP SWAP3 SWAP2 POP POP JUMP JUMPDEST PUSH32 0x4E487B7100000000000000000000000000000000000000000000000000000000 PUSH0 MSTORE PUSH1 0x12 PUSH1 0x4 MSTORE PUSH1 0x24 PUSH0 REVERT JUMPDEST PUSH0 PUSH2 0xC68 DUP3 PUSH2 0x68D JUMP JUMPDEST SWAP2 POP PUSH2 0xC73 DUP4 PUSH2 0x68D JUMP JUMPDEST SWAP3 POP DUP3 PUSH2 0xC83 JUMPI PUSH2 0xC82 PUSH2 0xC31 JUMP JUMPDEST JUMPDEST DUP3 DUP3 DIV SWAP1 POP SWAP3 SWAP2 POP POP JUMP INVALID LOG2 PUSH5 0x6970667358 0x22 SLT KECCAK256 PUSH17 0xBEBD69F9C69019ADE06A64BDD8C8261CD3 BYTE DUP3 CODECOPY 0xC1 0xE8 SDIV GASLIMIT 0xC8 0xE0 0x2E 0xEC 0x4C GT 0xA7 PUSH5 0x736F6C6343 STOP ADDMOD XOR STOP CALLER "
				},
				"gasEstimates": {
					"creation": {
						"codeDepositCost": "653600",
						"executionCost": "infinite",
						"totalCost": "infinite"
					},
					"external": {
						"calculateReward(uint256)": "infinite",
						"onERC721Received(address,address,uint256,bytes)": "infinite",
						"stakes(address,uint256)": "infinite",
						"staking(uint256)": "infinite",
						"unstake(uint256)": "infinite"
					},
					"internal": {
						"calculateRate(uint256)": "116"
					}
				},
				"methodIdentifiers": {
					"calculateReward(uint256)": "d2d7231f",
					"onERC721Received(address,address,uint256,bytes)": "150b7a02",
					"stakes(address,uint256)": "584b62a1",
					"staking(uint256)": "1dbb2a22",
					"unstake(uint256)": "2e17de78"
				}
			},
			"storageLayout": {
				"storage": [
					{
						"astId": 981,
						"contract": "contracts/StakeTokenStaking.sol:Staking",
						"label": "stakes",
						"offset": 0,
						"slot": "0",
						"type": "t_mapping(t_address,t_mapping(t_uint256,t_uint256))"
					}
				],
				"types": {
					"t_address": {
						"encoding": "inplace",
						"label": "address",
						"numberOfBytes": "20"
					},
					"t_mapping(t_address,t_mapping(t_uint256,t_uint256))": {
						"encoding": "mapping",
						"key": "t_address",
						"label": "mapping(address => mapping(uint256 => uint256))",
						"numberOfBytes": "32",
						"value": "t_mapping(t_uint256,t_uint256)"
					},
					"t_mapping(t_uint256,t_uint256)": {
						"encoding": "mapping",
						"key": "t_uint256",
						"label": "mapping(uint256 => uint256)",
						"numberOfBytes": "32",
						"value": "t_uint256"
					},
					"t_uint256": {
						"encoding": "inplace",
						"label": "uint256",
						"numberOfBytes": "32"
					}
				}
			},
			"userdoc": {
				"kind": "user",
				"methods": {},
				"version": 1
			}
		}
	}
}